:020000040800F2
:1000000000100020512000089920000899200008C5
:10001000992000089920000899200008000000009D
:10002000000000000000000000000000992000080F
:10003000992000080000000099200008992000087D
:100040009920000899200008992000085510000800
:10005000992000089920000899200008992000089C
:10006000992000089920000899200008992000088C
:10007000992000089920000899200008992000087C
:10008000992000089920000899200008000000002D
:10009000000000000000000000000000992000089F
:1000A000992000089920000899200008992000084C
:1000B0007122000899200008000000009920000823
:1000C00099200008000000000000000099200008AE
:1000D00000000000951700089920000800000000AB
:1000E00099200008992000089920000800000000CD
:1000F0000000000000000000000000000000000000
:1001000000000000000000000000000000000000EF
:10011000000000000000000099200008992000085D
:1001200000000000000000000000000000000000CF
:1001300000000000000000000000000000000000BF
:1001400000000000000000000000000000000000AF
:10015000000000000000000000000000000000009F
:10016000000000000000000000000000000000008F
:10017000000000000000000000000000000000007F
:10018000000000000000000000000000000000006F
:10019000000000000000000000000000000000005F
:1001A000000000000000000000000000000000004F
:1001B000000000000000000000000000000000003F
:1001C0000000000000000000000000005FF808F1DF
:1001D00010B5054C237833B9044B13B10448AFF381
:1001E00000800123237010BD2C00002000000000BF
:1001F0001827000808B5064B1BB106480649AFF39F
:1002000000800648036813B1054B03B1984708BD49
:100210000000000018270008300000202C000020FB
:100220000000000081F0004102E000BF83F00043C5
:1002300030B54FEA41044FEA430594EA050F08BF81
:1002400090EA020F1FBF54EA000C55EA020C7FEA45
:10025000645C7FEA655C00F0E2804FEA5454D4EBC2
:100260005555B8BF6D420CDD2C4480EA020281EA8C
:10027000030382EA000083EA010180EA020281EAC4
:100280000303362D88BF30BD11F0004F4FEA013116
:100290004FF4801C4CEA113102D0404261EB410125
:1002A00013F0004F4FEA03334CEA133302D05242AB
:1002B00063EB430394EA050F00F0A780A4F1010467
:1002C000D5F1200E0DDB02FA0EFC22FA05F28018A1
:1002D00041F1000103FA0EF2801843FA05F3594187
:1002E0000EE0A5F120050EF1200E012A03FA0EFC06
:1002F00028BF4CF0020C43FA05F3C01851EBE37130
:1003000001F0004507D54FF0000EDCF1000C7EEB4C
:1003100000006EEB0101B1F5801F1BD3B1F5001F8A
:100320000CD349085FEA30004FEA3C0C04F10104A9
:100330004FEA445212F5800F80F09A80BCF1004FD2
:1003400008BF5FEA500C50F1000041EB045141EA54
:10035000050130BD5FEA4C0C404141EB010111F455
:10036000801FA4F10104E9D191F0000F04BF014600
:100370000020B1FA81F308BF2033A3F10B03B3F1DE
:1003800020020CDA0C3208DD02F1140CC2F10C026E
:1003900001FA0CF021FA02F10CE002F11402D8BFCC
:1003A000C2F1200C01FA02F120FA0CFCDCBF41EA98
:1003B0000C019040E41AA2BF01EB0451294330BD67
:1003C0006FEA04041F3C1CDA0C340EDC04F1140444
:1003D000C4F1200220FA04F001FA02F340EA03001B
:1003E00021FA04F345EA030130BDC4F10C04C4F161
:1003F000200220FA02F001FA04F340EA0300294641
:1004000030BD21FA04F0294630BD94F0000F83F48A
:10041000801306BF81F480110134013D4EE77FEA6D
:10042000645C18BF7FEA655C29D094EA050F08BFB9
:1004300090EA020F05D054EA000C04BF194610469A
:1004400030BD91EA030F1EBF0021002030BD5FEADE
:10045000545C05D14000494128BF41F0004130BD06
:1004600014F580043CBF01F5801130BD01F000455A
:1004700045F0FE4141F470014FF0000030BD7FEACD
:10048000645C1ABF194610467FEA655C1CBF0B46C8
:10049000024650EA013406BF52EA033591EA030FDF
:1004A00041F4002130BD00BF90F0000F04BF0021D7
:1004B000704730B54FF4806404F132044FF000050A
:1004C0004FF0000150E700BF90F0000F04BF002183
:1004D000704730B54FF4806404F1320410F00045E9
:1004E00048BF40424FF000013EE700BF42004FEAE4
:1004F000E2014FEA31014FEA02701FBF12F07F4361
:1005000093F07F4F81F06051704792F0000F14BF5D
:1005100093F07F4F704730B54FF4607401F00045A1
:1005200021F0004120E700BF50EA010208BF7047F8
:1005300030B54FF000050AE050EA010208BF7047ED
:1005400030B511F0004502D5404261EB41014FF456
:10055000806404F132045FEA915C3FF4DCAE4FF05A
:1005600003025FEADC0C18BF03325FEADC0C18BF41
:10057000033202EBDC02C2F1200300FA03FC20FA92
:1005800002F001FA03FE40EA0E0021FA02F11444DF
:10059000C1E600BF70B54FF0FF0C4CF4E06C1CEAF4
:1005A00011541DBF1CEA135594EA0C0F95EA0C0F69
:1005B00000F0DEF82C4481EA030621EA4C5123EADC
:1005C0004C5350EA013518BF52EA033541F480110B
:1005D00043F4801338D0A0FB02CE4FF00005E1FBBE
:1005E00002E506F00042E0FB03E54FF00006E1FB08
:1005F00003569CF0000F18BF4EF0010EA4F1FF044B
:10060000B6F5007F64F5407404D25FEA4E0E6D418A
:1006100046EB060642EAC62141EA55514FEAC5209B
:1006200040EA5E504FEACE2EB4F1FD0C88BFBCF517
:10063000E06F1ED8BEF1004F08BF5FEA500E50F1C8
:10064000000041EB045170BD06F0004646EA01018E
:1006500040EA020081EA0301B4EB5C04C2BFD4EBC0
:100660000C0541EA045170BD41F480114FF0000EB9
:10067000013C00F3AB8014F1360FDEBF002001F027
:10068000004170BDC4F10004203C35DA0C341BDCA1
:1006900004F11404C4F1200500FA05F320FA04F073
:1006A00001FA05F240EA020001F0004221F00041A7
:1006B00010EBD37021FA04F642EB06015EEA430E1A
:1006C00008BF20EAD37070BDC4F10C04C4F120054A
:1006D00000FA04F320FA05F001FA04F240EA0200FD
:1006E00001F0004110EBD37041F100015EEA430ECE
:1006F00008BF20EAD37070BDC4F1200500FA05F2EE
:100700004EEA020E20FA04F301FA05F243EA02036C
:1007100021FA04F001F0004121FA04F220EA02007B
:1007200000EBD3705EEA430E08BF20EAD37070BDC1
:1007300094F0000F0FD101F00046400041EB0101A1
:1007400011F4801F08BF013CF7D041EA060195F083
:10075000000F18BF704703F00046520043EB03033D
:1007600013F4801F08BF013DF7D043EA060370472A
:1007700094EA0C0F0CEA135518BF95EA0C0F0CD035
:1007800050EA410618BF52EA4306D1D181EA03017B
:1007900001F000414FF0000070BD50EA410606BF75
:1007A0001046194652EA430619D094EA0C0F02D1BA
:1007B00050EA013613D195EA0C0F05D152EA0336FF
:1007C0001CBF104619460AD181EA030101F000411D
:1007D00041F0FE4141F470014FF0000070BD41F066
:1007E000FE4141F4780170BD70B54FF0FF0C4CF440
:1007F000E06C1CEA11541DBF1CEA135594EA0C0F5F
:1008000095EA0C0F00F0A7F8A4EB050481EA030EAB
:1008100052EA03354FEA013100F088804FEA033392
:100820004FF0805545EA131343EA12634FEA022260
:1008300045EA111545EA10654FEA00260EF0004121
:100840009D4208BF964244F1FD0404F5407402D273
:100850005B084FEA3202B61A65EB03055B084FEA04
:1008600032024FF480104FF4002CB6EB020E75EB01
:10087000030E22BFB61A754640EA0C005B084FEA29
:100880003202B6EB020E75EB030E22BFB61A7546A6
:1008900040EA5C005B084FEA3202B6EB020E75EBF1
:1008A000030E22BFB61A754640EA9C005B084FEA69
:1008B0003202B6EB020E75EB030E22BFB61A754676
:1008C00040EADC0055EA060E18D04FEA051545EA65
:1008D00016754FEA06164FEAC30343EA52734FEA0E
:1008E000C2025FEA1C1CC0D111F4801F0BD141EA87
:1008F00000014FF000004FF0004CB6E711F4801FEC
:1009000004BF01430020B4F1FD0C88BFBCF5E06FCB
:100910003FF6AFAEB5EB030C04BFB6EB020C5FEADB
:10092000500C50F1000041EB045170BD0EF0004E30
:100930004EEA113114EB5C04C2BFD4EB0C0541EA62
:10094000045170BD41F480114FF0000E013C90E65F
:1009500045EA060E8DE60CEA135594EA0C0F08BF23
:1009600095EA0C0F3FF43BAF94EA0C0F0AD150EA22
:1009700001347FF434AF95EA0C0F7FF425AF1046B5
:1009800019462CE795EA0C0F06D152EA03353FF4DD
:10099000FDAE1046194622E750EA410618BF52EA5A
:1009A00043067FF4C5AE50EA41047FF40DAF52EA2E
:1009B00043057FF4EBAE12E74A0011D212F50012A4
:1009C00011D20DD56FF47873B3EB62520ED44FEAA7
:1009D000C12343F0004343EA505323FA02F0704727
:1009E0004FF00000704750EA013002D14FF0FF3065
:1009F00070474FF00000704770B50D4D0D4E761BDF
:100A0000B61006D0002455F8043B01349847A6429E
:100A1000F9D1094D01F080FE084E761BB61006D0C4
:100A2000002455F8043B01349847A642F9D170BD23
:100A30003027000830270008302700083427000836
:100A40000F2AF0B498BF034631D941EA00039B074F
:100A500036D10C46034615462668103D1E60666872
:100A60005E60A6689E60E6681034DE6010330F2D6D
:100A7000F2D8A2F1100402F00F0224F00F04103497
:100A8000032A00EB0403214411D90E461D461446E7
:100A900056F8047B043C032C45F8047BF8D8141F5B
:100AA00002F0030224F00304043409191B192AB1CB
:100AB00011F8014B013A03F8014BF9D1F0BC704732
:100AC0000346F5E780EA0102844612F0030F4FD196
:100AD00011F0030F32D14DF8044D11F0040F51F80D
:100AE000043B0BD0A3F101329A4312F0803F04BFC4
:100AF0004CF8043B51F8043B16D100BF51F8044BAD
:100B0000A3F101329A4312F0803FA4F101320BD1DC
:100B10004CF8043BA24312F0803F04BF51F8043B61
:100B20004CF8044BEAD023460CF8013B13F0FF0FBE
:100B30004FEA3323F8D15DF8044B704711F0010FF1
:100B400006D011F8012B0CF8012B002A08BF7047C2
:100B500011F0020FBFD031F8022B12F0FF0F16BFB9
:100B60002CF8022B8CF8002012F47F4FB3D1704781
:100B700011F8012B0CF8012B002AF9D1704700BFA6
:100B8000024B98801A885206FCD5704700440040FA
:100B90001FB518220421104801F0DCFA01214FF49E
:100BA000003001F0A5F80D4C4FF4E1330093002321
:100BB000ADF80430ADF80630ADF80830ADF80C30C3
:100BC000204608236946ADF80A3001F0BBF92046FB
:100BD000012101F00FFA1FBD000801400044004050
:100BE00070B5134D8AB001AC0E460FCD0FC40FCDBA
:100BF0000FC42B682360002423460DE00130C0B2EF
:100C0000B61A9642FAD2302800D113B1FFF7B8FFD6
:100C100001230434242C03D001AAA2583020F0E789
:100C20003036F0B20AB0BDE87040FFF7A9BF00BF90
:100C3000CC240008002938B504460D4604DA2D20DE
:100C4000FFF79EFF6D4202E02020FFF799FF20464C
:100C50002946BDE83840FFF7C3BF092802D8303025
:100C6000C0B270473730C0B2704711F07F4310B543
:100C70000C460BD0080FFFF7F0FFFFF781FFC4F31E
:100C80000360FFF7EAFFFFF77BFF012314F47F0FF8
:100C900000D163B1C4F30350FFF7DFFFFFF770FF2C
:100CA000C4F30340FFF7D9FFFFF76AFF012314F4F1
:100CB0007F4F00D15BB1C4F30330FFF7CEFFFFF7E6
:100CC0005FFFC4F30320FFF7C8FFFFF759FFC4F32A
:100CD0000310FFF7C2FFFFF753FF04F00F00FFF709
:100CE000BCFFBDE81040FFF74BBFF8B505460C460A
:100CF0001746002607E0A15D2846FFF7B6FF202033
:100D0000FFF73EFF0136BE42F5D1F8BD0EB4F3B594
:100D100007AB53F8046B0446019305E0252805D181
:100D2000002D52D0FFF72CFF00254FE0002D49D0B9
:100D3000632804D1019B1A1D01921878F2E77528E7
:100D400007D1019B20461A1D19680192FFF748FF41
:100D5000EAE7692807D1019B20461A1D196801920C
:100D6000FFF768FFE0E7582807D1019B20461A1DCE
:100D700019680192FFF779FFD6E7A0F173014D42A0
:100D800045EB0105532808BF45F0010565B1019BFE
:100D90001A1D01921F6801E0FFF7F2FE17F8010B20
:100DA0000028F9D1054611E041280FD1019B2046CA
:100DB0001A1D01921A4652F8081B01925A68FFF751
:100DC00094FF03E0FFF7DCFE00E0012516F8010BBD
:100DD0000028A3D1BDE8FC4003B0704710B508203F
:100DE0000C4600F0D1FDE070C0F30F2020710C2004
:100DF00000F0CAFD6071102000F0C6FDA07100F087
:100E0000BDFF4FF46163B0FBF3F103FB11003C2223
:100E1000B0FBF2F3637002FB13032170A37010BDEB
:100E20004FF4C873B1FBF3F203FB12139BB263B12F
:100E30006423B1FBF3F003FB101080B230B111F06A
:100E4000030F14BF002001207047012070470000ED
:100E5000A2F1040C70B51E46DCF1000343EB0C0359
:100E6000062A08BF43F001030C4615464BB9A2F110
:100E700009014B4243EB01030B2A08BF43F0010376
:100E80000BB11F2E1AD0A5F102014B42A6F11F0C87
:100E900043EB0103DCF1000242EB0C021E2E08BF03
:100EA00042F00102134209D11D2E14BF002303F0AA
:100EB00001034BB12146FFF7B3FF28B909480A499E
:100EC000BDE87040FFF722BF0820214600F04EFD2C
:100ED0000C20294600F04AFD10203146BDE8704044
:100EE00000F044BD480000202725000837B5032343
:100EF00001248DF804300546002301A88DF8063042
:100F00008DF805408DF8074000F060FC21464FF059
:100F1000C05000F0EDFE204600F052FE042000F02C
:100F200033FD4AF2A55398421A4825D01A49FFF7D3
:100F3000EDFE00F012FD204600F05CFE412000F0C6
:100F4000E9FE0028FAD04FF4807000F063FE012023
:100F500000F068FE00F044FF00F03AFF47F6FF7033
:100F600000F026FF00F034FF284640F2DC71062234
:100F70001623FFF76DFF06E00849FFF7C7FE00F0F4
:100F80002FFF00F025FF0120014600F0D7FE00F002
:100F90001FFF3EBD480000203325000844250008FF
:100FA000F8B50746082000F0EFFC06460C2000F0DC
:100FB000EBFCC5B2102000F0E7FC022DC4B214D146
:100FC0001B2C2BD91C2C0BD138463146FFF728FFA0
:100FD00000280CBF01241D2414BF022503252AE08C
:100FE0001D2C28D10124032525E0A5F104014B4245
:100FF00043EB0103062D08BF43F001034BB9A5F1F4
:101000000902534243EB02030B2D08BF43F00103D7
:1010100013B11D2C07D801E01E2C02D80134E4B214
:1010200009E00C2D03D00135EDB2012403E00136B7
:101030000124B6B225460820314600F097FC0C206A
:10104000294600F093FC10202146BDE8F84000F04E
:101050008DBC000008B5012000F0D0FEB8B1012021
:1010600000F0DEFE0A4B0822C3F8802100F086FE65
:10107000084B98420BD100F0ABFE002000F088FE38
:101080000548FFF78DFFBDE8084000F0A1BE08BD90
:1010900000E100E07F5101004900002010B5104A36
:1010A000104B128890B01B8800920F4A0F491268AB
:1010B0000F4C01920F4A04A8126802920E4A01F0E6
:1010C00082F904A800F046FB20460C49FFF7FAFC21
:1010D0000B480C492246FFF719FE10B010BD00BFA7
:1010E000EAF7FF1FE8F7FF1FECF7FF1F5225000884
:1010F00068000020F0F7FF1F61250008C0040020F1
:101100004800002067250008002310B5037104463D
:1011100000F034FE3C38206010BD000008B500200F
:1011200000F054FD00F0E2FF1C4B99699A6942F00F
:1011300001029A611A4A506820F0E06040F00070A5
:101140005060CA0758BF9A6916485CBF22F0010276
:101150009A6101F035F83F21124801F07BF81248FE
:10116000FFF716FD1048114940F2E932FFF7CEFDB6
:101170000F4B1048022258601A800421102200F000
:10118000E9FF0D48FFF7B2FE0C4800F09DF9FFF7AC
:1011900085FF0B48BDE80840FFF7B6BF00100240CE
:1011A000000001407C090020480000207425000850
:1011B000540000200014014049000020C403002016
:1011C0004C00002008B5FFF7A9FF034801F066F9BD
:1011D000024800F001F9F8E754000020C4030020A1
:1011E00038B50D4C054629460C48FFF7F7FD94F835
:1011F0003103112202FB00402946FFF721FC94F83D
:1012000031330133DBB22F2B84F8313302D9002381
:1012100084F8313338BD00BF910000204900002020
:1012200030B54FF4804087B000F0DAFC01214FF474
:10123000007000F051FD01200146184C00F040FD07
:10124000174DF3210022174800F084FF20463F216C
:10125000002200F07FFF28460121002200F07AFFE3
:101260002846102240F6FC7100F074FF2046C02191
:10127000102200F06FFF4FF4602101230022039140
:10128000094801A901928DF808308DF809300492BF
:101290008DF8143000F0CAFA07B030BD00100140DC
:1012A000000C0140000801400024014010B500215D
:1012B00004468CB0434800F0E6FA0021414800F0B3
:1012C000D9FAA37C0133DBB2082BA37401D9002324
:1012D000A3743D4800F068FB3C4B402204928022FE
:1012E0000193069204F114034FF480720293079263
:1012F00000234FF48062344801A9039305930892B8
:1013000009930A930B9300F0CDFB2F48012100F0C5
:10131000E7FBA37C2E4AD35C0C2B35D8DFE803F027
:10132000070A0E1116191C1F2225282B2E002548EE
:10133000002125E0012123480A4622E0214804211A
:101340001EE005211F4801220B461BE01D48062117
:1013500016E01C48072113E01A480A2110E019483A
:101360000B210DE017480C210AE016480D2107E07B
:1013700014480E2104E013480F2101E01148082110
:101380000122052300F0A3FA0E48012100F07BFAA8
:101390000C48012100F06EFA0A4800F07DFA094875
:1013A00000F07FFA0028FAD1064800F07EFA0548DE
:1013B00000F080FA0028FAD10248012100F07EFAFC
:1013C0000CB010BD00240140080002404C24014034
:1013D000FF2600080000000070B50446022000F05F
:1013E0008BFB002831D000231D46E218928A02337D
:1013F000802B1544F9D1A37C2B4AD35C0C2B21D133
:101400002A4B9B68DB0419D4E37B227C53EA02223B
:1014100005D10123637426482649FFF777FCA80904
:10142000FFF742F81EA3D3E90023FFF7B3F8FFF755
:10143000C3FA80B2E073000A207403E0637C0BB946
:10144000E37323742046FFF731FF637CCBB11A4866
:101450001A494DF2F02200F0F3FE90B100236374BC
:101460002046FFF7BDFE012384F8943070BD00F0E4
:1014700085FCB0FBF6F620462E70BDE87040FFF705
:10148000AFBE00F07BFC0E4D4FF46166B0FBF6F092
:101490002B78C0B28342EAD170BD00BFAFF30080A9
:1014A000D2F1E20EE5350840FF260008000C0140AD
:1014B00048000020F32600087C0900205C0400207E
:1014C00000000020AFF3008010B54FF480510446B7
:1014D0000422084800F03EFE002384F89430637430
:1014E0002046FFF79DFE09232046A374BDE8104067
:1014F000FFF7DCBE000C0140084B00225A619A61E4
:10150000DA65074A1A6002F188325A60054A9A6021
:10151000A2F18832DA60044A1A6170476004002040
:1015200001234567FEDCBA98F0E1D2C32DE9F04F04
:10153000594BD3B0002102AA587F1C7F000440EA17
:101540000460DC7F20439C7F043340EA0420885001
:1015500004314029F0D11346002110465D6B1C6A0E
:101560006C400D5804316C409D686C404FEAF47437
:101570001C640433B1F5807FF0D1474BD868D3F8B1
:1015800000C05F689E681B69009001931D468046FD
:10159000B14639466346002004E04546C8468946C0
:1015A000194623463D4C00F1080BEA462C195BF81E
:1015B0000A5004EBF364641928EA010A09EA0105F8
:1015C00004304AEA050550282C444FEAB101E4D121
:1015D00015AD02F19C0A04E0C84689461946234627
:1015E00004462F48404481EA030800EBF46088EA8F
:1015F0000908804455F8040F4FEAB30355454044A9
:10160000EAD129AD02F1EC0B04E0894619462346E4
:1016100004464046DFF88CA001EA0308CA4441EAC8
:10162000030909EA040949EA080855F8049F0AEB86
:10163000F06AD0445D45C8444FEAB404E5D13DADFD
:1016400002F59E7204E01946234604464046C84609
:10165000DFF85490894484EA0001594009EBF869A5
:10166000894455F8041F4FEAB00095428944EAD1F5
:10167000094A09EB0C01DDF804A0116000995344FC
:101680004744801964181361002357609060D46048
:10169000D36553B0BDE8F08F600400209979825A79
:1016A000A1EBD96EDCBC1B8FD6C162CA1C4A08B53F
:1016B000D36D8020D118013308770021382BD365F2
:1016C00003D807E0D018017701333F2BFAD9D3654F
:1016D000FFF72CFF124B0021DA6D02E0981801771A
:1016E0000132372AFAD9DA659A69110E83F8541053
:1016F000110C83F8551083F85720110A5A6983F8A2
:101700005610110E83F85810110C83F85910110A55
:1017100083F85A1083F85B20BDE80840FFF706BF46
:10172000600400201FB5FFF7C1FF074B07499A6807
:1017300007480092DA6801921A6902920CCB00F015
:1017400042FE05B000BD00BF60040020082700086D
:10175000C004002038B505460D4CFFF7CDFE0FE064
:10176000E26DA1180B77531C6269E3650832626170
:1017700012B9A2690132A261402B01D1FFF7D6FE56
:1017800015F8013B002BEBD1BDE83840FFF7CABF8D
:101790006004002010B50B4C40F22551204600F0AB
:1017A00035FC70B1084BA088D3F8FC2199180132A0
:1017B000B2F5FC7F4870C3F8FC2102D10022C3F8C7
:1017C000FC2110BD00380140EC040020C37810B5A6
:1017D000E3B1144B4178DB688478DB43C3F3022325
:1017E000C3F1040291400F22DA4022400A430E4B1B
:1017F00001781201CB18D2B283F8002303780122BA
:10180000590903F01F0312FA03F307E003780122DA
:10181000590903F01F0312FA03F32031024A42F878
:10182000213010BD00ED00E000E100E043680A68EF
:1018300023F4702323F4807313430A7910B543EA29
:10184000022343608A68CB6884681A43084B2340AC
:1018500013434A7943EA420383600B7CC26A013B2B
:1018600022F47002DBB242EA0353C36210BD00BF30
:10187000FDF7F1FF836811B143F0010301E023F0AC
:10188000010383607047836811B143F4807301E002
:1018900023F4807383607047836843F00803836098
:1018A00070478068C0F3C0007047836843F004034A
:1018B000836070478068C0F380007047836811B10F
:1018C00043F4A00301E023F4A003836070470929D7
:1018D00070B54FF003040BD94C4307251E3CA540BF
:1018E000A340C66826EA050545EA0304C4600AE089
:1018F0004C430725A54013FA04F4066926EA0505BA
:1019000045EA04030361062A4FF005030BD8013AA8
:1019100053431F229A4011FA03F3446B24EA020254
:101920001343436370BD0C2A0BD853431F22233B40
:101930009A409940046B24EA020242EA01030363DD
:1019400070BD53431F22413B9A409940C46A24EA28
:10195000020242EA0103C36270BD012008B500F033
:10196000D3F90020BDE8084000F0CEB982B00023D2
:101970000193044B0193019BC0180190019B1960D6
:1019800002B07047006C004082B000230193054B09
:101990000193019BC0180190019B188880B202B08E
:1019A000704700BF006C004002684FF6FE731340A2
:1019B00003600023036043608360C3602D4B984243
:1019C00029D02D4B984230D02C4B984237D02C4BFD
:1019D00098423ED02B4B984206D153F8542C42F4F7
:1019E000702243F8542C7047274B984206D153F885
:1019F000682C42F4700243F8682C7047234B9842DD
:101A000006D153F87C2C42F0706243F87C2C70476E
:101A10001F4B984206D153F8042C42F00F0243F8B2
:101A2000042C70471B4B984206D153F8182C42F0F7
:101A3000F00243F8182C7047174B984206D153F820
:101A40002C2C42F4706243F82C2C7047134B9842B4
:101A500006D153F8402C42F4704243F8402C7047B2
:101A60000F4B984202BF53F8542C42F4702243F8B3
:101A7000542C7047080002401C0002403000024015
:101A800044000240580002406C00024080000240C6
:101A9000080402401C040240300402404404024096
:101AA000580402408B6810B50C6A026823430C6925
:101AB00022F4FE4223434C6922F0F00223438C6956
:101AC0002343CC6923434C6A23438C6A2343134347
:101AD0000360CB6843600B6883604B68C36010BDD4
:101AE00019B1036843F0010303E002684FF6FE7387
:101AF0001340036070470000C3004CBF034B044B0E
:101B00001B6803420CBF0020012070470004024004
:101B100000000240CB782DE9F04303F00F02DB0612
:101B200048BF8B780E8848BF1A4316F0FF0F1FD0AE
:101B3000046800234FF001084FF00F0C08FA03F778
:101B400007EA0605BD420FD19F000CFA07F912FA09
:101B500007F724EA09043C43CF78282F08BF4561E2
:101B600002D0482F08BF05610133082BE6D104607D
:101B70000E88FF2E21D9446800234FF001084FF052
:101B80000F0C03F1080708FA07F707EA0605BD423C
:101B90000FD19F000CFA07F912FA07F724EA09049B
:101BA0003C43CF78282F08BF456102D0482F08BF9B
:101BB00005610133082BE4D14460BDE8F0830000E7
:101BC000014B1860704700BF20000E42034B5A685B
:101BD00022F0F00210435860704700BF001002402E
:101BE000034B5A6822F4404210435860704700BFCC
:101BF00000100240064B002201281A701A7002D011
:101C0000042804D101E01870704705221A7070474B
:101C100020100240024B1A6A10431862704700BF3E
:101C200000100240014B1860704700BF3C04424264
:101C300010B51E4B5A6802F00C02042A01D0082A83
:101C400002D01B4B036011E05A685968C2F383420B
:101C50000232C90358BF174B06D5DB6A144903F09B
:101C60000F030133B1FBF3F35A4302600F4B1249E8
:101C70005A680468C2F303128A5C34FA02F24260C2
:101C80005C68C4F302240C5D32FA04F484605C687E
:101C9000C4F3C224095DCA40C2605B680749C3F34C
:101CA0008133CB5CB2FBF3F2026110BD0010024045
:101CB00000127A0000093D0005000020010000200C
:101CC000044B5A6909B1104301E022EA000058614F
:101CD000704700BF00100240044B9A6909B11043DD
:101CE00001E022EA00009861704700BF0010024046
:101CF000044BDA6909B1104301E022EA0000D8611F
:101D0000704700BF00100240014B1860704700BFD1
:101D1000400442424309084A012B08BF136803D01C
:101D2000022B0CBF136A536A00F01F0033FA00F055
:101D300000F00100704700BF00100240044B1A88F9
:101D400092B209B1104301E022EA00001880704706
:101D500000280040034B9A8892B242F010029A8009
:101D6000704700BF00280040034A938823F0100307
:101D70001B041B0C9380704700280040034B988B7A
:101D80001B8B80B240EA0340704700BF0028004030
:101D900010B50446FFF7DEFF044B220CA4B21A83F1
:101DA0009C83BDE81040FFF7DFBF00BF0028004064
:101DB00010B50446FFF7CEFF044BC4F30342A4B2B0
:101DC0001A819C81BDE81040FFF7CEBF002800407B
:101DD000024B9A889206FCD5704700BF002800404D
:101DE000054A938823F008031B041B0C93809388F7
:101DF0001907FCD5704700BF00280040074B9A88A0
:101E00001B8892B2034006D0104010F0FF0F0CBFA9
:101E10000020012070471846704700BF002800408E
:101E2000034B9A8892B222EA00009880704700BF64
:101E3000002800402B4A30B5C2EB000CDCF1000258
:101E4000294C038842EB0C02A04208BF42F0010279
:101E50009BB2C2B9A0F180456C4244EB0504234D0E
:101E6000A84208BF44F001046CB9214C05F5006597
:101E7000C4EB000CDCF1000444EB0C04A84208BFE6
:101E800044F001041CB14C8823F070032343194C27
:101E9000194D041B18BF0124A8420CBF002404F0F4
:101EA000010424B123F44073CC889BB22343038004
:101EB0008B8883850B8803857AB9104B104AC3EB56
:101EC000000CDCF1000343EB0C03904208BF43F02D
:101ED000010313B90B4B984201D10B7A03860123FE
:101EE000838230BD002C01400034014000040040DA
:101EF0000008004000100040001400400040014075
:101F00000044014000480140038819B19BB243F0EE
:101F1000010303E023F001031B041B0C0380704743
:101F200083899BB20AB1194301E023EA010181814F
:101F30007047C94389B201827047C94389B201829F
:101F40007047000030B5038ACA8823F440531B044D
:101F50001B0C134303820D4683890989AA8823F445
:101F6000B0530A43698923F00C030A431B041B0C7A
:101F700092B213438381838AAA8923F440731B049A
:101F80001B0C87B013430446838201A8FFF750FE61
:101F9000174BA2899C420CBF049B039B12B2002AE0
:101FA0004FF019012A6801FB03F101DA520000E049
:101FB00092006423B1FBF2F1B1FBF3F212011009BC
:101FC00003FB1011A08900B2002806DAC9003231E3
:101FD000B1FBF3F303F0070305E009013231B1FB74
:101FE000F3F303F00F031A4392B2228107B030BD1E
:101FF00000380140838919B19BB243F4005303E0D8
:1020000023F400531B041B0C8381704710B501F0AF
:102010001F030122C1F342149A40012C08BF838997
:1020200003D0022C0CBF038A838A9BB21340090A97
:10203000012212FA01F1028892B211420CBF002073
:102040000120002B0CBF002000F0010010BD00009B
:10205000002103E00B4B5B58435004310A480B4B03
:1020600042189A42F6D30A4A02E0002342F8043B9F
:10207000084B9A42F9D300F011F8FEF7BDFCFFF7C8
:10208000A1F8704738270008000000202C0000202D
:102090002C00002080090020FEE70000104B1A6889
:1020A00042F001021A6059680E4A0A405A601A68E2
:1020B00022F0847222F480321A601A6822F480229C
:1020C0001A605A6822F4FE025A604FF41F029A60A6
:1020D0000022DA62044B4FF000629A60704700BF42
:1020E000001002400000FFF800ED00E0144A154B1C
:1020F000516801F00C01042901D0082902D0124ACC
:102100001A6011E051685068C1F383410231C00385
:1021100058BF0E4A06D5D26A0B4802F00F020132B0
:10212000B0FBF2F251431960054B094A5B68C3F3F7
:102130000313D25C034B196831FA02F21A6070473C
:10214000001002402800002000127A0000093D0023
:1021500015000020184B73B5044604209C420D4620
:1021600016460ED003F5806308209C4209D003F583
:10217000806310209C4204D0104884420CBF202071
:102180000020A6F11C02534243EB0203182E08BFA5
:1021900043F001030BB140F001000121FFF79CFD6A
:1021A0000323204601A98DF80630ADF804508DF8C0
:1021B0000760FFF7AFFC7CBD000801400014014040
:1021C00030B585B001241C23002503A88DF80C3000
:1021D0008DF80D408DF80E508DF80F40FFF7F6FA90
:1021E00020462146FFF784FD6422ADF80420124A00
:1021F0004FF080401168114AADF80250B1FBF2F285
:10220000013A6946ADF80020ADF806508DF8085047
:10221000FFF710FE21464FF08040FFF775FE214684
:102220004FF08040FFF785FE4FF080402146224668
:10223000FFF776FE05B030BD28000020A086010023
:1022400003680868181A904202D30B600120704797
:1022500000207047054B1A6842F21073B2FBF3F38B
:1022600059430B460139002BFBD170472800002051
:1022700008B54FF080400121FFF75FFE024B1A685E
:1022800001321A6008BD00BF7C0900202DE9F04131
:10229000174D8AB001AC06468846944617680FCDA4
:1022A0000FC40FCD0FC42B68684623600023194666
:1022B00011E00132D2B2361BA642FAD2302A04D142
:1022C00019B9C3F10904444502DA07F8012B0121C9
:1022D0000133092B03D050F8044F3022ECE730369D
:1022E00007F8016BCCF800700AB0BDE8F08100BFC0
:1022F000F0240008002810B505DA13682D2403F82F
:10230000014B40421360BDE81040FFF7BFBF0B68B0
:1023100001E003F8012B10F8012B002AF9D10B6022
:102320007047092802D83030C0B270473730C0B289
:10233000704710F07F4FF8B50CBF0023012306292A
:1023400088BF43F0010304460D461746166853B193
:10235000000FFFF7E6FF3070C4F30360FFF7E1FF03
:1023600001237070023614F47F0F02D10BB9042DD3
:102370000BD9C4F30350FFF7D4FF3070C4F303400C
:10238000FFF7CFFF01237070023614F47F4F02D1A4
:102390000BB9022D0AD9C4F30330FFF7C2FF307026
:1023A000C4F30320FFF7BDFF70700236C4F30310BF
:1023B000FFF7B7FF307004F00F00FFF7B2FF707047
:1023C00002363E60F8BD0EB410B585B007AB53F8C9
:1023D000044B01900393002255E0252B06D1002ADF
:1023E0004FD0019A02F8013B019243E0002A43D00A
:1023F00061783039C9B2092901D8013400E00021DF
:10240000632B08D1039B1A1D03921A68019B03F8E2
:10241000012B01932EE0752B07D1039B1A1D03920C
:10242000186801AAFFF732FF24E0692B07D1039B4C
:102430001A1D0392186801AAFFF75CFF1AE0582BD7
:1024400007D1039B1A1D0392186801AAFFF771FFB9
:1024500010E0A3F173014A4242EB0102532B08BF83
:1024600042F0010272B1039B01A91A1D0392186880
:10247000FFF74DFF002205E0019901F8013B0191B2
:1024800000E0012201342378002BA6D1019A1370B9
:10249000019805B0BDE8104003B07047037C10B54B
:1024A00004467BB100F10801E2680748FFF7C8FE67
:1024B00040B12288012111FA02F2002323746368DB
:1024C00092B25A6110BD00BF7C09002000CA9A3B3D
:1024D00000E1F5058096980040420F00A0860100BB
:1024E00010270000E8030000640000000A0000005C
:1024F00000CA9A3B00E1F5058096980040420F0023
:10250000A086010010270000E8030000640000001E
:102510000A00000025752D25752D25752025753A95
:1025200025753A25750D0057726F6E6720646174CA
:10253000650D0054696D65206973206E6F7420739A
:1025400065740D0054696D65206973206865726556
:102550000D0025532558342558342558382558382A
:10256000004D696E796100486F73744B65793A204C
:1025700025530D000D5661756C74204B65657065B3
:1025800072310D486F737449443A2025750D00521D
:102590006563656976696E672054696D652E2E2EB8
:1025A0000D007661756C746B65657065722E727561
:1025B000002F726571756573742E7068703F746951
:1025C0006D65004E65772074696D653A2000546929
:1025D0006D6520746F2073656E64207265706F7214
:1025E000740D005265706F7274206E657720707282
:1025F0006F626C656D0D003D3D3D3D2053656E6421
:10260000696E67207265706F7274203D3D3D3D209C
:102610000025752E25752C00622E257500457272D9
:102620006F72733A2025530D00686F73745F69648D
:102630003D25752677617465725F76616C75653DC1
:1026400025752674696D653D257525752575257576
:1026500025752575266572726F72733D2553266840
:102660006F73745F6B65793D255300446174613A03
:102670002025530D00486173683A2025530D0068EA
:102680006F73745F69643D25752677617465725F49
:1026900076616C75653D25752674696D653D25759A
:1026A00025752575257525752575266572726F72D8
:1026B000733D255326686F73745F686173683D25A9
:1026C0005300546F2073656E643A2025530D002F1C
:1026D000726571756573742E706870003D3D3D3D87
:1026E000205265706F72742073656E74203D3D3D9D
:1026F0003D0D004E6F20657874207077720D0004D8
:1027000005060708090A0B0C25583825583825589E
:102710003825583825583800F8B500BFF8BC08BC33
:102720009E467047F8B500BFF8BC08BC9E4670478F
:04273000F5010008A7
:04273400D1010008C7
:102738001B02040608000000000102030401020352
:102748000406070809000000000000000001020359
:0C275800040607080900000000127A00C7
:04000005080020517E
:00000001FF
