:020000040800F2
:1000000000C00020493700088D3700088D370008F0
:100010008D3700088D3700088D370008000000007C
:100020000000000000000000000000008D37000804
:100030008D370008000000008D3700088D3700085C
:100040008D3700088D3700088D3700088D37000880
:100050008D3700088D3700088D3700088D37000870
:100060008D3700088D3700088D3700088D37000860
:100070008D3700088D3700088D3700088D37000850
:100080008D3700088D3700088D3700088D37000840
:100090008D3700088D3700088D3700088D37000830
:1000A0008D3700088D3700088D3700088D37000820
:1000B0005D4600088D3700088D3700088D37000831
:1000C0008D3700088D3700088D3700088D37000800
:1000D0008D3700088D3700080D2100088D37000886
:1000E0008D3700088D3700088D3700088D370008E0
:1000F0008D3700088D3700088D3700088D370008D0
:100100008D3700088D3700088D3700088D370008BF
:100110008D3700088D3700088D3700088D370008AF
:100120008D3700088D3700088D3700088D3700089F
:1001300000000000000000000000000000000000BF
:1001400000000000000000000000000000000000AF
:10015000000000000000000000000000000000009F
:10016000000000000000000000000000000000008F
:10017000000000000000000000000000000000007F
:10018000000000000000000000000000000000006F
:10019000000000000000000000000000000000005F
:1001A000000000000000000000000000000000004F
:1001B000000000000000000000000000000000003F
:1001C000000000000000000000000000000000002F
:1001D000000000000000000000000000000000001F
:0401E0005FF8E0F1F3
:1001E80010B5054C237833B9044B13B10448AFF369
:1001F80000800123237010BD4C0400200000000083
:100208002450000808B5064B1BB106480649AFF351
:1002180000800648036813B1054B03B1984708BD31
:100228000000000024500008500400204C04002066
:10023800000000000F2AF0B498BF034631D941EA04
:1002480000039B0736D10C46034615462668103D29
:100258001E6066685E60A6689E60E6681034DE60B0
:1002680010330F2DF2D8A2F1100402F00F0224F07F
:100278000F041034032A00EB0403214411D90E465D
:100288001D46144656F8047B043C032C45F8047BB1
:10029800F8D8141F02F0030224F0030404340919E7
:1002A8001B192AB111F8014B013A03F8014BF9D196
:1002B800F0BC70470346F5E7C9B2F0B4002947D04F
:1002C800820711D00378002B6ED099421CBF0246DA
:1002D800104606D13AE012F8013F002B64D099424B
:1002E80034D001308307F6D1036841EA0127A3F12E
:1002F800013247EA074722EA030212F0803F1CD185
:100308007B40A3F1013222EA030313F0803F14D1AA
:10031800044602E012F0803F0FD154F8043F043045
:10032800A3F1013687EA030226EA0303A2F10135A5
:1003380013F0803F25EA0202ECD0037823B933E0BA
:1003480043780130002B2FD09942F9D1F0BC704787
:1003580083070BD00378002BF8D0024603E012F88D
:10036800013F002BF2D001308107F8D10368024623
:10037800A3F1013121EA030313F0803F0AD10146BA
:1003880051F8043F0432A3F1013020EA030313F0CB
:10039800803FF5D013781046002BD7D012F8013FD4
:1003A8000130002BFAD1D1E71846CFE780EA0102E5
:1003B80012F0030F3AD110F0030220F0030021F0ED
:1003C800030150F804CB08BF51F8043B0DD082F06C
:1003D80003024FEAC2026FF07F4323FA02F251F898
:1003E800043B4CEA020C43EA020300BFACF10132C1
:1003F8009C4501BF22EA0C0212F0803F50F804CB62
:1004080051F8043BF2D04FEA0C604FEA1C2C01284B
:1004180028BFB0EB036F08BF1B0AF4D003F0FF033B
:100428004FEA1060A0EB0300704700BF10F0030F05
:100438000AD010F8012B11F8013B012A28BF9A4273
:10044800F4D0A2EB030070474DF8045D4DF8044D5D
:100458004FF0010242EA022242EA024201F0030C92
:1004680021F0030150F8044B51F8045BBCF1020F72
:1004780026D04BD824F07F4CBCEB152FA4EB0203FD
:1004880023EA04030DD113EAC21308BF51F8045B31
:100498000AD18CEA040CBCEB056F0CD150F8044B64
:1004A800E8E74FEA15255CE033F07F4352D10D7839
:1004B8004FEA146C55E04FEA146C05F0FF0550E064
:1004C8004FEA044CA4EB02034FEA1C4C23EA040352
:1004D800BCEB154F17D113EAC21308BF51F8045BE0
:1004E80007D18CEA040CBCEB054F08D150F8044B3B
:1004F800E6E71B042ED10D884FEA144C31E04FEA91
:1005080005454FEA144C4FEA15452AE004F0FF0C64
:10051800BCEB156FA4EB020323EA04030DD113EA25
:10052800C21308BF51F8045B0AD18CEA040CBCEB77
:10053800052F0AD150F8044BE8E74FEA156510E09B
:1005480014F0FF0F06D051F8045B4FEA142C25F085
:100558007F4506E04FF000005DF8044B5DF8045B52
:1005680070470CF0FF0205F0FF00012828BF9042F9
:1005780004BF4FEA1C2C2D0AF3D0A2EB00005DF853
:10058800044B5DF8045B704780EA0102844612F070
:10059800030F4FD111F0030F32D14DF8044D11F074
:1005A800040F51F8043B0BD0A3F101329A4312F027
:1005B800803F04BF4CF8043B51F8043B16D100BF00
:1005C80051F8044BA3F101329A4312F0803FA4F191
:1005D80001320BD14CF8043BA24312F0803F04BF18
:1005E80051F8043B4CF8044BEAD023460CF8013B85
:1005F80013F0FF0F4FEA3323F8D15DF8044B70472F
:1006080011F0010F06D011F8012B0CF8012B002A6C
:1006180008BF704711F0020FBFD031F8022B12F05B
:10062800FF0F16BF2CF8022B8CF8002012F47F4F16
:10063800B3D1704711F8012B0CF8012B002AF9D11E
:10064800704700BF20F0030110F00300C0F1000064
:1006580051F8043B00F1040C4FEACC0C6FF0000297
:100668001CBF22FA0CF213434FF0010C4CEA0C2C7D
:100678004CEA0C4CA3EB0C0222EA030212EACC125D
:1006880004BF51F8043B0430F4D013F0FF0F1FBF30
:10069800013013F47F4F013013F47F0F18BF01307E
:1006A800704700BFF0B4002A21D0124B07461E68DD
:1006B80002E0D3B1013A18D017F8013B11F8015BF9
:1006C800F0181C46407800F00300012806EB0500EE
:1006D80008BF03F120042B46407800F003000128EE
:1006E80008BF05F12003E01AE3D0F0BC70471046BC
:1006F800FBE700BF300400202DE9F04F85B01F460E
:100708008C4602920B46534A039016681A460133E8
:100718001D461478311991F801B01BF0080BF5D17A
:100728002D2C73D02B2C04BF5478951CD7F10103C2
:1007380038BF0023102F14BF1A4643F001023AB104
:10074800302C73D023B10827302CB94601D00A27A2
:10075800B946BBF1000F49460CBF6FF0004A4FF095
:10076800004ACDF804C0504600F0B0F9504688461B
:10077800494600F07DF833190022DDF804C05B78A3
:10078800114613F0040F1ED0303CA74225DD8142EC
:1007980094BF0023012353EAD2722DD10A1A53427F
:1007A80043EB02034445D4BF002303F00103002BAD
:1007B80022D109FB014115F8014B012233195B785D
:1007C80013F0040FE0D113F0030306D0012B14BF7C
:1007D80057233723E41AA742D9DC531C1BD00846F9
:1007E800BBF1000F10D1029B1BB152B90299C1F89D
:1007F80000C005B0BDE8F08F4FF0FF3215F8014B8F
:10080800DCE705F1FF3CF1E74842ECE75478951C3A
:100818004FF0010B8AE70399BBF1000F0CBF6FF093
:1008280000404FF0004022230B60DCE72A78A2F159
:100838007800414241EB0001582A14BF0A4641F0B2
:100848000102002A3FF47EAF10276C78B9460235C2
:100858007FE700BF3004002030B440F20004C2F249
:1008680000040D46134601462A46206830BC43E77B
:100878004A1E08BF7047C0F02481884240F21681A2
:10088800114200F01781B0FA80F3B1FA81F2A2EBBD
:100898000303C3F11F0304A202EB03134FF000028A
:1008A8009F4600BFAFF30080B0EBC17F00BF42EBB3
:1008B800020228BFA0EBC170B0EB817F00BF42EB02
:1008C800020228BFA0EB8170B0EB417F00BF42EB72
:1008D800020228BFA0EB4170B0EB017F00BF42EBE2
:1008E800020228BFA0EB0170B0EBC16F00BF42EB62
:1008F800020228BFA0EBC160B0EB816F00BF42EBE2
:10090800020228BFA0EB8160B0EB416F00BF42EB51
:10091800020228BFA0EB4160B0EB016F00BF42EBC1
:10092800020228BFA0EB0160B0EBC15F00BF42EB41
:10093800020228BFA0EBC150B0EB815F00BF42EBC1
:10094800020228BFA0EB8150B0EB415F00BF42EB31
:10095800020228BFA0EB4150B0EB015F00BF42EBA1
:10096800020228BFA0EB0150B0EBC14F00BF42EB21
:10097800020228BFA0EBC140B0EB814F00BF42EBA1
:10098800020228BFA0EB8140B0EB414F00BF42EB11
:10099800020228BFA0EB4140B0EB014F00BF42EB81
:1009A800020228BFA0EB0140B0EBC13F00BF42EB01
:1009B800020228BFA0EBC130B0EB813F00BF42EB81
:1009C800020228BFA0EB8130B0EB413F00BF42EBF1
:1009D800020228BFA0EB4130B0EB013F00BF42EB61
:1009E800020228BFA0EB0130B0EBC12F00BF42EBE1
:1009F800020228BFA0EBC120B0EB812F00BF42EB61
:100A0800020228BFA0EB8120B0EB412F00BF42EBD0
:100A1800020228BFA0EB4120B0EB012F00BF42EB40
:100A2800020228BFA0EB0120B0EBC11F00BF42EBC0
:100A3800020228BFA0EBC110B0EB811F00BF42EB40
:100A4800020228BFA0EB8110B0EB411F00BF42EBB0
:100A5800020228BFA0EB4110B0EB011F00BF42EB20
:100A6800020228BFA0EB0110B0EBC10F00BF42EBA0
:100A7800020228BFA0EBC100B0EB810F00BF42EB20
:100A8800020228BFA0EB8100B0EB410F00BF42EB90
:100A9800020228BFA0EB4100B0EB010F00BF42EB00
:100AA800020228BFA0EB0100104670470CBF0120CE
:100AB80000207047B1FA81F2C2F11F0220FA02F059
:100AC800704708B14FF0FF3000F00EB80029F8D099
:100AD8002DE90340FFF7CCFEBDE8064002FB00F31A
:100AE800A1EB0301704700BF704700BFF0B5074690
:100AF80093B04FF4804003F06FF94FF40470012174
:100B080003F0C6F901200146012403F0B5F90025D8
:100B180011A92C48ADF844408DF8475002F0C6FFA3
:100B2800294802F003FF294B274801931023049317
:100B3800802306934FF4807307934FF480630893E0
:100B480001A9202309930297039505950A950B950A
:100B580002F06AFF1C48214602F084FF4FF460232C
:100B68001B480CA90E930C958DF834408DF8354030
:100B78000F958DF8404002F041FE224606231448A6
:100B88000A2102F08CFE1248214602F064FE104849
:100B9800214602F057FE0E48264602F065FE0C4834
:100BA80002F067FE0028FAD1094802F066FE0848FC
:100BB80002F068FE0028FAD10548012102F066FE1D
:100BC80013B0F0BD00100140080002404C24014061
:100BD800002401400023038400231A46C15A02332B
:100BE8005218202B92B2F9D11209028470470000E2
:100BF80010B5C3680446197B04484900C9B20022ED
:100C080003F0B3F8024B1B68236010BD005400408A
:100C18001812002010B504460A4803F0BBF80A4B26
:100C280098420BD043050BD408482146042203F010
:100C380007FD00280CBF0420012010BD002010BDB6
:100C4800032010BD00540040820007001812002045
:100C580010B5C3680446197B04484900C9B201228B
:100C680003F083F8024B1B68236010BD005400405A
:100C78001812002010B504460A4803F08BF80A4BF6
:100C880098420BD042050BD408482146042203F0B1
:100C9800D7FC00280CBF0420012010BD002010BD87
:100CA800032010BD00540040020003001812002069
:100CB80010B5C36804461B680348197803F050F858
:100CC800024B1B68236010BD00540040181200201E
:100CD80010B504460A4803F05DF80A4B98420BD059
:100CE80041050BD408482146042203F0A9FC00283A
:100CF8000CBF0420012010BD002010BD032010BD32
:100D080000540040840007001812002038B5074C32
:100D180005460021204603F017F82046012103F07C
:100D280007F8034B1B682B6038BD00BF0054004018
:100D38001812002010B504460D4803F02BF80D4B8F
:100D480098420AD1E3680A48DA881C8942EA0444CE
:100D580003F008F82070002010BD21460422064840
:100D680003F06EFC00280CBF0420012010BD00BF5A
:100D780000540040400003001812002030B5154C04
:100D88008DB00546204602F0D1FD134B2046019355
:100D9800EB6801A91A6802921B79802204934FF428
:100DA80000530A9310230393002309930593079391
:100DB80008930B93069202F037FE2046012102F0B9
:100DC80051FE0648012102F08FFF054B1B682B607E
:100DD8000DB030BD6C00024010540040005400407B
:100DE8001812002010B504464FF4001002F046FE19
:100DF800012805D107484FF4003102F0D3FF40B174
:100E080005482146042203F01BFC00280CBF0420DF
:100E1800012010BD005400401812002070B51B4D71
:100E28001B4C8CB006460121284602F08DFF204657
:100E380002F07CFD174B20460193F3681989DA8884
:100E48009B7A42EA0142029280220493069200238E
:100E58004FF4805201A903930593079308930993CC
:100E68000B930A9202F0E0FD2846012102F048FFA8
:100E78002846012102F038FF2046012102F0F2FD48
:100E8800054B1B6833600CB070BD00BF00540040B8
:100E980080000240105400401812002010B504468B
:100EA8004FF0007002F0EAFD012809D005482146FC
:100EB800042203F0C5FB00280CBF0420012010BD4C
:100EC800002010BD18120020C26800F1100314326F
:100ED800C260D21AB32AC8BFC360704710B50121D7
:100EE8000446044802F024FF2046BDE81040FFF7FE
:100EF800EBBF00BF0054004030B5012187B0044665
:100F08004FF4001002F0D0FF0820012102F0C0FFCA
:100F180003238DF81630C02305A9ADF814301E48F8
:100F28001C238DF8173002F0C1FD1C4802F04EFE5C
:100F38000023ADF808304BF6FF73ADF80A303023C4
:100F4800ADF80C304FF48063ADF80E304FF48043A9
:100F5800ADF81030124B06A941F8143D0F4802F0C5
:100F68004FFE01210D4802F0B3FE04F11003A36007
:100F7800E3600925234607210022013DEDB2597798
:100F88001A621433002DF8D10120014602F074FFD3
:100F9800257107B030BD00BF000C0140005400406F
:100FA800A086010084B0F0B506AD85E80E0087681C
:100FB80006463C460FCD0FC42B682360B268002359
:100FC8007B73143206F11003B260D21AB32AC8BF79
:100FD800B360BDE8F04004B07047000038B505467E
:100FE8004CF2553408E0013C06D1012406482C7126
:100FF80003F064FD204638BD04484FF4003102F088
:10100800D1FE0028EFD138BDCC4C00080054004078
:1010180038B5012105460B4802F07EFE4CF25534E6
:1010280008E0013C06D1084803F048FD01232B7174
:10103800022038BD0348054902F09FFE0028F0D081
:10104800002038BD00540040E24C000801000300B5
:10105800037910B504461BB1BDE81040FFF74CBF3B
:10106800C3685B7B082B00F2C080DFE813F009003F
:101078001E0067003D008E008300A300B900B90080
:10108800FFF7C6FFE36848B91A792AB12046FFF787
:10109800AFFDE368012287E0072200E008225A73C7
:1010A8002046BDE81040FFF719BFFFF7B3FD70B940
:1010B800E36820461B79012B04D1FFF7F9FDE368AB
:1010C800032271E0FFF75AFEE36804226CE004286B
:1010D80000F08B80012808BF444802D0032867D15C
:1010E800434803F0EBFC63E0FFF7F2FDE0B9E36887
:1010F8009A7A62B12046FFF78BFF00284FD0E36849
:10110800082220465A73FFF7E9FE3A4808E007220A
:101118005A731B6903B198472046FFF7DFFE36482C
:10112800BDE8104003F0CABC04285ED0E36808227A
:1011380020465A73FFF7D2FE3048F1E7FFF79AFDD1
:1011480070B9E36820469B7A012B04D1FFF7DEFDD6
:10115800E368052228E0FFF761FEE368062223E042
:10116800042842D0E368082220465A73FFF7B6FEE7
:101178002348D5E7FFF7DEFDC0B9E36807225A73B5
:101188001B69002B2CD098472AE0FFF72BFE68B983
:10119800E3689A7A92B12046FFF73AFF40B92046B1
:1011A800FFF756FDE36802225A7310BD04281CD0CD
:1011B800E36873E7FFF772FE40B9E36807225A73E2
:1011C8001B69002B3FF46CAF984769E704280CD0E3
:1011D800E368082220465A73FFF780FE09489FE714
:1011E8002046BDE81040FFF76FBE10BDFF4C000859
:1011F800144D00081E4D0008354D00084A4D0008E2
:101208005F4D0008744D0008490070B5C9B2044626
:1012180000220E4802F0A9FD0D4E4CF255350B4840
:1012280002F0B8FD10F4806304D00A4803F046FCCD
:10123800032070BD013D05D1074803F03FFC0120A4
:10124800207170BDB042EAD1184670BD005400400C
:10125800820007008A4D00089F4D0008F8B5044633
:101268000E4615461F46FFF7B9FE002825D1204631
:10127800FFF7CEFE002820D120463146FFF7C4FFF5
:10128800D8B904460D4E0FE0295D0D4802F068FDFF
:101298000B4802F07FFD430503D50A4803F00EFC16
:1012A80005E0B042F4D10134E3B2BB42ECD30448C8
:1012B8000121BDE8F84002F03BBDF8BD84000700FD
:1012C80000540040B74D00082DE9F84F81464946C3
:1012D80028482D2203F0B4F9002849D0DFF89CA053
:1012E8000026254F3DE00022234840F23E4103F00E
:1012F800BFF9214814223AF8081003F0B9F9BB687D
:10130800180501D46C1C08E0BB68D90401D42C1D55
:1013180003E0BB689A0402D4EC1DE4B208E0BB68A1
:101328005B0405D40A241DB1012D14BF0B2400242D
:101338000135EDB2032D08F10208D4D109EB0603FB
:101348001A79A24208D00C2C1C7105D0D9F80830A3
:1013580013B15846214698470136022E0AF1060A6B
:1013680006D04FF000085FFA86FB45460C24BAE722
:10137800BDE8F88F18120020000C0140C84D000885
:1013880038B5074D04464FF4F0412846482203F08B
:101398006FF940F23E436B610C232371637138BDD2
:1013A800000C014013B50446264803F087FB0420CF
:1013B800012102F06DFD03238DF806304FF48053B0
:1013C800ADF804302048102301A98DF8073002F049
:1013D8006DFB1D484FF4805102F0C3FBE31CE3632F
:1013E800A31D236504F10903636604F10C031922A4
:1013F800A36704F10F03C4F88C3084F820201B2362
:10140800802284F828302270002362700622A2709D
:1014180084F82630E461E3621A46E1180133102BA0
:10142800CA70FAD1FF230022E37422756375A3758D
:10143800E375237605481B2122461923FFF70EFF83
:101448001CBD00BFD44D00080008014098040020CE
:10145800037A10B5012B044618D10D48214662685D
:1014680003F0EEF890B1237CE06823B10023037009
:101478004370837004E004F109010322FEF7DAFEE9
:10148800237C83F0010323740123637410BD00BF20
:10149800181200202DE9F7430025044606462F467A
:1014A8004FF01409A84609FB05403030FFF7D0FF7C
:1014B8000FB996F84170013586F841801436052D2C
:1014C800F1D15FB104F1280393E803008DE803002C
:1014D8001C3494E80E000248FFF764FDBDE8FE8363
:1014E8009804002013B502AB43F8041D00220272D1
:1014F80004461946C0680322FEF79CFE0123637464
:101508001CBD000073B50446019116466AB9E3682C
:101518009DF804009DF805109DF8062026721870A5
:1015280059709A700123637412E00125057201A9AC
:10153800032200F10900FEF77DFE66602574E0686D
:1015480001A90322FEF776FE024B65741B6823602F
:101558007CBD00BF1812002070B50C4B0C4E0D4D11
:101568000024C3F82C463046E96EFFF7BBFF06F1AE
:101578002800E96EFFF7B6FF074B08481A689988F4
:101588001C735161BDE8704003F098BA9C060020B6
:10159800980500201C0600200C060020DE4D0008DF
:1015A800F8B5154B154C0026154DC3F82C660123CC
:1015B80094F868202B73B4F86630124F43EA02435C
:1015C800314663F317013846FFF78CFF94F868201B
:1015D800B4F86630314643EA024307F1280063F362
:1015E8001701FFF77FFF2B68AA8807481A61BDE833
:1015F800F84003F063BA00BF9C0600201C060020D8
:101608000C06002098050020EE4D000837B5644C04
:101618000D2564486449654A2346009501F028FB76
:10162800002800F0BA805F486149604A6319009554
:1016380001F01EFB002800F0B0805A485D495B4A63
:1016480004F14103009501F013FB002800F0A58088
:1016580054485949554A04F11A03009501F008FB0A
:10166800002800F09A804F485449504A04F1270353
:10167800009501F0FDFA002800F08F804948504994
:101688004A4A04F13403009501F0F2FA002800F008
:101698008480062300934B484B49444A04F14E0387
:1016A80001F0E6FA002878D004F14E00FEF7CAFFF0
:1016B800C0B284F8630030B194F84E302D2B02D1BB
:1016C800FF2384F86330364C062300933D483F4996
:1016D800364A04F1550301F0CBFA00285DD004F135
:1016E8005500FEF7AFFFC0B284F8640030B194F83B
:1016F80055302D2B02D1FF2384F86430284C062363
:10170800009330483249294A04F15C0301F0B0FAE9
:10171800002842D004F15C00FEF794FF2D4984F8BC
:101728006500224A2C4804F1660301F085FB002875
:1017380033D0294829491D4A04F1690301F07CFB8B
:1017480000282AD024482649184A04F16C0301F0DD
:1017580073FB002821D020482249144A04F16F0362
:1017680001F06AFBC8B11C481F49104A04F1740310
:1017780001F091FB88B11D481D490C4A04F178031A
:1017880001F089FB48B119481A49084A04F17C0359
:1017980003B0BDE8304001F07EBB03B030BD00BFF0
:1017A8001C060020FE4D0008044E00080C4E0008E0
:1017B800154E00081D4E0008264E0008594E000818
:1017C800304E0008494E0008364E00083C4E0008CE
:1017D800424E0008554E00084E4E00085E4E000866
:1017E8006A4E0008754E0008814E00088C4E0008AD
:1017F800944E0008A34E000870B503F057F8012175
:10180800204802F0B1F9204C4FF4806001F0BCFF91
:101818001E4802F0D5FE2046FFF7B2FD1C4B1D48BE
:10182800A3601D4C00F03EFB00251C4800F070FC36
:101838001B4E1C4884F82856FFF75EFB1A48FFF732
:10184800B1FD3046FFF752F902232846174986F8BA
:10185800283000F0A1FE1648FFF7D8FE00B9FEE7D1
:1018680014490B221023144802F02EFFFFF774FED0
:10187800124803F023F912492046BDE8704000F0F1
:1018880093BA00BF000230005C0500201812002047
:10189800F11C0008CC0C00209C060020780D0020CC
:1018A800680400209804002068050020F00F00203C
:1018B8001C060020000801400C060020B04E00085D
:1018C800BC4E000870B51B4B1B4C1C4D0222064633
:1018D8001A7304F12701284600F066FA184B002114
:1018E800C5F82C36174B184D1B682846B36094F87A
:1018F8006A2094F8693043EA022394F86B2043EA9B
:10190800024363F31701626FFFF7FCFD94F86A2046
:1019180094F86930002143EA022394F86B2005F11A
:10192800280043EA0243626F63F31701BDE8704081
:10193800FFF7E8BD0C0600201C0600209C060020CE
:10194800A9150008181200209805002070B5194D37
:10195800044695F82836012B2AD0174B1B7B012B00
:1019680015D002D3022B23D11AE0C37A002B1FD043
:10197800124E13482146F26F02F062FE002817D07B
:101988000023E3722373284606F10D0104E00023C7
:101998000C49C37203732846BDE8704000F004BACE
:1019A8000023C37203730848BDE87040FFF78ABF7D
:1019B80070BD00BF9C060020FC0500201C0600200E
:1019C80018120020360600200C06002038B5194CE5
:1019D800194B1A4D03221A7304F13401284600F0FA
:1019E800E3F9174B0021C5F82C3694F8702094F8C9
:1019F8006F30144D43EA022394F87120284643EAD5
:101A0800024363F31701626FFFF77CFD94F87020BF
:101A180094F86F30002143EA022394F8712005F10D
:101A2800280043EA0243626F63F31701BDE83840B8
:101A3800FFF768BD1C0600200C0600209C0600204D
:101A4800611500089805002090F8A93070B5064681
:101A5800002B4AD000F19805284606F1A00402F0B0
:101A6800CCFE204602F0C9FE204B1B68336096F876
:101A7800A830532B04BF30461D4922D04F2B07D125
:101A88001C48037B0BB9FFF71DFF30461A4918E0C5
:101A9800432B08D11748037B012B01D1FFF796FF91
:101AA800304616490DE0412B04BF3046144908D092
:101AB800422B04BF3046134903D0562B03D1124999
:101AC800304600F095FA002386F8A93007483146D9
:101AD80044F2506202F0B4FD38B1284602F0AFFE7D
:101AE8002046BDE8704002F0AABE70BD1812002062
:101AF800C64E00080C060020DF4E0008E24E000823
:101B0800E54E0008E84E0008EB4E0008037B10B5D0
:101B1800012B04460CD1074B00F108019A6F0648C7
:101B280002F08EFD20B12046BDE81040FFF74EBF01
:101B380010BD00BF1C0600201812002038B500F1A7
:101B48002401044640F2E732214802F079FD0028DA
:101B58003DD02046FFF73EF894F82830022B05D1F7
:101B6800228C40F6A1139A4231D815E0012B0CD1F2
:101B7800238C40F66602934201D800230DE040F61C
:101B8800DE12934223D9022307E0002B1FD1228CB7
:101B980040F6A3039A4203D9012384F8283038BDBC
:101BA8000C4B1B7B9BB90C4D95F83830012B0ED094
:101BB8000A4C05F13000E16E626FFFF7A3FCE16E9D
:101BC800626F05F14400BDE83840FFF79BBC38BDA3
:101BD800181200200C060020680500201C060020B2
:101BE80008B5FFF709FE0C48FFF76EFB0B4800F03D
:101BF8002DF90B48FFF7AAFE0A48FFF787FF0A48A6
:101C0800FFF726FA0948FFF745FC0948FFF796FF52
:101C18000848FFF719FFE6E75C0500209C0600204E
:101C2800FC0500200C060020980400206805002010
:101C380068040020CC0C0020002938B505460C4665
:101C480009DA234890F82836002B40D12149BDE80D
:101C5800384000F0A9B8092814D81D481E4900F0DA
:101C6800A3F8002C33D01D4BDA7AA24207DA991870
:101C78000132DA721A4A30350D7112680AE001220F
:101C88001A7338BD0A2807D1154B1A68124BDB6F37
:101C9800D21A124B1A6038BD0B2818D111490B7B88
:101CA800012B04D10846BDE83840FFF78FBE73B951
:101CB8000A4D3CB1EB7AA34207D11046291DFEF725
:101CC80075FB10B902232B7338BD01232B7338BD64
:101CD8009C0600205D0600201C060020FC05002054
:101CE800181200200C060020094A0346127B0846F9
:101CF80062B9084A23B992F963304E32194603E0B3
:101D080092F9643055321946FFF796BF704700BF05
:101D1800FC0500201C06002010B504460A4800F007
:101D2800C7FA0D218022084800F09AFA064800F008
:101D38001BFB204600F042FF002384F82836D4F825
:101D48002C3603B1984710BD780D0020D0F8241622
:101D580010B5B1F800220446114800F057FAA268FD
:101D6800E3689A4215D2D4F8243604F507718B42F9
:101D780008BF04F58461C4F8241601F500732046F1
:101D88004FF4007200F07AFE014638B1054802F0BF
:101D980095FE2046BDE81040FFF7BEBF10BD00BF4E
:101DA800780D0020EE4E000890F8283670B5012B0B
:101DB80004460E4601D1FFF7AFFF20463146012207
:101DC80000F0FAFB054648B104280BBF1A481B4827
:101DD80031462946BDE8704002F070BEE3683BB961
:101DE800204600F0EBFE1648BDE8704002F066BEE3
:101DF80004F5077604F5826331460C3320464FF428
:101E0800007200F03BFE014628B10E4802F056FE73
:101E180084F8285670BDC4F824660B4800F07AFA96
:101E2800094800F05EFA0123204684F82836BDE808
:101E38007040FFF78BBF00BF024F0008164F000825
:101E4800294F0008354F0008780D002090F82836F3
:101E580010B5012B044602D0022B12D108E0094824
:101E680000F0B0F968B92046BDE81040FFF76EBF32
:101E7800044800F0A7F920B92046BDE81040FFF754
:101E88004BBF10BD780D002090F89430C218013374
:101E9800DBB2902B117180F8943002D1002380F8C6
:101EA80094307047F0B5012189B00646374C4FF49D
:101EB800003001F0F9FF0520012101F0E9FF20467B
:101EC8000421182202F0D4FB314F042220460821B5
:101ED80002F0CEFB4FF41653002403A903933846AF
:101EE8000C23ADF81630ADF81040ADF81240ADF83F
:101EF8001440ADF8184002F091FA4FF4E06001F098
:101F080043FC0125262307A88DF81C308DF81E50A8
:101F18008DF81F5001F042FC38462A4640F2255100
:101F280002F0E0FA2246384640F2277102F0DAFA67
:101F38003846294602F0CAFA182216484FF440716A
:101F480002F096FB06F19805A7F5705703230722C0
:101F58008DE81800284639464FF0FF3302F004FC9C
:101F6800A0362846042102F08CFC04253046394668
:101F780007224FF0FF330095019402F0F5FB30463D
:101F8800294602F07EFC09B0F0BD00BF0008014000
:101F980000440040000C0140F0B5144D8BB001AC7A
:101FA80007460E460FCD0FC40FCD0FC42B68236014
:101FB800002423460EE00131C9B2B61A9642FAD27D
:101FC800302900D11BB13846FFF75EFF01230434E6
:101FD800242C03D001AAA2583021EFE73036F1B201
:101FE80038460BB0BDE8F040FFF74EBF804B000805
:101FF8000EB4F3B507AB53F8046B0546019306E03E
:10200800252906D1002C33D02846FFF73DFF0024B0
:102018002FE0002C28D0632904D1019B1A1D0192BE
:102028001978F1E7752907D1019B28461A1D196807
:102038000192FFF7B1FFEAE7A1F173035C4244EBB9
:102048000304532908BF44F0010494B1019B1A1DED
:1020580001921F6802E02846FFF716FF17F8011BD8
:102068000029F8D10C4604E02846FFF70DFF00E0F0
:10207800012416F8011B0029C2D1054840F2277136
:10208800012202F02FFABDE8FC4003B0704700BF00
:102098000044004010B540F225510446184802F0AB
:1020A80048FA38B1164802F03AFA012384F8A80031
:1020B80084F8A930124840F2277102F03AFAE8B1E0
:1020C80094F89530E2180133DBB2902B117984F83B
:1020D800953002D1002384F89530094802F01BFAA4
:1020E80094F8952094F894309A4207D1044840F225
:1020F80027710022BDE8104002F0F4B910BD00BFFE
:10210800004400400148FFF7C5BF00BFCC0C0020C9
:1021180030B52A4C87B0012141F2050001F0B8FE24
:102128001025032348F21102204605A9ADF8142012
:102138008DF816308DF8175001F0B8FC4FF40043B5
:10214800636101232361022325612046ADF8143021
:1021580005A928238DF8173001F0A8FCA022182320
:10216800204605A9ADF814208DF8173001F09EFC23
:102178004023ADF814302046042305A98DF8173004
:1021880001F094FC00234FF48272ADF80030ADF8F2
:102198000220ADF80430ADF80630ADF808304FF441
:1021A8000072ADF80E30064808236946ADF80A20DB
:1021B800ADF80C3001F02EFF07B030BD000801402B
:1021C8000030014010B502210446044801F0C3FC68
:1021D80008B1607810BD012010BD00BF00080140A3
:1021E80038B50546074C06E0013C04D1064802F024
:1021F80065FC022038BD2846FFF7E4FF0028F3D12C
:1022080038BD00BF00127A004A4F000838B50C46A6
:102218001546B2B1FFF7E4FF98B90A4B10225A618C
:1022280003F520531A4606E0215C99811989C907EC
:10223800FCD59189013081B2A942F5D3014B102216
:102248001A6138BD00080140044B99811A89D007EA
:10225800FCD5024B9889C0B2704700BF00300140DE
:102268002DE9F84304460D469146FFF7B9FF0646A7
:10227800C0B90E4F4FF001080221C7F8148020465C
:10228800FFF7E2FF29462046FFF7DEFF4FEA192154
:102298002046FFF7D9FF5FFA89F12046FFF7D4FF00
:1022A800C7F810803046BDE8F88300BF0008014039
:1022B80010B5072104464CF21702FFF7D1FF06219B
:1022C80001222046FFF7CCFF072120464CF21902D5
:1022D800FFF7C6FF204606210022BDE81040FFF7A1
:1022E800BFBF10B5072104464CF21702FFF7B8FF2D
:1022F800062101222046FFF7B3FF072120464CF2B2
:102308001902FFF7ADFF204606210122BDE8104063
:10231800FFF7A6BF124B4FF4004210B501211A6116
:102328000446104801F095FE002140F6410220467F
:10233800FFF796FF0C2148F220322046FFF790FF66
:102348000D214FF480722046FFF78AFF20460B21AB
:1023580041F21442FFF784FF0023237010BD00BF31
:10236800000801400030014070B50546FFF738FF0E
:1023780068B9074E102373610B24013C28460021DD
:10238800E4B2FFF761FF002CF7D11023336170BD71
:102398000008014010B504460A46407804F12401BB
:1023A800012301F075F980BB94F8223294F82322B6
:1023B80043EA0222174B12B29A4228D194F85C20C1
:1023C80094F85D30120442EA036294F85A301A43D2
:1023D80094F85B3042EA03220F4B22F07F429A4284
:1023E80016D094F8780094F87920000440EA026046
:1023F80094F87620104394F8772040EA022020F0E1
:102408007F40C01A18BF012010BD032010BD022054
:1024180010BD00BF55AAFFFF4641540038B5036AF6
:1024280005468B420C460CD069B1407805F1240171
:102438002246012301F02CF908B92C6238BD01208D
:1024480038BD002038BD084638BDC3680239023B94
:1024580099423DBF8278C36902FB01300020704772
:102468000129F8B504460D465BD9C36899425AD28A
:102478000378022B28D0032B36D0012B4ED101EB49
:102488005106416901EB5621FFF7C8FF002845D1E5
:102498006169F305013604EBD35301EB562120465D
:1024A80093F82470FFF7BAFF002837D1F60504EB3C
:1024B800D65494F82400EB0747EA002001D5000918
:1024C800F8BD0005000DF8BD416901EB1521FFF7C6
:1024D800A5FF18BB2D0604EBD55494F8250094F8F5
:1024E800243043EA0020F8BD416901EBD511FFF71C
:1024F80095FF98B96D0604EBD55494F8260094F826
:102508002730000440EA036094F8243094F82570DA
:10251800184340EA072020F07040F8BD4FF0FF3024
:10252800F8BD0120F8BD0120F8BD816838B5002349
:1025380001290446C3802AD00568EB68994226D24F
:1025480059B92B78032B01D1A96931B90023E3606C
:102558002B89E3B1AB69236113E0AB7863B92068D9
:10256800FFF77EFF421C01460FD001280FD92368D0
:10257800DB689842F3D30CE0E1602846FFF765FF7B
:10258800206124356561002038BD012038BD022056
:1025980038BD022038BD000048B9064A136803B1A7
:1025A800187009B100230B701160002070470B20D0
:1025B800704700BF7C0D00202DE9F04F0023036019
:1025C8000B788BB0303B092B05460C46904607D854
:1025D8004A783A2A04D18C1C0B20002B40F0F48056
:1025E800B54B0C201E680096002E00F0ED80337865
:1025F80033B1707801F07CF810F0010000F0E4804D
:1026080000203070707001F07DF810F0010740F084
:10261800D68030463946FFF7BDFE012816D196F818
:10262800E631002B00F0CF8096F8EC7196F8ED318A
:102638003F0447EA036796F8EA3130461F4396F8A5
:10264800EB3147EA03273946FFF7A4FE032800F0D9
:10265800B880002840F0B78096F8302096F82F30E0
:1026680043EA0223B3F5007F40F0AD8096F83B00C3
:1026780096F83A3053EA00200DD196F84A0096F8B9
:102688004B30000440EA036096F84830184396F847
:10269800493040EA032096F83490306109F1FF335D
:1026A800DBB2012B86F8039000F28D8096F831108A
:1026B800B170002900F087804B1E0B4240F08380E8
:1026C80096F8353096F8362043EA0222130732810D
:1026D80079D196F838C096F8373053EA0C230ED1E2
:1026E80096F8463096F847C01B0443EA0C6396F800
:1026F80044C043EA0C0396F845C043EA0C2396F815
:1027080033A096F832C05CEA0A2A5CD009FB00F9CB
:102718000AEB121CCC44634555D3CCEB0303B3FB43
:10272800F1F3002B4FD040F6F5718B4298BF4FF074
:10273800010B07D94FF6F57B5B458CBF4FF0030BB8
:102748004FF0020B02330CEB0701BBF1030F5744A8
:10275800F360F161776112D1002A34D196F85220E2
:1027680096F85310120442EA016296F850109B0042
:102778000A4396F8511042EA0122B2610DE012B301
:102788004F44BBF1020FB76101D15B0005E00322A2
:102798005A4303F0010303EB520303F5FE730333BB
:1027A800B0EB532F0FD3454A0020138886F800B0AA
:1027B80001339BB21380F3803062307104E0032050
:1027C80002E0012000E00D2007AB0693002840F04E
:1027D80028812378A3F12F00424242EB00025C2BB0
:1027E80014BF134642F0010303B1013423780026D5
:1027F8001F2B029688BFDFF8C89004D86846FFF7F9
:1028080094FE05960DE123782746A3F12F010134A4
:102818004A4242EB01025C2B14BF134642F001030B
:10282800002BF0D106982022C25401330B2BFBD188
:1028380000210C4608260A463B5D0134202B8CBF3C
:102848004FF0000C4FF0010C2F2B08BF4CF0010C7F
:10285800BCF1000F50D15C2B53D0B14234BF4FF0C4
:10286800000C4FF0010C2E2B08BF4CF0010CBCF1F2
:10287800000F0FD0083E18BF01262E2B0CBF334681
:1028880046F00103002B40F0C9809200D2B2082123
:102898000B26D1E713F0800F04D0803B19F80330E2
:1028A80042F00302DFF81CC01CF801ABBAF1000FBC
:1028B8000AD09A45F8D1B1E07C0D00207A0D0020AD
:1028C800654F0008564F0008A3F1410C5FFA8CFCD5
:1028D800BCF1190F98BF42F002020AD9A3F1610CAA
:1028E8005FFA8CFCBCF1190F03D8203B42F00102BF
:1028F800DBB2435401319FE7202B94BF042300230C
:1029080000E06346002900F089800178E52901D1BB
:1029180005210170082E01D19200D2B202F0030104
:10292800012902F00C0208BF43F01003042A08BF73
:1029380043F00803C3726846FFF7F7FD00284FD13C
:1029480000980499FFF76AFD002849D1059A137881
:10295800002B44D0D37A1E075CBF0699034602D5E4
:1029680007E00B2B3CD012F803C0CE5C0133B44512
:10297800F7D0BDF806600136B6B2002E2FD0049B02
:10298800002B2CD031071CD10399013304930098F4
:1029980019B90389B34222D913E08378013B13EABA
:1029A80016130ED1FFF75CFD0128014613D9421C0E
:1029B80013D00098C368994211D20391FFF745FDDF
:1029C8000490009BADF80660243306F00F0603EB75
:1029D80046160596B4E7022002E0012000E0042034
:1029E800069BDB7A38B104281BD113F0040F14BFFF
:1029F8000420052015E05B0713D4059BDA7AD0067E
:102A08000ED5597D1A7D3C1942EA0122D97E9B7E5A
:102A180043EA012343EA02430293F4E6062000E076
:102A28000520059B30B923B1DA7AD10605D50420F3
:102A380000E006200BB0BDE8F08F08F0010885F82B
:102A480006801A7D597DDC7E42EA01219A7E42EA9F
:102A5800042242EA01422A619A7FD97F120442EA9B
:102A68000162197F5B7F0A4342EA0323EB60009B04
:102A7800A8602B60DB88A861AB80DBE72DE9F74F06
:102A880099460023C9F8003003681646044688466C
:102A9800828863B1197851B1D988914207D15878A1
:102AA80000F026FEC30740F1848003207FE0092060
:102AB8007DE0D80778D5E568A36804F11C02ED1A13
:102AC800AE4238BF354601926AE0A368DA054AD1BA
:102AD800206890F802B00BF1FF3B0BEA532B5FFA2A
:102AE8008BFBBBF1000F0AD10BB9206902E06169C9
:102AF800FFF7B6FC012809D9411C2DD06061D4F834
:102B080000A061695046FFF7A0FC20B9A37963F0E3
:102B18007F03A3714AE06F0A00EB0B0611D09AF805
:102B2800023007EB0B029A4288BFCBEB03079AF8F7
:102B38000100FBB24146324600F0AAFD60B97F02AF
:102B480024E0A369B3420DD09AF8010001993246F6
:102B5800012300F09DFD28B1A379012063F07F03D4
:102B6800A37124E0A661A368DB05DB0DC3F500773C
:102B7800E31803F11C02BD4238BF2F46002303E0CF
:102B8800D15C08F803100133BB42F9D1A368B844FB
:102B9800DB19A360D9F80030ED1BDB19C9F8003048
:102BA800002D92D1284602E0072000E00220BDE86F
:102BB800FE8FA3791A067FF57CAFF7E7036810B597
:102BC8008288044663B1197851B1D988914209D1F4
:102BD800587800F08DFD10F0010005D0032010BDDD
:102BE800092010BD092010BD206010BD2DE9F3415A
:102BF800044617460646002501F1FF380FE001227A
:102C08006B46384601A9FFF739FF009B012B08D115
:102C18009DF8043001350A2B06F8013B01D04545E3
:102C2800EDDB00239D4208BF1C4633702046BDE8FB
:102C3800FC810346184602780133013AD2B21F2AB2
:102C4800F8D97047884205D910F8013C202B01D8E3
:102C58000138F7E7704710B500210446FDF72CFB53
:102C68002146FFF7EFFF00230370204610BD000048
:102C78002DE9F047ADF5087D01AE05460C46304616
:102C8800114601221F46DDF84082FFF795FC0146F8
:102C980058B1042803D1644801F010FF02E06348EA
:102CA80001F00CFF4FF0000AA2E0D6F80CA0BAF130
:102CB800000F06D13046FFF781FF5D4801F0FEFEA8
:102CC80096E02846FDF7BEFC81465A484FF400714D
:102CD8003246FFF78BFF824618B93046FFF76EFF82
:102CE80086E05448FFF7A5FF5D218246FDF7E4FA28
:102CF8009AF80020D0F1010338BF00235B2A18BFDF
:102D080043F00103002BE0D1CAEB0000013848452D
:102D1800DBD10AF1010029464A46FDF7C3FC002829
:102D2800D3D16AE043484FF4007101AAFFF75EFF70
:102D380040B14048FFF77DFF90F800A08146BAF106
:102D48005B0F5FD101A8FFF739FFABE7002DE9D092
:102D580028464946FFF776FFC9EB0000B042E1D1AB
:102D6800484621463246FDF79DFC81460028D9D1C8
:102D7800681CFFF75EFF054604460FE06378222BC8
:102D88001CBF89F001095FFA89F906D104E05C2BC0
:102D980003D16378222B00D101340134237893B115
:102DA800B3F13B0218BF0122232B0CBF002202F013
:102DB800010212B9B9F1000F05D0621B424502D2D7
:102DC800222BE4D1DAE7002323702846FFF743FFDC
:102DD800C5EB040A29463846FDF7D6FBCAF1020AB4
:102DE80001A8FFF7EBFEB7EB0A0A18BF4FF0010A7C
:102DF80050460DF5087DBDE8F0872046FDF722FC1A
:102E080006468FE73D21FDF757FAAAF13B025342E8
:102E180043EB0203BAF1230F08BF43F00103054651
:102E2800002B7FF47FAF91E7044F0008E54F0008BF
:102E3800294F0008800D002030B51C4695B040236E
:102E4800009303ABFFF714FF18B303A8FDF7FAFBD1
:102E580006284FF000001CD114AD45F8040D0221DE
:102E680003A82A4601F0B0FD98B1139B0DF10E009E
:102E7800237002212A4601F0A7FD50B1139B04A834
:102E8800637002212A4601F09FFD10B1139B0120B7
:102E9800A37015B030BD10B51C4692B04023009306
:102EA80002ABFFF7E5FE30B102A800210A22FDF7C8
:102EB800D3FC2060012012B010BD000007B53020FF
:102EC800012100F0E5FF4FF4F853ADF80430032377
:102ED8008DF8063001A918230B488DF8073000F04B
:102EE800E5FD042301A90948ADF8043000F0DEFD32
:102EF80001214FF4806000F0BFFF0220012100F0A3
:102F0800BBFF00F0E9FF0EBD0010014000140140B6
:102F18007FB5002368468DF814100093019302933F
:102F28000392049300F0EAFF07B000BD036E30B5CA
:102F38001A0E91090170C2F3830102F00302417075
:102F48008270C3F30742C270C3F307220271426E54
:102F5800DBB24371130E1B01C380C188C2F3074360
:102F680089B241EA131103F00F03C1800372C2F35F
:102F78000723D9094172C3F380118172C3F3401149
:102F8800C172C3F3001101730021417390F84E1010
:102F9800012933D803F003039B0203610369D2B20A
:102FA80043EA82020261836E01691A0E41EA9211B4
:102FB8000161C2F3C20102F0070201754275C3F351
:102FC800074251098175C2F3820102F003025200DF
:102FD800C1750276027EC3F3072342EAD312027652
:102FE8000469017E0125027A6419023115FA02F298
:102FF80014FA01F182644A43426419E0022917D1A4
:1030080002F03F0212040261836E0269190E42EA5D
:10301800012202610269C3F307410A43026102699E
:10302800C3F307230132D20442644FF4007282646E
:10303800C3F3801203F03F035B0042768376827EFF
:1030480090F8683042EAD3128276C26E03F07F03AA
:10305800C376130ED9090177C3F341114177C3F33E
:10306800820103F003039B008177C377C17FC2F31A
:10307800074341EA9311C177C3F3401180F8201048
:1030880003F00103002180F8211080F82230C2F3F8
:103098000723D90980F82310C3F3801180F824107E
:1030A800C3F3401180F82510C3F3001180F82610EF
:1030B800C3F3810103F0030380F8271080F8283058
:1030C800036DC2F3460280F82920190E012280F808
:1030D8002A2080F82C10C3F307410902C185C18D4D
:1030E800C3F3072489B221431B06C1850363436DDB
:1030F800016B1C0E41EA04410163016BC3F30744F1
:1031080041EA04210163016BC3F307242143DBB2C5
:10311800016380F83430836D190E80F83510C3F3DD
:10312800074109068163816BC3F3072441EA04411F
:103138008163816BDBB241EA03238363816BC36DD7
:1031480041EA1361816390F83C40C3F3074144EAC4
:10315800111401F00F01090280F83C40C187C18FAA
:10316800C3F3072489B22143C3F34603C18780F818
:10317800403080F8412030BD08B470B587B00BAB43
:1031880013F8045B0C460593052D0AD8DFE805F013
:10319800030507050505002302E0402300E0C023DE
:1031A80002930023039368464FF480638DE814006C
:1031B800049300F0DBFE274942F210724B6B15B9FD
:1031C80018060BD534E0012D08D113F0450F05D0B2
:1031D800204B5C6904F00804E4B230E013F0010607
:1031E8000CD0A5F1030EDEF1000444EB0E04052D0E
:1031F80008BF44F0010484F0010420E0580612D509
:10320800042D19D100F0C8FEA04213D1304600F0B9
:10321800C9FE10F460440FD1059B000C1A1D0592DD
:103228001B6818800BE05B0708D4013AC6D105E09B
:103238002C4604E0102402E0344600E0032440F267
:10324800FF5000F0E1FE204607B0BDE8704001B035
:10325800704700BF00800140F0B5002389B0069395
:1032680007930D460822102101230446FFF784FF27
:103278000746002868D1B4F84C20204612043721AC
:103288000123FFF779FF074600285DD14FF0FF3390
:103298004FF0300C4FF0020E08268DE8485004908D
:1032A80001266846059600F089FE3A4620463321F5
:1032B8003346FFF761FF0746002845D10446244EF0
:1032C8000CE04FF4001000F095FE38B100F08CFED1
:1032D800012C9CBF06AB43F824000134726B40F20A
:1032E8002A631340002BECD0082000F083FE20B1A5
:1032F800082000F089FE042726E0022000F07AFE6C
:1033080020B1022000F080FE02271DE0202000F0FE
:1033180071FE20B1202000F077FE062714E04FF45C
:10332800007000F067FE28B14FF4007000F06CFEEA
:10333800072709E040F2FF5000F066FE069B1BBA23
:103348006B60079B1BBA2B60384609B0F0BD00BF05
:103358000080014037B5044600200D4600F022FEEB
:103368000E2281012DD420466946FFF775FF0246DB
:1033780038BB012D019B10D15A0321D5B4F84C203C
:103388002046120437212B46FFF7F6FE0246C0B945
:103398002046062102222B460EE0DB0310D5B4F8A6
:1033A8004C202046120437210123FFF7E5FE024690
:1033B80038B9204606210123FFF7DEFE024600E069
:1033C800252210463EBD70B590F84E300546032BB9
:1033D8000E461CD00024022B1AD8B1F5805F16D0F7
:1033E800B1F5006F08D10121FFF7B4FF04460421AD
:1033F8002846324664B907E00021FFF7ABFF0446D0
:1034080030B9284604212246FFF782FD00E0272430
:10341800204670BD37B5044600F09AFD25250028E2
:1034280051D094F84E30042B17D0022120460022A8
:103438000B46FFF7A1FE0546002844D100F0B2FD77
:103448002065042000F0AEFD6065082000F0AAFDAC
:10345800A0650C2000F0A6FDE06594F84E30012B25
:103468008CBF00220122062B08BF42F001020AB9D4
:10347800022B0AD104F14C030093204603210022B9
:103488000423FFF779FE0546E8B994F84E30002585
:10349800042B18D0B4F84C2020461204092102232A
:1034A800FFF76AFE054670B900F07CFD206604202F
:1034B80000F078FD6066082000F074FDA0660C201E
:1034C80000F070FDE06628463EBD0021F8B50A46CA
:1034D8000B460546FFF750FE044600283ED1284615
:1034E80008214FF4D5720523FFF746FE28B90123BA
:1034F80085F84E304FF0804706E0284637212246AF
:103508000123FFF739FE27462846372100220123E9
:10351800FFF732FE10BB47F000474FF4803647F400
:1035280080172846372100220123FFF725FE04468D
:10353800A0B9284629213A460323FFF71DFE044671
:1035480060B900F02FFD013E07D00028E9DA4000FD
:1035580004D5022385F84E3000E01B242046F8BD30
:1035680070B50025044680F84E50FFF7A7FCB2213D
:103578002A462046FFF7CCFC032000F0DDFC0120A2
:1035880000F0D4FC2046FFF7A0FF18BB2046FFF749
:1035980041FF0246F2B904212046FFF7B9FC204654
:1035A800FFF7C4FCB4F84C2020461204072101237D
:1035B800FFF7E2FD70B920464FF40061FFF703FF03
:1035C80040B9204610214FF400720123BDE8704035
:1035D800FFF7D2BD70BD00002DE9F0411D46284B14
:1035E80090460022DA6290F84E3092B0022B4FF0EB
:1035F800FF3304BF4FEA58284FF400750C9390230B
:103608000E93022306460F93012400230CA80F46AD
:1036180010930D95119400F0D1FC304611214246CB
:103628002346FFF7A9FD064628BB204600F098FC74
:10363800144800F031FA1448314600F013FA134BDD
:1036480011480193802306934FF4007307934FF4B6
:103658000063089301A94FF44053AD0802970396FD
:103668000495059609960A930B9600F0DDF906482D
:10367800214600F0F7F9304612B0BDE8F08100BFEE
:103688000080014000F000104404024080800140A6
:10369800003018BF0120002B08BF40F0010010B512
:1036A800D8B9104C520220464FF40073FFF794FF2C
:1036B800014684F8940238B10B4801F0FFF9012063
:1036C80010BD013C02D10AE042F21274074800F032
:1036D800D5F90028F5D0002010BD042010BD012028
:1036E80010BD00BF800F0020FA4F00080020001016
:1036F80018B9034B93F8940270470120704700BF34
:10370800800F002038B590B90A4D2846FFF728FFEA
:10371800044685F8940228B10748214601F0CEF9FD
:10372800012038BD054801F0C9F9204638BD0120FF
:1037380038BD00BF800F0020045000081750000853
:10374800002103E00A4B5B584350043109480A4BF7
:1037580042189A42F6D3094A02E0002342F8043B91
:10376800074B9A42F9D300F005FFFEF739FA704784
:1037780044500008000000204C0400204C040020A5
:103788001C120020FEE7000040F0BE60024B40F42F
:103798002020D860704700BF00ED00E0C37810B566
:1037A800E3B1144B4178DB688478DB43C3F302232D
:1037B800C3F1040291400F22DA4022400A430E4B23
:1037C80001781201CB18D2B283F8002303780122C2
:1037D800590903F01F0312FA03F307E003780122E3
:1037E800590903F01F0312FA03F32031024A42F881
:1037F800213010BD00ED00E000E100E043680A68F8
:1038080023F4702323F4807313430A7910B543EA31
:10381800022343608A68CB6884681A43084B2340B4
:1038280013434A7943EA420383600B7CC26A013B33
:1038380022F47002DBB242EA0353C36210BD00BF38
:10384800FDF7F1FF836811B143F0010301E023F0B4
:10385800010383607047836811B143F4807301E00A
:1038680023F4807383607047836843F008038360A0
:1038780070478068C0F3C0007047836843F0040352
:10388800836070478068C0F380007047836811B117
:1038980043F4A00301E023F4A003836070470929DF
:1038A80070B54FF003040BD94C4307251E3CA540C7
:1038B800A340C66826EA050545EA0304C4600AE091
:1038C8004C430725A54013FA04F4066926EA0505C2
:1038D80045EA04030361062A4FF005030BD8013AB1
:1038E80053431F229A4011FA03F3446B24EA02025D
:1038F8001343436370BD0C2A0BD853431F22233B49
:103908009A409940046B24EA020242EA01030363E5
:1039180070BD53431F22413B9A409940C46A24EA30
:10392800020242EA0103C36270BD000002684FF65A
:10393800FE73134003600023036043608360C36029
:103948002D4B984229D02D4B984230D02C4B984281
:1039580037D02C4B98423ED02B4B984206D153F887
:10396800542C42F4702243F8542C7047274B984249
:1039780006D153F8682C42F4700243F8682C70475B
:10398800234B984206D153F87C2C42F0706243F8DE
:103998007C2C70471F4B984206D153F8042C42F0F8
:1039A8000F0243F8042C70471B4B984206D153F87A
:1039B800182C42F0F00243F8182C7047174B984225
:1039C80006D153F82C2C42F4706243F82C2C704723
:1039D800134B984206D153F8402C42F4704243F8F6
:1039E800402C70470F4B984202BF53F8542C42F4B6
:1039F800702243F8542C7047080002401C00024013
:103A08003000024044000240580002406C0002406E
:103A180080000240080402401C04024030040240B6
:103A280044040240580402408B6810B50C6A0268CE
:103A380023430C6922F4FE4223434C6922F0F0022E
:103A480023438C692343CC6923434C6A23438C6A00
:103A5800234313430360CB6843600B6883604B6860
:103A6800C36010BD19B1036843F0010303E00268A5
:103A78004FF6FE731340036070470000C3004CBF4D
:103A8800034B044B1B6803420CBF00200120704706
:103A98000004024000000240C2004CBF014B024B30
:103AA800586070470004024000000240CB782DE9BE
:103AB800F04303F00F02DB0648BF8B780E8848BF3F
:103AC8001A4316F0FF0F1FD0046800234FF00108B7
:103AD8004FF00F0C08FA03F707EA0605BD420FD1AD
:103AE8009F000CFA07F912FA07F724EA09043C4385
:103AF800CF78282F08BF456102D0482F08BF05613D
:103B08000133082BE6D104600E88FF2E21D94468C2
:103B180000234FF001084FF00F0C03F1080708FAD3
:103B280007F707EA0605BD420FD19F000CFA07F90F
:103B380012FA07F724EA09043C43CF78282F08BF74
:103B4800456102D0482F08BF05610133082BE4D135
:103B58004460BDE8F083836819420CBF002001204F
:103B6800704741617047000030B5174B002800F4DA
:103B78004014B4BFDB695B68B4F5401F82B207D15B
:103B8800114C23F07063656825F0706565600FE07F
:103B9800C40205D5C0F30344032515FA04F403E071
:103BA800440D240112FA04F423EA040343F0706379
:103BB80019B1410D09018A401343034A0028B4BFD3
:103BC800D361536030BD00BF0000014008B50B4B06
:103BD800984207D14FF40010012100F071F94FF419
:103BE800001006E04FF48000012100F069F94FF45D
:103BF80080000021BDE8084000F062B90054004090
:103C080070B586B00446868801A80D4600F0EEF827
:103C180003992D4826F03F063604B1FBF0F0360C28
:103C280080B20643A68022882B6822F00102120483
:103C3800120C2280254A93420AD85B00B1FBF3F3A9
:103C480001309BB280B22084032B98BF042321E06B
:103C5800EE884BF6FF72964205D103225343B1FB1F
:103C6800F3F39BB206E019225343B1FBF3F39BB283
:103C780043F480431A054FF4967208BF43F00103DA
:103C880050434FF47A7290FBF2F0013080B243F463
:103C980000432084A383238869899BB243F00103EE
:103CA80023802388AA8823F4806323F00A031B0453
:103CB8000A431B0C13439BB223802A89AB89134305
:103CC8009BB2238106B070BD40420F00A086010060
:103CD800038819B19BB243F0010303E023F0010309
:103CE8001B041B0C03807047838819B19BB243F4F3
:103CF800006303E023F400631B041B0C83807047FC
:103D0800838819B19BB243F4805303E023F48053B2
:103D18001B041B0C83807047038819B19BB243F4C2
:103D2800807303E023F480731B041B0C038070472B
:103D3800038819B19BB243F4007303E023F40073C2
:103D48001B041B0C03807047038819B19BB243F412
:103D5800806303E023F480631B041B0C038070471B
:103D680001827047008AC0B2704712B141F0010168
:103D780001E001F0FE0101827047838A008B9BB24B
:103D880043EA0040084020F07F40431A584240EB85
:103D980003007047838A008B9BB243EA004020F0FF
:103DA8007F40704782B00023009301930B0F01906E
:103DB8000093009B21F07F4113B1019B143302E073
:103DC800019B090C18330193019B1B6819420CBF16
:103DD8000020012002B07047034B5A6822F4404289
:103DE80010435860704700BF0010024010B51D4BCB
:103DF8005A6802F00C02042A01D0082A02D01A4B91
:103E080003600EE05A685968C2F383420232C9035C
:103E180004D55B689B0358BF134B00D5134B5A431B
:103E28000260104B12495A680468C2F303128A5C94
:103E380034FA02F242605C68C4F302240C5D32FA80
:103E480004F484605C68C4F3C224095DCA40C2609B
:103E58005B680849C3F38133CB5CB2FBF3F20261C0
:103E680010BD00BF0010024000127A0000093D009A
:103E78003804002034040020044B5A6909B1104367
:103E880001E022EA00005861704700BF00100240BC
:103E9800044B9A6909B1104301E022EA00009861D5
:103EA800704700BF00100240044BDA6909B11043A3
:103EB80001E022EA0000D861704700BF001002400C
:103EC800044B1A6909B1104301E022EA00001861A5
:103ED800704700BF00100240064B074900221A60D5
:103EE8005A609A60DA605A629A62DA629963DA63AF
:103EF800704700BF00800140FF07C00010B581680F
:103F08004468094A2143C46853682143046823F478
:103F1800FC432143046923F0FF0321430B43017D44
:103F28000B43536010BD00BF00800140014B186077
:103F3800704700BFA0003042044B1A6822F0030209
:103F48001A601A6810431860704700BF008001406B
:103F5800024B186800F00300704700BF0080014062
:103F6800014B1860704700BF8C05304210B50268DD
:103F7800084B9A6084684168DA682143C46800691C
:103F880022F4FE62214322F00F0201430A43DA6061
:103F980010BD00BF00800140014B1869C0B27047D6
:103FA8000080014082B000230193034BC3180193A2
:103FB800019B186802B07047148001400268094BE1
:103FC80010B55A6242689A62C4688268D96A224304
:103FD80004694069224321F0F70102430A43DA6287
:103FE80010BD00BF00800140014BD3F8800070472E
:103FF80000800140034B5B6B18420CBF002001207E
:10400800704700BF00800140014B9863704700BFB4
:10401800008001400B8810B54C88028823438C88A7
:1040280002F441522343CC8823430C8923434C890F
:1040380023438C892343CC89234313439BB20380B6
:10404800838B23F400631B041B0C83830B8A03827A
:1040580010BD038819B19BB243F0400303E023F07D
:1040680040031B041B0C0380704700002B4A30B52B
:10407800C2EB000CDCF10002294C038842EB0C0275
:10408800A04208BF42F001029BB2C2B9A0F180452C
:104098006C4244EB0504234DA84208BF44F00104D8
:1040A8006CB9214C05F50065C4EB000CDCF100048B
:1040B80044EB0C04A84208BF44F001041CB14C882E
:1040C80023F070032343194C194D041B18BF012416
:1040D800A8420CBF002404F0010424B123F4407367
:1040E800CC889BB2234303808B8883850B88038508
:1040F8007AB9104B104AC3EB000CDCF1000343EB18
:104108000C03904208BF43F0010313B90B4B9842CC
:1041180001D10B7A03860123838230BD002C014034
:104128000034014000040040000800400010004036
:104138000014004000400140004401400048014094
:10414800038C70B523F001031B041B0C0384038C40
:104158008488028B0D8822F073021204120C4E8898
:104168002A430D8923F002031B0435431B0CADB20F
:104178002B43194DA4B2461B754245EB0605174E55
:10418800B04208BF45F0010585B9154D06F58056C2
:10419800C5EB000CDCF1000545EB0C05B04208BF8F
:1041A80045F0010515B90F4DA8420ED14D8923F0F0
:1041B80008032B438D8823F004032B43CE898D8974
:1041C80024F440743543ADB22C4384800283CA88FA
:1041D8008286038470BD00BF002C0140003401407A
:1041E8000040014000480140038C70B523F01003E3
:1041F8001B041B0C0384038C8288048B0D8824F415
:10420800E6442404240C23F0200344EA05241B0478
:104218000D891B0C43EA05134D88164E43EA051316
:10422800154D92B2C5EB000CDCF1000545EB0C0511
:10423800B04208BF45F00105A4B29BB2A5B14D89B3
:1042480023F0800343EA05134FF6BF751D408B88A2
:1042580022F4406245EA03138D899BB242EA850243
:10426800CD8942EA850292B28280CA880483028795
:10427800038470BD00340140002C0140038C70B5EC
:1042880023F480731B041B0C0384038C8288848BA7
:104298000D8824F073042404240C23F400731B04F5
:1042A8002C430D891B0C43EA05234D8892B243EA3F
:1042B8000523134D9BB2461B754245EB0605114E6F
:1042C800B04208BF45F00105A5B14D8923F400634C
:1042D80043EA05234FF6FF351D408B8822F44052F0
:1042E80045EA03238D899BB242EA0512CD8942EA49
:1042F800051292B28280CA8884838287038470BD43
:10430800002C014000340140038C70B523F4805325
:104318001B041B0C0384038C8488828B0D8822F475
:10432800E6421204120C23F4005342EA05221B044D
:104338000D891B0C43EA05334D880F4E43EA0533BC
:104348000E4DA4B2C5EB000CDCF1000545EB0C05E5
:10435800B04208BF45F0010592B29BB22DB18D89DC
:1043680024F4804444EA8514A4B284808283CA88F1
:10437800A0F84020038470BD00340140002C0140A7
:10438800038819B19BB243F0010303E023F0010352
:104398001B041B0C0380704783899BB20AB1194325
:1043A80001E023EA010181817047038819B19BB2BA
:1043B80043F0800303E023F080031B041B0C0380FD
:1043C8007047038B23F008031B041B0C0B43038368
:1043D8007047038B23F400631B041B0C43EA01237F
:1043E8009BB203837047838B23F008031B041B0CC9
:1043F8000B4383837047838B23F400631B041B0CDC
:1044080043EA01239BB283837047C94389B201827F
:104418007047C94389B201827047000030B5038AEA
:10442800CA8823F440531B041B0C134303820D4614
:1044380083890989AA8823F4B0530A43698923F038
:104448000C030A431B041B0C92B213438381838A17
:10445800AA8923F440731B041B0C87B0134304463A
:10446800838201A8FFF7C2FC174BA2899C420CBFAC
:10447800049B039B12B2002A4FF019012A6801FB22
:1044880003F101DA520000E092006423B1FBF2F17B
:10449800B1FBF3F21201100903FB1011A08900B25D
:1044A800002806DAC9003231B1FBF3F303F0070341
:1044B80005E009013231B1FBF3F303F00F031A43AE
:1044C80092B2228107B030BD00380140838919B10A
:1044D8009BB243F4005303E023F400531B041B0C6A
:1044E80083817047C1F3421310B501F01F01012405
:1044F80014FA01F1A34201D10C3004E0022B01D1DE
:10450800103000E0143003680AB1194301E023EACF
:104518000101016010BDC905C90D818070478088FF
:10452800C005C00D7047038819420CBF0020012048
:10453800704710B501F01F030122C1F342149A40DD
:10454800012C08BF838903D0022C0CBF038A838AFD
:104558009BB21340090A012212FA01F1028892B2B1
:1045680011420CBF00200120002B0CBF002000F0DE
:10457800010010BD0F4B1A6842F001021A60596819
:104588000D4A0A405A601A6822F0847222F4803276
:104598001A601A6822F480221A605A6822F4FE020D
:1045A8005A604FF41F029A60044B4FF000629A6001
:1045B800704700BF001002400000FFF800ED00E067
:1045C80030B585B001241C23002503A88DF80C30D4
:1045D8008DF80D408DF80E508DF80F40FFF7DEF87E
:1045E80020462146FFF760FC6422ADF80420124AF9
:1045F8004FF080401168114AADF80250B1FBF2F259
:10460800013A6946ADF80020ADF806508DF808501B
:10461800FFF72CFD21464FF08040FFF7B1FE214601
:104628004FF08040FFF7F1FE4FF0804021462246D0
:10463800FFF7B2FE05B030BD48040020A086010097
:1046480003680868181A904202D30B60012070476B
:104658000020704708B54FF080400121FFF7D9FED0
:10466800024B1A6801321A6008BD00BF18120020F8
:10467800134B73B5044604209C420D46164604D0DD
:10468800104884420CBF08200020A6F11C025342A7
:1046980043EB0203182E08BF43F001030BB140F0AF
:1046A80001000121FFF7F4FB0323204601A98DF83F
:1046B8000630ADF804508DF80760FFF7F7F97CBDB8
:1046C80000080140000C014010B50C460121914042
:1046D80089B2C280818004601A462046BDE8104035
:1046E800FFF7C6BF7FB51E461B4B0C4699421546C1
:1046F800016005D14FF400600121FFF7C9FB0FE00D
:104708000120B4F1804F014608D0144B02209C428E
:1047180003D0134B9C4203D104200121FFF7C4FBB3
:10472800711C09D06E430F4B1B68B3FBF6F6B6B28B
:104738001EB1013EB6B200E000260023204601A9C2
:10474800ADF80850ADF80460ADF80A30ADF80630A1
:10475800FFF78CFC7FBD00BF002C01400004004027
:1047680000080040480400207FB505469DF82060F9
:104778000C46FFF7B7FF6023ADF800300023ADF813
:104788000230ADF80630BDF824302E71013EADF888
:104798000830032E26D8DFE806F0020B141D204649
:1047A8006946FFF7CDFC20460821FFF70AFE19E00D
:1047B80020466946FFF718FD20460821FFF709FE45
:1047C80010E020466946FFF759FD20460821FFF70B
:1047D8000AFE07E020466946FFF796FD20460821B5
:1047E800FFF709FE20460121FFF7DFFD2B681A8835
:1047F80092B242F001021A807FBD0379013B032B7C
:104808001CD8DFE803F002080E1503681A8C92B270
:1048180042F001020AE003681A8C92B242F01002D8
:1048280004E003681A8C92B242F480721A847047CA
:1048380003681A8C92B242F480521A847047037942
:10484800013B032B1CD8DFE803F002070C140268B5
:10485800138C23F0010308E00268138C23F0100383
:1048680003E00268138C23F480731B041B0C13846D
:1048780070470268138C23F480531B041B0C1384A9
:1048880070470379013B032B0FD8DFE803F00205DB
:10489800080B03689986704703681987704703688F
:1048A800998770470368A3F84010704710B5012135
:1048B80086B04FF48040FFF7EBFA05200121FFF79F
:1048C800E7FA18238DF817304FF40073ADF8143059
:1048D80005A903230F488DF816300F4CFFF7E6F8AB
:1048E8004FF4FA3301930023ADF80830ADF80A30DD
:1048F800ADF80C30ADF810302046082301A9ADF80A
:104908000E30FFF78BFD20460121FFF7DFFD06B0D3
:1049180010BD00BF0008014000380140014608B53D
:104928000448FFF7F8FD03484021FFF7FCFD002885
:10493800F9D008BD00380140092802D83030C0B28B
:1049480070473730C0B2704710F07F4310B5044647
:104958000BD0000FFFF7F0FFFFF7E0FFC4F3036091
:10496800FFF7EAFFFFF7DAFF012314F47F0F00D106
:1049780063B1C4F30350FFF7DFFFFFF7CFFFC4F3C2
:104988000340FFF7D9FFFFF7C9FF012314F47F4F56
:1049980000D15BB1C4F30330FFF7CEFFFFF7BEFFD2
:1049A800C4F30320FFF7C8FFFFF7B8FFC4F30310F1
:1049B800FFF7C2FFFFF7B2FF04F00F00FFF7BCFFDD
:1049C800BDE81040FFF7AABF70B5002414601AE0D4
:1049D800035DDBB11668A3F13005EDB23601092D90
:1049E80016600DD9A3F14105EDB2052D01D8373B6D
:1049F80005E0A3F16105EDB2052D09D8573BDDB2FD
:104A0800AD1915600134E3B28B42E1D3012070BDCA
:104A1800002070BD70B5134D8AB001AC06460FCDAD
:104A28000FC40FCD0FC42B682360002423460DE06C
:104A38000130C0B2B61A9642FAD2302800D113B16A
:104A4800FFF76CFF01230434242C03D001AAA258D9
:104A58003020F0E73036F0B20AB0BDE87040FFF71A
:104A68005DBF00BFA44B0008002810B5044604DA57
:104A78002D20FFF753FF644202E02020FFF74EFF8E
:104A88002046BDE81040FFF7C5BF10B5044601E059
:104A9800FFF744FF14F8010B0028F9D110BD70B5D9
:104AA80004460E46002506E0605DFFF74DFF202016
:104AB800FFF734FF0135B542F6D170BD0FB437B5F5
:104AC80006AB53F8045B019305E0252805D1002CBB
:104AD80048D0FFF723FF002445E0002C3FD063288F
:104AE80004D1019B1A1D01921878F2E7752806D1A6
:104AF800019B1A1D18680192FFF78CFFEBE76928E4
:104B080006D1019B1A1D18680192FFF7ADFFE2E775
:104B1800582806D1019B1A1D18680192FFF714FF47
:104B2800D9E7A0F173035C4244EB0304532808BFA0
:104B380044F0010434B1019B1A1D01921868FFF773
:104B4800A4FFC8E748280ED1019B1A1D01921A46F6
:104B580052F8080B59680192FFF7A1FF03E0FFF72D
:104B6800DDFE00E0012415F8010B0028ADD1BDE8F9
:104B78003E4004B07047000000CA9A3B00E1F505CA
:104B88008096980040420F00A08601001027000080
:104B9800E8030000640000000A00000000CA9A3B15
:104BA80000E1F5058096980040420F00A0860100BC
:104BB80010270000E8030000640000000A0000005D
:104BC80000202020202020202020282828282820D5
:104BD80020202020202020202020202020202020CD
:104BE8002088101010101010101010101010101035
:104BF8001004040404040404040404101010101025
:104C080010104141414141410101010101010101EE
:104C18000101010101010101010101011010101040
:104C280010104242424242420202020202020202C0
:104C38000202020202020202020202021010101014
:104C4800200000000000000000000000000000003C
:104C5800000000000000000000000000000000004C
:104C6800000000000000000000000000000000003C
:104C7800000000000000000000000000000000002C
:104C8800000000000000000000000000000000001C
:104C9800000000000000000000000000000000000C
:104CA80000000000000000000000000000000000FC
:104CB80000000000000000000000000000000000EC
:104CC80000000000493243204275737957616974C6
:104CD8002074696D656F75740D00493243206361F6
:104CE8006E277420656E746572206D6173746572C9
:104CF800206D6F64650D0049324320416464722061
:104D080054582074696D656F75740D0049324320DD
:104D18004E41434B0D00493243204F6E6542797432
:104D280065205253206661696C65640D0049324301
:104D3800204F6E6542797465206E6F2072656164DC
:104D48000D00493243204F6E6542797465207469BD
:104D58006D656F75740D004932432041646472209B
:104D680052582074696D656F75740D00493243207F
:104D7800526561644D616E792074696D656F7574F3
:104D88000D0049324320536C61766520416464729A
:104D9800204E41434B0D0049324320536C617665E8
:104DA80020416464722054696D656F75740D000D3F
:104DB80049324320536C617665204E41434B0D00C8
:104DC80002000400000408001000200050434120A5
:104DD800496E69740D00446F6F7220697320636CAB
:104DE8006F7365640D00446F6F72206973206F7074
:104DF800656E65640D00536F756E64004B6579428E
:104E0800656570006C6F636B2E696E69004B657920
:104E180044726F70004B657943726173680050612A
:104E280073734572726F7200436C6F736500436FE2
:104E380064654100436F6465420053657276696337
:104E480065436F646500436F6C6F727300446F6FE6
:104E5800724F70656E00446F6F724F70656E696E49
:104E68006700446F6F72436C6F73656400446F6FC3
:104E780072436C6F73696E6700426C696E6B446550
:104E88006C61790054696D696E677300446F6F7265
:104E9800436C6F736544656C6179004B6579447246
:104EA8006F7044656C6179004C6F636B2069732087
:104EB8006F6E0D00616C6976652E77617600533AE6
:104EC8003635353130352C313233342C34333231B8
:104ED8002C323030303B004F3B00433B00413B001D
:104EE800423B00563B005265616446696C6555203B
:104EF8006572726F723A2025750025533A206669EB
:104F08006C65206E6F7420666F756E640D004F704F
:104F1800656E46696C65206572726F723A202575F8
:104F280000456D7074792066696C650D0052656185
:104F38006446696C652031206572726F723A20256B
:104F4800750056532074696D656F75740D00222ABB
:104F58002B2C3A3B3C3D3E3F5B5D7C7F0080818251
:104F6800838485868788898A8B8C8D8E8F90919291
:104F7800939495969798999A9B9C9D9E9F808182E1
:104F8800838485868788898A8B8C8D8E8FB0B1B211
:104F9800B3B4B5B6B7B8B9BABBBCBDBEBFC0C1C261
:104FA800C3C4C5C6C7C8C9CACBCCCDCECFD0D1D251
:104FB800D3D4D5D6D7D8D9DADBDCDDDEDF90919231
:104FC800939D95969798999A9B9C9D9E9FF0F0F239
:104FD800F2F4F4F6F6F8F9FAFBFCFDFEFF3A206F5E
:104FE80070656E46696C65206572726F723A20252D
:104FF8007500457272313A2025750D0053442069B9
:105008006E6974206572726F723A2025750D0043BF
:105018007264206F6E0D000043000000F8B500BFF9
:10502800F8BC08BC9E467047F8B500BFF8BC08BC81
:045038009E467047D9
:04503C000D02000859
:04504000E90100087A
:10504400080000200000000000000000F40200201E
:105054005C030020C40300200000000000000000E6
:10506400000000000000000000000000000000003C
:1050740000000000000000000000000020500008B4
:10508400000000000000000000000000000000001C
:10509400000000000000000000000000000000000C
:1050A40000000000000000000000000000000000FC
:1050B40000000000000000000000000000000000EC
:1050C40000000000000000000000000000000000DC
:1050D40000000000000000000000000000000000CC
:1050E40000000000000000000000000000000000BC
:1050F40001000000000000000E33CDAB34126DE659
:10510400ECDE05000B0000000000000000000000C1
:10511400000000000000000000000000000000008B
:10512400000000000000000000000000000000007B
:10513400000000000000000000000000000000006B
:10514400000000000000000000000000000000005B
:10547400C84B0008020406080000000001020304EF
:0C548400010203040607080900127A0068
:04000005080037496F
:00000001FF
