:100000000EC01DC04EC01BC01AC019C018C017C0FA
:1000100016C015C079C113C012C011C010C0112480
:100020001FBECFE5D1E0DEBFCDBF10E0A0E6B0E05F
:1000300001C01D92AF36B107E1F70BD17CC1E0CF13
:1000400080916700843210F484E205C0873810F094
:1000500089E001C082E180936A0008958091660082
:10006000882311F0853021F482E0809366000895A2
:10007000813011F0843019F483E080936600089594
:1000800080916600813011F0853019F4109266007D
:100090000895882311F0843019F481E0809366007C
:1000A000089518958BE690E068EE73E00CD18823F4
:1000B00021F1A895809164008823F9F4B29B1DC0BA
:1000C0008091660084508230C0F480E385BF80E276
:1000D0008ABF8BBF88E10FB6F89481BD11BC0FBEFB
:1000E000789488952FE088E190E00FB6F894A89571
:1000F00081BD0FBE21BD15BE1BBE08958091660057
:10010000813031F1813038F0823009F444C08330DD
:1001100009F051C049C060916A0088E690E070E043
:10012000D2D0882309F447C0909167009F5F9093D5
:1001300067009EBD943210F484E205C0973810F039
:1001400089E001C082E180936A009F3FA1F527C04A
:1001500060916A0088E690E070E0B5D0882359F19C
:10016000909167009150909367009EBD943230F457
:1001700084E280936A00992349F00895973810F03B
:1001800089E001C082E180936A00089585E0809350
:100190006600C19808958FEF8EBD8093670084E05C
:1001A00080936600C19A08951EBC1092670085E096
:1001B00080936600C198089580E690E063E670E061
:1001C00082D0882341F180916400882359F4B29948
:1001D00022C081E0809364008093650082E690E015
:1001E00088D019C0B29B17C010926400809165003E
:1001F000882389F01092650080916600882311F0B1
:10020000853011F482E005C0813011F0843019F49A
:1002100083E080936600809165008823C9F082E6C0
:1002200090E069E271E04FD0882391F01092650070
:1002300080916600813011F0853019F410926600CB
:100240000895882311F0843019F481E080936600CA
:1002500008952FE088E190E00FB6F894A89581BD4D
:100260000FBE21BD80E888B982E087BB84E088BBEF
:10027000C19885BB1FD01EBC8FEF8DBD85E680BFAA
:100280001092670083E08093660084E280936A00A6
:1002900088E690E02ED0109264001092650080E60F
:1002A00090E027D08BE690E024D0789485DF26DF9D
:1002B000F9DEFCCF82E08ABD83BF8DE789BD89B7B7
:1002C000806189BF0895FC018FB7F89420916D007B
:1002D00030916E008FBF80819181A901481B590B1D
:1002E0004617570710F480E008953183208381E09A
:1002F0000895FC012FB7F89480916D0090916E00E5
:10030000918380832FBF08951F920F920FB60F9293
:1003100011248F939F9380916D0090916E000196B0
:1003200090936E0080936D009F918F910F900FBE00
:0A0330000F901F901895F894FFCF6E
:00000001FF
