:020000040800F2
:1000000000040020D12100086125000861250008B6
:1000100061250008612500086125000861250008A8
:10002000612500086125000861250008A12000085D
:10003000612500086125000861250008712100087C
:100040006125000861250008612500086125000878
:100050006125000861250008612500086125000868
:10006000612500086125000861250008612300085A
:1000700091230008C1230008F1230008212400086F
:10008000512400088124000861250008612500082A
:100090006125000861250008612500086125000828
:1000A0006125000861250008612500086125000818
:1000B0006125000861250008612500086125000808
:1000C00061250008612500086125000861250008F8
:1000D00061250008612500086125000861250008E8
:0C00E0006125000861250008612500086A
:1000F00007B500210A460B46394802F099FA3848FC
:1001000002F036FA02F0BCF801F0B2FE354B996904
:100110009A6942F001029A61334A506820F0E06027
:1001200040F000705060CA0703D49A6922F00102BF
:100130009A612C4C2D482E494FF47A3202F000FC83
:10014000A36943F00403A3612A4BDA6822F4007226
:10015000DA605A6822F0F0025A605A6842F080026F
:100160005A60A36943F00803A361234BDA6842F0A5
:100170000402DA601A6822F470621A601A6842F4A3
:1001800000621A6000F07CFF01F04AFD636A13F020
:10019000005511D0636A154843F0807363621749B4
:1001A00002F06EFB01F0B4FA154801F021FD40F2B7
:1001B000E73001F005FFFAE7094B124C9A680B484B
:1001C00000920CCB104902F05BFB62686423138041
:1001D00040F2E73001F0F4FE63681D80E2E700BF03
:1001E0007012002000100240000001404413002063
:1001F0000044004000080140000C0140402E00086F
:10020000C8110020F8110020432E00080000000053
:100210002DE9F0478AB004460D4600F051F8DFF8AA
:1002200094A09AF90030013306460F460FD02046BD
:10023000294600F00DF950B14FF000084FF00009C9
:100240002046294642464B4600F062FD20B9304622
:1002500039460AB0BDE8F08701230093144B9AF8A1
:100260000060CDE9044501930023CDE902450893E0
:1002700056B9CDE90689684600F012F970B1089BBD
:100280008BB9DDE90667E2E74046494642464B4600
:1002900000F0F0FB022ECDE90601ECD100F098FE53
:1002A00021230360EBE700F093FE089B0360E8E77F
:1002B000002F0008000800200000000000000000DF
:1002C0002DE9F8430027B946C7F6F077C7F6F0796D
:1002D0000F404F4504460D4602460B460E468046EB
:1002E00000F09980002977DD0F1500F0828026F05C
:1002F0007F43A7F2FF3723F47003FA0743F4801318
:1003000044BF4FEAD8724FEA48084FF0000C48BF8C
:1003100002EB430360464FEAD8727F1002EB4303BF
:1003200016244FEA48024FF400114518D60F9D429B
:100330004FEA4202DEBFC5EB030368188C4449084C
:10034000013C06EB4303F0D12026A0464FF00041CC
:100350000EE081461B1A954288BF013B521B641870
:100360004846D50F49085200013E05EB430315D01E
:10037000984201EB080503DB954298BF8342F0D118
:1003800005F0004905EB0108B9F1004FE1D1B8F1E2
:10039000000FA8BF00F10109DCDADAE7134312D13C
:1003A00066084FEA6C031CF0010F03F17F5318BF7E
:1003B00046F0004603F50013344603EB075520468C
:1003C0002946BDE8F883631C08BF0CF1010CE8D096
:1003D00004F001031C19E3E721F000460643EED0C8
:1003E00041BB0F464FEAD826153F4FEA4858002E2A
:1003F000F8D016F4801319D176000133F102FBD541
:10040000C3F10101C3F1200228FA02F27F1816435A
:1004100008FA03F86BE700F003FA02460B462046A1
:10042000294600F04BF804460D46C8E7202201217A
:100430000023E9E702460B4600F03EF802460B4671
:1004400000F018FB04460D46B9E700BF00000000AD
:1004500050EA010201D102207047D0F1010238BFF9
:100460000022B1F1004F08BF0028F4D021F0004372
:100470004FF6FF71A3F58010C7F6DF71884201D8EF
:1004800004207047B3F5801F01D20320704700207D
:10049000C7F6F070834214BF002002F001007047DD
:1004A0000020704700000000000000000000000075
:1004B00081F0004102E000BF83F0004330B54FEA15
:1004C00041044FEA430594EA050F08BF90EA020F82
:1004D0001FBF54EA000C55EA020C7FEA645C7FEA15
:1004E000655C00F0E2804FEA5454D4EB5555B8BF38
:1004F0006D420CDD2C4480EA020281EA030382EAA9
:10050000000083EA010180EA020281EA0303362D3A
:1005100088BF30BD11F0004F4FEA01314FF4801C0D
:100520004CEA113102D0404261EB410113F0004F1F
:100530004FEA03334CEA133302D0524263EB4303D6
:1005400094EA050F00F0A780A4F10104D5F1200E74
:100550000DDB02FA0EFC22FA05F2801841F10001CF
:1005600003FA0EF2801843FA05F359410EE0A5F1A3
:1005700020050EF1200E012A03FA0EFC28BF4CF0D4
:10058000020C43FA05F3C01851EBE37101F000458A
:1005900007D54FF0000EDCF1000C7EEB00006EEB97
:1005A0000101B1F5801F1BD3B1F5001F0CD3490821
:1005B0005FEA30004FEA3C0C04F101044FEA445278
:1005C00012F5800F80F09A80BCF1004F08BF5FEAFF
:1005D000500C50F1000041EB045141EA050130BDDF
:1005E0005FEA4C0C404141EB010111F4801FA4F182
:1005F0000104E9D191F0000F04BF01460020B1FAD7
:1006000081F308BF2033A3F10B03B3F120020CDA0E
:100610000C3208DD02F1140CC2F10C0201FA0CF0EC
:1006200021FA02F10CE002F11402D8BFC2F1200C51
:1006300001FA02F120FA0CFCDCBF41EA0C01904007
:10064000E41AA2BF01EB0451294330BD6FEA040450
:100650001F3C1CDA0C340EDC04F11404C4F120023B
:1006600020FA04F001FA02F340EA030021FA04F34D
:1006700045EA030130BDC4F10C04C4F1200220FAA4
:1006800002F001FA04F340EA0300294630BD21FAE2
:1006900004F0294630BD94F0000F83F4801306BFA8
:1006A00081F480110134013D4EE77FEA645C18BF9C
:1006B0007FEA655C29D094EA050F08BF90EA020F33
:1006C00005D054EA000C04BF1946104630BD91EA2B
:1006D000030F1EBF0021002030BD5FEA545C05D12E
:1006E0004000494128BF41F0004130BD14F580046D
:1006F0003CBF01F5801130BD01F0004545F0FE41E1
:1007000041F470014FF0000030BD7FEA645C1ABF15
:10071000194610467FEA655C1CBF0B46024650EA4C
:10072000013406BF52EA033591EA030F41F4002178
:1007300030BD00BF90F0000F04BF0021704730B5FE
:100740004FF4806404F132044FF000054FF00001D3
:1007500050E700BF90F0000F04BF0021704730B594
:100760004FF4806404F1320410F0004548BF404269
:100770004FF000013EE700BF42004FEAE2014FEABE
:1007800031014FEA02701FBF12F07F4393F07F4F99
:1007900081F06051704792F0000F14BF93F07F4FCB
:1007A000704730B54FF4607401F0004521F000410E
:1007B00020E700BF50EA010208BF704730B54FF094
:1007C00000050AE050EA010208BF704730B511F099
:1007D000004502D5404261EB41014FF4806404F1D1
:1007E00032045FEA915C3FF4DCAE4FF003025FEA53
:1007F000DC0C18BF03325FEADC0C18BF033202EBDB
:10080000DC02C2F1200300FA03FC20FA02F001FA34
:1008100003FE40EA0E0021FA02F11444C1E600BFD3
:1008200070B54FF0FF0C4CF4E06C1CEA11541DBF86
:100830001CEA135594EA0C0F95EA0C0F00F0DEF851
:100840002C4481EA030621EA4C5123EA4C5350EA36
:10085000013518BF52EA033541F4801143F4801387
:1008600038D0A0FB02CE4FF00005E1FB02E506F018
:100870000042E0FB03E54FF00006E1FB03569CF06D
:10088000000F18BF4EF0010EA4F1FF04B6F5007F73
:1008900064F5407404D25FEA4E0E6D4146EB0606E5
:1008A00042EAC62141EA55514FEAC52040EA5E506E
:1008B0004FEACE2EB4F1FD0C88BFBCF5E06F1ED818
:1008C000BEF1004F08BF5FEA500E50F1000041EB4F
:1008D000045170BD06F0004646EA010140EA0200FC
:1008E00081EA0301B4EB5C04C2BFD4EB0C0541EA1E
:1008F000045170BD41F480114FF0000E013C00F333
:10090000AB8014F1360FDEBF002001F0004170BD56
:10091000C4F10004203C35DA0C341BDC04F114046F
:10092000C4F1200500FA05F320FA04F001FA05F2FB
:1009300040EA020001F0004221F0004110EBD370C8
:1009400021FA04F642EB06015EEA430E08BF20EAF4
:10095000D37070BDC4F10C04C4F1200500FA04F397
:1009600020FA05F001FA04F240EA020001F0004129
:1009700010EBD37041F100015EEA430E08BF20EA9C
:10098000D37070BDC4F1200500FA05F24EEA020EE4
:1009900020FA04F301FA05F243EA020321FA04F013
:1009A00001F0004121FA04F220EA020000EBD370CA
:1009B0005EEA430E08BF20EAD37070BD94F0000FCA
:1009C0000FD101F00046400041EB010111F4801FFE
:1009D00008BF013CF7D041EA060195F0000F18BFAF
:1009E000704703F00046520043EB030313F4801FEB
:1009F00008BF013DF7D043EA0603704794EA0C0FA5
:100A00000CEA135518BF95EA0C0F0CD050EA4106BA
:100A100018BF52EA4306D1D181EA030101F0004137
:100A20004FF0000070BD50EA410606BF104619465F
:100A300052EA430619D094EA0C0F02D150EA01366B
:100A400013D195EA0C0F05D152EA03361CBF1046AC
:100A500019460AD181EA030101F0004141F0FE414B
:100A600041F470014FF0000070BD41F0FE4141F4CF
:100A7000780170BD70B54FF0FF0C4CF4E06C1CEACF
:100A800011541DBF1CEA135594EA0C0F95EA0C0F84
:100A900000F0A7F8A4EB050481EA030E52EA03353F
:100AA0004FEA013100F088804FEA03334FF0805560
:100AB00045EA131343EA12634FEA022245EA11158D
:100AC00045EA10654FEA00260EF000419D4208BF3E
:100AD000964244F1FD0404F5407402D25B084FEAEB
:100AE0003202B61A65EB03055B084FEA32024FF497
:100AF00080104FF4002CB6EB020E75EB030E22BFF4
:100B0000B61A754640EA0C005B084FEA3202B6EBB3
:100B1000020E75EB030E22BFB61A754640EA5C0062
:100B20005B084FEA3202B6EB020E75EB030E22BFF2
:100B3000B61A754640EA9C005B084FEA3202B6EBF3
:100B4000020E75EB030E22BFB61A754640EADC00B2
:100B500055EA060E18D04FEA051545EA16754FEA14
:100B600006164FEAC30343EA52734FEAC2025FEA32
:100B70001C1CC0D111F4801F0BD141EA00014FF0C1
:100B800000004FF0004CB6E711F4801F04BF014392
:100B90000020B4F1FD0C88BFBCF5E06F3FF6AFAEAE
:100BA000B5EB030C04BFB6EB020C5FEA500C50F13E
:100BB000000041EB045170BD0EF0004E4EEA1131C1
:100BC00014EB5C04C2BFD4EB0C0541EA045170BDC8
:100BD00041F480114FF0000E013C90E645EA060E0C
:100BE0008DE60CEA135594EA0C0F08BF95EA0C0F3A
:100BF0003FF43BAF94EA0C0F0AD150EA01347FF482
:100C000034AF95EA0C0F7FF425AF104619462CE758
:100C100095EA0C0F06D152EA03353FF4FDAE1046BB
:100C2000194622E750EA410618BF52EA43067FF40C
:100C3000C5AE50EA41047FF40DAF52EA43057FF49C
:100C4000EBAE12E700000000000000000000000012
:100C50004FF0FF3C06E000BF4FF0010C02E000BF88
:100C60004FF0010C4DF804CD4FEA410C7FEA6C5C6B
:100C70004FEA430C18BF7FEA6C5C1BD001B050EA0E
:100C8000410C0CBF52EA430C91EA030F02BF90EAF9
:100C9000020F0020704710F1000F91EA030F58BFB8
:100CA000994208BF90422CBFD8176FEAE37040F01A
:100CB000010070474FEA410C7FEA6C5C02D150EAB8
:100CC000013C07D14FEA430C7FEA6C5CD6D152EA73
:100CD000033CD3D05DF8040B704700BF8446104638
:100CE00062468C461946634600E000BF01B5FFF737
:100CF000B7FF002848BF10F1000F01BD4DF808ED07
:100D0000FFF7F4FF0CBF012000205DF808FB00BFD7
:100D10004DF808EDFFF7EAFF34BF012000205DF831
:100D200008FB00BF4DF808EDFFF7E0FF94BF01207E
:100D300000205DF808FB00BF4DF808EDFFF7CEFF7F
:100D400094BF012000205DF808FB00BF4DF808EDBE
:100D5000FFF7C4FF34BF012000205DF808FB00BF8F
:100D60004FEA410212F5001215D211D56FF47873D3
:100D7000B3EB625212D94FEAC12343F0004343EA76
:100D8000505311F0004F23FA02F018BF4042704751
:100D90004FF00000704750EA013005D111F00040DB
:100DA00008BF6FF0004070474FF00000704700BF71
:100DB00080F0004002E000BF81F0004142001FBF10
:100DC0005FEA410392EA030F7FEA226C7FEA236C19
:100DD0006AD04FEA1262D2EB1363C1BFD21841400E
:100DE00048404140B8BF5B42192B88BF704710F0A4
:100DF000004F40F4000020F07F4018BF404211F047
:100E0000004F41F4000121F07F4118BF494292EAAE
:100E1000030F3FD0A2F1010241FA03FC10EB0C00DA
:100E2000C3F1200301FA03F100F0004302D5494267
:100E300060EB4000B0F5000F13D3B0F1807F06D314
:100E400040084FEA310102F10102FE2A51D2B1F10C
:100E5000004F40EBC25008BF20F0010040EA030001
:100E60007047490040EB000010F4000FA2F10102AE
:100E7000EDD1B0FA80FCACF1080CB2EB0C0200FA38
:100E80000CF0AABF00EBC25052421843BCBFD04086
:100E90001843704792F0000F81F4000106BF80F400
:100EA00000000132013BB5E74FEA41037FEA226CC3
:100EB00018BF7FEA236C21D092EA030F04D092F08E
:100EC000000F08BF0846704790EA010F1CBF0020C2
:100ED000704712F07F4F04D1400028BF40F000401F
:100EE000704712F100723CBF00F50000704700F03F
:100EF000004343F0FE4040F4000070477FEA226266
:100F000016BF08467FEA23630146420206BF5FEA36
:100F1000412390EA010F40F4800070474FF0000336
:100F200004E000BF10F0004348BF40425FEA000CFD
:100F300008BF704743F0964301464FF000001CE0A5
:100F400050EA010208BF70474FF000030AE000BFFB
:100F500050EA010208BF704711F0004302D5404239
:100F600061EB41015FEA010C02BF844601460020AB
:100F700043F0B64308BFA3F18053A3F50003BCFAC6
:100F80008CF2083AA3EBC25310DB01FA02FC634473
:100F900000FA02FCC2F12002BCF1004F20FA02F27A
:100FA00043EB020008BF20F00100704702F120026D
:100FB00001FA02FCC2F1200250EA4C0021FA02F2CE
:100FC00043EB020008BF20EADC707047000000001D
:100FD00040F60803C2F200031868704700000000E2
:100FE0000F2AF0B440D941EA00039B073ED10C46DA
:100FF000034615462668103D1E6066685E60A6685A
:101000009E60E6681034DE6010330F2DF2D8A2F136
:10101000100502F00F0425F00F051035032C00EB2E
:101020000503294424D9A4F1040C1D460C464FEABB
:101030009C0C01EB8C07043754F8046BBC4245F858
:10104000046BF9D10CF1010402F00302A4000919A8
:101050001B193AB101399A1811F8014F03F8014BE5
:101060009342F9D1F0BC70470346F2E70346F1E73B
:101070002246EEE700000000000000000000000033
:101080002DE9FF47DFF8AC80284C04254FF47A7730
:1010900000262046414609222B468DE8A0000296F4
:1010A00001F03EFB2368DFF890904FF47A641C85D2
:1010B000022348468DE88800414607222B460296C7
:1010C00001F02EFBD9F80030DFF870901C85032367
:1010D00048468DE88800414608222B46029601F0DA
:1010E0001FFBDFF85CA0D9F800304FF001091C8528
:1010F00050460F4908224B46CDF8009001970296C2
:1011000001F00EFBDAF80030DFF838A01C855046FD
:101110002B46CDF80090019702964146062201F039
:10112000FFFADAF800301C85BDE8FF87480C002084
:1011300000080140000C0140680C0020600C0020F9
:10114000580C0020500C002000000000000000009F
:10115000124B984205D103F584339A6942F0040298
:1011600019E00F4B984205D103F582339A6942F09A
:10117000080210E00B4B984205D103F580339A69C1
:1011800042F0100207E0084B984205D103F57C437A
:101190009A6942F020029A61704700BF000801403E
:1011A000000C01400010014000140140000000004C
:1011B00070B50D4616460446FFF7CAFFB300072D6B
:1011C00043F003030ED8AD00EDB20F2202FA05F290
:1011D00003FA05F5216821EA02022260226815431C
:1011E000256070BD083DAD00EDB20F2202FA05F298
:1011F00003FA05F3616821EA020262606268134340
:10120000636070BD000000000000000000000000EE
:1012100002231A46013B002AFBD170470000000060
:101220008288012101FA02F203681A617047000006
:101230008288012101FA02F203685A6170470000B6
:10124000C288012101FA02F203681A6170470000A6
:1012500010B50446C3800160828008461146012211
:10126000FFF7A6FF2068E1880122FFF7A1FF2046D3
:10127000FFF7D6FF2046FFF7E3FF10BD0000000098
:1012800010B50446FFF7CCFF2046FFF7D9FFFFF764
:10129000BFFFE288012000FA02F2236899680A423F
:1012A0000BD0A488996800FA04F0084204D05A616F
:1012B000FFF7AEFF002010BD022010BD00000000AF
:1012C00010B50446FFF7B4FFFFF7A2FF2046FFF773
:1012D000A7FFE288012101FA02F223685A61FFF7B1
:1012E00097FF2046FFF7ACFFBDE81040FFF790BF27
:1012F00010B50446FFF79CFFFFF78AFFE288012143
:1013000001FA02F223685A61FFF782FF2046FFF7D5
:1013100087FFFFF77DFF2046FFF78AFFBDE81040FB
:10132000FFF776BF00000000000000000000000092
:1013300010B50446FFF77CFFFFF76AFF2046FFF772
:101340007FFFFFF765FF2046FFF76AFFFFF760FFAB
:101350002046FFF76DFFBDE81040FFF759BF0000C2
:10136000F8B504460D46082601272046FFF760FF22
:101370002B0603D52046FFF763FF04E0E2882368CD
:1013800007FA02F25A61FFF743FF013E20466D0063
:10139000FFF746FFFFF73CFF16F0FF06EDB2E4D182
:1013A0002046FFF745FFF8BD0000000000000000E8
:1013B000F8B50546FFF744FF082600240127284614
:1013C000FFF736FFFFF724FF2846FFF729FFFFF757
:1013D0001FFFEA882B6807FA02F29B686400E4B2F8
:1013E0001A4218BF44F00104013E16F0FF06E6D190
:1013F0002846FFF71DFF2046F8BD00000000000052
:1014000038B50446FFF714FF2046FFF719FFFFF732
:10141000FFFE2046FFF704FFFFF7FAFEE2880121F6
:1014200001FA02F2236820469B681A4214BF002585
:101430000125FFF7FDFE284638BD00000000000032
:10144000F8B504460F4615461E46FFF719FF00285B
:101450002DD17900204601F0FE01FFF781FF2046E3
:10146000FFF7CEFFC8B92046FFF72AFF11481249FF
:1014700001F006FA0220F8BD15F8011BFFF770FF16
:101480002046FFF7BDFF50B92046FFF719FF094876
:101490000A4901F0F5F90320F8BD7619B6B2ABB2EE
:1014A0009E422046E8D1FFF70BFF0020F8BD012047
:1014B000F8BD00BF44130020002C0008052C0008D4
:1014C0002DE9F047089F9946BDF824500446884608
:1014D0009246202383F31188FFF7D2FE06460028A8
:1014E00061D14FEA4801204601F0FE01FFF738FFC5
:1014F0002046FFF785FF28B93048314901F0C0F98F
:10150000022551E0334683F31188202383F31188A9
:10151000D14456461FFA89F90EE0204616F8011B01
:10152000FFF71EFF2046FFF76BFF28B92348254928
:1015300001F0A6F9032537E0B3B29945EDD10023B8
:1015400083F31188202383F3118820464FEA48084B
:10155000FFF796FE48F001012046C9B2FFF700FFF1
:101560002046FFF74DFF28B91448154901F088F9C6
:10157000042519E0002383F31188202383F31188C5
:101580000EE02046FFF714FF012D07F8010B20465F
:1015900002D0FFF7ADFE01E0FFF7CAFE013DADB29C
:1015A000002DEED100E001252046FFF789FE002343
:1015B00083F311882846BDE8F08700BF441300205C
:1015C000002C0008052C00080000000000000000AE
:1015D00010B5837D86B0044683B304A9012306AA0F
:1015E00002F80C3D0091062101911C21FFF768FFD4
:1015F00028B10023A3751248124901F041F99DF862
:1016000011309DF810209DF8121043EA022212B208
:10161000102392FBF3F222839DF8132042EA012269
:1016200012B292FBF3F262839DF814109DF815201C
:1016300042EA012212B292FBF3F3A38306B010BD7B
:10164000441300200B2C00080000000000000000E4
:1016500073B5028A0446C168438AFFF7F9FDE5685D
:101660000023A68AA3752846FFF772FD072E0FD820
:10167000B600F6B20F2303FA06F32A6822EA030340
:10168000042202FA06F62B602B681E432E600FE040
:10169000083EB600F6B20F2303FA06F36A6822EAA0
:1016A0000303042202FA06F66B606B681E436E6049
:1016B0000E238DF80030012620461C216A460223A5
:1016C0008DF80160FFF7BCFE054610B10023A3753D
:1016D0001CE02A238DF8003021238DF801300223ED
:1016E0008DF8033004238DF802008DF804008DF886
:1016F000053020461C216A460623FFF7A1FE08B1EB
:10170000A57503E0A6752046FFF762FF7CBD0000CB
:10171000F8B52C4C0F2120460022FFF749FD4FF46D
:10172000004323614FF4E17000F04AFC264B274A46
:101730000721DA64DA66C3F88C20C3F8AC200A22E9
:10174000A3F8B0200B22042701254FF0030E052635
:101750000620DC60DC62998600244FF0020CA3F8BE
:101760009210A3F8B22008210C229F82A3F8727075
:101770001D82A3F812E01E865886A3F85040A3F8F5
:101780005250A3F854C0A3F870E0A3F87460A3F813
:101790009000A3F89410A3F8B4201F4607EB44165A
:1017A0003046FFF755FFB37D0134002B08BF0025FD
:1017B000062CF3D12DB106480649BDE8F84001F0EA
:1017C0005FB8F8BD00080140700C00200010014017
:1017D00044130020112C000800000000000000004D
:1017E000094B5A6800231380084A52681380084A3C
:1017F00052681380074A52681380074A5268138060
:10180000064A526813807047680C0020480C00207C
:10181000600C0020580C0020500C0020F811002013
:1018200010B5064CFA2263684FF4FA701A8000F083
:10183000C7FB636850221A8010BD00BFF81100205A
:101840000D4B10B51B780BB1018007E00388052410
:101850001AB28A1A92FBF4F2D31803800388C91AC9
:1018600009B20029B8BF494209B2142902DD034B6D
:1018700064221A8010BD00BF380C00203A0C0020F2
:1018800070B503264E430546B2F9001000EB460042
:101890001446FFF7D5FF701C05EB4000B4F90210A9
:1018A000FFF7CEFFB01CB4F9041005EB4000BDE813
:1018B0007040FFF7C5BF00000000000000000000FE
:1018C0002DE9F84380468946174600260024002566
:1018D00038F9063039F906000236C01AFEF73AFF29
:1018E00002460B46FEF79CFF02460B462046294661
:1018F000FEF7E4FD2A2E04460D46E9D1FEF788FCEA
:10190000FFF72EFA84B23846FFF70CFBFEF734FFE0
:101910004FF03332064BFEF783FFFFF721FA25B273
:101920004FF6FF738542C8BF1C4620B2BDE8F8835E
:101930003333F33F0000000000000000000000000F
:101940008F4B2DE9F74F9B698E4A9A618E4BDA686F
:101950008E4B1A60092000F033FB8D4B1B78002B57
:10196000F8D08C4B1A88013A92B2100448BF00227A
:101970001A80894B1A68013A002A1A6011DA00228B
:101980001A60864BFF221A70FFF72AFF844B6421EE
:101990001A685143834AB1FBF2F002FB1012633222
:1019A0001A60DFF8449200277D0105EB0904A37D4E
:1019B000FEB2002B00F0C7802046FFF709FE05F1BC
:1019C000180231464A447848FFF75AFF744A73496F
:1019D000136891F80080002642F20F7A9346F4B221
:1019E0000194724A724C2A2101FB06216E4834F997
:1019F00016200093FFF764FFB0F1000C009B68DB3A
:101A0000DBF80050642255436649B5FBF1F001FB59
:101A100010557519B5FBF2F102FB1152092A9CBF52
:101A200064498C5C42F21072B5FBF2F102FB115278
:101A300040F2F51188BFFF248A4211D007D8012A4D
:101A400012D040F22D118A4208BF04240DE040F26A
:101A500059218A4206D0C8318A4208BF0D2404E0C9
:101A6000072402E00A2400E014464CF2B632954204
:101A70000FD006D8662D7ED047F2985295420ED1EF
:101A80000BE04EF6CB22954205D04B4A954206D14B
:101A900073E0082405E00B2403E0052401E021069F
:101AA00017D40FFA8AF2944513DA019A3E4B434851
:101AB00083F82A20424B43491A68374BA0461A60E4
:101AC0003246CDF800C000F0DBFEDDF800C02B464A
:101AD000E24601360B2E82D1314A13602F4A4FFA6B
:101AE00088F392F9001099423DD0013382F80080CA
:101AF000102B38D8DFE803F0090C10170C101F0C5E
:101B000010190C101D0C101B0900FFF769FE2AE0CC
:101B10002D4B50225B6804E0FFF762FE2A4B9622B1
:101B20005B681A801FE0294B06E0294B04E0294B33
:101B300002E0294B00E0294B5B684FF4FA721A80EF
:101B4000FFF76EFE0FE01D483A46254900F098FE6B
:101B50001F4B20465A684FF47A7313801D4A52680F
:101B60001380FFF775FD0137062F7FF41DAF1D4B66
:101B700000221A70EEE6022493E70E2491E700BFDC
:101B8000F0140020202E0008B0150020340D002095
:101B9000C81100203A0C0020300D0020400C00201D
:101BA0003C0C002040420F00CA110020302C0008DD
:101BB000002E0008202C0008EB3801004413002000
:101BC000440C0020242E0008F8110020580C00209E
:101BD000480C0020600C0020680C0020500C0020F5
:101BE000292E0008380C0020700C00200000000096
:101BF00007B501230370002300934FF49261402244
:101C0000024B034800F0C4F90EBD00BF41190008A3
:101C1000380D00200000000000000000000000005F
:101C20001FB5FA22022301920022009302920A4871
:101C300003220A4900F074FD094B9A6942F001023F
:101C40009A61A3F588335A6822F4407242F4807294
:101C50005A6005B000BD00BFF8110020000C014023
:101C60000010024000000000000000000000000022
:101C7000054A064B22F007021A60054A054B22F07E
:101C800007021A60704700BFC71500200412002029
:101C900000200020001200200000000000000000D2
:101CA000034B00225B601B609A605B611B617047A5
:101CB000F014002000000000000000000000000000
:101CC000002303778168054B1B689A688A42FBD220
:101CD0005A6803604260106058607047F01400203A
:101CE00008B5202383F31188037F83B1032B08D128
:101CF000436A9A6801329A6090E80C001A600268A0
:101D000053604FF0FF334362FFF7DAFF002383F3A2
:101D1000118808BD00000000000000000000000065
:101D2000064B14229969087718688A77026853600D
:101D30001A6098610123037700F02ABAF01400209A
:101D400010B54B1C86B004460ED00B4B01A89B6906
:101D50000A4A00F06DF92046FFF7E2FF049B2BB121
:101D600001A800F07DF901E0FFF7DAFF024B9B6963
:101D7000586A06B010BD00BFF0140020E11C000836
:101D800038B50C4D4162AB6981689A68044691424E
:101D900003D8BDE83840FFF793BF1846FFF790FF20
:101DA000012301462046AC612377BDE8384000F0AE
:101DB000EFB900BFF0140020000000000000000098
:101DC00038B50A4C2368A5691A6828465460226011
:101DD0000122A3611A771423AB77FFF771FFA06983
:101DE0002946BDE8384000F0D3B900BFF014002008
:101DF0000C4B10B51868996902688C6853601A60BA
:101E000001220277002298610A771B689A68A24231
:101E1000FBD85A680B604A6011605960BDE81040F9
:101E200000F0B6B9F014002000000000000000002F
:101E3000034B9B699B7F0BB9FFF7C2BFFFF7D8BF6E
:101E4000F01400200000000000000000000000006E
:101E5000024B034A9B699A6130BFFDE7F0140020F2
:101E6000902E0008000000000000000000000000AC
:101E700007B500F025F9FFF713FF00F0C9F8FFF7E9
:101E8000F7FE40210A4800F053F80A490122886110
:101E90000277002383F3118862B607488969886155
:101EA0000093A021054B064800F072F80EBD00BF5C
:101EB00008120020F0140020702E0008511E0008A7
:101EC00010150020000000000000000000000000CD
:101ED00038B5134B9B699A7F0AB1013A9A771A6A0F
:101EE00001321A620F4BDA680132DA601A689A42DC
:101EF00014D091681C46013991600BE01168D568D7
:101F00004C60D360216083F311881069A8472023B7
:101F100083F3118822689368002BEFD038BD00BF8F
:101F2000F0140020B01500200000000000000000A8
:101F30000222027700224277826202628261054AAF
:101F400081601421817751690261416150610861AA
:101F5000704700BFF01400200000000000000000E7
:101F6000243930B54518C5604350039B04466B6067
:101F7000034B11462B62BDE83040FFF7D9BF00BFCD
:101F8000A121000800000000000000000000000087
:101F900037B51D46202383F31188069C2B460094F9
:101FA000FFF7DEFF00210446FFF7EAFE002383F37C
:101FB000118820463EBD0000000000000000000027
:101FC00008B50146202383F311880620FFF7B8FEE9
:101FD000002383F3118808BD00000000000000000A
:101FE000064B9B695A7F5862920704D15A69196956
:101FF00011611B695A610E20FFF792BEF014002098
:10200000202383F31188FFF7EBBF000000000000DE
:10201000044B4FF0FF329A6000225B601B60DA6075
:10202000704700BFB0150020000000000000000055
:102030000361C260094B00E0891A1B689A688A42F2
:10204000FAD35A68036042601060044A58609342B1
:10205000816002D09A68511A99607047B0150020CB
:102060000368074A934203D0996882688A189A6085
:102070004268136003685A600023C360704700BF62
:10208000B01500200000000000000000000000006B
:10209000FFF7CEFE00DF000000000000000000009F
:1020A000EFF30983203383F30988002383F3118836
:1020B0007047000000000000000000000000000069
:1020C00008B50A4B00229A60094A0720DA601021FD
:1020D00000F02EF90A204FF4007100F029F90B20CE
:1020E0008021BDE8084000F023B900BF00ED00E00A
:1020F0000003FA05000000000000000000000000DE
:10210000202383F31188144B5B6813F4006320D001
:10211000EFF30983A3F1200282F309884FF0807264
:1021200043F8042C0D4A91691268887F9268896887
:1021300020B18A4294BF0022012203E08A4234BFC8
:10214000002201220AB1064A00E0064A43F8082CA0
:10215000704783F31188704700ED00E0F014002011
:1021600091200008942000080000000000000000FA
:1021700008B5202383F31188FFF7AAFE002383F319
:102180001188BDE80840FFF7BBBF00000000000059
:102190002DE9F04FC1F80CD0D0F80CD0BDE8F08F8D
:1021A000002383F311882846A047FFF729FF7047D3
:1021B0007047000000000000000000000000000068
:1021C000FEE700000000000000000000000000002A
:1021D00072B61E4B83F30988022383F31488BFF37E
:1021E0006F8F1B4B1B4A4FF0553101E043F8041B26
:1021F0009342FBD3184B154A4FF0553101E043F899
:10220000041B9342FBD300F02BFA144C0023144A16
:10221000144802E019599950043399188142F9D3AE
:10222000114B124A002101E043F8041B9342FBD3F7
:10223000FFF7BEFF0E4C0F4D02E054F8043B9847E9
:10224000AC42FAD3FDF754FFFFF7BAFF00080020B5
:10225000000000200004002000040020182F0008C7
:1022600000080020480C0020480C0020C015002069
:10227000EC000008EC000008000000000000000076
:1022800000F006B8000000000000000000000000A0
:102290000D4B00211A694FF0FF321A611961D8689D
:1022A000DA600A4AD96010684FF47A72B0FBF2F033
:1022B000074A01385060916007211160DA6942F0E5
:1022C0008052DA6100F0F4B8001002407012002071
:1022D00010E000E00000000000000000000000002E
:1022E00070B500F00304E400FF2505FA04F501FAD7
:1022F00004F10B4B8208C03253F8226026EA050530
:102300000D4343F822500121420900F01F0001FA59
:1023100000F002F1600143F8210043F8220070BD93
:1023200000E100E0000000000000000000000000EC
:10233000820800F0030030B5C000FF2404FA00F466
:1023400001FA00F1044B063253F8225025EA040446
:102350000C4343F8224030BD00ED00E000000000D7
:1023600008B5074B0F2219685A60064A01F00F01A1
:1023700013680BB150689847BDE80840FFF7C0BE2E
:1023800000000240341200200000000000000000A5
:1023900008B5074BF02219685A60064AC1F30311C9
:1023A00093680BB1D0689847BDE80840FFF7A8BE16
:1023B0000000024034120020000000000000000075
:1023C00008B5084B4FF4706219685A60064AC1F3A9
:1023D000032113690BB150699847BDE80840FFF726
:1023E0008FBE00BF00000240341200200000000039
:1023F00008B5084B4FF4704219685A60064AC1F399
:10240000033193690BB1D0699847BDE80840FFF7E5
:1024100077BE00BF00000240341200200000000020
:1024200008B5084B4FF4702219685A60064AC1F388
:102430000341136A0BB1506A9847BDE80840FFF7A3
:102440005FBE00BF00000240341200200000000008
:1024500008B5084B4FF4700219685A60064AC1F378
:102460000351936A0BB1D06A9847BDE80840FFF763
:1024700047BE00BF000002403412002000000000F0
:1024800008B5084B4FF0706219685A60064AC1F3EC
:102490000361136B0BB1506B9847BDE80840FFF721
:1024A0002FBE00BF000002403412002000000000D8
:1024B000094A30B50023094D094C136019461A46E4
:1024C00050590C32016019510833542AF8D1054B88
:1024D0004FF0FF325A6030BD6C120020A02E000871
:1024E0003412002000000240000000000000000044
:1024F000F8B5447A012505FA04FC164E37681CEA43
:10250000070F23D1144D45F8342005EBC404636054
:102510004CEA070333605B0604D0104B5C6944F05F
:1025200001045C6103680F261C6824F001041C6030
:10253000057A446806FA05F5256000241C603AB166
:10254000807A0901FFF7CCFE2046F8BD2846F8BD89
:102550001046F8BD6C12002034120020001002401A
:10256000FEE7000000000000000000000000000086
:10257000284AF0B5536887B003F00C03082B0446D3
:1025800014D1D66A53685268C3F383430233112BC4
:1025900008BF1023D00306D506F00F061E4A0136E9
:1025A000B2FBF6F600E01D4E5E4300E01A4E1C4BF7
:1025B00002AD03F11007186859682A4603C20833B0
:1025C000BB421546F7D1134D06A96B68C3F303133D
:1025D000CB1813F8102C134926FA02F20868496840
:1025E0006B4603C322606B6806A9C3F30223CB18B2
:1025F00013F8183C22FA03F363606B6803F460532A
:1026000001EB132313F8183C22FA03F2A26007B07F
:10261000F0BD00BF0010024000127A0000093D002A
:10262000E02B0008F02B0008000000000000000074
:10263000074810B5446824F47F5424F0300444EA79
:10264000011141EA022242EAC323436010BD00BFE8
:102650000010024000000000000000000000000028
:10266000044B1A6842F001021A601A689207FCD5FE
:10267000704700BF00100240000000000000000092
:10268000224B984203F5843303D19A6942F0040245
:1026900013E01F4A904203D19A6942F008020CE00D
:1026A0001C4A904203D19A6942F0100205E01A4A8E
:1026B000904203D19A6942F020029A61174B072990
:1026C0009A6942F001029A610FD88900C9B20F23BA
:1026D00003FA01F3026822EA03030B2202FA01F172
:1026E0000360036819430160704708398900C9B263
:1026F0000F2303FA01F3426822EA03030B2202FAD2
:1027000001F143604368194341607047000801408C
:10271000000C014000100140001401400010024074
:1027200038B51D46044608461146FFF7A9FF6B1E43
:10273000102B00F29780DFE803F009111A2295951B
:1027400095959595959595952B333B00464B236034
:1027500003F564439A6942F4006230E04FF080432D
:10276000236003F50433DA6942F001020EE03F4BC7
:10277000236003F50333DA6942F0020206E03C4BC2
:10278000236003F50233DA6942F00402DA6117E0EC
:10279000384B236003F550439A6942F480320EE0CF
:1027A000354B236003F54C439A6942F4003206E04E
:1027B000324B236003F548439A6942F480229A61C0
:1027C000236801221A8000229A80BDF814209DF807
:1027D00010109A854FF44042A3F844209DF8182029
:1027E0000139002A0CBF06220722032937D8DFE867
:1027F00001F0020F1C2903F134016160198B89B2C9
:1028000041EA02121A831A8C92B242F0010225E0C8
:1028100003F138016160198B89B241EA02321A83EF
:102820001A8C92B242F0100218E003F13C01616090
:10283000998B89B241EA02129A831A8C92B242F4BD
:1028400080720BE003F140016160998B89B241EA2B
:1028500002329A831A8C92B242F480521A846368CC
:1028600000221A8038BD00BF002C01400004004047
:102870000008004000400140004401400048014081
:102880000EB42DE9F7412A4F09AA52F8041B044659
:102890003846019200F024F994F8AA3140F29515D7
:1028A000A84238BF054604F10808D3B12A4640467D
:1028B0003946FEF795FB05F10803E318C4F8A0318B
:1028C000C4F8A4310023A4F8A83184F8AA316368BD
:1028D0001B68C3F80C805D601A6842F001021A6040
:1028E00022E0D4F8A001B4F8A831C0EB080606F243
:1028F0009516EB18B542A4F8A831394606D22A46F7
:10290000FEF76EFBD4F8A0315D190BE03246FEF7FE
:1029100067FBAD1B04D04046B9192A46FEF760FBA1
:1029200008356519C4F8A051BDE8FE4103B07047F1
:102930007C120020000000000000000000000000E9
:1029400038B500F10803C0F8A031C0F8A431002365
:10295000A0F8A831012380F8AA31204B04469942FF
:10296000154601600BD11E4B092143601D48FFF73E
:1029700087FE1D4B9A6942F480429A610DE01B4B21
:1029800099420AD11A4B022143601648FFF778FE9C
:10299000154BDA6942F40032DA61164B21689B6804
:1029A0008022B3FBF5F5ADB200230D810B828A8244
:1029B00008228A81606809210F4AFFF799FD636840
:1029C0001A682368191D916042F2920111609A8978
:1029D00092B242F400529A8138BD00BF00380140E3
:1029E000C42E0008000801400010024000440040CE
:1029F000E82E000870120020612A00080000000084
:102A0000416870B50A680F25136823F0010313604D
:102A10000C7A4B6805FA04F41C60B0F8A8311BB9B5
:102A2000012380F8AA3170BDD0F8A45100F1080646
:102A3000741B04F29514A342D56005D25360EB18C1
:102A4000C0F8A431002303E054601B1BC0F8A4614C
:102A5000A0F8A8310B681A6842F001021A6070BD34
:102A60000148FFF7CDBF00BF441300200000000065
:102A70002DE9FF419DF828700024B1FBF2F502FB1F
:102A80001516092E294601D8303600E03736F6B241
:102A90000DF1040C04F80C600134002DEDD1421C42
:102AA000C043254600194FF0200C4FF0300806E0D7
:102AB000002F0CBF6146414602F8011C0132861806
:102AC000511E9E42F4DB0846013C01ABE35C01F879
:102AD000013B002CF8D1401904B0BDE8F0810000A2
:102AE0002DE9F04F074685B00D464FF00A086CE01F
:102AF000252B02D000F8013B67E000242E46234638
:102B000016F8011BA1F1300C5FFA8CF9B9F1090F2D
:102B1000354606D813B9302908BF012408FB03C382
:102B2000EEE773290BD1111D1268013A01E000F89C
:102B3000013B12F8013F002BF9D10A4645E0632919
:102B400004D11368043200F8013B3EE0582904D157
:102B50000094161D1168102205E0752906D1009415
:102B6000161D11680A22FFF783FF2DE064290ED19C
:102B70001168141D002903DA2D2300F8013B494296
:102B800000230A220093FFF773FF22461DE041292C
:102B90001BD11646526856F808AB039200244FF03A
:102BA00020094FF0010B0CE0002CC8BF00F8019B7E
:102BB0001AF804101022CDF800B00223FFF758FFD6
:102BC0000134039B9C42EFDB324615F8013B002B9E
:102BD0008ED10370C01B05B0BDE8F08F000000006F
:102BE00000000000000000000102030406070809BD
:102BF00000000000010203040000000000000000CB
:102C000041646472204E41434B0D004661696C0D76
:102C10000041636320696E6974206F6B0D000000D2
:102C200000FFFF03FF0609FF0C0F0000000000007B
:102C3000FFFFEC016600DEFFF401FCFFF3FFF8018B
:102C400019001A00DB016400F3FFF701E9FFD0FF70
:102C5000F001F4FF000000000000C2FFED014C0095
:102C600023004900EC011B003C00EE012B00D801C1
:102C7000690026006800E301CFFFE2017B0000004D
:102C800000000000C3FFEB014800D6FFE001830015
:102C9000E5FFBE01D9001500D8014C007B0029FEDC
:102CA0004F00CC0057FE4F000000000000000A005B
:102CB00075FE1601AD01CA007E00E101BCFF2000D7
:102CC000DB012C006800EC01CBFFD6FFE301C5FF60
:102CD000DEFF0000000000001CFFA40187009DFF34
:102CE000E4012A00C7FF87FFCF01D8FFE601C5FF37
:102CF0001600C901C2001000E6016A0000000000D1
:102D000000006B00C70194002900E10183001F004F
:102D1000D401A0006900900035FE4000E20181006E
:102D2000FCFFE6017100000000000000D8FF1FFE5C
:102D30008000090063FE0001F5FFDEFFEC01F2FFF9
:102D400078FFDB01F4FFF7FFF001E0FFBAFFE901D4
:102D500000000000000002FFA50143009AFFA1FF50
:102D6000E301F9FFF1014D00C0FFE6011E00EDFF98
:102D7000F7012200C7FFE70120000000000000006B
:102D800063FFD7FFCE0119000DFE210009000CFEE4
:102D90000B000900CEFFF0011F000DFE2B003400D8
:102DA00011FE540000000000000016002FFE4C0031
:102DB0005D0017FEDDFF530015FEFCFF2E002FFE09
:102DC0008F0050001DFE11004F0016FEFAFF00009C
:102DD0000000000050FFF6FFC701E0FF1200F801FD
:102DE000C1FFF9FFE7014C003000D80110002F00AF
:102DF000E20120000B00DB010000000000000000E9
:102E0000FF0057016C01C40161017B014D014B01C1
:102E10002C0194013C0200000000000000000000B2
:102E20004170700025640D0A004163632025752000
:102E30006661696C0D0000000000000000000000E9
:102E4000570D00476C6F7665315F66313030204139
:102E500048423D25753B20415042313D25753B2080
:102E6000415042323D25750D000000000000000079
:102E70006D61696E0016411104042C080C101418C1
:102E8000001C1D001E2000000000000000000000CB
:102E900069646C6500000000000000000000000094
:102EA000080002400400024000000B001C00024029
:102EB0000400024004010C00300002400400024003
:102EC00008020D0044000240040002400C030E0002
:102ED000580002400400024010040F006C00024041
:102EE000040002401405100080000240040002406B
:102EF00018061100000000000000000000000000A3
:102F000073717274000000000000000000000000F7
:042F1000430000007A
:102F18000100000000000000100800200000000070
:102F280000000000FC0A0020640B0020CC0B0020ED
:102F38000000000000000000000000000000000089
:102F48000000000000000000000000000000000079
:102F580000000000102F0008000000000000000022
:102F68000000000000000000000000000000000059
:102F78000000000000000000000000000000000049
:102F88000000000000000000000000000000000039
:102F98000000000000000000000000000000000029
:102FA8000000000000000000000000000000000019
:102FB8000000000000000000000000000000000009
:102FC80000000000000000000100000000000000F8
:102FD8000E33CDAB34126DE6ECDE05000B000000BD
:102FE80000000000000000000000000000000000D9
:102FF80000000000000000000000000000000000C9
:1030080000000000000000000000000000000000B8
:1030180000000000000000000000000000000000A8
:103348000000000000000000010004003F420F00E0
:08335800FF0000002800000046
:04000005080000F0FF
:00000001FF
