:100000000C9404060C9421060C9421060C942106F1
:100010000C949F120C9421060C9421060C9421063A
:100020000C9421060C9421060C9421060C942106B4
:100030000C9421060C9421060C9421060C942106A4
:100040000C9421060C9421060C9421060C94210694
:100050000C9421066008FFFFFFFFFFFFFFFFEF93F7
:10006000EFFFFFFFFFFFFFFFF7C9F7FFFFFFFFFFF6
:10007000FFFFFFFFFFFFFFFFFFFFFBE4FB7F3F8F63
:100080003F7FFFFFFFFFFFF7E388E3F7FFFFFFFF7F
:100090007FFFFFFFFBF1C4F1FBFFFFFFFFFFFFFF4F
:1000A0007F1F7FFFFFFFEFC711C7EFFFFFFFFFFFBE
:1000B000FF3FFFFFFFFFFFFFFFFFFBE4FBFFFFFF33
:1000C000FFFFBF4FBFFFFFFFFFFFFFFFFFFFFBE48F
:1000D000FBFFFFFFFFFFFFFFFFFFFFFFFFFFFEF83C
:1000E000FEFFFFFFFFFFFFFFFFFFFFFFFFFFFF0F11
:1000F000F007FFFFFFFFFFFFFFFFFFFFFFFFFFFE18
:10010000FCF1FC7EFFFFFFFFFFFFFFFFFFFFFFFF94
:10011000FEF9FEFFFFFFFFFFFFFFFFFFFFFF7F9FD7
:100120007FFFFFFEFFFFFFFFFFFFFFFFFFFF7F7F60
:10013000BFBFDF1FCFEFFFFFBF1F471FBFFFFEFC8B
:10014000F9F3C7B76FDFBF3F7FFFFFFFFFFFFF0080
:10015000FFFF807FFFFFFFFFFF7FBFBFDFEF37DBCA
:10016000E5FAFCFEFFFFFFFFFFBF4FBFFFFFFFFFF2
:10017000FFFFFFFFFFFFFFFFFFFFFFFFFFFFFFFC92
:10018000FFFF7F9F7FFFFFFFFFFFFF3F81DCDFDF80
:10019000DFEFF3FCFFFFFFFFFFFFFCFFFFFFFFFFB1
:1001A000FFFFFFFFFFFEF9736F5E3DF9FBF7E7F816
:1001B000FFFFFFF0E7F7FBFD3E5FE7F3FDFEFFFF0C
:1001C000FFFFFFFFFFFFFFFFFFFFFEFFFFFFFFFF40
:1001D0007F9F7FFFFFFFFFFFFFFF7FFFFFFFFFFF0F
:1001E000FFFFFFFCFFFFFF3FC7F9FEFFFFFFFFFF21
:1001F000FFFFFFFFFFFFFBFBFBFBF9F9F5F5F6F651
:10020000F6F6F6F6F6F6EEEFEF2F8FEFFFFFFFFFB5
:10021000FFFFFFFFFFFFFFFF8F6FEEEEEEEEEEEE54
:10022000F6F6F5F5F5F5F5F9F9FBFBFBFFFFFFFF3A
:10023000FFFCFFFFFFFFFFFFFFFFFFF803FBF7F7E8
:10024000EFDFBF7FFFFFFF00FFFFFFFF7F9FDFEFBD
:10025000EF07F7FFFFFFFFFFFFFFFFFFFFFFFFFFBE
:10026000FFFF7FBFDFEF73B99EDFEFF7FBF9F90701
:10027000FFFF1FC1FDFBF3F7EFDF9CB977CF9F7F37
:10028000FFFFFFFFFFFFFFFFFFFFFFFFFFFFFFFF7E
:10029000FFFFFFFFFFFFFFFFFFFFFFFFFEF9F3F789
:1002A000EFEFEFE7E0DFBF70CFBF7F3FD0EFEFF7BB
:1002B000F9FCFFFFFFFFFFFFFFFFFFFFFFFFDFE78F
:1002C000EBF5FAFDFDFEFFFFFFFFFFFFFFFFFFC0A5
:1002D0003F3FC0FFFFFFFFFFFFFFFFFFFFFEFDFDF2
:1002E000F8F1E7CFFFFFFFFFFFFFFFFFFFFF3FFF3B
:1002F000FFFFFFFFFFFFFFFFFFFFFFFFFFFFFFFF0E
:10030000FFFFFFFFFFFFFFFFFEFEC4B87D7D7DBB4B
:10031000C7FF675737FF8377FF07EFF7BF57570FC1
:10032000FF07F7F70FFF07F7F70FFFBF57570FFF4D
:10033000E0FEFFFFFFFFFFFFFFFFFFDF27DFFFFF05
:10034000FFFFFFFFFFFFFFFFFFFFFFFFFFFEF9FEC5
:10035000FFFFFFFFFFFF6003E08E91918E808080A2
:1003600080C0808080808080808080C0808080800D
:1003700080808080C0808080808080808080C080FD
:1003800080808080809393CDC08E91918E8080807C
:1003900080C0808080808080808080C080808080DD
:1003A00080808080C08080808080929F9080CE916D
:1003B000918E808E91918EE0FF0000000000000081
:1003C000000000000000000000000000000000002D
:1003D000000000000000000000000000000000001D
:1003E000000000000000000000000000000000000D
:1003F00000000000000000000000000000000000FD
:1004000000000000000000000000000000000000EC
:1004100000000000000000FF0701010101010101CF
:1004200001030101010101010101010301010101B8
:1004300001010101030101010101010101010301A8
:100440000101010101010103030101010101010198
:100450000103010101010101010101030101010188
:100460000101010103010101010101010101030178
:100470000101010101010107000000000000003E30
:100480004551453E003E6B6F6B3E001C3E7C3E1C62
:1004900000183C7E3C180030367F363000185C7EF9
:1004A0005C18000018180000FFFFE7E7FFFF003CA2
:1004B00024243C00FFC3DBDBC3FF0030484A360E78
:1004C0000006297929060060703F020400607E0A58
:1004D000353F002A1C361C2A00007F3E1C080008FD
:1004E0001C3E7F000014367F361400005F005F0062
:1004F0000006097F017F00224D555922006060608F
:1005000060000014B6FFB6140004067F0604001055
:10051000307F30100008083E1C0800081C3E080808
:1005200000784040404000083E083E0800303C3F14
:100530003C3000030F3F0F030000000000000000EC
:10054000065F060000070300070300247E247E24C4
:1005500000242B6A120000631308646300364956B6
:10056000205000000703000000003E410000000092
:10057000413E000000083E1C3E080008083E0808F6
:100580000000E06000000008080808080000606043
:100590000000002010080402003E4141413E0000DE
:1005A000427F40000062514949460022494949368C
:1005B000001814127F10002F49494931003C4A4964
:1005C00049300001710905030036494949360006E2
:1005D0004949291E00006C6C00000000EC6C000012
:1005E0000008142241000024242424240000412275
:1005F0001408000201590906003E415D551E007EA7
:100600001111117E007F49494936003E4141412286
:10061000007F4141413E007F49494941007F09092E
:100620000901003E4149497A007F0808087F00001F
:10063000417F410000304040403F007F081422418C
:10064000007F40404040007F0204027F007F0204A0
:10065000087F003E4141413E007F09090906003EF6
:100660004151215E007F0909196600264949493236
:100670000001017F0101003F4040403F001F20403A
:10068000201F003F403C403F0063140814630007F4
:100690000870080700714945430000007F41410090
:1006A000000204081020000041417F000004020104
:1006B000020480808080808000000307000000200A
:1006C00054545478007F4444443800384444442807
:1006D00000384444447F00385454540800087E09CC
:1006E00009000018A4A4A47C007F04047800000082
:1006F000007D4000004080847D00007F1028440081
:100700000000007F4000007C04180478007C040492
:10071000780000384444443800FC444444380038ED
:10072000444444FC004478440408000854545420D1
:1007300000043E442400003C40207C00001C20407B
:10074000201C003C6030603C006C10106C00009C71
:10075000A0603C00006454544C0000083E4141003D
:10076000000000770000000041413E080002010245
:100770000100003C2623263C441144114411AA5593
:10078000AA55AA55BBEEBBEEBBEE000000FF000071
:10079000080808FF00000A0A0AFF000008FF00FF1F
:1007A000000008F808F800000A0A0AFE00000AFB28
:1007B00000FF000000FF00FF00000AFA02FE000038
:1007C0000A0B080F0000080F080F00000A0A0A0FA2
:1007D0000000080808F800000000000F08080808DA
:1007E000080F0808080808F80808000000FF0808B3
:1007F000080808080808080808FF0808000000FFA3
:100800000A0A00FF00FF0808000F080B0A0A00FE92
:1008100002FA0A0A0A0B080B0A0A0AFA02FA0A0A78
:1008200000FF00FB0A0A0A0A0A0A0A0A0AFB00FB7E
:100830000A0A0A0A0A0B0A0A080F080F08080A0A15
:100840000AFA0A0A08F808F80808000F080F08084A
:100850000000000F0A0A000000FE0A0A00F808F86B
:10086000080808FF08FF0808007E4B4A4B420A0AA6
:100870000AFF0A0A0808080F0000000000F808082C
:10088000FFFFFFFFFFFFF0F0F0F0F0F0FFFFFF00D1
:100890000000000000FFFFFF0F0F0F0F0F0F003EC3
:1008A000494941220038545444280001407E400107
:1008B0000000017C41000027484B483F009DA26298
:1008C0003D0000060909060000385554550800008F
:1008D000181800000000080000000030403E02022E
:1008E0007F06187F13132A3E14143E2A003C3C3C1A
:1008F0003C00000000000000007E1111117E007F0E
:1009000049494931007F49494936007F01010101C8
:10091000C07E41417FC0007F494949410077087F3F
:100920000877224949493600007F2010087F007E61
:100930002111097E007F0814224100407E01017FC1
:10094000007F0204027F007F0808087F003E4141CB
:10095000413E007F0101017F007F09090906003E39
:10096000414141220001017F010100274848483FE1
:10097000000E117F110E006314081463007F4040C5
:100980007FC000070808087F007F407F407F007F0E
:10099000407F40FF03017F484830007F4848307F58
:1009A000007F4848483000224149493E007F083EC8
:1009B000413E00661909097F002054545478003CD8
:1009C0004A4A4A31007C54545428007C04040C00E8
:1009D000C07844447CC0003854545408006C107CE7
:1009E000106C002844545428007C2010087C007CA3
:1009F00020120A7C007C10284400403804047C004B
:100A0000007C0810087C007C1010107C00384444E6
:100A10004438007C0404047C00FC4444443800381E
:100A2000444444280004047C0404009CA0603C006E
:100A30000018247C2418006C10106C00007C4040CE
:100A40007CC0000C1010107C007C407C407C007C42
:100A5000407C40FC0C047C505020007C5050207C9A
:100A6000007C50505020002844545438007C1038EA
:100A7000443800483414147CF0E0E7F0FFE6E5ED7C
:100A8000E000C1E0F2E0F0E5FF002020202020207F
:100A9000202020002020202020202000C220E1E073
:100AA000EAE520EDE5F220E2EEE4FB002020202044
:100AB000202020202020202020202000CDE0F1EE4A
:100AC000F1203100CDE0F1EEF1203200CDE0F1EE89
:100AD000F1203300CDE0F1EEF1203400C2F0E5EC7E
:100AE000FF202000CDE0E7E0E4002020C2EAEBFE9A
:100AF000F7E5ED00002020C2FBEAEBFEF7E5ED0094
:100B00002A20C2EAEBFEF7E5ED00002A20C2FBEA4C
:100B1000EBFEF7E5ED0064617973000000686F7526
:100B20007273000064617973202A00686F757273B4
:100B3000202ACFE5F0E8EEE42000506572696F648A
:100B40000020E42E00CEF1F2E0EBEEF1FC3A00C41E
:100B5000EDE5E920E4EE20EFEEEBE8E2E03A00CF4D
:100B6000EEEBE8F2FC20E22000C2F0E5ECFF20EF23
:100B7000EEEBE8E2E000CFEEEBE8E2E0F2FC200092
:100B8000C4EBE8F2E5EBFCEDEEF1F2FC003A3030BC
:100B900020003A30305D0020F10020F15D0020009F
:100BA0005B005D0020F7E0F1E00020E4EDFF0020B5
:100BB000F7E0F10020E4E5EDFC0020F7E0F1EEE2E3
:100BC0000020E4EDE5E90020F7E0F1EEE20020E4AA
:100BD000EDE5E900686F757273006461797300EE8A
:100BE000F2EAEBFEF7E5ED00E2EAEBFEF7E5ED00F9
:100BF000D3F1F2E0EDEEE2E8F2E520E2F0E5ECFF21
:100C0000003004200000000011241FBECFE5D4E016
:100C1000DEBFCDBF12E0A0E6B0E0E4EBF1E302C03E
:100C200005900D92A036B107D9F712E0A0E6B2E028
:100C300001C01D92A63FB107E1F70E94910B0C94F1
:100C4000D8180C9400001092B0021092AF0283E406
:100C500087B985EC86B93699FECF40E055EC56B998
:100C60003699FECFF89424B135B18091AF029091BE
:100C7000B002820F931F9093B0028093AF027894DA
:100C80004F5F483061F717B816B8F8948091AF02FB
:100C90009091B00223E0969587952A95E1F790937D
:100CA000B0028093AF02789408952091AF02309102
:100CB000B00242E02936340710F461E016C053E078
:100CC0002C39350710F06EE510C08EE590E0AC01D0
:100CD000249FC001259F900D349F900D11248053B7
:100CE000924E64E371E00E945E18862F0895109280
:100CF000B5028D9A089581E08093B50288EC86BD97
:100D000084E68ABD82E88FBD8AE18EBD0895109287
:100D1000B5021FBC1EBC08959093B4028093B30229
:100D200081EB92E00E94DB0681E08093B50288ECC3
:100D300086BD84E68ABD82E88FBD8AE18EBD0895B6
:100D40008091B502882371F06091B3027091B40272
:100D500081EB92E00E94B406882321F01092B50244
:100D60001FBC1EBC08950895FC014FB7F8948091F4
:100D7000B6029091B70220813181821B930B8617B6
:100D8000970710F480E007C08091B6029091B702F7
:100D90009183808381E04FBF0895FC012FB7F894C1
:100DA0008091B6029091B7020197861B970B9183B1
:100DB00080832FBF0895FC012FB7F8948091B6026D
:100DC0009091B702918380832FBF0895969A94984B
:100DD000929897989398089596E0899FF00111242E
:100DE000E858FB4F20E08491662311F4982F02C04D
:100DF000982F90953FB7F89492989798939A929AD3
:100E0000929880E097FF02C0939A01C09398929ABB
:100E100092988F5F883011F0990FF4CF979A3FBF67
:100E20002F5F31962630F9F608952FB7F8949298EF
:100E30009798939A929A929890E087FF02C0939A1B
:100E400001C09398929A92989F5F983011F0880F02
:100E5000F4CF979A2FBF08952FB7F8949298979848
:100E60009398929A929890E087FF02C0939A01C05B
:100E70009398929A92989F5F983011F0880FF4CFD0
:100E8000979A2FBF08951F93982F862F192F110F10
:100E9000990F990F190F8F70806B0E942C07812F6B
:100EA0008E700E942C0712951770812F80610E940E
:100EB0002C071F910895EF92FF920F931F93F42E2A
:100EC000E22E0E9443071091F202812F6AE00E94F5
:100ED0005218805D6F2D0E94EC06812F6AE00E94FF
:100EE0005218892F805D6F2D0E94EC068AE360E026
:100EF0000E94EC061091F302812F6AE00E945218C2
:100F0000805D6E2D0E94EC06812F6AE00E945218CF
:100F1000892F805D602F0E94EC061F910F91FF903A
:100F2000EF9008950F931F93142F022F0E944307F1
:100F3000812F6AE00E945218805D602F0E94EC06AB
:100F4000812F6AE00E945218892F805D602F0E94D5
:100F5000EC061F910F910895EF92FF920F931F934C
:100F6000CF93DF93182F7A01022F0E944307C0E628
:100F7000D0E090E014C08F5FE40EF51EE216F30699
:100F8000D0F7803311F4992329F0602F0E94EC06EA
:100F90001F5F91E0229680E0C836D80741F0288193
:100FA000398180E344275527421B530BE7CF8E2D11
:100FB000805D602F0E94EC06812F8F5FDF91CF91C3
:100FC0001F910F91FF90EF900895DF92EF92FF92A3
:100FD0000F931F93CF93DF93F82EE62E8A01D22E24
:100FE0000E944307CC27DD27C01BD10B17FF07C08A
:100FF0008DE26D2D0E94EC068F2D8F5F01C08F2D2D
:101000006E2DAE012D2D0E94AC07DF91CF911F9167
:101010000F91FF90EF90DF9008951F93CF93DF9390
:10102000EA01122F0E94430704C02196612F0E94FB
:10103000EC0688818823C9F7DF91CF911F9108952D
:101040000F931F93CF93DF93182FEA01022F0E9473
:10105000430704C0602F0E94EC061F5FFE0121962B
:1010600084918823B9F7812FDF91CF911F910F9140
:1010700008951F93182F862F8F70806B0E942C0766
:10108000812F8F700E942C0712951770812F80611D
:101090000E942C071F9108951F93182F81E065E08F
:1010A0000E94390821E018C03FB7F89492989798A9
:1010B000939A929A92989EE780E097FF02C0939A43
:1010C00001C09398929A92988F5F883011F0990F8F
:1010D000F4CF979A3FBF2F5F211730F3812F11C0B4
:1010E0002FB7F89492989798939A929A929890E042
:1010F0009398929A92989F5F9830D1F7979A2FBFC2
:101100008F5F8F3568F31F910895BF92CF92DF9262
:10111000EF92FF920F931F93CF93DF93C82EB22EBF
:101120009A012F5F3F4FFA01449179010894E11C25
:10113000F11CF9012491D62E062F10E0020F111D8B
:10114000C82FD0E0C40FD11D2EC08C2D6D2D0E9454
:1011500039082C2D22C0F7018491BB2011F4982F5F
:1011600002C0982F90953FB7F89492989798939AC9
:10117000929A929880E097FF02C0939A01C0939848
:10118000929A92988F5F883011F0990FF4CF08945B
:10119000E11CF11C979A3FBF2F5F822F90E08C17C4
:1011A0009D07CCF2D3948D2D90E0801791076CF2BF
:1011B000DF91CF911F910F91FF90EF90DF90CF9033
:1011C000BF90089580E064E046E553E020E00E948F
:1011D0008508089580E40E942C0780EB0E942C076C
:1011E00080E10E942C0780E00E942C0720E030E084
:1011F0009FB7F89492989798939A929A929880E0D1
:101200009398929A92988F5F8830D1F7979A9FBF60
:101210002F5F3F4F83E02036380751F7089581B3A1
:101220008C6D81BB969A9298979A949888E59BE1E9
:101230000197F1F7949A84EA0E942C078FE20E94AA
:101240002C0780E40E942C0788EC0E942C0781EA7E
:101250000E942C078FEA0E942C070E94EA0808953A
:10126000982F81E08093E102923061F0933018F47E
:10127000913071F405C0933039F0943049F406C0D0
:10128000DC9A0895DD9A0895DE9A0895DF9A08950C
:101290001092E10208951092E1028BB38F708BBB24
:1012A00008958091E402882351F58091F50281FF31
:1012B00026C02091F2029091B802E9EBF2E031E011
:1012C00080818823A9F08181813029F4838188235A
:1012D00011F0815083838381882351F4818181308F
:1012E00019F08481821721F436838281838390E010
:1012F0003A9682E0E13EF80719F79093B802089514
:101300008091E4028823B1F48091F50281FF12C03C
:10131000E9EBF2E08081882341F08181882329F480
:101320008381882311F0815083833A9682E0E13EE5
:10133000F80781F70895CB9B2EC00E94230620E07A
:101340008091AF029091B0028856924008F021E05F
:101350002093600280916002882379F084E061E04C
:1013600044E95AE020E00E94200883E062E04AE875
:101370005AE020E00E942008089584E061E042E8FD
:101380005AE020E00E94200883E062E048E75AE04B
:1013900020E00E94200808950F938091E40282309B
:1013A00038F5CB9B25C086E064E040E020E000E01B
:1013B0000E945B070E949B0980917200882341F084
:1013C00080916002882321F08091F50281FD10C098
:1013D0008091F302813031F08F3021F08E3111F0A5
:1013E0008D3231F487EE93E00E948C061092B802A1
:1013F0000F910895CB9B1FC0D89A8CE08A95F1F786
:1014000089B390E096958795817080937200D89803
:1014100080917200882341F080E060E04CEA5AE05D
:1014200020E00E942008089580E060E04CE95AE046
:1014300020E00E94200808958091E4028230C0F4E8
:10144000CB9B16C00E94FA0988E064E00E94430723
:1014500080916102882311F080E201C08AE360E09C
:101460000E94EC068091610291E0892780936102DD
:1014700008951092E20289EB92E060E070E048E2A9
:1014800050E00E94C11808951092E20280E090E0BE
:101490000E94B9188F3F11F5EBEBF2E080E091E08C
:1014A0009083918393838F5F87833A968430C1F7CB
:1014B0009093B9028EE18093BE029093BB02909309
:1014C000BC029093BA021092E20289EB92E060E0D3
:1014D00070E048E250E00E94C118089589EB92E064
:1014E00060E070E048E250E00E94A9180895CF92B1
:1014F000DF92EF92FF920F931F93CF93DF93809130
:10150000E402882309F06FC0C9EBD2E000E010E0EC
:10151000F2E0CF2EE3E0DE2EF02EE12E888188234C
:10152000E9F09E819130D1F48091E1028823B1F4F9
:10153000CE829093E10287EE93E00E948C069801A0
:10154000C90173E0880F991F7A95E1F7220F331FC5
:10155000820F931F80549D4F0E94DB068E81823044
:1015600001F52F2D3E2DC90153E0880F991F5A9583
:10157000E1F7220F331F820F931F80549D4F67EEB8
:1015800073E00E94B406882361F0DE828091F50248
:101590008E7F8093F50218861F82802F8F5F0E94B6
:1015A00030098E818330C1F48091F50280FF14C030
:1015B0008E7F8093F5022F8138852F5F3F4F3887CC
:1015C0002F838D8190E02817390730F01092E102C7
:1015D0008BB38F708BBB1E820F5F1F4F2A96043018
:1015E000110509F099CFDF91CF911F910F91FF90D5
:1015F000EF90DF90CF9008951F938091E1028823B0
:1016000009F032C08091E402882371F58091B5021F
:10161000882351F581E08093B802969A85B78F743C
:10162000806385BF85B7806485BF18E119C0F894D1
:10163000A8950FB6F89411BD11BC0FBE789488958B
:10164000809163029091640288519C4F9093640250
:10165000809363020E946711882311F01092B802F0
:101660008091B802882319F71F9108952EE088E130
:1016700090E00FB6F894A89581BD0FBE21BD80E81B
:1016800088B984B3836084BB85B38C7F85BBD29AD1
:10169000DA9881B3836081BB82B38C7F82BB0E9466
:1016A0000F0980E060E044E550E020E00E948508FA
:1016B00020E044E650E009C0FA013197F1F70197C4
:1016C000D9F7A8952F5F243019F088E893E1F4CF7B
:1016D0000E9438120E94B3060E9477060E9483126D
:1016E000D3980E94230620E08091AF029091B0022F
:1016F0008856924008F421E020936002D198D09A55
:10170000D89A8CE08A95F1F789B386958095817097
:1017100080937200D8988AB3806F8ABB0E94440A73
:1017200008957F928F929F92AF92BF92CF92DF9255
:10173000EF92FF920F931F93CF93DF932EE088E1F8
:1017400090E00FB6F894A89581BD0FBE21BD80E84A
:1017500088B984B3836084BB85B38C7F85BBD29A00
:10176000DA9881B3836081BB82B38C7F82BB0E9495
:101770000F0980E060E044E550E020E00E94850829
:1017800020E044E650E009C0FA013197F1F70197F3
:10179000D9F7A8952F5F243019F088E893E1F4CFAA
:1017A0000E9438120E94B3060E9477060E9483129C
:1017B000D3980E94230620E08091AF029091B0025E
:1017C0008856924008F421E020936002D198D09A84
:1017D000D89A8CE08A95F1F789B3869580958170C7
:1017E00080937200D8988AB3806F8ABB0E94440AA3
:1017F00078940E94D71077247394A8E1BA2EF2E06F
:101800009F2EE3E08E2E78E1C72ED12C6EE0A62E1F
:10181000CB9BADC00E9420120E94FC108091E4027C
:10182000882309F06BC0C9EBD2E000E010E0F02E95
:10183000E12E88818823E9F09E819130D1F4809156
:10184000E1028823B1F49E829093E10287EE93E057
:101850000E948C069801C90153E0880F991F5A9580
:10186000E1F7220F331F820F931F80549D4F0E9478
:10187000DB068E81823001F52F2D3E2DC901B3E0AC
:10188000880F991FBA95E1F7220F331F820F931F1C
:1018900080549D4F67EE73E00E94B406882361F088
:1018A0008E828091F5028E7F8093F50218861F82CA
:1018B000802F8F5F0E9430098E818330C1F4809128
:1018C000F50280FF14C08E7F8093F5022F8138854A
:1018D0002F5F3F4F38872F838D8190E0281739077E
:1018E00030F01092E1028BB38F708BBB1E820F5FC2
:1018F0001F4F2A960430110509F099CF0E94A006C7
:101900008091E102882309F030C08091E4028823AD
:1019100061F58091B502882341F57092B802969ADC
:1019200085B78F74806385BF85B7806485BF19C014
:10193000F894A8950FB6F894B1BC11BC0FBE78947A
:101940008895809163029091640288519C4F909396
:101950006402809363020E946711882311F0109241
:10196000B8028091B802882319F7A89551CF0E9438
:10197000E6061092E1028BB38F708BBB85B78F7434
:10198000806385BF85B7806485BFF894A8950FB63E
:10199000F894B1BC11BC0FBE78948895CB9BF5CF61
:1019A0000FB6F894A895C1BC0FBEA1BC0E940F0948
:1019B0000E94D7102DCF81E08093E8020895E09136
:1019C000E902F091EA020280F381E02D10926202B6
:1019D0000680F781E02D099508952091E302A9EB97
:1019E000B2E0822F90E0FC0173E0EE0FFF1F7A95CA
:1019F000E1F7880F991FE80FF91FEA0FFB1F822FED
:101A000090E09C0153E0220F331F5A95E1F7880FB5
:101A1000991F280F391FA20FB31F8C9191E08927BE
:101A200080839093E202E091E902F091EA0206805D
:101A3000F781E02D099508958091620291E0892750
:101A400080936202E091E902F091EA020680F78158
:101A5000E02D09950895982F262F8A508B3040F459
:101A6000662319F027EC3BE026C02EEC3BE023C0B8
:101A7000892F6AE00E945218992321F0892F8550FE
:101A8000853040F4222319F02AEB3BE014C021EC0E
:101A90003BE011C0913041F4222319F02FEA3BE0E2
:101AA0000AC024EB3BE007C0222319F024EA3BE004
:101AB00002C02AEA3BE0C9010895089508950895F7
:101AC00008958BE190E00E948C0685EE92E00E94E2
:101AD000DB0696988091E402882319F481E08093D4
:101AE000E4020895BF92CF92DF92EF92FF920F939C
:101AF0001F93CF93DF930E94EA08E091E902F091EF
:101B0000EA02408151814115510529F080E060E0F1
:101B100020E00E942008E091E902F091EA02B580FD
:101B2000CC244EC0E090E902F090EA020C2D10E0C7
:101B3000F80184E0EE0FFF1F8A95E1F7E01BF10B3F
:101B4000EE0DFF1D4685578541155105C1F1DD2478
:101B5000F7018481C81611F4DD24D394E801B4E0C0
:101B6000CC0FDD1FBA95E1F7C01BD10BCE0DDF1DE9
:101B7000888569852D2D0E942008982F8E898823BD
:101B800051F0E889F9894081892F698550E02D2D30
:101B90000E94AC07982FF801A4E0EE0FFF1FAA9552
:101BA000E1F7E01BF10BEE0DFF1D4489558941154E
:101BB000510529F0892F61852D2D0E942008C3949D
:101BC000CB1408F4AFCFDF91CF911F910F91FF900D
:101BD000EF90DF90CF90BF90089589E292E09093CC
:101BE000EA028093E9022091E302822F90E033E041
:101BF000880F991F3A95E1F78454954F90932A02E4
:101C0000809329028AE0289F9001112422543D4F9D
:101C1000309349022093480280916202882349F45C
:101C20008EE99BE0909347028093460287E99BE010
:101C300008C080EA9BE090934702809346028AE9BD
:101C40009BE090934D0280934C020E94720D089588
:101C500084EF91E09093EA028093E9022091E302FD
:101C6000822F90E043E0880F991F4A95E1F7845452
:101C7000954F9093F5018093F4018AE0289F90019D
:101C8000112423543D4F309314022093130280916A
:101C90006202882349F48EE99BE0909312028093BC
:101CA00011028DE89BE008C080EA9BE0909312024D
:101CB0008093110282E99BE09093180280931702AF
:101CC0000E94720D08958FEB91E09093EA02809349
:101CD000E9022091E302822F90E053E0880F991FE0
:101CE0005A95E1F78454954F9093C0018093BF01BA
:101CF0008AE0289F9001112424543D4F3093DF0146
:101D00002093DE0180916202882339F48EE99BE002
:101D10009093DD018093DC0108C080EA9BE0909302
:101D2000DD018093DC0182EA9BE09093E3018093E4
:101D3000E2010E94720D08958CE691E09093EA0210
:101D40008093E9028091E30290E063E0880F991F9D
:101D50006A95E1F78454954F90936D0180936C01DF
:101D600080917001813019F580916202882339F4E5
:101D70008EE99BE090938A018093890108C080EAF4
:101D80009BE090938A018093890182EA9BE0909383
:101D9000900180938F018AED9BE09093990180934D
:101DA000980184ED9BE09093A8018093A7010E9485
:101DB000720D089587E391E09093EA028093E9021F
:101DC0002091E302822F90E0B3E0880F991FBA952B
:101DD000E1F78454954F9093380180933701822F17
:101DE00090E0FC01A3E0EE0FFF1FAA95E1F7880F3A
:101DF000991FE80FF91FE754FD4F8081882351F0A8
:101E000010923B0180E09BE0909346018093450156
:101E10000B970AC081E080933B018AEE9AE0909391
:101E2000460180934501819690935501809354011A
:101E30000E94720D08951F938091E9029091EA0229
:101E40008357904011F41092D90085ED90E0909363
:101E5000EA028093E902809177008093E302482FA1
:101E600050E09A0173E0220F331F7A95E1F7C90120
:101E70008454954F9093D6008093D500FA01EE0FCD
:101E8000FF1FE20FF31FE754FD4FE081EE2319F42B
:101E90008FED9BE002C088EE9BE09093E40080937E
:101EA000E300EE2311F483E001C088E08093DD00BD
:101EB000EE2311F483E001C080E08093DE00EE2386
:101EC00009F4B8C011E01093DF0082E39BE0909327
:101ED000F3008093F200DA01AA0FBB1FAA0FBB1F09
:101EE000A40FB51FAA0FBB1FA554BD4FB093F5009B
:101EF000A093F400FA0193E0EE0FFF1F9A95E1F72B
:101F0000440F551FE40FF51FE754FD4F81818823CF
:101F1000F1F58C9160E00E942B0D9093F900809375
:101F2000F80082E08093EE0080930D0185E49BE051
:101F300090930201809301014091E302842F90E08D
:101F40009C0113E0220F331F1A95E1F7880F991FA8
:101F5000280F391F24543D4F30930401209303016F
:101F6000842F90E0FC01A3E0EE0FFF1FAA95E1F79C
:101F7000880F991FE80FF91FE754FD4F838160E038
:101F80000E942B0D909308018093070111C08C9142
:101F900061E00E942B0D9093F9008093F80010925D
:101FA00002011092010183E08093EE0010930D0175
:101FB0008FE59BE090931101809310014091E30223
:101FC000842F90E09C0163E0220F331F6A95E1F7B4
:101FD000880F991F280F391F23543D4F3093130149
:101FE000209312018DE89BE09093170180931601D6
:101FF00086E79BE09093200180931F01842F90E05F
:102000009C0143E0220F331F4A95E1F7880F991F87
:10201000280F391F22543D4F309322012093210174
:1020200087E99BE0909326018093250184E08093CB
:102030002B0115C01092F3001092F20010920201D1
:1020400010920101109211011092100110922001C2
:1020500010921F0185E08093DF0010922B010E94F7
:10206000720D1F91089583E790E09093EA028093A8
:10207000E9020E94720D08958091E402813031F4EA
:1020800082E08093E4020E94720D0895E091E902DB
:10209000F091EA02248130E0C901A4E0880F991F81
:1020A000AA95E1F7821B930BE80FF91F0484F585CD
:1020B000E02D309709F0099508958091E40282306F
:1020C000C1F580916202A091E902B091EA028823F1
:1020D000E9F014968C91149790E0FC0134E0EE0F37
:1020E000FF1F3A95E1F7E81BF90BEA0FFB1FA089E8
:1020F000B1899C918389891718F491509C9302C0EF
:1021000082898C9381E08093E20211C014968C91B5
:10211000149790E0FC0124E0EE0FFF1F2A95E1F7F1
:10212000E81BF90BEA0FFB1F828514968C930E9423
:10213000720D08958091E4028230C1F580916202AF
:10214000A091E902B091EA028823E9F014968C91FB
:10215000149790E0FC0154E0EE0FFF1F5A95E1F751
:10216000E81BF90BEA0FFB1FA089B1899C918289BA
:10217000981718F49F5F9C9302C083898C9381E029
:102180008093E20211C014968C91149790E0FC01A8
:1021900044E0EE0FFF1F4A95E1F7E81BF90BEA0F49
:1021A000FB1F838514968C930E94720D08950E94E4
:1021B000EA081092E40283E790E09093EA028093A9
:1021C000E9021092770010926202969A0E94CC095E
:1021D0008091F50281FD07C080E066E040EF5BE0A2
:1021E00020E00E9420080E949B098091E20288233F
:1021F00011F00E94390A08958091E4028823E9F0E1
:102200008730D9F08091E802882369F085EE92E06A
:1022100065E071E00E94B406882379F01092E8022C
:102220000E94D710089585EE92E068E57BE10E9458
:10223000B406882311F00E94D71008953F937F932E
:102240009F93762F7095982F909537B3392337BB8E
:1022500037B3372337BB38B3382B38BB38B33723C2
:1022600038BB37B3362B37BB9F917F913F91089591
:102270003F937F939F93762F7095982F909537B3C8
:10228000732377BB37B3762B382B932337BB97BB9E
:1022900077BB9F9186B384237F913F9108953F93AD
:1022A0009F93982F909538B3392338BB37B3382B89
:1022B00037BB9F913F9108952091800230E002C08A
:1022C000359527958A95E2F7822F81700895809140
:1022D0006302909164020E944F14A89590FDF7CF7D
:1022E00080918002811181E008950E9467118091A0
:1022F000800286958695869580FF16C08091EB02B8
:1023000080FD19C081608093EB028EEE92E00E9406
:10231000DB068EEB92E09093F1028093F0020E9434
:10232000610D0E945D1007C08091EB0280FF03C029
:102330008E7F8093EB02809180028695869580FF48
:1023400016C08091EB0281FD19C082608093EB0280
:102350008EEE92E00E94DB068EEB92E09093F1020B
:102360008093F0020E94610D0E949A1007C0809134
:10237000EB0281FF03C08D7F8093EB02809180028E
:10238000869580FF0CC08091EB0282FD0FC08460B7
:102390008093EB020E94610D0E943C1007C0809167
:1023A000EB0282FF03C08B7F8093EB02809180025F
:1023B00080FF0CC08091EB0283FD11C08860809388
:1023C000EB020E94610D0E945F0D09C08091EB023B
:1023D00083FF05C0877F8093EB020E94600D809190
:1023E000EB0281FF14C06091F0027091F1028EEE59
:1023F00092E00E94B406882351F08CEF90E0909315
:10240000F1028093F0020E94610D0E949A10809167
:10241000EB0280FF14C06091F0027091F1028EEE29
:1024200092E00E94B406882351F08CEF90E09093E4
:10243000F1028093F0020E94610D0E945D100895E8
:102440008091B502882399F48CEE92E069E170E006
:102450000E94B406882359F080916302909164022F
:10246000499690936402809363020E9475110895C7
:1024700080B7846080BF85E58093A7021092A80290
:102480001092A9021092AA028AEA8093AB021092DB
:10249000AC021092AD021092AE0280E061E04AE020
:1024A00023E00E94DE1381E061E04AE023E00E9425
:1024B000DE1382E061E04AE023E00E94DE1383E065
:1024C00061E04AE023E00E94DE1384E080936A0228
:1024D00094E190936D0285E080936E0210926C02FD
:1024E00090936B0281E08093690283E080936F0296
:1024F00087EF92E160E070E00E94F4141092840291
:1025000010928302089588E082BD85E085BD89B779
:10251000806489BF1092F40284E28093F30282E126
:102520008093F2028091F5028D7F8093F5020895E9
:102530008091F3026AE00E945218892F08951F9239
:102540000F920FB60F9211242F933F934F935F93E7
:102550006F937F938F939F93AF93BF93EF93FF936B
:102560008EE028E130E00FB6F894A89521BD0FBEAB
:1025700081BD8091E4028E50833040F18091F5025C
:1025800081608093F5028091F4028F5F8093F40262
:102590008C33D0F01092F4028091F3028F5F80931D
:1025A000F3028C3378F01092F3028091F2028F5F85
:1025B0008093F202883120F01092F2020E9480098A
:1025C0000E9451090E94CC090E941C0AFF91EF91C0
:1025D000BF91AF919F918F917F916F915F914F913B
:1025E0003F912F910F900FBE0F901F901895A1E073
:1025F000B0E0EDEFF2E10C947818E82F0FB7007817
:10260000198280916502813019F081E08093650222
:10261000CE2EDD24F601E955FD4FB080F601E555DB
:10262000FD4FA080F894BB2009F4ADC08B2D0E9413
:102630004F118B2D6A2D0E941E111B2DEE24FF249D
:1026400060E0812C30E2932EF5FE07C09091A80245
:102650008091A702982B21F536C08FB7802B8FBFB2
:102660000000F8948B2D6A2D412F0E943811682F9D
:102670000894E11CF11C80915E028F5F80935E02E2
:10268000823030F0823021F0833011F010925E02FF
:102690006623D1F22091A8028091A702282B15C0B1
:1026A000412F80E040FF09C0E82FF0E0EE0FFF1F50
:1026B000E059FD4F9182808201C090FD8F5F969519
:1026C0004695992379F710E020E08FB7802B8FBFD4
:1026D00010926602222309F43FC0112309F43CC082
:1026E0003091AC028091AB02382B562F90E080E005
:1026F00070E040E023C050FD17C019C030FF13C088
:10270000981781F4E42FF0E0EE0FFF1FE059FD4F22
:10271000F182E082852F8E7F19F4892F71E008C045
:10272000892F06C08F5F3695332341F701C020FD06
:102730009F5F20FD4F5F5695269511F05523D9F6E2
:102740004093660260951623713021F4112311F431
:10275000EE24FF2460E013C08091A8029091A702AC
:10276000892B898390E006C0898180FD9F5F8981E4
:102770008695898389818823B9F790936602F894B6
:10278000112309F061CF87EA92E0C80ED91EF60145
:1027900080810E944F118FB7082B0FBF2196ECE06C
:1027A0000C949418FC0180E290E091838083138262
:1027B000128280E394E09583848308959091A1022E
:1027C000A92FB0E0FD01EE0FFF1FEA0FFB1FEE0F78
:1027D000FF1FE757FD4F4383677085832370660FA4
:1027E000660F660F262B24839F5F9093A1020895A6
:1027F0001F93CF93DF93282FC82FD0E0FE01EE0F59
:10280000FF1FEC0FFD1FEE0FFF1FE757FD4F358138
:10281000838190E00090690202C0959587950A94A3
:10282000E2F7182F843008F414E08091A1022817F1
:1028300018F020E030E02EC0832F0E9442159C014A
:10284000412F50E016951695812F90E0841B950B33
:102850008217930764F4FE01EE0FFF1FEC0FFD1FBC
:10286000EE0FFF1FE757FD4F84818B7F84838827FE
:102870009927841B950B8217930764F0FE01EE0FD6
:10288000FF1FEC0FFD1FEE0FFF1FE757FD4F848169
:1028900084608483C901DF91CF911F910895FF92D5
:1028A0000F931F93CF93DF931092820210928102B5
:1028B0002091850230918602909386028093850252
:1028C0004091870250918802421B530B480F591FB9
:1028D000FF2403C0F394485C5040483C5105D0F7B6
:1028E00050938802409387028091A202882341F08E
:1028F0008F1518F41092A20203C08F198093A202C0
:102900000E943518E0918302F0918402309709F01B
:10291000099510E000E006C0812F6F2D0E94571529
:10292000082B1F5F6091A1021617B0F3002349F036
:1029300080918102909182029160909382028093B3
:10294000810210928002A9E8B2E030E041E050E05C
:1029500017C08C91887191F0E32FE695E695E69586
:10296000F0E0E059FD4F832F8770EA0102C0CC0FE1
:10297000DD1F8A95E2F720892C2B208B3F5F16966E
:10298000361738F38091810290918202CDB7DEB77D
:10299000E5E00C949B181092A10284E080936A02F7
:1029A00094E190936D0285E080936E0210926C0228
:1029B00090936B0281E08093690283E080936F02C1
:1029C0000E942418109284021092830208951F938B
:1029D00010E004C0812F0E9416151F5F8091A10294
:1029E0001817C0F31F910895EF92FF921F93CF9392
:1029F000DF93EC017B0110E004C0812F0E941615CB
:102A00001F5F8091A1021817C0F3109286021092E6
:102A10008502D0936802C0936702C7010E941F1805
:102A2000DF91CF911F91FF90EF90089590E0E9E83A
:102A3000F2E09C01220F331F280F391FD901AA0F82
:102A4000BB1FAE0FBF1F15964C9115978091810249
:102A500090918202826090938202809381022F5F24
:102A60003F4F220F331FE20FF31F1082E3EAF2E021
:102A7000E40FF11D80E8808381E08C938FE0119654
:102A80008C93089590E0FC013496A0E7B2E0EE0F3D
:102A9000FF1FEA0FFB1F880F991FA80FB91F208186
:102AA00031818D919C91281B390BC9010895A0E0BB
:102AB000B0E0EDE5F5E10C947618782EF62E0E9444
:102AC000F8135C01072D10E0F801EE0FFF1FE00F77
:102AD000F11FEE0FFF1FE757FD4F54814381242F55
:102AE00030E0852F837090E0019602C035952795E0
:102AF0008A95E2F7822F223008F482E0242F30E01A
:102B0000B901681B7109F801EE0FFF1FE00FF11FFB
:102B1000EF01CC0FDD1FC757DD4F8881843009F4EA
:102B2000F7C0853030F4813071F0823009F080C216
:102B30006EC0803109F4A2C1803209F444C28830E9
:102B400009F076C2F0C14091810250918202CA011F
:102B5000926090938202809381028D816981A82F77
:102B6000B0E06A3060F0AA0FBB1FFD01E059FD4FD5
:102B700080819181A858BD4F8D939C9318C0AA0F56
:102B8000BB1FFD01E858FD4F20813181A059BD4F89
:102B90008D919C918217930718F42150304005C005
:102BA0002817390750F42F5F3F4F31832083486047
:102BB00052605093820240938102862F8150F80127
:102BC000EE0FFF1FE00FF11FEF01CC0FDD1FC75706
:102BD000DD4F89838823B1F4AD8182E088838091C1
:102BE000810290918202826090938202809381029E
:102BF000EE0FFF1FE557FD4F1082B0E0AD55BD4F02
:102C000080E88C9380916B028093A2020FC252FFE6
:102C100004C080E288831982FAC1C501B7FE02C0F0
:102C200080E090E08217930780F0F801EE0FFF1F1D
:102C3000E00FF11FEE0FFF1FDF01A757BD4F84E02C
:102C40008C93E557FD4F1082E8C1FF2009F4F0C1D5
:102C50008091A202882309F0EBC1F801EE0FFF1F5B
:102C6000E00FF11FEE0FFF1FE757FD4F858190E04A
:102C7000EC01CC0FDD1FC858DD4F28813981FC01E4
:102C8000EE0FFF1FE059FD4F0190F081E02D2E1750
:102C90003F0788F4FC01ED55FD4F90819F0D908317
:102CA00080916E028058981708F4C2C180E8808332
:102CB0002F5F3F4F14C0DC01AD55BD4FE217F30746
:102CC000D0F48C918F198C9340E890916D02542F21
:102CD000591B581708F4ACC14C932150304039832C
:102CE0002883809181029091820288609093820271
:102CF000809381029DC12C91213810F021502C939A
:102D0000FC01ED55FD4F808187FD92C18F5F59C158
:102D1000C501B7FE02C080E090E0F801EE0FFF1F92
:102D20008217930708F490C080916B028093A202EF
:102D30009F01200F311F220F331FD901A557BD4F0F
:102D40008C918F5F8C93F901E757FD4F848190E060
:102D50008873907023E0969587952A95E1F7682E01
:102D6000882309F43FC0DD24CC247F0183E090E078
:102D7000E80EF91E4D0130C0D71469F18D2D90E099
:102D8000EC01CC0FDD1FC80FD91FCC0FDD1FC757BB
:102D9000DD4F8C8190E08873907073E096958795F5
:102DA0007A95E1F76816B9F48D2D0E94F8132B81FE
:102DB000821B9109F7012081A501421B5109481787
:102DC00059072CF08881803111F0883021F4F4010A
:102DD0001082CC24C394D3948091A102D81660F2BF
:102DE000CC2079F480916A02882359F08091810285
:102DF000909182029860909382028093810241E0D8
:102E000001C040E09801220F331F200F311FF9014C
:102E1000EE0FFF1FE557FD4F908180916A029817D2
:102E200008F407C18091810290918202836090939F
:102E3000820280938102F901EE0FFF1FE757FD4FD9
:102E400080E180831182F5C0E00FF11FEE0FFF1FBC
:102E5000DF01A757BD4F15962C91159782E08C93F3
:102E6000809181029091820282609093820280938D
:102E70008102E557FD4F1082E22F9FC0C501B7FECA
:102E800002C080E090E0F801EE0FFF1F4091810248
:102E9000509182028617970770F4E00FF11FEE0F32
:102EA000FF1FE757FD4F88E08083546050938202F4
:102EB0004093810232C0416050938202409381026C
:102EC000E00FF11FEE0FFF1FE557FD4F908180913E
:102ED0006A02981710F49F5F908390916C02992377
:102EE00071F0F801EE0FFF1FE00FF11FEE0FFF1F53
:102EF000E757FD4F8181891720F48F0D818340E0D2
:102F00000DC0872D0E94161580918102909182023A
:102F10009260909382028093810241E080916B02E3
:102F20008093A20286C080916B028093A202DF018F
:102F3000AA0FBB1FA557BD4F8C91882389F1C501EE
:102F4000B7FE02C080E090E0409181025091820281
:102F50006817790790F4F801EE0FFF1FE00FF11FDB
:102F6000EE0FFF1FE757FD4F80E1808341605093D4
:102F700082024093810240E006C054605093820276
:102F80004093810241E0F801EE0FFF1FE00FF11FB7
:102F9000EE0FFF1FE557FD4F80818150808349C0B0
:102FA000ED8182E08883809181029091820282602B
:102FB00090938202809381021C92F0E0ED55FD4FC8
:102FC00080E8808335C099819F5F99838C8182FDE1
:102FD00017C0AD8182E08883809181029091820246
:102FE00082609093820280938102EE0FFF1FE5576B
:102FF000FD4F1082B0E0AD55BD4F80E88C9318C0F6
:1030000080916F02981748F0872D0E9416158091C5
:10301000810290918202906105C08091810290911D
:1030200082029460909382028093810241E001C009
:1030300040E0842FCDB7DEB7EEE00C949218FC018F
:10304000009709F0099508951092A7021092A8021E
:103050001092AB021092AC021092A9021092AA0236
:103060001092AD021092AE0208958091A902909143
:10307000A702892B41F0E0916702F0916802309736
:1030800011F080E009958091AA029091A802892B05
:1030900041F0E0916702F0916802309711F081E011
:1030A00009950895991B79E004C0991F961708F0B7
:1030B000961B881F7A95C9F780950895AA1BBB1B9C
:1030C00051E107C0AA1FBB1FA617B70710F0A61B28
:1030D000B70B881F991F5A95A9F780959095BC0149
:1030E000CD0108952F923F924F925F926F927F92FF
:1030F0008F929F92AF92BF92CF92DF92EF92FF9208
:103100000F931F93CF93DF93CDB7DEB7CA1BDB0BB3
:103110000FB6F894DEBF0FBECDBF09942A88398858
:1031200048885F846E847D848C849B84AA84B9845F
:10313000C884DF80EE80FD800C811B81AA81B9816B
:10314000CE0FD11D0FB6F894DEBF0FBECDBFED017F
:103150000895DC01CB01FC01E199FECF06C0FFBB65
:10316000EEBBE09A31960DB20D9241505040B8F747
:103170000895E199FECF9FBB8EBBE09A99278DB34E
:103180000895DC01CB0103C02D910E94CC18415061
:103190005040D0F70895262FE199FECF9FBB8EBBFC
:1031A0002DBB0FB6F894E29AE19A0FBE01960895EE
:0431B000F894FFCFC1
:1031B4001027E80364000A0000000000000000007B
:1031C4000000010000000000063310020101051B8D
:1031D4000FBC0A00000000000000020202001B0FE6
:1031E400C40A00000000000000020303011B0FCC0E
:1031F4000A00000000000000020404021B0FD40AAD
:1032040000000000000000020505030000DC0A00C5
:1032140000000000000002070004DB0CE40A0000C8
:1032240000000000000000730000061B0F000000F7
:1032340005DA0E000000000000000000000200009B
:103244009C0E000000000000000001000303016365
:103254000E00000000000000000100040400280E1D
:1032640000000000000000000100050503ED0D0052
:10327400000000000000000100070000DF0CE40A69
:10328400000000000000000000D5000003DA0E007A
:10329400030102ED0C000000000000000000000427
:1032A4000200ED0C00000000000000000002070016
:1032B40001DF0CE40A000000000000000000D5005B
:1032C40001059C0E0002010100003A0B0000000001
:1032D400000000020302041C0D000000000B0100AA
:1032E400000105030301DF0C0000000000000000E2
:1032F4000005040401DF0C000000000000000000D1
:1033040002070103DF0CE40A0000000000000000D3
:1033140000D5000103630E0002010200004F0B0000
:10332400000000000000030402021C0D0000000065
:103334000A0100000102070101DF0CE40A00000099
:10334400000000000000D5000103280E0002010265
:103354000000690B00000000000000030402021CCE
:103364000D00000000170100000102070101DF0C3D
:10337400E40A000000000000000000D5000103ED95
:103384000D000201020000800B000000000000009C
:10339400030402021C0D00000000FA0100000102F7
:1033A400070101DF0CE40A00000000000000010036
:00000001FF
