:020000040800F2
:10000000002000200D3B0008553B0008553B000830
:10001000553B0008553B0008553B00080000000018
:10002000000000000000000000000000553B000838
:10003000553B000800000000553B0008553B0008F8
:10004000553B0008553B0008553B00080D180008BB
:10005000553B0008553B0008553B0008553B000840
:10006000553B0008553B0008A1220008553B0008FD
:10007000553B0008553B0008553B0008553B000820
:10008000553B0008553B0008553B000800000000A8
:10009000000000000000000000000000553B0008C8
:1000A000553B0008553B0008553B0008553B0008F0
:1000B000F93D0008553B000800000000553B0008D2
:1000C000553B00080000000000000000553B000800
:1000D000000000004D310008553B00080000000002
:1000E000553B0008553B0008553B00080000000048
:1000F0000000000000000000000000000000000000
:1001000000000000000000000000000000000000EF
:100110000000000000000000553B0008553B0008AF
:1001200000000000000000000000000000000000CF
:1001300000000000000000000000000000000000BF
:1001400000000000000000000000000000000000AF
:10015000000000000000000000000000000000009F
:10016000000000000000000000000000000000008F
:10017000000000000000000000000000000000007F
:10018000000000000000000000000000000000006F
:10019000000000000000000000000000000000005F
:1001A000000000000000000000000000000000004F
:1001B000000000000000000000000000000000003F
:1001C0000000000000000000000000005FF808F1DF
:1001D00010B5054C237833B9044B13B10448AFF381
:1001E00000800123237010BD600400200000000087
:1001F0007048000808B5064B1BB106480649AFF326
:1002000000800648036813B1054B03B1984708BD49
:100210000000000070480008640400206004002012
:100220000000000081F0004102E000BF83F00043C5
:1002300030B54FEA41044FEA430594EA050F08BF81
:1002400090EA020F1FBF54EA000C55EA020C7FEA45
:10025000645C7FEA655C00F0E2804FEA5454D4EBC2
:100260005555B8BF6D420CDD2C4480EA020281EA8C
:10027000030382EA000083EA010180EA020281EAC4
:100280000303362D88BF30BD11F0004F4FEA013116
:100290004FF4801C4CEA113102D0404261EB410125
:1002A00013F0004F4FEA03334CEA133302D05242AB
:1002B00063EB430394EA050F00F0A780A4F1010467
:1002C000D5F1200E0DDB02FA0EFC22FA05F28018A1
:1002D00041F1000103FA0EF2801843FA05F3594187
:1002E0000EE0A5F120050EF1200E012A03FA0EFC06
:1002F00028BF4CF0020C43FA05F3C01851EBE37130
:1003000001F0004507D54FF0000EDCF1000C7EEB4C
:1003100000006EEB0101B1F5801F1BD3B1F5001F8A
:100320000CD349085FEA30004FEA3C0C04F10104A9
:100330004FEA445212F5800F80F09A80BCF1004FD2
:1003400008BF5FEA500C50F1000041EB045141EA54
:10035000050130BD5FEA4C0C404141EB010111F455
:10036000801FA4F10104E9D191F0000F04BF014600
:100370000020B1FA81F308BF2033A3F10B03B3F1DE
:1003800020020CDA0C3208DD02F1140CC2F10C026E
:1003900001FA0CF021FA02F10CE002F11402D8BFCC
:1003A000C2F1200C01FA02F120FA0CFCDCBF41EA98
:1003B0000C019040E41AA2BF01EB0451294330BD67
:1003C0006FEA04041F3C1CDA0C340EDC04F1140444
:1003D000C4F1200220FA04F001FA02F340EA03001B
:1003E00021FA04F345EA030130BDC4F10C04C4F161
:1003F000200220FA02F001FA04F340EA0300294641
:1004000030BD21FA04F0294630BD94F0000F83F48A
:10041000801306BF81F480110134013D4EE77FEA6D
:10042000645C18BF7FEA655C29D094EA050F08BFB9
:1004300090EA020F05D054EA000C04BF194610469A
:1004400030BD91EA030F1EBF0021002030BD5FEADE
:10045000545C05D14000494128BF41F0004130BD06
:1004600014F580043CBF01F5801130BD01F000455A
:1004700045F0FE4141F470014FF0000030BD7FEACD
:10048000645C1ABF194610467FEA655C1CBF0B46C8
:10049000024650EA013406BF52EA033591EA030FDF
:1004A00041F4002130BD00BF90F0000F04BF0021D7
:1004B000704730B54FF4806404F132044FF000050A
:1004C0004FF0000150E700BF90F0000F04BF002183
:1004D000704730B54FF4806404F1320410F00045E9
:1004E00048BF40424FF000013EE700BF42004FEAE4
:1004F000E2014FEA31014FEA02701FBF12F07F4361
:1005000093F07F4F81F06051704792F0000F14BF5D
:1005100093F07F4F704730B54FF4607401F00045A1
:1005200021F0004120E700BF50EA010208BF7047F8
:1005300030B54FF000050AE050EA010208BF7047ED
:1005400030B511F0004502D5404261EB41014FF456
:10055000806404F132045FEA915C3FF4DCAE4FF05A
:1005600003025FEADC0C18BF03325FEADC0C18BF41
:10057000033202EBDC02C2F1200300FA03FC20FA92
:1005800002F001FA03FE40EA0E0021FA02F11444DF
:10059000C1E600BF70B54FF0FF0C4CF4E06C1CEAF4
:1005A00011541DBF1CEA135594EA0C0F95EA0C0F69
:1005B00000F0DEF82C4481EA030621EA4C5123EADC
:1005C0004C5350EA013518BF52EA033541F480110B
:1005D00043F4801338D0A0FB02CE4FF00005E1FBBE
:1005E00002E506F00042E0FB03E54FF00006E1FB08
:1005F00003569CF0000F18BF4EF0010EA4F1FF044B
:10060000B6F5007F64F5407404D25FEA4E0E6D418A
:1006100046EB060642EAC62141EA55514FEAC5209B
:1006200040EA5E504FEACE2EB4F1FD0C88BFBCF517
:10063000E06F1ED8BEF1004F08BF5FEA500E50F1C8
:10064000000041EB045170BD06F0004646EA01018E
:1006500040EA020081EA0301B4EB5C04C2BFD4EBC0
:100660000C0541EA045170BD41F480114FF0000EB9
:10067000013C00F3AB8014F1360FDEBF002001F027
:10068000004170BDC4F10004203C35DA0C341BDCA1
:1006900004F11404C4F1200500FA05F320FA04F073
:1006A00001FA05F240EA020001F0004221F00041A7
:1006B00010EBD37021FA04F642EB06015EEA430E1A
:1006C00008BF20EAD37070BDC4F10C04C4F120054A
:1006D00000FA04F320FA05F001FA04F240EA0200FD
:1006E00001F0004110EBD37041F100015EEA430ECE
:1006F00008BF20EAD37070BDC4F1200500FA05F2EE
:100700004EEA020E20FA04F301FA05F243EA02036C
:1007100021FA04F001F0004121FA04F220EA02007B
:1007200000EBD3705EEA430E08BF20EAD37070BDC1
:1007300094F0000F0FD101F00046400041EB0101A1
:1007400011F4801F08BF013CF7D041EA060195F083
:10075000000F18BF704703F00046520043EB03033D
:1007600013F4801F08BF013DF7D043EA060370472A
:1007700094EA0C0F0CEA135518BF95EA0C0F0CD035
:1007800050EA410618BF52EA4306D1D181EA03017B
:1007900001F000414FF0000070BD50EA410606BF75
:1007A0001046194652EA430619D094EA0C0F02D1BA
:1007B00050EA013613D195EA0C0F05D152EA0336FF
:1007C0001CBF104619460AD181EA030101F000411D
:1007D00041F0FE4141F470014FF0000070BD41F066
:1007E000FE4141F4780170BD70B54FF0FF0C4CF440
:1007F000E06C1CEA11541DBF1CEA135594EA0C0F5F
:1008000095EA0C0F00F0A7F8A4EB050481EA030EAB
:1008100052EA03354FEA013100F088804FEA033392
:100820004FF0805545EA131343EA12634FEA022260
:1008300045EA111545EA10654FEA00260EF0004121
:100840009D4208BF964244F1FD0404F5407402D273
:100850005B084FEA3202B61A65EB03055B084FEA04
:1008600032024FF480104FF4002CB6EB020E75EB01
:10087000030E22BFB61A754640EA0C005B084FEA29
:100880003202B6EB020E75EB030E22BFB61A7546A6
:1008900040EA5C005B084FEA3202B6EB020E75EBF1
:1008A000030E22BFB61A754640EA9C005B084FEA69
:1008B0003202B6EB020E75EB030E22BFB61A754676
:1008C00040EADC0055EA060E18D04FEA051545EA65
:1008D00016754FEA06164FEAC30343EA52734FEA0E
:1008E000C2025FEA1C1CC0D111F4801F0BD141EA87
:1008F00000014FF000004FF0004CB6E711F4801FEC
:1009000004BF01430020B4F1FD0C88BFBCF5E06FCB
:100910003FF6AFAEB5EB030C04BFB6EB020C5FEADB
:10092000500C50F1000041EB045170BD0EF0004E30
:100930004EEA113114EB5C04C2BFD4EB0C0541EA62
:10094000045170BD41F480114FF0000E013C90E65F
:1009500045EA060E8DE60CEA135594EA0C0F08BF23
:1009600095EA0C0F3FF43BAF94EA0C0F0AD150EA22
:1009700001347FF434AF95EA0C0F7FF425AF1046B5
:1009800019462CE795EA0C0F06D152EA03353FF4DD
:10099000FDAE1046194622E750EA410618BF52EA5A
:1009A00043067FF4C5AE50EA41047FF40DAF52EA2E
:1009B00043057FF4EBAE12E74A0011D212F50012A4
:1009C00011D20DD56FF47873B3EB62520ED44FEAA7
:1009D000C12343F0004343EA505323FA02F0704727
:1009E0004FF00000704750EA013002D14FF0FF3065
:1009F00070474FF00000704700210A2200F0EABA69
:100A000000220A2300F036BA70B50D4D0D4E761B4C
:100A1000B61006D0002455F8043B01349847A6428E
:100A2000F9D1094D03F024FF084E761BB61006D00D
:100A3000002455F8043B01349847A642F9D170BD13
:100A40008848000888480008884800088C48000842
:100A50000F2AF0B498BF034631D941EA00039B073F
:100A600036D10C46034615462668103D1E60666862
:100A70005E60A6689E60E6681034DE6010330F2D5D
:100A8000F2D8A2F1100402F00F0224F00F04103487
:100A9000032A00EB0403214411D90E461D461446D7
:100AA00056F8047B043C032C45F8047BF8D8141F4B
:100AB00002F0030224F00304043409191B192AB1BB
:100AC00011F8014B013A03F8014BF9D1F0BC704722
:100AD0000346F5E780EA010212F0030F3AD110F065
:100AE000030220F0030021F0030150F804CB08BFFB
:100AF00051F8043B0DD082F003024FEAC2026FF0BE
:100B00007F4323FA02F251F8043B4CEA020C43EA19
:100B1000020300BFACF101329C4501BF22EA0C0286
:100B200012F0803F50F804CB51F8043BF2D04FEA6A
:100B30000C604FEA1C2C012828BFB0EB036F08BFE4
:100B40001B0AF4D003F0FF034FEA1060A0EB030090
:100B5000704700BF10F0030F0AD010F8012B11F8F6
:100B6000013B012A28BF9A42F4D0A2EB0300704750
:100B70004DF8045D4DF8044D4FF0010242EA0222A7
:100B800042EA024201F0030C21F0030150F8044B49
:100B900051F8045BBCF1020F26D04BD824F07F4CF7
:100BA000BCEB152FA4EB020323EA04030DD113EAD7
:100BB000C21308BF51F8045B0AD18CEA040CBCEBE9
:100BC000056F0CD150F8044BE8E74FEA15255CE0BF
:100BD00033F07F4352D10D784FEA146C55E04FEA61
:100BE000146C05F0FF0550E04FEA044CA4EB02033F
:100BF0004FEA1C4C23EA0403BCEB154F17D113EA50
:100C0000C21308BF51F8045B07D18CEA040CBCEB9B
:100C1000054F08D150F8044BE6E71B042ED10D8890
:100C20004FEA144C31E04FEA05454FEA144C4FEAC5
:100C300015452AE004F0FF0CBCEB156FA4EB020392
:100C400023EA04030DD113EAC21308BF51F8045B71
:100C50000AD18CEA040CBCEB052F0AD150F8044BE6
:100C6000E8E74FEA156510E014F0FF0F06D051F8E1
:100C7000045B4FEA142C25F07F4506E04FF000009E
:100C80005DF8044B5DF8045B70470CF0FF0205F063
:100C9000FF00012828BF904204BF4FEA1C2C2D0AF8
:100CA000F3D0A2EB00005DF8044B5DF8045B7047E5
:100CB00080EA0102844612F0030F4FD111F0030FB6
:100CC00032D14DF8044D11F0040F51F8043B0BD014
:100CD000A3F101329A4312F0803F04BF4CF8043B69
:100CE00051F8043B16D100BF51F8044BA3F1013277
:100CF0009A4312F0803FA4F101320BD14CF8043B2F
:100D0000A24312F0803F04BF51F8043B4CF8044B5F
:100D1000EAD023460CF8013B13F0FF0F4FEA3323D0
:100D2000F8D15DF8044B704711F0010F06D011F8AF
:100D3000012B0CF8012B002A08BF704711F0020F9D
:100D4000BFD031F8022B12F0FF0F16BF2CF8022B88
:100D50008CF8002012F47F4FB3D1704711F8012BAB
:100D60000CF8012B002AF9D1704700BF20F00301D5
:100D700010F00300C0F1000051F8043B00F1040C36
:100D80004FEACC0C6FF000021CBF22FA0CF21343A6
:100D90004FF0010C4CEA0C2C4CEA0C4CA3EB0C026F
:100DA00022EA030212EACC1204BF51F8043B0430D9
:100DB000F4D013F0FF0F1FBF013013F47F4F013049
:100DC00013F47F0F18BF0130704700BF2DE9F00109
:100DD000002A44D041EA000313F003032CD1032A74
:100DE0002AD904680D68AC4226D1043A37D0A4F160
:100DF000013525EA040414F0803F04BF0C46054683
:100E000011D034E050F8043F354651F804CF3C4649
:100E1000A3F10138634528EA030809D1043A1ED03A
:100E200018F0803F19D12E1D271D032AEAD8D2B110
:100E3000013A3946304600E0013A03780C78A34283
:100E400013D162B19BB110F8013F11F8014FA342D9
:100E50000BD1012A02F1FF32F4D1002000E010464C
:100E6000BDE8F00170472B792479181BF8E7184684
:100E7000F6E700BF2DE9F04F85B01F468C46029281
:100E80000B46534A039016681A4601331D461478E0
:100E9000311991F801B01BF0080BF5D12D2C73D04E
:100EA0002B2C04BF5478951CD7F1010338BF0023C5
:100EB000102F14BF1A4643F001023AB1302C73D000
:100EC00023B10827302CB94601D00A27B946BBF117
:100ED000000F49460CBF6FF0004A4FF0004ACDF8B2
:100EE00004C0504600F0B2F950468846494600F02A
:100EF0007FF833190022DDF804C05B78114613F047
:100F0000040F1ED0303CA74225DD814294BF002350
:100F1000012353EAD2722DD10A1A534243EB020342
:100F20004445D4BF002303F00103002B22D109FB69
:100F3000014115F8014B012233195B7813F0040FBE
:100F4000E0D113F0030306D0012B14BF572337233E
:100F5000E41AA742D9DC531C1BD00846BBF1000F92
:100F600010D1029B1BB152B90299C1F800C005B063
:100F7000BDE8F08F4FF0FF3215F8014BDCE705F1CB
:100F8000FF3CF1E74842ECE75478951C4FF0010B29
:100F90008AE70399BBF1000F0CBF6FF000404FF0E0
:100FA000004022230B60DCE72A78A2F1780041425E
:100FB00041EB0001582A14BF0A4641F00102002A01
:100FC0003FF47EAF10276C78B94602357FE700BF4B
:100FD0003004002030B440F20004C2F200040D4698
:100FE000134601462A46206830BC43E70000000053
:100FF0004A1E08BF7047C0F02481884240F2168123
:10100000114200F01781B0FA80F3B1FA81F2A2EB3D
:101010000303C3F11F0304A202EB03134FF000020A
:101020009F4600BFAFF30080B0EBC17F00BF42EB33
:10103000020228BFA0EBC170B0EB817F00BF42EB82
:10104000020228BFA0EB8170B0EB417F00BF42EBF2
:10105000020228BFA0EB4170B0EB017F00BF42EB62
:10106000020228BFA0EB0170B0EBC16F00BF42EBE2
:10107000020228BFA0EBC160B0EB816F00BF42EB62
:10108000020228BFA0EB8160B0EB416F00BF42EBD2
:10109000020228BFA0EB4160B0EB016F00BF42EB42
:1010A000020228BFA0EB0160B0EBC15F00BF42EBC2
:1010B000020228BFA0EBC150B0EB815F00BF42EB42
:1010C000020228BFA0EB8150B0EB415F00BF42EBB2
:1010D000020228BFA0EB4150B0EB015F00BF42EB22
:1010E000020228BFA0EB0150B0EBC14F00BF42EBA2
:1010F000020228BFA0EBC140B0EB814F00BF42EB22
:10110000020228BFA0EB8140B0EB414F00BF42EB91
:10111000020228BFA0EB4140B0EB014F00BF42EB01
:10112000020228BFA0EB0140B0EBC13F00BF42EB81
:10113000020228BFA0EBC130B0EB813F00BF42EB01
:10114000020228BFA0EB8130B0EB413F00BF42EB71
:10115000020228BFA0EB4130B0EB013F00BF42EBE1
:10116000020228BFA0EB0130B0EBC12F00BF42EB61
:10117000020228BFA0EBC120B0EB812F00BF42EBE1
:10118000020228BFA0EB8120B0EB412F00BF42EB51
:10119000020228BFA0EB4120B0EB012F00BF42EBC1
:1011A000020228BFA0EB0120B0EBC11F00BF42EB41
:1011B000020228BFA0EBC110B0EB811F00BF42EBC1
:1011C000020228BFA0EB8110B0EB411F00BF42EB31
:1011D000020228BFA0EB4110B0EB011F00BF42EBA1
:1011E000020228BFA0EB0110B0EBC10F00BF42EB21
:1011F000020228BFA0EBC100B0EB810F00BF42EBA1
:10120000020228BFA0EB8100B0EB410F00BF42EB10
:10121000020228BFA0EB4100B0EB010F00BF42EB80
:10122000020228BFA0EB0100104670470CBF01204E
:1012300000207047B1FA81F2C2F11F0220FA02F0D9
:10124000704708B14FF0FF3000F00EB80029F8D019
:101250002DE90340FFF7CCFEBDE8064002FB00F39A
:10126000A1EB0301704700BF704700BF024B98809D
:101270001A885206FCD57047004400401FB518225A
:101280000421104802F0C4FC01214FF4003002F0A8
:1012900075FA0D4C4FF4E13300930023ADF80430A0
:1012A000ADF80630ADF80830ADF80C302046082314
:1012B0006946ADF80A3002F08BFB2046012102F0AE
:1012C000DFFB1FBD000801400044004070B5134D16
:1012D0008AB001AC0E460FCD0FC40FCD0FC42B68E2
:1012E0002360002423460DE00130C0B2B61A9642B6
:1012F000FAD2302800D113B1FFF7B8FF012304342C
:10130000242C03D001AAA2583020F0E73036F0B2E6
:101310000AB0BDE87040FFF7A9BF00BFA4400008B5
:10132000002938B504460D4604DA2D20FFF79EFF4C
:101330006D4202E02020FFF799FF20462946BDE8D4
:101340003840FFF7C3BF092802D83030C0B2704719
:101350003730C0B2704711F07F4310B50C460BD048
:10136000080FFFF7F0FFFFF781FFC4F30360FFF7FB
:10137000EAFFFFF77BFF012314F47F0F00D163B175
:10138000C4F30350FFF7DFFFFFF770FFC4F3034020
:10139000FFF7D9FFFFF76AFF012314F47F4F00D155
:1013A0005BB1C4F30330FFF7CEFFFFF75FFFC4F379
:1013B0000320FFF7C8FFFFF759FFC4F30310FFF73F
:1013C000C2FFFFF753FF04F00F00FFF7BCFFBDE8BB
:1013D0001040FFF74BBFF8B505460C4617460026F0
:1013E00007E0A15D2846FFF7B6FF2020FFF73EFF8C
:1013F0000136BE42F5D1F8BD0EB4F3B507AB53F8D4
:10140000046B0446019305E0252805D1002D52D038
:10141000FFF72CFF00254FE0002D49D0632804D1B1
:10142000019B1A1D01921878F2E7752807D1019BDC
:1014300020461A1D19680192FFF748FFEAE769285C
:1014400007D1019B20461A1D19680192FFF768FF1A
:10145000E0E7582807D1019B20461A1D1968019220
:10146000FFF779FFD6E7A0F173014D4245EB010587
:10147000532808BF45F0010565B1019B1A1D019273
:101480001F6801E0FFF7F2FE17F8010B0028F9D101
:10149000054611E041280FD1019B20461A1D0192FB
:1014A0001A4652F8081B01925A68FFF794FF03E0AE
:1014B000FFF7DCFE00E0012516F8010B0028A3D1A0
:1014C000BDE8FC4003B0704710B508200C4601F0A1
:1014D00037FFE070C0F30F2020710C2001F030FFC7
:1014E0006071102001F02CFFA07102F08DF94FF413
:1014F0006163B0FBF3F103FB11003C22B0FBF2F39C
:10150000637002FB13032170A37010BDF0B50820B7
:1015100085B001F015FF04460C2001F011FF0646CE
:10152000102001F00DFF054602F06EF94FF46163E3
:10153000B0FBF3F703FB17003C21B0FBF1F2029282
:1015400001FB1202EDB20392F3B2044804492246B1
:101550008DE8A000FFF750FF05B0F0BD7C0400202F
:10156000144200084FF4C873B1FBF3F203FB1213EB
:101570009BB263B16423B1FBF3F003FB101080B2A4
:1015800030B111F0030F14BF00200120704701207B
:1015900070470000A2F1040C70B51E46DCF1000398
:1015A00043EB0C03062A08BF43F001030C46154623
:1015B0004BB9A2F109014B4243EB01030B2A08BFCF
:1015C00043F001030BB11F2E1AD0A5F102014B42CB
:1015D000A6F11F0C43EB0103DCF1000242EB0C020D
:1015E0001E2E08BF42F00102134209D11D2E14BF66
:1015F000002303F001034BB12146FFF7B3FF28B9E5
:1016000009480A49BDE87040FFF7F6BE08202146A8
:1016100001F088FE0C20294601F084FE102031469E
:10162000BDE8704001F07EBE7C0400202742000827
:1016300073B5032301240026054668468DF8003063
:101640008DF801408DF802608DF8034001F09AFD9D
:1016500021464FF0C05002F091F8204601F0F6FF0D
:10166000042001F06DFE4AF2A553984246D02B4863
:101670002B492E70FFF7C0FE01F04BFE204601F013
:10168000FFFF284B02AC1B6844F8043D0BE02548E3
:1016900021464FF4E16202F097FB20B11F48224936
:1016A000FFF7AAFE04E0412002F07AF80028EED00D
:1016B000412002F075F8A0B11C491848FFF79CFEC4
:1016C0004FF4807001F0ECFF012001F0F1FF02F017
:1016D000CDF802F0C3F847F6FF7002F0AFF802F061
:1016E000BDF8284640F2DC7106221623FFF752FFB0
:1016F00004204AF2A55101F015FE07E007480C4905
:10170000FFF77AFE02F0B2F802F0A8F801200146D5
:1017100002F05AF802F0A2F87CBD00BF7C04002061
:1017200033420008E80D00204342000856420008FA
:101730006942000870B50C4615461E4602F08EF848
:101740003C2045434FF4616000FB0454A01902F0B3
:1017500065F8BDE8704002F081B8F8B5074608208A
:1017600001F0EEFD06460C2001F0EAFDC5B21020A6
:1017700001F0E6FD022DC4B214D11B2C2BD91C2C78
:101780000BD138463146FFF7EDFE00280CBF01248F
:101790001D2414BF022503252AE01D2C28D1012475
:1017A000032525E0A5F104014B4243EB0103062D7F
:1017B00008BF43F001034BB9A5F10902534243EBC3
:1017C00002030B2D08BF43F0010313B11D2C07D8F2
:1017D00001E01E2C02D80134E4B209E00C2D03D044
:1017E0000135EDB2012403E001360124B6B22546ED
:1017F0000820314601F096FD0C20294601F092FDAB
:1018000010202146BDE8F84001F08CBD08B501204C
:1018100002F03AF8B8B1012002F048F80A4B082269
:10182000C3F8802101F0F0FF084B98420BD102F081
:1018300015F8002001F0F2FF0548FFF78EFFBDE824
:10184000084002F00BB808BD00E100E07F51010044
:101850007D040020002310B50371044601F0D4FF7D
:101860003C38206010BD000010B5104A104B1288A3
:1018700090B01B8800920F4A0F4912680F4C0192DA
:101880000F4A04A8126802920E4A02F0A0FB04A8B4
:1018900000F04EFE20460C49FFF70AFA0B480C49AF
:1018A0002246FFF7A9FD10B010BD00BFEAF7FF1FE9
:1018B000E8F7FF1FECF7FF1F7E42000888040020B6
:1018C000F0F7FF1F8D4200082C0900207C04002047
:1018D0009342000808B5002001F0BEFE02F064F952
:1018E000194B99699A6942F001029A61174A506846
:1018F00020F0E06040F000705060CA0758BF9A695D
:1019000013485CBF22F001029A6102F01DFA3F21E8
:101910000F4802F063FA0F48FFF7B0FC0E4940F29F
:10192000E9320C48FFF768FDFFF79EFF0B48FFF711
:101930007FFE0B4800F03AFB0A4801F0EBFB0A4837
:10194000BDE80840FFF786BF0010024000000140DC
:10195000E80D00207C040020A04200087D04002047
:10196000BC07002058090020800400202DE9F04F1A
:10197000324885B03249FFF73FFD1E2300933148BE
:101980003149324A324B00F0A3FF05460120002DB9
:1019900050D13049042202A802F045FA02A8FFF70C
:1019A0002BF82D490222814602A802F03CFA02A837
:1019B000FFF722F829490222804602A802F033FAF2
:1019C00002A8FFF719F826490222074602A802F0EA
:1019D0002AFA02A8FFF710F822490222064602A8B6
:1019E00002F021FA02A8FFF707F81F4902228246F7
:1019F00002A802F018FA02A8FEF7FEFF1B4C83466D
:101A00001FFA89F15FFA88F2FBB22046FFF7C2FDA8
:101A10005FFA8BF35FFA8AF2F1B22046FFF78AFE93
:101A200006481349FFF7E8FC2046FFF76FFD012346
:101A30002370284605B0BDE8F08F00BF7C0400206D
:101A4000BB42000858090020CE420008DD420008D1
:101A5000C90B0020D40B0020D90B0020DC0B002088
:101A6000DF0B0020E20B0020E50B00207D040020AE
:101A7000EF4200082DE9F047904B90B01B780546E7
:101A800033B98F488F49FFF7B7FC2846FFF7E2FECE
:101A900001F0BAFE4FF46164B0FBF4F304FB1300F1
:101AA0003C23B0FBF3F0C0B2172840F0FD8001F0FA
:101AB000ABFE854BB0FBF4F41B78E4B2A34200F01C
:101AC000F3807F48814904E000227D48804983F803
:101AD0000821FFF791FC2846FFF7BCFE2B79002B6D
:101AE00040F0E98001F090FE2B68C01A3B2840F2DC
:101AF000E28001F089FE774928607148FFF77CFC9D
:101B00006E48FFF703FD744801F006FA724801F0D1
:101B1000D1F8002840F0C4806F48704901F02EF8D9
:101B2000002840F0BA802846FFF720FF002800F088
:101B30008F80AFE0E319DB7A1BB169493A4602F0C6
:101B400046FA0137032FF5D1A37BE27B09AF53EAB5
:101B5000022203D0634902F03AFA07E0B84205D006
:101B600010F8013C2C2B08BF00F8012C3A465448D1
:101B70005D49FFF741FC227AE379217943EA0223A8
:101B8000627A5A4843EA0243A27ADFF8889143EA2C
:101B90000263E27842EA012200926279544901929A
:101BA000A279029218F80620039262780492A27831
:101BB0000697059240F2E932CDF81CA002F007FA30
:101BC0004C494A4A3E48FFF717FC484800F0B0FC31
:101BD0003B4849494A46FFF70FFC227AE3792179CD
:101BE00043EA0223627A414843EA0243A27A43EA83
:101BF0000263E27842EA0122009262793F4901924F
:101C0000A279029218F80620039262780492A278D0
:101C10000697059240F2E932CDF81C9002F0D7F910
:101C200027483749314AFFF7E7FB2B482B49354A0C
:101C30002E4B00F0E3FD074670B996F800330133F0
:101C4000DBB22F2B86F8003388BF86F8000303E051
:101C50002D4EDFF8C4A0074696F8008396F80133AE
:101C6000434508D0B7B94FEA081810A808EB060496
:101C700000F81C7D5EE76FB911482449FFF7BCFBF3
:101C800001232B7101F0C0FD4FF46163B0FBF3F051
:101C90000D4B1870104800F0D3FF0F4800F0E8FF1C
:101CA0000D4800F0AFFF06E0194B93F80821002A19
:101CB0003FF414AF08E710B0BDE8F0877D040020C2
:101CC0007C040020FA4200087E0400200C43000837
:101CD000214300083543000858090020CE4200087F
:101CE0004F430008564300085B430008C90B00201F
:101CF00067430008B0430008BA430008C443000823
:101D00000E4400081B440008B904002027440008C2
:101D1000BC0700202C0900208804002008B5FFF72C
:101D2000D9FD0348FFF7A6FE024800F0F9F9F8E7ED
:101D300080040020BC07002038B50224B1F5EE7FF6
:101D4000054607D90324B1F5106F03D30124B1F57B
:101D5000616F18D92B7BA3B901232B710C4B0D4854
:101D60001A780D492346FFF747FB0C4B1B682B6085
:101D700007E0074B00242C711A7806480849FFF742
:101D80003BFB2C7338BD047B002CFAD0F1E700BF7D
:101D9000B80400207C0400203E440008E80D002028
:101DA0005144000810B50446007B58B1207948B171
:101DB0000548214640F6A57202F006F810B100234E
:101DC0002371012010BD00BFE80D002038B5094C7B
:101DD00004F18C052068A188002201F019FFA06899
:101DE00018B1A189102201F013FF1434AC42F1D1D3
:101DF00038BD00BF7C4400087FB54FF4804001F03F
:101E000035FC01214FF4007001F0ACFC01200146CB
:101E100001F09CFC4FF4602100230122039107484C
:101E200001A901938DF808308DF8092004938DF8ED
:101E3000142001F0D7F907B000BD00BF0024014015
:101E400010B500210446154801F0F9F9144801F0D5
:101E500087FA1448144A0378142101FB0321CA6845
:101E60000AB1098A51610133DBB2062B037002D932
:101E70000C4B00221A700B4B14211A780A4B01FBF1
:101E80000232D3680BB1128A1A61084B1B68C4F87E
:101E90008430002384F8883010BD00BF0024014046
:101EA00008000240B804002078440008E80D002033
:101EB00030B501248DB0054680F8884000212448C3
:101EC00001F0B4F94022234B0492802206924FF491
:101ED00080720193079200234FF480621E4801A98B
:101EE000023503930593089209930A930B93029585
:101EF00001F0B4FA1848214601F0CEFA174B184AFF
:101F00001B78142101FB03231148997C22460623E8
:101F100001F0B9F90E48214601F088F90C4801F0AA
:101F200097F90B4801F099F90028FAD1084801F017
:101F300098F9074801F09AF90028FAD101210448DC
:101F400001F07DF90248012101F094F90DB030BD96
:101F5000002401404C24014008000240B804002045
:101F60007844000838B5104D402110220446284618
:101F700001F04EFE40232B612846A021102201F0E3
:101F800047FEFC340422A0236B61204629461346F9
:101F900001F074FE20460C2101F07EFE2046BDE8D3
:101FA000384001F0C1BE00BF0010014038B54FF409
:101FB00080510446042200250F4801F029FE2046E6
:101FC00084F808512570FFF701FF2046FFF714FF42
:101FD0002046FFF7C7FF2B4604EB05120135072DFE
:101FE00082F89830F8D1054B062220461A70BDE8D9
:101FF0003840FFF725BF00BF000C0140B8040020A7
:1020000010B5182001F09CF90446142001F098F94D
:1020100004EB004010BD00002DE9FF410446694675
:102020003B48FFF751FA0022BDF80E50DFF8E8C038
:1020300021461046964612F80C300C2B08BFB1F81A
:1020400094503FD00DF11008C0F3470608EB060787
:10205000D3F1010838BF4FF00008022B08BF48F049
:10206000010817F8057CB8F1000F18D1042B14BF34
:102070004FF000084FF00108062B08BF48F0010898
:10208000B8F1000F0BD1082B14BF4FF000084FF030
:1020900001080A2B14BF434648F0010333B191F8FD
:1020A000983007F00F0707EB031304E091F89880CE
:1020B00007F0F003434404AFDBB2BE1906F8053C59
:1020C00081F890E01432013010318C2AB3D12046CF
:1020D000ADF80E50FFF794FF029B8DF8070003F058
:1020E0007F4343EA10200B4C029094F801531022D6
:1020F00004EB05100135EDB26946FEF7A9FC2F2D62
:1021000084F8015302D9002384F80133BDE8FF812C
:102110007D040020B904002078440008000000007D
:1021200070B50446022001F0C3F900283CD000231A
:102130001946E21852880233802B1144F9D1404BE2
:1021400014221B78890904EB031653433D4A06F118
:102150008C05D35C88360C2B20D13B4B9B68DB0471
:1021600017D40846FEF7A0F933A3D3E90023FEF7FE
:1021700011FAFEF721FC2B7BA86093B904232B7383
:1021800001232B71314B1B68A3F57A63053B736008
:1021900007E00023AB602B732B7102E02846FFF7AA
:1021A000CBFD2046FFF74CFE94F888304BB904F184
:1021B00084012648122201F007FE10B12046FFF7E5
:1021C00077FE0025012604EB05108C30FFF7EAFDB1
:1021D00000B126700135072DF5D12378EBB11B48EE
:1021E0001B4944F2506201F0EFFDB0B119481A49A1
:1021F000FFF702F9002323702046FFF70DFF0123AC
:1022000084F8083170BD01F0FFFAB0FBF6F6204605
:102210002E70BDE87040FFF7FFBE01F0F5FA0F4DDC
:102220004FF46166B0FBF6F02B78C0B28342EAD17E
:1022300070BD00BFAFF30080D2F1E20EE53508407B
:10224000B804002078440008000C0140E80D00208C
:10225000C80800207C0400206144000834040020E9
:1022600010B518200C4689B201F05CF8210C14203E
:10227000BDE8104001F056B838B50546FFF7C0FE7E
:10228000441C21462846FFF7EBFF0348034922463A
:10229000BDE83840FFF7B0B87C0400206E44000869
:1022A00008B5102001F04EF968B107480749FC2233
:1022B00001F08AFD10B10648FFF7DEFF1020BDE8EF
:1022C000084001F04DB908BDE80D0020B40400201D
:1022D000BC070020084B00225A619A61DA65074A60
:1022E0001A6002F188325A60054A9A60A2F1883277
:1022F000DA60044A1A617047CC0800200123456760
:10230000FEDCBA98F0E1D2C32DE9F04F594BD3B0BF
:10231000002102AA587F1C7F000440EA0460DC7F91
:1023200020439C7F043340EA042088500431402934
:10233000F0D11346002110465D6B1C6A6C400D58AD
:1023400004316C409D686C404FEAF4741C640433A3
:10235000B1F5807FF0D1474BD868D3F800C05F68F3
:102360009E681B69009001931D468046B146394620
:102370006346002004E04546C84689461946234680
:102380003D4C00F1080BEA462C195BF80A5004EBAF
:10239000F364641928EA010A09EA010504304AEAEB
:1023A000050550282C444FEAB101E4D115AD02F1E6
:1023B0009C0A04E0C84689461946234604462F482D
:1023C000404481EA030800EBF46088EA090880448D
:1023D00055F8040F4FEAB30355454044EAD129ADFF
:1023E00002F1EC0B04E089461946234604464046B8
:1023F000DFF88CA001EA0308CA4441EA030909EAAC
:10240000040949EA080855F8049F0AEBF06AD04429
:102410005D45C8444FEAB404E5D13DAD02F59E7276
:1024200004E01946234604464046C846DFF8549067
:10243000894484EA0001594009EBF869894455F858
:10244000041F4FEAB00095428944EAD1094A09EBDA
:102450000C01DDF804A01160009953444744801931
:1024600064181361002357609060D460D36553B043
:10247000BDE8F08FCC0800209979825AA1EBD96E83
:10248000DCBC1B8FD6C162CA1C4A08B5D36D802044
:10249000D118013308770021382BD36503D807E022
:1024A000D018017701333F2BFAD9D365FFF72CFF02
:1024B000124B0021DA6D02E0981801770132372AB9
:1024C000FAD9DA659A69110E83F85410110C83F861
:1024D000551083F85720110A5A6983F85610110EC7
:1024E00083F85810110C83F85910110A83F85A1008
:1024F00083F85B20BDE80840FFF706BFCC0800204A
:102500001FB5FFF7C1FF074B07499A6807480092BC
:10251000DA6801921A6902920CCB01F058FD05B0FD
:1025200000BD00BFCC080020044500082C09002095
:1025300038B505460D4CFFF7CDFE0FE0E26DA11852
:102540000B77531C6269E3650832626112B9A269B4
:102550000132A261402B01D1FFF7D6FE15F8013BF5
:10256000002BEBD1BDE83840FFF7CABFCC080020F4
:10257000024B98801A885206FCD5704700380140FB
:10258000D0F80022034681180132B2F5FC7F48786A
:10259000C3F8002202D10022C3F8002270470000D5
:1025A00010B50A480C46632101F018FC01E0FFF762
:1025B000DFFF14F8010B0028F9D10D20FFF7D8FF39
:1025C0000A20BDE81040FFF7D3BF00BFE80D002090
:1025D00070B5134D8AB001AC0E460FCD0FC40FCDB0
:1025E0000FC42B682360002423460DE00130C0B2E5
:1025F000B61A9642FAD2302800D113B1FFF7B8FFCD
:1026000001230434242C03D001AAA2583020F0E77F
:102610003036F0B20AB0BDE87040FFF7A9BF00BF86
:10262000C84000080EB4F3B507AC54F8045B064686
:102630006321224801F0D2FB01942C4605E02528B5
:1026400005D1002D30D0FFF793FF00252DE0002DA0
:1026500027D0632804D1019B1A1D01921878F2E754
:10266000752807D1019B30461A1D19680192FFF7A2
:10267000AFFFEAE7A0F173014D4245EB0105532896
:1026800008BF45F0010585B1019B1A1D01921F6825
:1026900001E0FFF76DFF17F8010B0028F9D105469F
:1026A00003E0FFF765FF00E0012514F8010B0028A7
:1026B000C5D1BDE8FC4003B0704700BFE80D002065
:1026C0002DE9F3471F4B02AE1B680446894692462C
:1026D00046F8043D002500F5017825E0D4F80022F5
:1026E000D4F8FC319A421FD02046FFF749FF0D284D
:1026F0001AD00A2814D1BDB1651985F8047248466C
:10270000FEF734FB494602464046FEF75FFBB0B198
:1027100040460D490522FEF759FB78B13D4603E0DE
:10272000631983F80402013506483146524601F028
:102730004BFB07460028D1D0022000E00120BDE875
:10274000FC8700BFE80D0020144500082DE9F34187
:10275000164B02AE1B6805460F4646F8043D0024A2
:1027600017E0D5F80022D5F8FC319A4211D028465E
:10277000FFF706FF0D280CD00A2805EB040303D150
:1027800083F8048240460FE00134362C83F80402BB
:1027900009D0064831463A4601F016FB804600282B
:1027A000DFD0022000E00120BDE8FC81E80D002020
:1027B0002DE9F341104B02AC1B6805460F46164647
:1027C00044F8043D0AE0D5F80022D5F8FC319A42DD
:1027D00004D02846FFF7D4FEB84209D00648214667
:1027E000324601F0F1FA80460028ECD0022000E0E9
:1027F0004046BDE8FC8100BFE80D0020F7B50E465D
:102800001746044632460093254826491D463B4656
:10281000FEF7F2FDD4F8FC3120462349C4F800321B
:10282000FFF7BEFE20463E214FF4E172FFF7C0FFE6
:1028300000282ED120461D493A46FFF7F3FE3246C6
:1028400020461B49FFF7EEFE20461A49FFF7EAFE35
:1028500020461949FFF7E6FE2846FEF787FA174992
:1028600002462046FFF7DEFE204615492A461A2377
:10287000FFF7D8FED4F8FC312046C4F800321149E5
:1028800044F62762FFF71CFF044618B904480E49B6
:1028900002E0012402480D49FEF7AEFD2046FEBDD0
:1028A0007C0400201A4500082A4500083545000828
:1028B00048450008534500086C4500089E4500083F
:1028C000B5450008BA4500089C460008294600089E
:1028D0002DE9F74F0E461746044632468C488D497F
:1028E0001D463B46DDF830A0FEF786FDD4F8FC31EE
:1028F00020468949C4F80032FFF752FE20463E21A7
:102900004FF4E172FFF754FF002840F0F7803A4699
:1029100020468249FFF786FE20468149FFF782FE66
:10292000324620467F491A23FFF77CFED4F8FC315B
:102930002046C4F800327C4944F62762FFF7C0FE07
:102940000646002840F0DA8071487849FEF754FDC9
:1029500004F50178009604F5057902261BE040464F
:10296000734901F06BFA60B14846FEF745F80090F4
:10297000064680B1504594BF0090CDF800A03E4679
:1029800009E040466B4901F059FA18B994F804324D
:102990000BB90AE00126204644F62761FFF7D6FE70
:1029A00007460028DBD08346AAE0002E2DD1624BDB
:1029B0000DF108081B68BB4648F8043D3E4616E08A
:1029C000D4F80022D4F8FC319A4204D02046FFF714
:1029D000D7FDA85501365848414644F6276201F014
:1029E000F3F9002814BF4FF0020B4FF0000B009BCF
:1029F0009E422CBF00230123BBF1000F14BF002314
:102A000003F00103002BDBD16DE0012E1CBF3E461D
:102A10000AF1FF3A64D13BE0204644F62761FFF714
:102A200095FE834600283AD1404600A901F011FAEC
:102A3000002832D0009B002B58D03F4B0DF10809E5
:102A40001B6849F8043D16E0D4F80022D4F8FC31A4
:102A50009A4204D02046FFF793FDA8550136364828
:102A6000494644F6276201F0AFF9002814BF4FF041
:102A7000020B4FF0000B009B9E422CBF0023012352
:102A8000BBF1000F14BF002303F0010313B1DBE718
:102A9000BB463E460AF1FF3901E04FF0010B4E45BF
:102AA0002CBF00230123BBF1000F14BF002303F050
:102AB0000103002BB0D116E0204644F62761FFF752
:102AC00045FE68B940461D4901F0B8F970B928467D
:102AD000414601F09FF905464046FEF747F9361892
:102AE0005645E9D302E0BBF1000F09D10023AB55F5
:102AF000074813492A46FEF77FFC06E04FF0010B1A
:102B000003481049FEF778FC5F463846BDE8FE8F63
:102B10007C040020C24500082A450008CD45000875
:102B200053450008DF450008BA4500085B48000827
:102B3000EE450008FD450008E80D00201846000895
:102B40001F4600082846000870B51E46D0F8FC3124
:102B50000446C0F800321546FFF722FD20463146F4
:102B60002A46BDE87040FFF7ABBD0000024B4FF4B2
:102B7000E172FFF7E9BF00BFBF45000870B504462A
:102B80000E4604F50E751748174932460235FEF712
:102B900033FC16492846324601F019FA20462946E8
:102BA000FFF7E4FFB8B90F481149FEF725FC2046AE
:102BB000104944F62762FFF783FD60B904F50370FE
:102BC0000D49FDF787FF044628B906480B49FEF773
:102BD00013FC204670BD03480949FEF70DFC012097
:102BE00070BD00BF7C0400206746000876460008E0
:102BF0005B48000892460008BF4500089A46000856
:102C00000347000808B50949FFF7B0FF084841F23B
:102C1000941101F0E3F8074B074808494FF40052BC
:102C20001A61BDE80840FEF7E7BB00BFA0460008F8
:102C3000E80D0020000C01407C040020AB46000899
:102C400010B5074904460748FEF7D6FB0649074B6F
:102C5000204644F62762BDE81040FFF775BF00BF6D
:102C6000B44600087C040020C3460008BF450008A5
:102C700070B50B4C44F6276506462A46234609499B
:102C8000FFF762FF23462A4630460749FFF75CFFFD
:102C9000064904460648FEF7AFFB204670BD00BF5C
:102CA000BF450008CF460008DC460008E74600089C
:102CB0007C04002010B51C4904461C48FEF79CFB10
:102CC00020461B4944F627621A4BFFF73DFF30BBF5
:102CD000204619494FF4E172184BFFF735FFF0B960
:102CE000144920464FF4E172FFF7EAFC20461449EC
:102CF000FFF73CFF98B920461249FFF737FF70B93C
:102D00002046114944F627620A4BFFF71DFF04468F
:102D100038B906480D49FEF76FFB204610BD01206B
:102D200010BD012010BD00BFF14600087C0400204A
:102D300005470008BF450008104700081A4700086B
:102D40002447000842470008674700087447000806
:102D500073B505461A491B48FEF74EFB1A4B02ACE9
:102D60001B6844F8043D1DE016481849FEF744FB73
:102D7000284617494FF4E172164BFFF7E5FE064669
:102D800058B915494FF4E1722846FFF799FC0D48F0
:102D90001249FEF731FB304611E00B484FF4E17168
:102DA00001F01CF80848214640F6A57201F00CF825
:102DB0000028D9D003480A49FEF71EFB02207CBD3B
:102DC000844700087C040020E80D00205B480008D0
:102DD0008E47000897470008BF450008A447000831
:102DE000AD47000873B5054616491748FEF704FBC2
:102DF000164B02AC1B6844F8043D14E01248144919
:102E0000FEF7FAFA28461349FFF7B0FE064628B93E
:102E10000D481149FEF7F0FA304611E00B484FF427
:102E2000E16100F0DBFF0948214644F6276200F02B
:102E3000CBFF0028E2D004480849FEF7DDFA022063
:102E40007CBD00BFB94700087C040020E80D0020CD
:102E50005B480008C94700089B4600082846000850
:102E600073B5054622492348FEF7C6FA224B02AC49
:102E70001B6844F8043D2CE01E482049FEF7BCFACC
:102E800028461F494FF4E1721E4BFFF75DFED8B98B
:102E900095F80D622846303E1B494FF4E172F6B2B8
:102EA000FFF70EFC032E09D0052E01D0012E0BD109
:102EB00010481649FEF7A0FA002017E00D48144903
:102EC000FEF79AFA012011E00B484FF4E16100F09F
:102ED00085FF0948214644F6276200F075FF002867
:102EE000CAD004480B49FEF787FA02207CBD00BF18
:102EF000D34700087C040020E80D00205B48000850
:102F0000E5470008EE470008BF450008F547000800
:102F1000054800080E4800082DE9F0413F490446E5
:102F20003F48FEF769FA0025012384F87032C4F89F
:102F3000FC51C4F800523B4F3B4E65E075B94FF46D
:102F400000553D61394840F68C2100F047FF7D6116
:102F500036484FF47C7100F041FF04254FF40048DF
:102F600032484FF47C71C6F8148000F037FF2F48C8
:102F700040F2E731C6F8108000F030FF28482C49B5
:102F8000FEF73AFA013D20462A49EDB2FFF7EEFD81
:102F9000002839D122482849FEF72EFA2046FFF7AB
:102FA000D7FE002830D11E482449FEF725FA2046D6
:102FB0002349FFF7DBFD38BB19482249FEF71CFA0D
:102FC0002046FFF70FFFF8B915481F49FEF714FA1E
:102FD0002046FFF745FFB8B911481C49FEF70CFA27
:102FE0001B492046FFF7C2FD20461A494FF4E17203
:102FF000194BFFF7A9FD20B90C4842F2283100F027
:10300000EDFE002384F8703294F87032012B95D0D5
:1030100003481249BDE8F041FEF7EEB91848000830
:103020007C040020000C014000080140E80D002055
:10303000294800082C4800082F480008324800089A
:10304000354800083F480008424800084548000845
:103050004848000854480008BF4500085D4800087B
:1030600010B5114C4FF490512046182200F0D0FDBD
:1030700020464FF44061042200F0CAFD20464FF480
:103080000041142200F0C4FD4FF40043236104F515
:10309000806420464FF40051142200F0B9FD4FF433
:1030A0000053236110BD00BF0008014030B501216D
:1030B00087B04FF4804000F055FB4FF4E1330193AB
:1030C000134D00231C46ADF80830ADF80A30ADF8BA
:1030D0000C304FF44073ADF8103028460C2301A992
:1030E000ADF80E3000F074FC2846012100F0C8FC59
:1030F00025238DF8143005A801238DF815408DF88F
:1031000016408DF8173000F03DF807B030BD00BF15
:103110000038014010B50446FFF7A2FF2046FFF734
:10312000C5FF0122074840F2255100F0B5FC064BCF
:103130004FF400521A614FF40042A3F580631A6104
:1031400010BD00BF00380140000C014010B50B4C11
:1031500040F22551204600F0B8FC70B1084BA08821
:10316000D3F8FC2199180132B2F5FC7F4870C3F8FE
:10317000FC2102D10022C3F8FC2110BD003801401F
:1031800058090020C37810B5E3B1144B4178DB68CF
:103190008478DB43C3F30223C3F1040291400F227E
:1031A000DA4022400A430E4B01781201CB18D2B20A
:1031B00083F8002303780122590903F01F0312FA50
:1031C00003F307E003780122590903F01F0312FA01
:1031D00003F32031024A42F8213010BD00ED00E037
:1031E00000E100E043680A6823F4702323F480734D
:1031F00013430A7910B543EA022343608A68CB6817
:1032000084681A43084B234013434A7943EA420334
:1032100083600B7CC26A013B22F47002DBB242EA9B
:103220000353C36210BD00BFFDF7F1FF836811B106
:1032300043F0010301E023F00103836070478368DA
:1032400011B143F4807301E023F48073836070470D
:10325000836843F00803836070478068C0F3C00050
:103260007047836843F00403836070478068C0F34D
:1032700080007047836811B143F4A00301E023F498
:10328000A00383607047092970B54FF003040BD980
:103290004C4307251E3CA540A340C66826EA050509
:1032A00045EA0304C4600AE04C430725A54013FA2D
:1032B00004F4066926EA050545EA04030361062AC3
:1032C0004FF005030BD8013A53431F229A4011FADD
:1032D00003F3446B24EA02021343436370BD0C2AD8
:1032E0000BD853431F22233B9A409940046B24EA96
:1032F000020242EA0103036370BD53431F22413BB4
:103300009A409940C46A24EA020242EA0103C36275
:1033100070BD012008B500F03DFA0020BDE808406E
:1033200000F038BA82B000230193044B0193019B53
:10333000C0180190019B196002B07047006C0040FA
:1033400082B000230193054B0193019BC0180190AB
:10335000019B188880B202B0704700BF006C00402B
:1033600002684FF6FE73134003600023036043605E
:103370008360C3602D4B984229D02D4B984230D0AA
:103380002C4B984237D02C4B98423ED02B4B984236
:1033900006D153F8542C42F4702243F8542C704751
:1033A000274B984206D153F8682C42F4700243F838
:1033B000682C7047234B984206D153F87C2C42F07E
:1033C000706243F87C2C70471F4B984206D153F82B
:1033D000042C42F00F0243F8042C70471B4B984218
:1033E00006D153F8182C42F0F00243F8182C70471D
:1033F000174B984206D153F82C2C42F4706243F8D4
:103400002C2C7047134B984206D153F8402C42F4B1
:10341000704243F8402C70470F4B984202BF53F85C
:10342000542C42F4702243F8542C70470800024098
:103430001C0002403000024044000240580002409C
:103440006C00024080000240080402401C0402405C
:103450003004024044040240580402408B6810B516
:103460000C6A026823430C6922F4FE4223434C6930
:1034700022F0F00223438C692343CC6923434C6A36
:1034800023438C6A234313430360CB6843600B6878
:1034900083604B68C36010BD19B1036843F001033A
:1034A00003E002684FF6FE731340036070470000AC
:1034B000C3004CBF034B044B1B6803420CBF0020EE
:1034C000012070470004024000000240837910B5DB
:1034D000002B29D01A4B01681C68CA4314401C6099
:1034E0005C6822405A60027902F1804202F5823221
:1034F00014682143116002689C68D1430C409C60B1
:10350000DC682140D9604179102906D199681143BE
:103510009960D9680A43DA6010BD01F1804303F570
:10352000823319680A4308E00379016803F1804394
:1035300003F582331A6822EA01021A6010BD00BF47
:1035400000040140054B1A685B69034004D0104237
:103550000CBF00200120704718467047000401404E
:10356000014B5861704700BF00040140CB782DE942
:10357000F04303F00F02DB0648BF8B780E8848BF8C
:103580001A4316F0FF0F1FD0046800234FF0010804
:103590004FF00F0C08FA03F707EA0605BD420FD1FA
:1035A0009F000CFA07F912FA07F724EA09043C43D2
:1035B000CF78282F08BF456102D0482F08BF05618A
:1035C0000133082BE6D104600E88FF2E21D9446810
:1035D00000234FF001084FF00F0C03F1080708FA21
:1035E00007F707EA0605BD420FD19F000CFA07F95D
:1035F00012FA07F724EA09043C43CF78282F08BFC2
:10360000456102D0482F08BF05610133082BE4D182
:103610004460BDE8F083000001F0030230B5920081
:103620000F24944010FA02F2074B8908023153F834
:10363000215025EA040443F8214053F82140224355
:1036400043F8212030BD00BF00000140014B18604D
:10365000704700BF20000E42034B5A6822F0F00270
:1036600010435860704700BF00100240034B5A6877
:1036700022F4404210435860704700BF00100240DF
:10368000064B002201281A701A7002D0042804D1B7
:1036900001E01870704705221A7070472010024030
:1036A000024B1A6A10431862704700BF00100240B4
:1036B000014B1860704700BF3C04424210B51E4BDE
:1036C0005A6802F00C02042A01D0082A02D01B4BCF
:1036D000036011E05A685968C2F383420232C90399
:1036E00058BF174B06D5DB6A144903F00F030133AB
:1036F000B1FBF3F35A4302600F4B12495A68046856
:10370000C2F303128A5C34FA02F242605C68C4F3CA
:1037100002240C5D32FA04F484605C68C4F3C224B1
:10372000095DCA40C2605B680749C3F38133CB5C63
:10373000B2FBF3F2026110BD0010024000127A00E9
:1037400000093D003904002035040020044B5A696B
:1037500009B1104301E022EA00005861704700BF40
:1037600000100240044B9A6909B1104301E022EABB
:1037700000009861704700BF00100240044BDA69F6
:1037800009B1104301E022EA0000D861704700BF90
:1037900000100240014B1860704700BF40044242D5
:1037A0004309084A012B08BF136803D0022B0CBF42
:1037B000136A536A00F01F0033FA00F000F00100B2
:1037C000704700BF00100240044B1A8892B209B142
:1037D000104301E022EA00001880704700280040F2
:1037E000034B9A8892B242F010029A80704700BF51
:1037F00000280040034A938823F010031B041B0C8D
:103800009380704700280040034B988B1B8B80B23D
:1038100040EA0340704700BF0028004010B504464E
:10382000FFF7DEFF044B220CA4B21A839C83BDE891
:103830001040FFF7DFBF00BF0028004010B504466E
:10384000FFF7CEFF044BC4F30342A4B21A819C815C
:10385000BDE81040FFF7CEBF00280040024B9A8819
:103860009206FCD5704700BF00280040054A9388A7
:1038700023F008031B041B0C938093881907FCD5C5
:10388000704700BF00280040074B9A881B8892B2FF
:10389000034006D0104010F0FF0F0CBF00200120A5
:1038A00070471846704700BF00280040034B9A88B5
:1038B00092B222EA00009880704700BF00280040C2
:1038C0002B4A30B5C2EB000CDCF10002294C038816
:1038D00042EB0C02A04208BF42F001029BB2C2B907
:1038E000A0F180456C4244EB0504234DA84208BF7B
:1038F00044F001046CB9214C05F50065C4EB000CE3
:10390000DCF1000444EB0C04A84208BF44F00104BD
:103910001CB14C8823F070032343194C194D041B30
:1039200018BF0124A8420CBF002404F0010424B1F4
:1039300023F44073CC889BB2234303808B88838518
:103940000B8803857AB9104B104AC3EB000CDCF1ED
:10395000000343EB0C03904208BF43F0010313B98B
:103960000B4B984201D10B7A03860123838230BD31
:10397000002C0140003401400004004000080040D9
:10398000001000400014004000400140004401408D
:1039900000480140038819B19BB243F0010303E0E2
:1039A00023F001031B041B0C0380704783899BB227
:1039B0000AB1194301E023EA010181817047C9433B
:1039C00089B201827047C94389B201827047000001
:1039D00030B5038ACA8823F440531B041B0C1343DD
:1039E00003820D4683890989AA8823F4B0530A43C8
:1039F000698923F00C030A431B041B0C92B2134386
:103A00008381838AAA8923F440731B041B0C87B02B
:103A100013430446838201A8FFF750FE174BA28987
:103A20009C420CBF049B039B12B2002A4FF0190169
:103A30002A6801FB03F101DA520000E092006423DE
:103A4000B1FBF2F1B1FBF3F21201100903FB10110B
:103A5000A08900B2002806DAC9003231B1FBF3F3C5
:103A600003F0070305E009013231B1FBF3F303F082
:103A70000F031A4392B2228107B030BD00380140D3
:103A8000838919B19BB243F4005303E023F400533C
:103A90001B041B0C83817047C1F3421310B501F066
:103AA0001F01012414FA01F1A34201D10C3004E0FA
:103AB000022B01D1103000E0143003680AB1194321
:103AC00001E023EA0101016010BD10B501F01F0300
:103AD0000122C1F342149A40012C08BF838903D00C
:103AE000022C0CBF038A838A9BB21340090A01226D
:103AF00012FA01F1028892B211420CBF002001209B
:103B0000002B0CBF002000F0010010BD002103E0DD
:103B10000B4B5B58435004310A480B4B42189A42F6
:103B2000F6D30A4A02E0002342F8043B084B9A42CB
:103B3000F9D300F011F8FCF767FFFEF7EFF87047D4
:103B4000904800080000002060040020600400206D
:103B5000EC0D0020FEE70000104B1A6842F0010255
:103B60001A6059680E4A0A405A601A6822F0847234
:103B700022F480321A601A6822F480221A605A688D
:103B800022F4FE025A604FF41F029A600022DA62A9
:103B9000044B4FF000629A60704700BF0010024073
:103BA0000000FFF800ED00E0144A154B516801F0E9
:103BB0000C01042901D0082902D0124A1A6011E030
:103BC00051685068C1F383410231C00358BF0E4AA7
:103BD00006D5D26A0B4802F00F020132B0FBF2F2B6
:103BE00051431960054B094A5B68C3F30313D25C68
:103BF000034B196831FA02F21A6070470010024054
:103C00005C04002000127A0000093D0049040020F5
:103C1000184B73B5044604209C420D4616460ED040
:103C200003F5806308209C4209D003F580631020CF
:103C30009C4204D0104884420CBF20200020A6F1F2
:103C40001C02534243EB0203182E08BF43F001034A
:103C50000BB140F001000121FFF784FD0323204652
:103C600001A98DF80630ADF804508DF80760FFF714
:103C70007DFC7CBD000801400014014010B50C46DD
:103C80000121914089B2C280818004601A46204699
:103C9000BDE81040FFF7BCBF37B5044601200D4614
:103CA0000146FFF75FFDE388042B01D806330AE0E5
:103CB0005A1F92B2042A01D8172304E00A3B9BB290
:103CC000052B01D82823A3602368134A934202D10D
:103CD000A179002010E0114A934202D1A17901207C
:103CE0000AE00F4A934202D1A179022004E00D4A72
:103CF000934203D1A1790320FFF78EFCA388684685
:103D0000009300238DF8043001238DF805508DF8C1
:103D10000630FFF7DBFB3EBD00080140000C014010
:103D2000001001400014014007B5836801A88DF818
:103D300004300F238DF805308DF8063001238DF8FF
:103D40000730FFF71FFA0EBD30B585B001241C23E4
:103D5000002503A88DF80C308DF80D408DF80E501D
:103D60008DF80F40FFF70EFA20462146FFF706FDBB
:103D70006422ADF80420124A4FF080401168114AC5
:103D8000ADF80250B1FBF2F2013A6946ADF80020FD
:103D9000ADF806508DF80850FFF792FD21464FF020
:103DA0008040FFF7F7FD21464FF08040FFF707FE08
:103DB0004FF0804021462246FFF7F8FD05B030BDA8
:103DC0005C040020A086010003680868181A90426D
:103DD00002D30B600120704700207047054B1A6822
:103DE00042F21073B2FBF3F359430B460139002B37
:103DF000FBD170475C04002008B54FF080400121E2
:103E0000FFF7E1FD024B1A6801321A6008BD00BFDE
:103E1000E80D002001E000F8013B11F8013B002B08
:103E2000F9D10370704711F8013B23B11AB1013A7F
:103E300000F8013BF7E700230370704711F8013BDE
:103E400010F8012B1BB19A42F8D0002070470120D6
:103E5000704710B5002414E0A3F13002D2B2092A51
:103E60000DD9A3F14102D2B2052A01D8373B05E0B2
:103E7000A3F16102D2B2052A0AD8573BDAB202EBAB
:103E8000041410F8013B002BE6D10C60012010BD9A
:103E9000002010BD2DE9F041174D8AB001AC064657
:103EA0008846944617680FCD0FC40FCD0FC42B68FA
:103EB000684623600023194611E00132D2B2361B56
:103EC000A642FAD2302A04D119B9C3F109044445F3
:103ED00002DA07F8012B01210133092B03D050F836
:103EE000044F3022ECE7303607F8016BCCF8007055
:103EF0000AB0BDE8F08100BFEC400008002810B512
:103F000005DA13682D2403F8014B40421360BDE825
:103F10001040FFF7BFBF0B6801E003F8012B10F85A
:103F2000012B002AF9D10B607047092802D83030E4
:103F3000C0B270473730C0B2704710F07F4FF8B54D
:103F40000CBF00230123062988BF43F00103044668
:103F50000D461746166853B1000FFFF7E6FF3070A5
:103F6000C4F30360FFF7E1FF01237070023614F41D
:103F70007F0F02D10BB9042D0BD9C4F30350FFF707
:103F8000D4FF3070C4F30340FFF7CFFF01237070FC
:103F9000023614F47F4F02D10BB9022D0AD9C4F3B3
:103FA0000330FFF7C2FF3070C4F30320FFF7BDFFFB
:103FB00070700236C4F30310FFF7B7FF307004F0DF
:103FC0000F00FFF7B2FF707002363E60F8BD0EB40E
:103FD00010B585B007AB53F8044B01900393002252
:103FE00055E0252B06D1002A4FD0019A02F8013B5B
:103FF000019243E0002A43D061783039C9B20929DF
:1040000001D8013400E00021632B08D1039B1A1D65
:1040100003921A68019B03F8012B01932EE0752B84
:1040200007D1039B1A1D0392186801AAFFF732FFFC
:1040300024E0692B07D1039B1A1D0392186801AA7B
:10404000FFF75CFF1AE0582B07D1039B1A1D039260
:10405000186801AAFFF771FF10E0A3F173014A424B
:1040600042EB0102532B08BF42F0010272B1039BE5
:1040700001A91A1D03921868FFF74DFF002205E001
:10408000019901F8013B019100E0012201342378FC
:10409000002BA6D1019A1370019805B0BDE810401D
:1040A00003B0704700CA9A3B00E1F505809698007E
:1040B00040420F00A086010010270000E803000026
:1040C000640000000A00000000CA9A3B00E1F50508
:1040D0008096980040420F00A08601001027000043
:1040E000E8030000640000000A00000000CA9A3BD8
:1040F00000E1F5058096980040420F00A08601007F
:1041000010270000E8030000640000000A0000001F
:104110000020202020202020202028282828282097
:10412000202020202020202020202020202020208F
:1041300020881010101010101010101010101010F7
:1041400010040404040404040404041010101010E7
:1041500010104141414141410101010101010101B1
:104160000101010101010101010101011010101003
:104170001010424242424242020202020202020283
:1041800002020202020202020202020210101010D7
:1041900020000000000000000000000000000000FF
:1041A000000000000000000000000000000000000F
:1041B00000000000000000000000000000000000FF
:1041C00000000000000000000000000000000000EF
:1041D00000000000000000000000000000000000DF
:1041E00000000000000000000000000000000000CF
:1041F00000000000000000000000000000000000BF
:1042000000000000000000000000000000000000AE
:104210000000000025752D25752D25752025753A82
:1042200025753A25750D0057726F6E6720646174AD
:10423000650D004E6F7468696E6720697320736541
:10424000740D00333237363820636C6B2066616939
:104250006C7572650D00333237363820636C6B2015
:10426000737461727465640D00536F6D6574686971
:104270006E672069732073746F7265640D00255337
:10428000255834255834255838255838004D696E3E
:10429000796100486F73744B65793A2025530D009E
:1042A0000D5661756C74204B6565706572310D48F3
:1042B0006F737449443A2025750D00526563656932
:1042C00076696E672054696D652E2E2E0D0076611D
:1042D000756C746B65657065722E7275002F7265F2
:1042E00071756573742E7068703F74696D65004EEA
:1042F00065772074696D653A20004E6565642074A9
:104300006F206765742074696D650D0054696D6573
:1043100020746F2073656E64207265706F72740D07
:10432000005265706F7274206E65772070726F62D4
:104330006C656D0D003D3D3D3D2053656E64696EBD
:1043400067207265706F7274203D3D3D3D200025F1
:10435000752E25752C00622E2575004572726F72C0
:10436000733A2025530D00686F73745F69643D25AF
:10437000752677617465725F76616C75653D25752C
:104380002674696D653D2575342575322575322590
:1043900075322575322575322673656E736F7273AB
:1043A0003D255326686F73745F6B65793D25530017
:1043B000446174613A2025530D00486173683A20C6
:1043C00025530D00686F73745F69643D257526770A
:1043D000617465725F76616C75653D2575267469DB
:1043E0006D653D2575342575322575322575322567
:1043F00075322575322673656E736F72733D255362
:1044000026686F73745F686173683D255300546F4D
:104410002073656E643A2025530D002F7265706F0E
:1044200072742E706870003D3D3D3D205265706F86
:1044300072742073656E74203D3D3D3D0D00536EDA
:104440007325753A204E657750726F622025750D81
:1044500000536E7325753A204E6F2050726F620DB7
:10446000004E65772070726F626C656D0D00573A73
:104470002025750D00000000040000000008014028
:1044800040000000000C0140400006000500000054
:104490000008014080000000000C0140800007007F
:1044A000060000000010014001000000000C014067
:1044B00000010A0007000000001001400200000097
:1044C000000C014000020B00080000000010014039
:1044D00004000000000C014000040C000900000072
:1044E0000010014008000000000C014000080D0011
:1044F0000C000000000C0140010000000000000062
:1045000000000800255838255838255838255838CF
:10451000255838004552524F5200504F53543A20BC
:10452000255325533B2025530D0041542B4349501F
:1045300053454E4400504F53542025532048545463
:10454000502F312E310D0A00486F73743A202553D5
:104550000D0A00436F6E6E656374696F6E3A204B8F
:104560006565702D416C6976650D0A00436F6E7448
:10457000656E742D547970653A206170706C696352
:104580006174696F6E2F782D7777772D666F726DF6
:104590002D75726C656E636F6465640D0A00436F00
:1045A0006E74656E742D4C656E6774683A2025755F
:1045B0000D0A0D0A00255325630053454E44204F34
:1045C0004B004745543A20255325530D0047455489
:1045D00020255320485454502F312E310D0A0048C5
:1045E0006F73743A2025530D0A0D0A256300436F3B
:1045F0006E74656E742D4C656E67746800547261DC
:104600006E736665722D456E636F64696E673A20DE
:104610006368756E6B656400434C4F534544000DF1
:104620004F6B3A2025530D000D4572726F720D00CD
:1046300053656E6420534D533A2025533B20255338
:104640000D0041542B434D47533D222553220D0A63
:1046500000534D532073656E740D00534D53206607
:1046600061696C65640D00436F6E6E656374696E9D
:1046700067202553200041542B4349505354415245
:10468000543D22544350222C222553222C223830D0
:104690002200434F4E4E45435400230D4F6B0D00F7
:1046A00041542B43504F57443D31004D646D206FB2
:1046B00066660D00446973636F6E6E656374696E40
:1046C000670D0041542B434950434C4F5345004123
:1046D000542B53415042523D302C310041542B4316
:1046E000474154543D300047505253206F66660D89
:1046F00000436F6E6E656374696E67204750525356
:104700002E2E2E0D0041542B43474154543D310071
:1047100041542B43474154543F002B434741545489
:104720003A20310041542B53415042523D332C31F9
:104730002C22436F6E74797065222C22475052539D
:10474000220041542B53415042523D332C312C22F4
:1047500041504E222C22696E7465726E65742E6D06
:1047600074732E7275220041542B53415042523DB6
:10477000312C31004750525320636F6E6E65637465
:1047800065640D0053696D20696E697420004154A1
:104790002B4350494E3F002B4350494E3A2052453F
:1047A000414459000D53696D204F6B0D000D536945
:1047B0006D206572726F720D0044697361626C6581
:1047C00043656C6C427263200041542B4353434257
:1047D0003D31004E6574207265676973747261744F
:1047E000696F6E200041542B435245473F002B43D5
:1047F0005245473A000D4E657420636F6E6E6563D7
:104800007465640D000D44656E6965640D000D549A
:10481000696D656F75740D005374617274696E67AC
:10482000204D646D2E2E2E0D00312E00415400328D
:104830002E00332E0041542B434D47463D3100346A
:104840002E00352E00362E0041542B434D47443D5B
:10485000312C34004154442331303023000D4D6459
:104860006D2072656164790D000000004300000056
:10487000F8B500BFF8BC08BC9E467047F8B500BF4D
:08488000F8BC08BC9E4670471D
:04488800F50100082E
:04488C00D10100084E
:10489000080000200000000000000000F4020020DA
:1048A0005C030020C40300200000000000000000A2
:1048B00000000000000000000000000000000000F8
:1048C0000000000000000000000000006C4800082C
:1048D00000000000000000000000000000000000D8
:1048E00000000000000000000000000000000000C8
:1048F00000000000000000000000000000000000B8
:1049000000000000000000000000000000000000A7
:104910000000000000000000000000000000000097
:104920000000000000000000000000000000000087
:104930000000000000000000000000000000000077
:1049400001000000000000000E33CDAB34126DE614
:10495000ECDE05000B00000000000000000000007D
:104960000000000000000000000000000000000047
:104970000000000000000000000000000000000037
:104980000000000000000000000000000000000027
:104990000000000000000000000000000000000017
:104CC000104100081B020406080000000001020356
:104CD00004010203040607080900000000000000A8
:104CE00000010203040607080900000000127A0010
:0400000508003B0DA7
:00000001FF
