:1000000019C013C327C026C025C024C023C022C0E6
:1000100021C020C01FC08AC11DC01CC01BC01AC087
:1000200019C018C017C016C015C014C013C012C024
:1000300011C010C011241FBECFEFD4E0DEBFCDBF72
:1000400011E0A0E0B1E001C01D92AB32B107E1F7D1
:10005000F6D035C3D5CF809302016093030140935E
:10006000040108950895089508950895459A0895FE
:10007000459808958DE310D280911201803741F0A8
:100080008137B8F5882339F0803699F58AE301C0C5
:100090008BE302D208951092020182E38093030160
:1000A00010920401E0911501F09116011082E09187
:1000B0001501F09116011182E0911501F0911601E0
:1000C00080EC8283809102018383E0911501F0919D
:1000D0001601809103018483E0911501F0911601CE
:1000E00080910401858380E291E067E078D185E327
:1000F000D3D1089580E091E068E470E0F6D08823E1
:1001000089F18091050190910201891751F09817AA
:1001100010F4815001C08F5F80930501809105012B
:1001200087BD8091060190910301891751F09817BE
:1001300010F4815001C08F5F809306018091060109
:1001400088BD8091070190910401891759F0981793
:1001500010F4815001C08F5F8093070180910701E7
:100160008093B40008958EE091E063E670E0BDD026
:10017000882361F180910B01882331F4319B08C001
:1001800081E080930B0104C0319902C010920B01F1
:1001900080910C01882331F4329B08C081E0809368
:1001A0000C0104C0329902C010920C0180910D0123
:1001B000882339F4309B0AC081E080930D01459A71
:1001C0000895309903C010920D01459808952FE0CD
:1001D00088E190E00FB6F894A895809360000FBE78
:1001E0002093600080E880BF6FD08AB188668AB9AA
:1001F000279A2F9A83EA84BD91E095BD83E280938C
:10020000B0009093B100109202011092030110927D
:10021000040180E091E07FD087B1887F87B93D9A63
:1002200088B1887F88B9459810920C0110920B0113
:1002300010920D018EE091E06ED0BFD108952FE0B5
:1002400088E190E00FB6F894A895809360000FBE07
:100250002093600080E880BF37D08AB188668AB971
:10026000279A2F9A83EA84BD91E095BD83E280931B
:10027000B0009093B100109202011092030110920D
:10028000040180E091E047D087B1887F87B93D9A2B
:1002900088B1887F88B9459810920C0110920B01A3
:1002A00010920D018EE091E036D087D12F9882E335
:1002B0008093020180930301809304017894A895B0
:1002C000D9DE51DF17DFFBCF109280008AE08093E8
:1002D00081008DE790E09093890080938800EFE69D
:1002E000F0E08081826080830895FC018FB7F894EC
:1002F00020911001309111018FBF80819181A9015E
:10030000481B590B4617570710F480E008953183B6
:10031000208381E00895FC012FB7F89480911001AB
:1003200090911101918380832FBF08951F920F92A6
:100330000FB60F9211248F939F938091100190918B
:100340001101019690931101809310019F918F915B
:100350000F900FBE0F901F9018955FB7F8945F989D
:100360004899FECF80648093C6008091C00087FFCB
:10037000FCCF8091C600FB010AC080818093C6003B
:100380008091C00087FFFCCF31968091C6008E2FF0
:10039000861B841790F35F9A5FBF08952FB7F89478
:1003A0005F984899FECF80648093C6008091C0001A
:1003B00087FFFCCF8091C600FB010AC08491809327
:1003C000C6008091C00087FFFCCF31968091C600A7
:1003D0008E2F861B841790F35F9A2FBF08959C0180
:1003E000462F8FE3B901B9DF0895482F292F5F9871
:1003F0004899FECF8FEF8093C6008091C00087FFA1
:10040000FCCF8091C600842F922F9C01F90109C076
:100410001092C6008091C00087FFFCCF8091C6007B
:1004200081938E2F841B861798F35F9A08959FB748
:10043000F8945F984899FECF80688093C6008091B9
:10044000C00087FFFCCF8091C6001092C60080914B
:10045000C00087FFFCCF8091C6005F9A9FBF0895C0
:100460009FB7F8945F984899FECF8093C60080911B
:10047000C00087FFFCCF8091C6006093C6008091CA
:10048000C00087FFFCCF8091C6005F9A9FBF089590
:10049000682F89E0E5DF08959FB7F8945F98489941
:1004A000FECF8093C6008091C00087FFFCCF809173
:1004B000C6005F9A8077809312019FBF08951F93B3
:1004C000182F02C086E3E8DF809112018823D1F75C
:1004D0008AE0612FC5DF1F9108958BE066E0C0DFE1
:1004E0008CE060E0BDDF8DE06DE5BADF8EE063E9B2
:1004F000B7DF8FE061EBB4DF80E168E7B1DF81E176
:1005000063E9AEDF82E163E0ABDF83E162EAA8DFAB
:1005100084E168EFA5DF8AE060E0A2DF85E164E4C2
:100520009FDF81E266E59CDF82E260E199DF88E19E
:1005300068E196DF89E166E193DF8AE16CE690DFAE
:100540008BE163E48DDF8CE160E48ADF8DE161E9BA
:1005500087DF83E269EA84DF84E26AE081DF85E2A3
:1005600060E07EDF86E261E17BDF89E269E578DFDA
:100570008CE268E875DF8DE261E372DF8EE26BE0AA
:100580006FDF83E067E06CDF80E06EE069DF82E0D0
:1005900067E066DF87E06EE063DF88E064E460DFE9
:1005A00086E067E05DDF8EE36EEF5ADF86E167E0AD
:1005B00057DF87E160E054DF0895E898E9E6F0E06E
:1005C000808183608083E09A8AB18A7F8AB98AB108
:1005D00082698AB95A9A5C985F9A80EC8093C200CB
:1005E00088E18093C10081E090E09093C500809302
:1005F000C40087E191E09093140180931301099660
:1006000090931601809315011092290180E344DF35
:100610008AE342DF62DF08958093C6008091C000C4
:1006200087FFFCCF8091C60008951F920F920FB6EE
:100630000F9211242F933F934F935F936F937F9368
:100640008F939F93AF93BF93EF93FF938BE7EFDE6F
:10065000982F882319F15F984899FECF8FEF8093E8
:10066000C6008091C00087FFFCCF8091C600E7E103
:10067000F1E0292F30E02E0F3F1F09C01092C60075
:100680008091C00087FFFCCF8091C6008193E21764
:10069000F307A1F75F9A81E080932901FF91EF9121
:1006A000BF91AF919F918F917F916F915F914F918A
:1006B0003F912F910F900FBE0F901F901895F894B7
:0206C000FFCF6A
:00000001FF
