:10000000ABC0C5C0C4C0C3C0C2C0C1C0C0C0BFC0F7
:10001000BEC0BDC0BCC0FCC0BAC0B9C0B8C0B7C0CB
:10002000B6C0B5C0B4C0B3C0B2C0B1C0B0C0AFC03C
:10003000AEC0ADC0FFFF87FFFF36FFFF12FFFF001E
:10004000878700FF8712FF8700FF87368736008784
:100050003612871200870000FF8787FF3636FF12AF
:1000600036FF1212FF3612FF3600FF1200FF0000AB
:10007000873636871212FF3687FF0036870012FF59
:100080001287871236870036FF87FFFF36FFFF1281
:10009000FFFF00FFFF00878736878712878700876B
:1000A0008712FF8700FF3600878736FF36128736B4
:1000B00012FF3600FF1200FF1200878787FF3636D7
:1000C000FF3636871212FF1212871236FF3687FF6D
:1000D0000036FF0012870000870000FF0012FF12A9
:1000E000368700368736878712878787FFFF36FF78
:1000F000FF12FFFF00FFFF1287FF0087FF008787C7
:1001000087FF8736FF8712FF8700FF8712FF36368B
:10011000FF3636FF1212FF1200FF3600FF1200FFFB
:100120000012FF0036FF0036873612871200870064
:1001300000871200873612873687FF3687FF1287BF
:10014000FF0036870036871212870087871287875D
:1001500036878787FFFFFF0011241FBECFEFD4E053
:10016000DEBFCDBF11E0A0E0B1E0E4EAF9E002C0FB
:1001700005900D92AE31B107D9F711E0AEE1B1E0D3
:1001800001C01D92A937B107E1F766D109C438CF84
:1001900093E0899FF0011124E60FF11DEC5CFF4F05
:1001A000E4918E2F0895109280008AE08093810060
:1001B0008DE790E09093890080938800EFE6F0E06F
:1001C0008081826080830895FB016FB7F8948091ED
:1001D0001F019091200120813181821B930B841794
:1001E000950710F480E007C080911F0190912001D5
:1001F0009183808381E06FBF0895FB012FB7F8944E
:1002000080911F0190912001918380832FBF0895D9
:100210001F920F920FB60F9211248F939F9380918C
:100220001F019091200101969093200180931F015E
:100230009F918F910F900FBE0F901F901895FC010A
:1002400062834387248B0895DC0111968C9111976A
:100250009C91891769F1981788F4815011968C93B5
:1002600011978823F1F41396ED91FC9114978081F6
:1002700018969C9118978923808313C0882351F482
:100280001396ED91FC911497808117969C91179786
:10029000892B808311968C9111978F5F11968C9387
:1002A00011971596ED91FC91169711968C9180837C
:1002B0000895CF93DF93EC018EE191E0BE014BE016
:1002C00050E082DF882349F0CE010296BDDFCE01E7
:1002D0000B96BADFCE014496B7DFDF91CF91089538
:1002E0000F931F938C01FC01858D60E051DFF801B5
:1002F0008283858D61E04CDFF8018387858D62E024
:1003000047DFF801848B858D90E07ED28AE344D26A
:10031000F80182815CD280E23FD2F801838557D216
:1003200080E23AD2F801848952D26BD21F910F91A8
:100330000895CF92DF92EF92FF920F931F938C015B
:100340008AB188668AB98BB187798BB934E4C32EB8
:10035000D12C93E094BD82E085BD20EBE22EF12C00
:10036000F70190838093B1008EE191E0B80145DF01
:10037000F801D682C582D786C686F08EE78A87E4E2
:1003800090E09087878388E490E0918B808B84EB6A
:1003900090E0928F818F80E8818780E2828B838FCB
:1003A0008FE382878FEC838B848F158EC80198DF53
:1003B0001F910F91FF90EF90DF90CF90089580E014
:1003C00091E085D28BB190E289278BB9089585E0C1
:1003D00091E07DD28BB190E489278BB908958CE0B0
:1003E00091E075D280913E01803631F08F5F80932D
:1003F0003E0181E291E074DF089580E191E067D2EF
:1004000080913E01882331F0815080933E0181E24A
:1004100091E066DF08952FE088E190E00FB6F89450
:10042000A895809360000FBE2093600080E880BF95
:1004300093E00FB6F89480936100909361000FBE33
:100440008EE191E0B0DEA5D18FE391E053D081E25F
:1004500091E06FDF78940895DEDF86E191E037D296
:10046000A8958FE391E0FCD081E291E022DFF8CF04
:10047000EF92FF920F931F937C01F89486ED96E024
:100480000197F1F7D70119961C921E9218971C96A6
:10049000ED91FC911D9709958C01F701918780875B
:1004A0000484F585E02D0995080F191FD7011996C9
:1004B0001C930E9318971C96ED91FC911D9709952E
:1004C000080F191FF701118700870484F585E02DB7
:1004D0000995080F191F1695079516950795D701C9
:1004E00019961C930E93189778941F910F91FF9073
:1004F000EF9008950F931F93CF93DF93EC018DEF4F
:1005000091E09B878A8721E029838CEB92E09D878D
:100510008C878FEE91E0998F888F2F8789ED92E0FD
:100520009B8F8A8F87EE91E09FA38EA386EF92E048
:1005300099A788A78FED91E09DAB8CAB83E193E009
:100540009FAB8EAB00E010E09801220F331FC90172
:1005500043E0880F991F4A95E1F7821B930B8C0F9C
:100560009D1F86DF0F5F1F4F0430110569F7DF9174
:10057000CF911F910F910895F89488B18C7F88B91D
:1005800087B1836087B987B18C7F87B920E030E07D
:10059000419A399A39984198389A3898319906C0D1
:1005A0002F5F3F4F80E12030380791F77894C901E1
:1005B0000895F89488B1837F88B987B18C6087B932
:1005C00087B1837F87B920E030E0439A3B9A3B981C
:1005D00043983A9A3A98339906C02F5F3F4F80E18B
:1005E0002030380791F77894C9010895F89485B1BF
:1005F0008C7F85B984B1836084B984B18C7F84B9E0
:1006000020E030E0299A219A21982998209A209870
:10061000199906C02F5F3F4F80E12030380791F7CE
:100620007894C9010895F89485B18F7385B984B120
:10063000806C84B984B18F7384B920E030E02F9A44
:10064000279A27982F98269A26981F9906C02F5FD9
:100650003F4F80E12030380791F77894C901089521
:10066000BF92CF92DF92EF92FF920F931F93CF939F
:10067000DF937C01BC01685C7F4F8EE191E048EC28
:1006800050E0A2DD882309F47AC0E70100E010E021
:10069000BB24B39487EEC82E83E0D82EEC85FD856D
:1006A0000995AC019F838E8328853985B901655EE4
:1006B0007F4F6817790728F0C9014B9748175907EA
:1006C00018F58881882309F052C0B882898188236F
:1006D000A9F0F894DD82CC82B801B3E0660F771FF1
:1006E000BA95E1F7601B710B6F5F7F4F660F771F45
:1006F0006E0D7F1D8EE191E080DD7894EA85FB85AB
:10070000309749F0099507C02B51304042175307E5
:1007100010F031C018828981882309F188818823EB
:10072000F1F0B801F3E0660F771FFA95E1F7601B6F
:10073000710B6F5F7F4F660F771F6E0D7F1D4C81B2
:100740005D818EE191E040DD882349F0F894DD82FF
:10075000CC827894EA85FB85309709F009950F5F84
:100760001F4F2E960430110509F098CF08C064176A
:10077000750788F2C9CF8881882369F2CBCFDF91D2
:10078000CF911F910F91FF90EF90DF90CF90BF908E
:1007900008952A9A229A08953FB7F8942A9891E0EA
:1007A0009A95F1F720E041E080FF02C02A9A01C04B
:1007B0002A98942F9A95F1F72F5F283011F086959B
:1007C000F3CF2A9A81E08A95F1F73FBF08951F93EE
:1007D000182F82958F708A3010F4805D01C0895C7B
:1007E000DBDF812F8F708A3010F4805D01C0895C5F
:1007F000D3DF1F9108958A3010F4805D0895895CDD
:1008000008958DE0C9DF0895EF92FF920F931F9333
:100810009C0160E177E2B0D0182F092FC90160E197
:1008200077E2AAD0605D603311F420E003C0862F28
:10083000B3DF21E0812F902F68EE73E09DD0F82E7A
:10084000E92E812F902F68EE73E096D0605D6033C3
:1008500011F4222319F0862F9FDF21E08F2D9E2D8A
:1008600064E670E089D0182F092F8F2D9E2D64E645
:1008700070E082D0605D603311F4222311F0862F86
:100880008BDF812F902F6AE070E076D0862F805D1D
:1008900083DF812F902F6AE070E06ED0805D7CDF77
:1008A0001F910F91FF90EF900895CF93DF93EC018C
:1008B00097FF06C08DE270DFD095C195DF4F02C073
:1008C00080E26ADFCE01A0DFDF91CF910895CF9360
:1008D000DF93EC0102C021965FDF88818823D9F77E
:1008E000DF91CF9108950F931F93CF93DF93182F2C
:1008F000062F282F392FE90102C089914DDF9E0173
:10090000211B2017D0F3DF91CF911F910F910895F4
:100910001F93CF93DF93EC011FB7F89401C03CDF26
:10092000FE01219684918823D1F71FBFDF91CF91DB
:100930001F9108951F93CF93DF93EC01162F03C0EF
:1009400089912ADF11501123D9F7DF91CF911F919F
:1009500008951F93CF93DF93EC01162F06C0899162
:1009600090E052DF80E218DF11501123C1F749DF18
:10097000DF91CF911F910895AA1BBB1B51E107C0C6
:10098000AA1FBB1FA617B70710F0A61BB70B881F1F
:10099000991F5A95A9F780959095BC01CD010895AE
:0409A000F894FFCFF9
:1009A4004C69740D004F6E4F66660D0055700D0056
:0E09B400446F776E0D0043616E646C650D003C
:00000001FF
