:020000040800F2
:100000000004002071160008611D0008511D000841
:10001000411D0008311D0008211D0008711D000848
:10002000711D0008711D0008711D000821150008D0
:10003000711D0008711D0008711D0008F1150008F0
:10004000811D0008811D0008811D0008811D000818
:10005000811D0008811D0008811D0008811D000808
:10006000811D0008811D0008713400087118000806
:10007000A1180008E11800082119000861190008FA
:1000800091190008D1190008811D0008811D000880
:10009000811D0008811D0008811D0008811D0008C8
:1000A000811D0008811D0008811D0008811D0008B8
:1000B000811D0008811D0008811D0008811D0008A8
:1000C000811D0008811D0008811D0008811D000898
:1000D000811D0008811D000811250008811D0008F0
:1000E000811D0008811D0008811D0008811D000878
:1000F000811D0008811D0008811D0008111A0008DB
:10010000811D000831180008811D0008811D0008AC
:10011000811D0008811D0008811D0008811D000847
:10012000511A0008811A0008C11A0008011B0008B2
:10013000411B0008811D0008811D0008811D000869
:10014000811D0008811D0008811D0008811D000817
:10015000711B0008B11B0008F11B0008811D00087D
:10016000811D0008811D0008811D0008811D0008F7
:10017000811D0008811D0008811D0008811D0008E7
:04018000811D0008D5
:1001900037B5102140F6E442334801F0F9FE082358
:1001A00000930621C02203232F4801F0D9FE00222C
:1001B0002D480921134601F09BFE2B4801F0B0FEAB
:1001C000054620B92948026822F001010160264C49
:1001D000204601F00DFE01F0A3FA00F0F9FF2448DB
:1001E0004FF4E13102F084F8A36822490093E068FB
:1001F000019094E80C001E4801F06AFF1E4800219F
:1002000003F0D6F900F04CFA18490A6BA1F5305307
:1002100042F008040C63186820F0405119601A6815
:1002200042F080541C60586820F4804159605A683C
:100230005A60DC6824F04050D860D968D9609A6868
:1002400022F040549C60986840F00051996000F0A2
:10025000B7F81DB10648094901F03AFF40F2E7300E
:1002600001F0A6F8FAE700BFA40B00200038024016
:10027000680E0020103B0008702F00203B3B000858
:10028000024B4FF480425A83704700BF000C02407B
:1002900037B50D46144600930023019302492A46C0
:1002A000234601F015FF3EBD003B000800000000A2
:1002B0002D4B2E4A986970B52D4982612D48012237
:1002C00000F00EFC2C482D49022200F009FC03200E
:1002D00000F086FCC207044628D52949886B28B35C
:1002E000D1F8A817274A0B4601F1100553F8046B03
:1002F000AB4242F8046BF9D11D88234E15809B78E0
:100300001F4D1331B142937084BF05F13C02C5F813
:10031000A8271C4A98BFC5F8A81753780138A863C6
:10032000A4211A480233FFF7B3FFD6E7A307CED5BF
:10033000174E31680029CAD0D6F8CC2006F1CA0081
:1003400032F8024B134D824288BF321D104BC6F863
:10035000CC204E1E1E602C800C48A1210D4A022389
:10036000FFF796FFE4E700BF64880020093B000820
:1003700014080020742F0020782F0020200900206E
:10038000702F00200008002005370020680E002094
:10039000C47E0020780A0020000000000000000059
:1003A00007B502AA02F8010D902102480123FFF7C8
:1003B0006FFF0EBD680E002000000000000000006E
:1003C00007B5002300934FF498714022024B034875
:1003D00000F0BEFF0EBD00BFB102000848090020BA
:1003E00038B504460D46202383F3118800F078FACF
:1003F000E36813B1204601F063F800F089FA0023A6
:1004000083F311880D484FF480420283202383F345
:10041000118800F065FA4FF47A714D43A5F57A75AD
:10042000B5FBF1F3591C20460023054A01F020F8E2
:1004300000F06EFA002383F3118838BD000C0240EF
:100440008102000800000000000000000000000021
:10045000302837B513460C4642D013D8102821D087
:1004600004D8012840F0D9800020D7E0112829D0F5
:10047000122840F0D2806B486B4A01786B481170AB
:10048000A221C6E0402872D005D831283BD03228BE
:1004900040F0C3804DE0F02800F08A80F12840F061
:1004A000BC80A9E00978604C0829217004D85D4817
:1004B00003F076F8002300E0012363705B48A0217D
:1004C000594A52E00978A1F10A02632A8DF807100F
:1004D00000F2A680621C013B524803F021FA9FE023
:1004E000097807298DF8071006D8514B03EB410016
:1004F00000F086F94C4A50709DF807004A4AC02126
:1005000010704A4831E0097807298DF8071009D89A
:100510004748013A00EB4100D2B2611C00F090F96B
:10052000414B58709DF807103F4A40481170C12157
:100530001BE0097864788DF80710FA2C28BFFA249C
:10054000072908D8384D3A48224600EB4100A91C3B
:1005500000F036F96870344A9DF80730334813705C
:100560005378C2210BB9A31C54E0022352E008784F
:100570002D4A00231070537049788DF8071021B967
:100580002C4A4FF48040508398E7012904D1294B2D
:100590004FF48041198391E7022906D1A2786421A2
:1005A00025485143FFF71CFF88E70720507085E777
:1005B0000C7800218DF807109DF80700A0422FD27B
:1005C0001A48F1210DF107020123FFF761FE1748D8
:1005D000F1210DF107020123FFF75AFEF12101235A
:1005E00012480DF10702FFF753FE152000F0E0FE60
:1005F0009DF80730591CDDE7104A114B10680A4975
:10060000984201D1002200E001220A700748064A00
:10061000F2210123FFF73CFE02E00720FFF7C0FEB6
:100620003EBD00BF702F002024080020680E00206F
:100630007A0A0020000C024030090020A40B0020A0
:10064000001BB700000000000000000000000000D8
:1006500010B50D4C4FF480536383012000F0A8FEC9
:100660000A48026B42F002010163236843F04070C4
:100670002060E268064822F04071E160E368E360D0
:10068000BDE8104002F01CB80004024000380240EF
:100690008C0A0020000000000000000000000000A4
:1006A0001FB5FFF7D5FF214B214C1A6B42F002001A
:1006B0001863216821F040732360226842F0807043
:1006C0002060616821F48053636062686260E06862
:1006D00020F04071E160E368E360A26822F04070BE
:1006E000A060A1684FF4805241F00073A360012024
:1006F000228300F05DFE0F480F4B0B220290303832
:100700008DE80C0003900A230C480D49224602F0A4
:10071000B7F800230B4A002002EB430102F8133024
:100720000133082B4870F5D11FBD00BF00380240CF
:1007300000040240843F0008400D03008C0A0020A2
:10074000005800407A0A002000000000000000006D
:1007500008B5FFF77DFF174B1A6BA3F5505142F018
:10076000020018630B6823F040720A60086840F0CA
:1007700080730B604A6822F4805048604B684B607D
:10078000CA6822F04070C860CB68CB608A6822F0EB
:10079000407088608B684FF4805043F000728A602C
:1007A0000883012000F004FE0348BDE8084001F082
:1007B000E7BF00BF003802408C0A002000000000A4
:1007C0007FB505462E7804AB00200C4C03F8010DD4
:1007D00050368DE806002046F1B21A46012302F099
:1007E00007F9227DD0F1010138BF0021064669706A
:1007F0000AB1FFF7ADFF304604B070BD8C0A00208F
:1008000073B501780B4C0022503105461346009217
:1008100001922046C9B202F0DBF9D0F1010306468D
:10082000207D38BF00236B7008B1FFF791FF304681
:100830007CBD00BF8C0A002000000000000000000A
:100840002DE9FF41002380460F4614468DF80F30F6
:10085000ECB198F80010082C34BF2546082550311B
:10086000009701951248C9B20DF10F02012302F061
:10087000AFF9064660B9052000F09AFD9DF80F60BB
:10088000641B7F19AD19E4B28DF80F50E0E72646DE
:10089000074AD6F10100137D38BF002088F8010017
:1008A0000BB1FFF755FF304604B0BDE8F08100BF43
:1008B0008C0A002000000000000000000000000082
:1008C000044B186810B904490A6812B1034801F0D2
:1008D000E7BE70475C880020608800205A3B000813
:1008E000064B10B51868064C08B9216811B10548C7
:1008F00001F0D6FE0122226010BD00BF5C880020FE
:10090000608800205F3B000800000000000000003D
:10091000064B10B51868064C10B92168002902DC96
:10092000044801F0BDFE0022226010BD5C8800205A
:1009300060880020643B0008000000000000000008
:10094000064B10B51868064C002801DD216811B16E
:10095000044801F0A5FE0122226010BD5C88002041
:1009600060880020693B00080000000000000000D3
:10097000074B10B51868074C002802DD21680029D4
:1009800002DC054801F08CFE0022226010BD00BF91
:100990005C880020608800206E3B0008000000009A
:1009A00010B5202383F31188084C2368002B02DB49
:1009B0000748016811B1074801F072FE2268531C14
:1009C0002360002383F3118810BD00BF5C880020E2
:1009D00060880020733B0008000000000000000059
:1009E00010B5202383F31188084C2368002B02DD07
:1009F0000748016811B1074801F052FE2268531EF2
:100A00002360002383F3118810BD00BF5C880020A1
:100A100060880020783B0008000000000000000013
:100A2000054B1868002803DB04490A68002A02DC29
:100A3000034801F035BE70475C88002060880020C4
:100A40007D3B0008000000000000000000000000E6
:100A5000054B186818B905490A68002A02DC0448E1
:100A600001F01EBE704700BF5C8800206088002037
:100A7000833B0008000000000000000000000000B0
:100A8000034A4021134643F8081B5360704700BFD8
:100A90005084002000000000000000000000000062
:100AA0000A4B0B495A68C96811600A498969516043
:100AB000816A916090F8200003F581611073103213
:100AC0008A4228BF03F108025A6070475084002010
:100AD0004089002064880020000000000000000021
:100AE00070B50C461646054600B111B90B4801F029
:100AF000D7FD202383F31188FFF7F2FE08482B6807
:100B0000816923602C6000256160A660E560FFF7C5
:100B1000FFFE2B4683F3118870BD00BF903B000899
:100B200064880020000000000000000000000000B9
:100B300038B504460D46FFF773FF14B90D4801F0B0
:100B4000AFFDE36B94F8200045EA03010828E16358
:100B500003D1A36A194206D138BD092808D1A26A77
:100B60001140914204D1204600F052F900218162E7
:100B700038BD00BFBA3B00080000000000000000C4
:100B800070B505460E46FFF74BFF15B9074801F053
:100B900087FD2C68AC4208D0E36860683343E360AB
:100BA000A168FFF7C5FF2468F4E770BDDB3B0008D0
:100BB00038B505460C46202383F31188FFF790FED5
:100BC00028462146FFF7DCFF00F042FAFFF7A0FEBF
:100BD000002383F3118838BD0000000000000000EE
:100BE0000E4B70B59C690546202383F31188FFF7EF
:100BF00077FEE66B2E4005D1A562082000F050F983
:100C0000E66B2E40E06B20EA0600E063FFF780FE13
:100C1000002383F31188304670BD00BF6488002034
:100C20000448054B002103608160C160103000F072
:100C30004FB800BFB00A0020A10C0008000000005F
:100C4000054A064B22F0070005491860054821F0C7
:100C500007020260704700BFA3890020D40A002069
:100C600000C00120D00A00200000000000000000A9
:100C700010B50446FFF7D4FE074B08491868096809
:100C8000E21D22F00702091A914202D382181A606B
:100C900010BD002010BD00BFD40A0020D00A0020E3
:100CA00010B52023044683F31188FFF719FE204670
:100CB000FFF7DEFF0446FFF72BFE002383F31188C6
:100CC000204610BD000000000000000000000000F1
:100CD00010B5044610B9044801F0E2FC002364603A
:100CE0002460A36010BD00BF203C0008000000008D
:100CF00051B1074B9B699862426818605A60436023
:100D00000D20136000F0F4B84FF0FF30704700BFC3
:100D100064880020000000000000000000000000C7
:100D200010B5C361029B00248A1840600060846093
:100D300041618161C1600261036210BD0000000079
:100D400038B504460D46FFF76BFE6369A269A068DB
:100D5000934200D1A8B9411CA16003F8015B22694C
:100D60006361934228BFE368206828BF6361A042A3
:100D70000AD0036823605C6000F04AF800218162B9
:100D800002E06FF0030038BD002038BD0000000015
:100D9000F8B504460F46202383F31188FFF7A0FD22
:100DA000E3690BB120469847A5684DB920463946FE
:100DB000FFF79EFF061EF7DAFFF7AAFD2B460DE0B0
:100DC000A069013DA56010F8016B2269A061904205
:100DD00024BFE068A061FFF79BFD002383F3118827
:100DE0003046F8BD000000000000000000000000D8
:100DF000034B00225B601B609A605B611B61704764
:100E000064880020000000000000000000000000D6
:100E100010B50446FFF704FE94F820300BB10E2BFA
:100E200002D1094801F03CFC0020A168074B84F87E
:100E300020001B689A688A42FBD258682360606071
:100E400004605C60204610BDE03C0008648800201F
:100E500038B50446202383F31188FFF771FD94F819
:100E60002050032D06D00D2D08D065B9FFF780FD69
:100E70002B4611E0A36A9A68501C986094E80C0015
:100E80001A6021684B604FF0FF33A3622046FFF7E2
:100E9000BFFFFFF76DFD002383F3118838BD00000D
:100EA00070B5114C0646FFF7D3FD2068A5690268AE
:100EB0001423012185F8206085F82230546080F8E1
:100EC0002010A06128462260FFF7EAFDEB69ADF132
:100ED0002400834202D9054801F0E2FBA0692946BB
:100EE000BDE8704000F09CBB64880020F23C000824
:100EF00030B50D4687B00446FFF7AAFD6B1C0FD036
:100F00000B4B01A829460B4A9B6900F0B1FA204619
:100F1000FFF7C6FF049830B101A800F0D1FA02E053
:100F20002046FFF7BDFF02498A69906A07B030BDCD
:100F300064880020510E000800000000000000003E
:100F400070B5134E04460D46FFF782FDB069A268E6
:100F50008368A5629A4204D82046BDE87040FFF736
:100F600057BFFFF755FF0121054684F82010B461F3
:100F7000FFF796FDEA69ADF12400824202D90548E7
:100F800001F08EFB20462946BDE8704000F048BBCA
:100F900064880020F23C000800000000000000000F
:100FA00038B5104C14212368A5691A6801205460D3
:100FB00083F8200085F8221028462260A361FFF7FD
:100FC00027FF2846FFF76CFDEB69ADF12402934241
:100FD00002D9054801F064FBA0692946BDE8384004
:100FE00000F01EBB64880020F23C000800000000F6
:100FF000144B10B51A689C69116801204B6082F887
:10100000200019609A61A168002284F820201B68E2
:1010100098688842FBD85A682360626014605C60FC
:101020002046FFF73DFDE369ADF124018B4202D973
:10103000054801F035FB034821468069BDE81040B2
:1010400000F0EEBA64880020F23C000800000000C6
:1010500008B5FFF7FDFC064B1A689869916883682C
:10106000994203D9BDE80840FFF7C2BF08BD00BFE1
:101070006488002000000000000000000000000064
:10108000044B986990F8221009B9FFF789BFFFF760
:10109000AFBF00BF64880020000000000000000017
:1010A00038B50D46044608B1002902DA034801F0BC
:1010B000F7FA64602460A56038BD00BF103D0008E9
:1010C00038B50446FFF7C4FC14B9124801F0E8FA39
:1010D000A3682068002B02DBA04202D104E0A042FA
:1010E00002D10D4801F0DCFAA1684A1E002AA26074
:1010F0000DDA0A4DAB699C6260681C6058606360E1
:1011000003600320FFF7CCFEA969886A38BD002080
:1011100038BD00BF403D00084F3D000864880020F6
:1011200010B52023044683F31188FFF7D9FB20462E
:10113000FFF7C6FF0446FFF7EBFB002383F311889C
:10114000204610BD0000000000000000000000006C
:1011500010B5044610B9134801F0A2FAA36820683C
:10116000002B02DBA04202D104E0A04202D10E48D3
:1011700001F096FA202383F31188FFF7B1FBA168F1
:101180004A1C002AA26006DC206800210368236054
:101190005C60FFF7D5FEFFF7BBFB002383F31188EC
:1011A00010BD00BF8E3D00089E3D000800000000FD
:1011B000024B034A98698261FEE700BF6488002001
:1011C000403E000800000000000000000000000099
:1011D00037B500F0B5F9FFF70BFE00F039F9FFF76E
:1011E0002FFDFFF71DFDFFF74BFC40210D4800F0E0
:1011F0005FF80D4B0D4D0124C36180F82040A861BC
:10120000FFF75EFB002383F3118862B60849AA69E1
:10121000084891610093C0212246074B00F098F8DE
:101220003EBD00BFD80A00200004002064880020D2
:10123000C03C000880880020B111000800000000B8
:1012400070B5FFF7EDFB164B986990F8222012B1AC
:10125000511E80F82210436A5A1C42621148C1682C
:1012600002684B1C8242C36018D09468651E95606A
:101270000C480468A5688DB92168E6684860E56097
:101280000160FFF775FB2B4683F311882069B04797
:10129000202383F31188FFF753FBE9E770BD00BFFC
:1012A0006488002040890020000000000000000049
:1012B000022280F82020002280F821200264C263EC
:1012C000426282610B4A81604164516910B50261DA
:1012D0004161506100F12C0214240861C26200F1E6
:1012E000300100F1480280F8224041630163C2618D
:1012F00010BD00BF64880020000000000000000056
:101300002DE9F04104460F4615461E46DDF81880CB
:10131000FFF786FB24B1AF2F02D97F2D00D816B975
:10132000084801F0BDF9243F074BE019E060294669
:10133000C0F8048003622046E651BDE8F041FFF7A3
:10134000B7BF00BF503E0008311600080000000083
:101350002DE9F341044600F148050E4690461F462C
:101360000020FF23235401304828FAD1A3199D42BD
:1013700003D2552205F8012BF9E7202383F31188C6
:10138000FFF7AEFA08993B464246009120463146A7
:10139000FFF7B6FF00210446FFF7D2FDFFF7B8FACA
:1013A000002383F311882046BDE8FC810000000083
:1013B00010B5044610B9094801F072F9202383F3EF
:1013C0001188FFF78DFA21460620FFF791FDFFF700
:1013D0009FFA002383F3118810BD00BF883E0008E8
:1013E0000F4B10B59C69A062214651F82C0F884222
:1013F00004D00368E362FFF70BFDF5E794F82100E2
:10140000830704D1636922691A6121694B610E2047
:10141000FFF746FD0348BDE8104001F041B900BFA9
:1014200064880020973E00080000000000000000D3
:1014300010B52023044683F31188FFF751FA2046A4
:10144000BDE81040FFF7CCBF000000000000000026
:10145000044B4FF0FF3200205B601B609A60D86045
:10146000704700BF4089002000000000000000001D
:10147000F8B504460D4616461F46FFF7D1FA0CB1E3
:1014800006B115B90C4801F00BF90C4B2761E66069
:101490001B689A68AA4201D2AD1AF9E70749586851
:1014A0008B422360606004605C60A56002D09A6833
:1014B000551B9D60F8BD00BFD03E0008408900204C
:1014C00010B50446FFF7ACFA14B90B4801F0E8F880
:1014D000E36813B9094801F0E3F82068084A90422C
:1014E00003D08168A368CA1882606168002308601D
:1014F0002068E360416010BDDD3E0008EC3E00085E
:1015000040890020000000000000000000000000F2
:10151000FFF7E6F9FFF7B4FDFFF7FAF900DF000087
:10152000EFF30983203383F30988002383F31188C1
:1015300070470000000000000000000000000000F4
:1015400008B50A480A4B00229A601021D86007208B
:1015500000F056F90A204FF4007100F051F90B2009
:101560008021BDE8084000F04BB900BF0003FA0538
:1015700000ED00E00000000000000000000000009E
:10158000202383F31188154B586810F4006321D091
:10159000EFF30983A3F1200282F30988104A4FF088
:1015A000807143F8041C9169126891F822009268D6
:1015B000896820B18A4294BF0022012203E08A4256
:1015C00034BF002201220AB1064800E0064843F871
:1015D000080C704783F31188704700BF00ED00E0EE
:1015E00064880020111500081C1500080000000088
:1015F00008B5FFF7D5F9202383F31188FFF7A0F989
:10160000FFF71EFEFFF7B4F9002383F31188FFF7FD
:10161000E7F9BDE80840FFF7B3BF00000000000095
:101620002DE9F04FC1F80CD0D0F80CD0BDE8F08F08
:1016300008B5FFF76DF9002383F311882846A0470A
:10164000FFF7F6FE08BD00000000000000000000EB
:1016500070470000000000000000000000000000D3
:10166000FEE7000000000000000000000000000095
:1016700072B61E4B83F30988022080F31488BFF3EF
:101680006F8F1B491B4A914204D24FF0553041F8ED
:10169000040BF7E7184C15498C4204D24FF0553231
:1016A00044F8042BF7E700F0DBFC0023134C144A4A
:1016B0001819904204D21349585818510433F5E7C9
:1016C000114C12498C4203D2002244F8042BF8E753
:1016D000FFF7BEFF0E4C0F4B9C4203D254F8040B95
:1016E0008047F8E7FEF754FDFFF7BAFF0008002037
:1016F000000000200004002000040020000800205A
:101700000008002046400008000800209C890020B6
:1017100084010008840100080000000000000000AF
:1017200000F006B80000000000000000000000000B
:101730001A4B1A6942F00100002218611A615969B6
:1017400041F0010058615A61996941F001009861C6
:101750009A61196A19621A62586A40F001011048C8
:1017600059625A6200684FF47A71B0FBF1F00D498A
:10177000013848608A600C4807220A60C16841F05D
:101780008072C2600948016841F001020260186C71
:1017900040F08051196400F04BBA00BF003802409D
:1017A000A40B002010E000E0F0ED00E0001000E0ED
:1017B00070B500F00304E400FF2505FA04F501FA12
:1017C00004F10B4B8208C03253F8226026EA05056B
:1017D0000D4343F822500121420900F01F0001FA95
:1017E00000F002F1600143F8210043F8220070BDCF
:1017F00000E100E000000000000000000000000028
:10180000820800F0030030B5C000FF2404FA00F4A1
:1018100001FA00F1044B063253F8225025EA040481
:101820000C4343F8224030BD00ED00E00000000012
:1018300038B5FFF7B5F8202383F311880A4CFFF77A
:101840007FF80A4BE06B0025DD6310B1FFF7E0FA8B
:10185000E563FFF78DF8002383F31188FFF7C0F8E5
:10186000BDE83840FFF78CBE50890020002C0140B5
:1018700008B5FFF795F8084B08483D2219689A60AB
:10188000036801F03D010BB140689847FFF7A8F8E5
:10189000BDE80840FFF774BE00600240200B002046
:1018A00008B5FFF77DF8094B4FF4746219689A6028
:1018B000880900F03D01064883680BB1C06898476D
:1018C000FFF78EF8BDE80840FFF75ABE00600240FF
:1018D000200B0020000000000000000000000000BD
:1018E00008B5FFF75DF8094B4FF4741219689A6058
:1018F000080C00F03D01064803690BB140699847A8
:10190000FFF76EF8BDE80840FFF73ABE00600240FE
:10191000200B00200000000000000000000000007C
:1019200008B5FFF73DF8094B4FF0746219689A60EB
:10193000880D00F03D01064883690BB1C0699847E6
:10194000FFF74EF8BDE80840FFF71ABE00600240FE
:10195000200B00200000000000000000000000003C
:1019600008B5FFF71DF8084B08483D225968DA60B2
:10197000036A01F03D010BB1406A9847FFF730F868
:10198000BDE80840FFF7FCBD00600240200B0020CE
:1019900008B5FFF705F8094B4FF474625968DA602F
:1019A000880900F03D010648836A0BB1C06A984778
:1019B000FFF716F8BDE80840FFF7E2BD00600240FF
:1019C000200B0020000000000000000000000000CC
:1019D00008B5FEF7E5FF094B4FF474125968DA6059
:1019E000080C00F03D010648036B0BB1406B9847B3
:1019F000FEF7F6FFBDE80840FFF7C2BD00600240F9
:101A0000200B00200000000000000000000000008B
:101A100008B5FEF7C5FF094B4FF074625968DA60EC
:101A2000880D00F03D010648836B0BB1C06B9847F1
:101A3000FEF7D6FFBDE80840FFF7A2BD00600240F8
:101A4000200B00200000000000000000000000004B
:101A500008B5FEF7A5FF084B08483D2219689A60B3
:101A6000036C01F03D010BB1406C9847FEF7B8FFE5
:101A7000BDE80840FFF784BD00640240200B002051
:101A800008B5FEF78DFF094B4FF4746219689A6030
:101A9000880900F03D010648836C0BB1C06C984783
:101AA000FEF79EFFBDE80840FFF76ABD00640240F4
:101AB000200B0020000000000000000000000000DB
:101AC00008B5FEF76DFF094B4FF4741219689A6060
:101AD000080C00F03D010648036D0BB1406D9847BE
:101AE000FEF77EFFBDE80840FFF74ABD00640240F4
:101AF000200B00200000000000000000000000009B
:101B000008B5FEF74DFF094B4FF0746219689A60F3
:101B1000880D00F03D010648836D0BB1C06D9847FC
:101B2000FEF75EFFBDE80840FFF72ABD00640240F3
:101B3000200B00200000000000000000000000005A
:101B400008B5FEF72DFF084B08483D225968DA60BA
:101B5000036E01F03D010BB1406E9847FEF740FF68
:101B6000BDE80840FFF70CBD00640240200B0020D8
:101B700008B5FEF715FF094B4FF474625968DA6037
:101B8000880900F03D010648836E0BB1C06E98478E
:101B9000FEF726FFBDE80840FFF7F2BC00640240F4
:101BA000200B0020000000000000000000000000EA
:101BB00008B5FEF7F5FE094B4FF474125968DA6068
:101BC000080C00F03D010648036F0BB1406F9847C9
:101BD000FEF706FFBDE80840FFF7D2BC00640240F4
:101BE000200B0020000000000000000000000000AA
:101BF00008B5FEF7D5FE094B4FF074625968DA60FC
:101C0000880D00F03D010648836F0BB1C06F984707
:101C1000FEF7E6FEBDE80840FFF7B2BC00640240F4
:101C2000200B002000000000000000000000000069
:101C30000B4B00221A6013460A49585800210160D4
:101C400009480C3311500832C02BF5D1074A4FF028
:101C5000FF339360D360C2F80834C2F80C34704785
:101C6000A00B0020303F0008200B00200060024045
:101C70002DE9F0410F4615469846044610B9214813
:101C800000F00EFD627A012000FA02FC1E490E6887
:101C90001CEA060F34D11D484CEA060600EBC203CD
:101CA00016F0FF0F40F83250C3F804800E6004D0E5
:101CB000174A116B41F40010106316F47F4F04D0E3
:101CC000134B1E6B46F480021A632368196821F0D7
:101CD000010018601E6816F00106FBD1217A3D2034
:101CE00000FA01F16268116021221E605A6135B16B
:101CF000A07A3901FFF75CFD3046BDE8F081284647
:101D0000BDE8F081003F0008A00B0020200B002060
:101D10000038024000000000000000000000000049
:101D200008B5024800F0BCFCFEE700BFF03F000829
:101D300008B5024800F0B4FCFEE700BFFA3F000817
:101D400008B5024800F0ACFCFEE700BF0440000804
:101D500008B5024800F0A4FCFEE700BF0E400008F2
:101D600008B5024800F09CFCFEE700BF18400008E0
:101D7000014800F095FCFEE722400008000000004A
:101D8000014800F08DFCFEE729400008000000003B
:101D9000084B1A6842F4803018604FF4A06305497C
:101DA0000A68920303D4013BF9D101207047002057
:101DB000704700BF00380240000000000000000033
:101DC000084B1A6842F0807018604FF4A063054910
:101DD0000A68900103D4013BF9D10120704700202B
:101DE000704700BF00380240000000000000000003
:101DF000394BF0B59968024601F00C00042887B011
:101E000019D0082819D15C685D6859685B68C1F30E
:101E1000014004F03F06C5F38817441C2F4D30489D
:101E2000610013F4800F18BF0546B5FBF6F67E433C
:101E3000B6FBF1F502E02A4D00E0284D294B02AE39
:101E400003F1100718685968344603C40833BB42CD
:101E50002646F7D1204B06A89968C1F3031401194F
:101E600011F8104C204925FA04F5086849686C46B9
:101E700003C415609868C0F3822106A8411811F8C0
:101E8000181C25FA01F151609968C1F342314018DC
:101E900010F8181C002025FA01F5D060956019682B
:101EA000C90117D55D68586859685B6805F03F043B
:101EB00013F4800F094D0A4BC0F3881008BF2B465E
:101EC000B3FBF4F34343C1F30361012984BFB3FBC4
:101ED000F1F1D16007B0F0BD003802400024F400F9
:101EE000001BB700E03A0008F03A000800000000CC
:101EF000074810B5846824F47C4424F0F00444EAD4
:101F0000011141EA822242EA4333836010BD00BFDF
:101F10000038024000000000000000000000000047
:101F200010B50446FFF734FF98B92046FFF748FF85
:101F300088B90A4B9A6822F003009860996841F0CA
:101F400002029A60986800F00C010829FAD100207A
:101F500010BD012010BD022010BD00BF003802409E
:101F600010B5094C206810F080700BD141F480014D
:101F700041EA821242EA03419DF8083041EA0362D5
:101F8000626010BD012010BD00380240000000005A
:101F9000A2F68D23B3F5617F08D21E294BD93C29C7
:101FA0004CD95A2941D840F202614CE06FF41660D6
:101FB000101840F22B1380B2984208D818293AD949
:101FC00030293BD94829EED960293AD82DE0A2F62C
:101FD000350080B298420ED812292CD924292DD947
:101FE0003629E0D9482920D95A292AD96C291FD85D
:101FF00040F2056127E0A2F27362B2F5E17F26D2DA
:10200000102918D9202919D93029CCD940290CD91F
:10201000502916D96029EBD940F2066340F20760D7
:1020200070298CBF014619460DE040F203610AE0B9
:1020300040F2066107E04FF4C06104E040F2016144
:1020400001E040F20461034A002011607047012062
:10205000704700BF003C024000000000000000008C
:102060000C4B0D484FF0805200211A6401601A6831
:10207000184642F0010119600268064B9207FBD531
:10208000596C41F4804058645A6E42F4804159665C
:10209000704700BF003802400070004000000000A0
:1020A000A0F13003DAB2092A01D80A7005E0A0F1E4
:1020B0004103052B03D837380870012070470020F2
:1020C0007047000000000000000000000000000059
:1020D0000EB42DE9F7470BAC54F8047B054605F622
:1020E0009826FFF71DF823463A46304640F68C21E5
:1020F000019400F04DFE05F5A958D8F810300746B8
:10210000C018C8F81000D8F80400B246341AA74224
:10211000B1460BD93146224601F032FC04F698262E
:1021200005F10C01C8F80410AE193F1B05F5A954C0
:102130003A466068314601F023FC6268237BD71978
:1021400057452ABF05F10C02676062608BB10C49EC
:10215000A2688B6C002021692073C2EB09008842C1
:1021600028BF0846DA60606158601A6842F00100D2
:1021700018602846FEF7ECFFBDE8FE4703B0704745
:10218000303F0008000000000000000000000000D8
:1021900073B50023232904460D468DF8073000F55A
:1021A000A95002D10122027681E0017E4B1E032B51
:1021B0007DD8DFE803F002122D4528460DF1070116
:1021C000FFF76EFF04F5FE53D0B19DF8070004F54C
:1021D000A95401015971022310E028460DF10701AD
:1021E000FFF75EFF04F5FE5350B15A799DF80700E2
:1021F00004F5A95440EA020159710323237656E0FD
:1022000004F5A952063304F50354107663604EE0DA
:1022100028460DF10701FFF743FF50B104F50353C2
:102220009DF8072058681101017004F5A954042392
:10223000E4E72C2D3BD00D2D1FD00A2D2ED11CE014
:1022400028460DF10701FFF72BFF04F5035380B17A
:102250005A689DF80710107804F5A95408431070C7
:102260005868591C03228842227620D2421C5A60A8
:102270001DE004F5A952107615E004F5035604F5A7
:10228000FE507268851D29464079521BFEF7E0F822
:1022900004F5A95400212176756008E004F5A953DE
:1022A000187604F5035304F5FE5406345C607CBDD7
:1022B00008B5084B084A986982614FF0FF3107481A
:1022C000FEF766FD011EF8DB0548C9B2FFF760FFA7
:1022D000F3E700BF6488002030400008302F002062
:1022E000680E002000000000000000000000000058
:1022F0002DE9F74F00F10C0300F5A9580025564FC2
:102300008A460121C8F80430C8F8083088F80C1053
:10231000C8F810508146FEF7C3FE386B4F4C40F0B2
:1023200008013963226822F440662660236843F47A
:1023300000602060616821F020026260666866606B
:10234000E36823F44060E060E168E160A26822F4A1
:102350004066A660A36843F40060A060216A21F48F
:1023600070022262266A4FF4005246F4E0032362B0
:10237000386C3B4B40F4003139649868394EB0FBFF
:10238000FAFBB2811FFA8BFC2C228021A6F808C030
:1023900026203582B182B2816021FFF709FA092136
:1023A000314A2B463148FFF763FC314B3149986C79
:1023B000314A09F5035A81602B46026008F1190180
:1023C0000AF1080040F68C220095FEF7A9FC386B54
:1023D00009F5FE5940F0080109F10603CAF8043076
:1023E00088F8185039632268AB4622F440532360C2
:1023F000206840F400512160626822F0400363606D
:10240000606840F040016160E26822F44053E3609C
:10241000E06840F48051E160A26822F44053A36078
:10242000A06840F40051A160226A22F07063236228
:10243000206A402240F0E0612162104B0095104874
:102440004FF42C71FEF784FFB28993B243F400502D
:10245000B081BDE8FE8F00BF00380240000C024092
:10246000A40B00200044004001250008783F00082C
:10247000303F00080444004050040008B122000826
:10248000B80B002000000000000000000000000069
:10249000194A30B5936C196821F001041C601D685D
:1024A000E907FCD4D16C92F850203D2404FA02F5DF
:1024B00000F5A9520D60546911699568091B2D1921
:1024C00000F69824A54228BF00F10C051161956023
:1024D00000F5A95011B90123037330BD8268DA6099
:1024E000A21A8A4238BF114641615960196841F009
:1024F0000100186030BD00BF303F00080000000040
:102500000148FFF7C5BF00BF680E002000000000B3
:1025100008B5FEF745FA202383F31188FEF710FA79
:10252000084B09489988C9B2FEF70AFCFEF720FA61
:10253000002383F31188FEF753FABDE80840FFF744
:102540001FB800BF00440040302F002000000000F2
:1025500010B52023044683F31188FEF7F1F9A06932
:1025600018B10023A361FEF753FCFEF701FA002324
:1025700083F3118810BD000000000000000000007F
:10258000164B984205D103F56050016B41F00103F1
:1025900022E01349884205D101F55050036B43F006
:1025A000020319E00F4A904205D102F54050026B38
:1025B00042F0040310E00C4B984205D103F5305073
:1025C000016B41F0080307E00849884205D101F595
:1025D0002050026B42F0100303637047000002407A
:1025E0000004024000080240000C024000100240BB
:1025F000F8B50D46044616461F46FFF7C1FF6800B2
:10260000032101FA00F1022202FA00F02368C94313
:102610000B402360236806FA05F603432360012379
:1026200003FA05F36268072D22EA03026260636819
:1026300046EA03066660E26802EA0102E260E368D5
:10264000E360A26801EA0201A160A16840EA01001A
:10265000A06094BF0020012088BF083DAD000F237B
:1026600003FA05F307FA05F5083054F8202022EAAA
:10267000030144F8201054F82020154344F820505A
:10268000F8BD000000000000000000000000000095
:1026900043681A8890B240F40071198070470000B6
:1026A000013810F8013F43B1044A118801F080015C
:1026B00089B20029F8D09380F3E7704700440040C6
:1026C0004368294A70B5934205460AD1274C002336
:1026D000216A41F4001626622362226C22F4001162
:1026E0001AE0234883420AD1204C0022266A46F48D
:1026F000800323622262206C20F480010CE01D49DB
:102700008B420AD1194C0022266A46F40003236248
:102710002262206C20F400012164AC68AE8920465E
:10272000FFF72EFF7100032606FA01F3206843EA43
:1027300000022260E06820EA0301E160E368E360F0
:10274000AC68ED8920466D0006FA05F6FFF718FF24
:10275000226846EA02002060E16821EA0606E66097
:10276000E368E36070BD00BF0054004000380240E1
:1027700000580040005C0040000000000000000025
:1027800038B504460025012204230575A189806817
:10279000FFF72EFF01220423A068E189FFF728FF3D
:1027A0006368314A934209D102F5F232116C41F467
:1027B00000101064116A41F4001118E02B488342A4
:1027C00009D100F5F032106C40F480011164106AF8
:1027D00040F480010BE026498B420AD101F5EE322C
:1027E000106C40F400011164106A40F400011162A1
:1027F0001562204A204950689A88B0FBF1F122F016
:102800003F021204120C012903D91E2928BF1E21E0
:1028100000E002210A4392B29A801A8822F0010253
:102820001204120C1A804FF4967251434FF47A72CC
:10283000B1FBF2F14A1C91B22269198419214A4371
:10284000B0FBF2F082B2002A08BF012242F44041FC
:102850009983188882B242F001011980988882B267
:1028600042F40061998038BD005400400058004097
:10287000005C0040A40B002040420F00000000005C
:1028800070B5416083810599BDF8103004468260BF
:10289000C3810161069E079DFFF712FF2046FFF7E7
:1028A0006FFF6368124A03209342208001D1012008
:1028B00003E010498B4201D10720208009210E4AF4
:1028C0002346E6613046FFF7D3F9E36961681A6889
:1028D000103191602346084A256228460921FFF7F6
:1028E000C7F9206A6268036810329A6070BD00BF41
:1028F000005400400058004051250008000000002E
:1029000038B504460525013D15F0FF0509D060687E
:10291000018B01F0020290B230B10120FEF748FDB8
:10292000F1E701232375022038BD000000000000FC
:1029300040F2C313013B09D04268918A128BC90748
:1029400092B2F7D59207F5D00020704701210175AA
:102950000846704700000000000000000000000072
:1029600042682E23918A013B89B203D001F4806032
:1029700080B208B10120704701F0020189B200293C
:10298000F0D0138B70470000000000000000000032
:102990002E23013B08D04268918A01F0800291B257
:1029A0000029F6D0002070470121017502207047F0
:1029B00040F2C313013B08D04268918A01F0400203
:1029C00091B20029F6D00020704702207047000025
:1029D00040F2C313013B08D04268118801F4007231
:1029E00091B20029F6D00020704702207047000005
:1029F0002DE9F84F0A9F04468846924699469DF86D
:102A00002C60FFF77DFF08BB6568A882AB8A03F0E6
:102A1000400081B209B12B8AF8E7AB8A2B8B2A8858
:102A200093B243F4807028802046FFF781FF68B995
:102A300061684FEA48085FFA88F8A1F810802046DC
:102A4000FFF78EFF28B12046FFF722FE0120BDE8E8
:102A5000F88FB9F1000F33D02046FFF799FF834676
:102A60000028F3D1E56922882D68530643F48A6073
:102A7000C5F80CA04C492860C5F804902B688A69F9
:102A800043F00100A2612023286083F31188FDF741
:102A900027FF0220FEF704FAFDF73AFF5B4683F3B7
:102AA0001188E3691A68116821F00100106011684B
:102AB000C907FCD45A681B7A3D2000FA03F1116063
:102AC000002E6BD02046FFF763FF0028BED163685D
:102AD0001A8890B240F4807119802046FFF728FFD1
:102AE0000028B3D1656848F00108A5F81080204699
:102AF000FFF736FF05460028A5D16268012E13882E
:102B000017D123F480631904080C10802046FFF7C6
:102B1000BFFD2046FFF74CFF002897D16268204692
:102B2000138A3B70FFF754FF003018BF0120BDE847
:102B3000F88F98B240F480611180236A2188186868
:102B40004B0643F48261C76001604660938899B286
:102B500041F480539380144A0368916943F0010261
:102B6000A1612023026083F31188FDF7B9FE0220E2
:102B7000FEF796F9FDF7CCFE2B4683F31188236A06
:102B80001A68106820F0010111601068C007FCD4B9
:102B90005A681B7A3D2101FA03F010602046FFF7C6
:102BA00077FD0020BDE8F88F648800200000000059
:102BB00040F2C313013B08D04268918A01F004023D
:102BC00091B20029F6D00020704702207047000023
:102BD0002DE9F8430446894690461F469DF8246037
:102BE000FFF78EFE08BB6568A882AB8A03F0400041
:102BF00081B209B12B8AF8E7AB8A2B8B2A8893B272
:102C000043F4807028802046FFF792FE68B961681F
:102C10004FEA49095FFA89F9A1F810902046FFF7B9
:102C20009FFE28B12046FFF733FD0120BDE8F88361
:102C3000002F32D02046FFF7ABFE05460028F4D126
:102C4000E26923881068590641F48A62C0F80C8052
:102C5000314B026047600268996942F00103A1614B
:102C60000360202383F31188FDF73AFE0220FEF76C
:102C700017F9FDF74DFE2B4683F31188E0690268D2
:102C8000116821F0010313601168C907FCD4426880
:102C9000007A3D2303FA00F11160002E32D0204665
:102CA000FFF776FE05460028BFD1E269218810684B
:102CB000089B4A06C36042F48A6303601649466073
:102CC00003688A6943F00101A2612023016083F354
:102CD0001188FDF705FE0220FEF7E2F8FDF718FE69
:102CE0002B4683F31188E3691A68106820F001010C
:102CF00011601068C007FCD45A681B7A3D2101FAA4
:102D000003F010602046FFF753FF2046FFF7C0FC9A
:102D10000020BDE8F88300BF6488002000000000A8
:102D2000F0B585B09DF828700024B1FBF2F502FBE8
:102D30001516092E294601D8303600E03736F6B28E
:102D40000DF1040C04F80C600134002DEDD1254682
:102D5000421CC6433619B618511E9E4207DA0FB1FF
:102D6000302100E0202102F8011C0132F1E7084681
:102D7000013C01ABE25C01F8012B002CF8D14019B9
:102D800005B0F0BD000000000000000000000000E1
:102D90002DE9F74F80461C464D1E174617F8013B9C
:102DA000002B78D0252B05D0013D002D00F8013BEC
:102DB0006EDC70E000223E46134616F8011BA1F1BE
:102DC000300C5FFA8CF9B9F1090F374607D813B9FF
:102DD000302908BF01220A2707FB03C3EDE7732947
:102DE00001D053290FD12368261D5A1E014612F81F
:102DF000014F0846002C4CD0013D01F8014B002D3D
:102E00000846F4DC45E0632907D12168013D261D11
:102E1000002D00F8011B3CDC3DE0582904D1009254
:102E2000261D2168102212E0752903D10092261D6B
:102E300021680BE064290DD12168261D002903DAE1
:102E40002D2200F8012B4942002300930A22FFF7AC
:102E500067FF1EE041291BD1D4F800A0D4F80490EC
:102E600004F10C06D4F808B000244C4511DA002C0B
:102E700004DDBBF1000F01D000F801BB01231AF8FB
:102E80000410102200930223FFF74AFF0134ECE7FD
:102E90002646344682E700230370C8EB0000BDE8F5
:102EA000FE8F000000000000000000000000000095
:102EB000024B18694306FBD4704700BF0000024074
:102EC000234B30B51A6B032542F001011963410011
:102ED00005FA01F5EA43022505FA01F1A3F560536D
:102EE0001C6814401C601C680C431C60012404FA1C
:102EF00000F45D68072825EA04045C605C685C6097
:102F0000DC6804EA0204DC60DC68DC609C6802EADD
:102F100004029A609A6841EA020194BF00220122E9
:102F200088BF0838996080000F2101FA00F108324B
:102F300053F8224024EA010443F82240052404FA0D
:102F400000F053F82210084343F8220030BD00BFC0
:102F500000380240000000000000000000000000F7
:102F60007F29C4BFA1F5807189B208B2022390FB0A
:102F7000F3F14A3948B27047000000000000000039
:102F8000044B998103480289D207FBD58189C8B2D5
:102F9000704700BF0030014000000000000000004A
:102FA000F8B5094D4FF4806604460F466E83FFF76F
:102FB0007FFF47F080012046FFF7E2FF2046002117
:102FC000FFF7DEFF2E83F8BD000002400000000086
:102FD0002DE9F041094D4FF48066044688466E8322
:102FE0001746FFF765FF41462046FFF7C9FF204619
:102FF0003946FFF7C5FF2E83BDE8F081000002408F
:10300000F8B5094D4FF4806604460F466E83FFF70E
:103010004FFF20463946FFF7B3FF20702E832378F9
:1030200003F070002070F8BD0000024000000000B6
:1030300038B504460D46237820461BB13621FFF7EC
:10304000DFFFF8E70A212A46BDE83840FFF7C0BF96
:1030500070B504460D463A211646FFF7D1FF2046CB
:103060003421FFF7CDFF202383F31188FDF738FCCF
:103070004FF47A714D43244B24489A69A5F57A752B
:10308000B5FBF1F30260591C0220FDF731FF054644
:10309000FDF73EFC002383F311886B1C204604D10E
:1030A0003621FFF7ADFF022070BD7821FFF778FFD2
:1030B000010626D516484FF480624283FFF7F8FEDA
:1030C0002046FF21FFF75CFF002500212046FFF787
:1030D00057FF70550135152DF7D100212046FFF718
:1030E0004FFF002105462046FFF74AFF084B4FF4EB
:1030F0008061198320462946FFF732FF7075002052
:1031000070BD012070BD00BF64880020542F0020D6
:10311000000002400000000000000000000000006D
:10312000F8B50E4B17464FF4806206465A830D469B
:10313000FFF7BEFE30467F21FFF722FF2C46601BC3
:10314000C1B2B94205D2304614F8011BFFF718FF8F
:10315000F5E7024B4FF480621A83F8BD000002408D
:1031600070B504460E46257820461DB13621FFF77E
:1031700047FFF8E731461522FFF7D2FF20463521F9
:10318000FFF73EFF202383F31188FDF7A9FB064BD1
:1031900006489A6902600220FDF782FEFDF7B8FB3F
:1031A0002B4683F3118870BD64880020542F0020C3
:1031B00010B50B2104460C22FFF70AFF20460C2114
:1031C0000022FFF705FF20460D212022FFF700FF18
:1031D00020460E212522FFF7FBFE20460F21ED227F
:1031E000FFF7F6FE204610212D22FFF7F1FE2046C4
:1031F00011212F22FFF7ECFE204612211322FFF7A8
:10320000E7FE20461321A222FFF7E2FE204614210A
:10321000E522FFF7DDFE204600220A21FFF7D8FE57
:10322000152120466222FFF7D3FE20462121B62237
:10323000FFF7CEFE204622211022FFF7C9FE1821FB
:1032400020460A46FFF7C4FE204619211D22FFF73B
:10325000BFFE20461A211C22FFF7BAFE20461B2182
:10326000C722FFF7B5FE20461C210022FFF7B0FE63
:1032700020461D21B022FFF7ABFE20462321EA2283
:10328000FFF7A6FE204624212A22FFF7A1FE2046B2
:1032900025210022FFF79CFE204626211F22FFF752
:1032A00097FE20462C218822FFF792FE20462D21F2
:1032B0003122FFF78DFE20462E210922FFF788FEDE
:1032C000204603210722FFF783FE20460021072224
:1032D000FFF77EFE204602210622FFF779FE2046F8
:1032E00007210C22FFF774FE204608214422FFF735
:1032F0006FFE204606211522FFF76AFE20463E217A
:103300005022FFF765FE204616210722FFF760FED8
:10331000204617210022BDE81040FFF759BE0000EB
:1033200070B54C4D4C4C2B6B064643F001002863A6
:10333000216821F440122260236843F48010206049
:10334000616821F48062626063686360E06820F411
:103350004011E160E268E260A36823F44010A060DD
:10336000A168052041F40012A260FFF7A9FD062024
:10337000FFF7A6FD0720FFF7A3FD2B6B43F001002D
:103380002863216821F440722260E36823F44070CE
:10339000E060E168E1602A6B42F001032B63206882
:1033A00020F0C0012160E2684FF4806122F0C00388
:1033B000E360E068E06021836A6C284842F480534F
:1033C0004FF441716B6401800288002193B2038045
:1033D0008180828B22F4006319040A0C82830388A3
:1033E00099B241F04002028030213046FFF708FEDA
:1033F0003A213046FFF704FE3046FFF7D9FE686CED
:10340000174940F480436B64CA6822F00F00C8601B
:10341000D1F8003443F01002C1F80024D1F80404BC
:1034200020F01003C1F80434D1F8082422F0100071
:10343000C1F80804D1F80C34102043F01002C1F890
:103440000C24C1F814040A207021BDE87040FEF776
:10345000AFB900BF00380240000002400030014018
:1034600000380140000000000000000000000000E3
:1034700010B5FDF795FA104B10225A61202383F303
:103480001188FDF75DFA0D4908680C4648B190F8BF
:103490002020022A03D100238362FDF7B9FC00201B
:1034A0002060FDF765FA002383F31188FDF798FA91
:1034B000BDE81040FEF764B8003C0140542F0020E6
:1034C00010B52023044683F31188FDF739FA07214C
:1034D00009482346094AFDF7CBFF094B186890F8C5
:1034E0002010022901D1FDF793FCFDF741FA0023DA
:1034F00083F3118810BD00BF5C2F0020C134000889
:103500009C7F002000000000000000000000000080
:1035100070B590F8C837C3B1D0F8CC2700F2CC759D
:10352000934228BF1346D41A00F59E42C0F8CC47F8
:10353000D46C05F58F46361BB34204D39B1BED18A4
:103540000435D56401E0E318D36400F59E4280F8A9
:10355000C717516D02F15403632916D8D3F8D01060
:10356000B0F8C6470C80D3F8D01002F58F74023142
:10357000A14202D8C3F8D01002E05832C3F8D020DC
:1035800000F59E435A6D511C596508300021BDE875
:103590007040FDF70DBB00000000000000000000BF
:1035A000C9B201700148FFF743BD00BF582F00208A
:1035B000F7B5044604F59E46031D4360002506F159
:1035C000580304F5FA620F4600F1080004F13C01CB
:1035D000A060C4F8A817C4F8AC17A563C4F8CC570A
:1035E000F264C6F82031C6F8243132657565194E8B
:1035F0003046FFF795FEC02230463E21FFF7E8FC3B
:10360000012004F5A04184F8C70781F8285020461E
:103610003946FFF7C5FF3046F9B2FFF709FD202311
:1036200083F31188FDF75CF92B460B4807210B4A01
:10363000FDF71EFFFDF76CF92B4683F311887F22FF
:10364000009507484FF49661064BFDF781FE064A48
:103650001060FEBD582F00205C2F0020C1340008F0
:10366000A07F0020A13800089C7F002000000000FF
:1036700003682DE9F041934205468846144621D35C
:1036800005F58F473968981A7E1AB242286007D923
:103690004046324600F074F9291D3960B044A41B3D
:1036A00005F58F4622464046316800F069F93268D8
:1036B0001419BC4201D2346001E0043535600020A9
:1036C000BDE8F0810120BDE8F081000000000000AD
:1036D00010B52023044683F31188FDF701F9022079
:1036E000FDF7DEFBFDF714F9002383F3118804F5E1
:1036F000A04292F82810481CC1B2632994BF82F8F6
:10370000281082F8283092F8283094F8C72784F8D7
:10371000B037012A01D9032A0AD104F2CC7004F28D
:10372000C6710322FFF7A4FF10B9042084F8C7076D
:1037300094F8C717042908D104F5A04394F8C607E4
:1037400093F828200A38824200E0052977D004F552
:10375000A04191F828304FF400420A3384F8B13781
:10376000A4F8B2274C4804F5F661FFF7F9FC4A4883
:10377000042104F10C02FFF76BFC002855D1E0890D
:1037800000F480518AB2B2B394F82000637B102811
:1037900088BF102084F8230004F1100184F822303F
:1037A00004F1240094F8232000F0EAF8A16B6329C7
:1037B00021D8D4F8AC2704F1220304F1320153F8E4
:1037C000040B8B4242F8040BF9D1198811809B78C5
:1037D0009370D4F8AC07A16B133004F29572904249
:1037E00088BF04F13C004B1CC4F8AC07A363201D48
:1037F0000021FDF7DDF994F8C707062808D1E28912
:1038000002F010018BB21BB120460021FFF780FEB1
:1038100094F8C707421F012A3CD8E18901F0100340
:1038200098B2B8BB2046032106E094F8C727531F7F
:10383000012B2FD820460121FFF76AFE10BD94F816
:10384000C82794F8C607102A84F8B10704F2B471A7
:1038500004F2CC700ED8062384F8C737FFF708FFB0
:1038600094F8C8074FF4104184F8C407A4F8B217BD
:1038700000220CE00523112284F8C737FFF7F8FE79
:1038800094F8C8274FF41841A4F8B217113A84F8F5
:10389000C82767E710BD00BF582F002000000000B8
:1038A00008B5044B044A986982610448FFF710FF89
:1038B000FBE700BF6488002040400008702F002014
:1038C00003682DE9F0411446C3F58E427C32A242D2
:1038D0000546884620D3E01805F58F4728607868AC
:1038E0003E1AB44206D9324600F04AF8291D7960E2
:1038F000B044A41B05F58F4622467068414600F08F
:103900003FF873681C19BC4201D2746001E00435B1
:1039100075600020BDE8F0810120BDE8F081000065
:1039200073B5B42B34BF1C46B424D0F8CC3705464D
:10393000C3F58E4016467C30E21C90421AD38DF8B7
:1039400004108DF80640202383F3118805F2CC750E
:10395000FCF7C6FF01A903222846FFF7B1FF314655
:1039600022462846FFF7ACFFFCF7D2FF002383F383
:10397000118800E0012318467CBD00000000000013
:103980000F2A2DE9F00340F2A18041EA00039B07D2
:1039900040F09E800C68A2F1100504604B68AC46B4
:1039A00043608C68BCF10F0F8460CC68C5F30015D0
:1039B000C46000F1100301F110042BD975B1256822
:1039C000ACF1100C1D6065685D60A5689D60E568E0
:1039D0001034DD601033BCF10F0F1BD9276804F1E0
:1039E00010061F60676803F110055F60A768ACF1FF
:1039F000200C9F60E768DF6024691C61776806F12E
:103A000010046F60B7682033AF60F668BCF10F0F29
:103A1000EE60E3D8A2F1100828F00F0302F00F04C3
:103A200003F1100C032C00EB0C0301EB0C0851D933
:103A3000211F4FEA9109444608EB890C54F8046BA6
:103A4000C8EB0C010CF1040C1D46644545F8046BF1
:103A5000C1F3800112D029B154F8041B644545F824
:103A6000041B0BD0274657F8041B2E4646F8041BB0
:103A700064686C603C1D351D6445F3D109F1010C8F
:103A80004FEA8C0902F0030208EB09014B44D2B162
:103A90000D789A18DC4303F8015B1419934204F083
:103AA000010410D02CB111F8014F03F8014B9342DF
:103AB00009D04D781C4604F8015B8D7802315D70A9
:103AC000631C9342F5D1BDE8F00370470346DEE77F
:103AD0000346DDE741462246D9E700BF000000006B
:103AE00000000000000000000102030406070809AE
:103AF00000000000010203040000000000000000BC
:103B00002325582C25410D0A00417070000000004B
:103B100047617465204148423D25753B2041504234
:103B2000313D25753B20415042323D25753B2055A6
:103B300073625364696F3D25750D00436C6F636B51
:103B4000206661696C7572650D0000000000000060
:103B50005356233100535623320053562333005318
:103B600056233400535623350053562336005356FC
:103B70002337005356233800535623390053562316
:103B800031300053562331310000000000000000A6
:103B900022636845767452656769737465724D6116
:103BA000736B22282900226368457674556E72650E
:103BB00067697374657222282900226368457674E8
:103BC0005369676E616C4922282900226368457633
:103BD000745369676E616C222829002263684576F8
:103BE0007442726F6164636173744D61736B4922D7
:103BF0002829002263684576744469737061746390
:103C0000682228290063684576744469737061747A
:103C1000636828292C2023310000000000000000E8
:103C20002263684D7478496E6974222829002263E2
:103C3000684D74784C6F636B532228290063684D7C
:103C400074784C6F636B5328292C202331006368F0
:103C50004D74784C6F636B5328292C20233200223B
:103C600063684D74785472794C6F636B53222829C2
:103C70000063684D7478556E6C6F636B28292C2037
:103C800023310063684D7478556E6C6F636B28291F
:103C90002C2023320063684D7478556E6C6F636B13
:103CA0005328292C2023310063684D7478556E6C9D
:103CB0006F636B5328292C20233200000000000082
:103CC0006D61696E00164111040448080C10141847
:103CD0001C20210022240000000000000000000041
:103CE000636853636852656164794928292C2023ED
:103CF0003100737461636B206F766572666C6F77E9
:103D000000000000000000000000000000000000B3
:103D100022636853656D496E697422282900226305
:103D20006853656D5265736574492228290063687C
:103D300053656D52657365744928292C2023310021
:103D400022636853656D57616974532228290063A3
:103D50006853656D576169745328292C20233100FD
:103D600022636853656D5761697454696D656F7539
:103D7000745322282900636853656D576169745430
:103D8000696D656F75745328292C202331002263D7
:103D90006853656D5369676E616C222829006368FA
:103DA00053656D5369676E616C28292C202331009F
:103DB00022636853656D5369676E616C49222829D7
:103DC00000636853656D5369676E616C4928292CDF
:103DD0002023310022636853656D416464436F752D
:103DE0006E7465724922282900636853656D4164C9
:103DF00064436F756E7465724928292C2023310045
:103E000022636853656D5369676E616C57616974AD
:103E100022282900636853656D5369676E616C578A
:103E200061697428292C20233100636853656D5320
:103E300069676E616C5761697428292C20233200F0
:103E400069646C65000000000000000000000000D4
:103E50002263685468644372656174654922282945
:103E6000002263685468645365745072696F7269A4
:103E70007479222829006368546864526573756DEB
:103E80006528292C20233100226368546864536C10
:103E900065657022282900636854686445786974F0
:103EA0005328292C20233100226368546864576109
:103EB000697422282900636854686457616974280A
:103EC000292C202331000000000000000000000029
:103ED0002263685654536574492228290022636876
:103EE00056545265736574492228290063685654F4
:103EF00052657365744928292C2023310000000085
:103F000022646D61416C6C6F6361746522282900C5
:103F100022646D6152656C656173652228290064B5
:103F20006D6152656C6561736528292C2023310011
:103F3000106002400860024000000B002860024050
:103F40000860024006010C00406002400860024028
:103F500010020D00586002400860024016030E0077
:103F6000706002400C60024000040F008860024054
:103F70000C60024006051000A06002400C60024088
:103F800010061100B86002400C60024016072F00B6
:103F900010640240086402400008380028640240AF
:103FA0000864024006093900406402400864024087
:103FB000100A3A005864024008640240160B3B00A5
:103FC000706402400C640240000C3C0088640240B3
:103FD0000C640240060D4400A06402400C640240E0
:103FE000100E4500B86402400C640240160F4600F3
:103FF0005379734578635546560053797345786312
:10400000424656005379734578634D656D00537988
:1040100073457863484656005379734578634E4D2F
:10402000490053797345786300556E68457863009D
:10403000556172745278000000000000000000001A
:06404000724C766C3100A9
:04000005080001905E
:00000001FF
