:020000040800F2
:1000000000100020BD1D0008051E0008051E000888
:10001000051E0008051E0008051E0008000000005F
:10002000000000000000000000000000051E0008A5
:10003000051E000800000000051E0008051E00083F
:10004000051E0008051E0008051E0008051E000804
:10005000051E0008051E0008051E0008051E0008F4
:10006000051E00081D0A0008051E0008051E0008E0
:10007000051E0008051E0008051E0008051E0008D4
:10008000051E0008051E0008051E000800000000EF
:10009000000000000000000000000000051E000835
:1000A000051E0008051E0008051E0008051E0008A4
:1000B000ED0A0008051E000800000000051E0008EB
:1000C000051E00080000000000000000051E0008DA
:1000D00000000000051E0008051E000800000000CA
:1000E000051E0008051E0008051E0008000000008F
:1000F0000000000000000000000000000000000000
:1001000000000000000000000000000000000000EF
:100110000000000000000000051E0008051E000889
:1001200000000000000000000000000000000000CF
:1001300000000000000000000000000000000000BF
:1001400000000000000000000000000000000000AF
:10015000000000000000000000000000000000009F
:10016000000000000000000000000000000000008F
:10017000000000000000000000000000000000007F
:10018000000000000000000000000000000000006F
:10019000000000000000000000000000000000005F
:1001A000000000000000000000000000000000004F
:1001B000000000000000000000000000000000003F
:1001C0000000000000000000000000005FF808F1DF
:1001D00010B5054C237833B9044B13B10448AFF381
:1001E00000800123237010BD640000200000000087
:1001F000FC1E000808B5064B1BB106480649AFF3C4
:1002000000800648036813B1054B03B1984708BD49
:1002100000000000FC1E00086800002064000020B0
:100220000000000070B50D4D0D4E761BB61006D0C7
:10023000002455F8043B01349847A642F9D1094DF2
:1002400001F05CFE084E761BB61006D0002455F86F
:10025000043B01349847A642F9D170BD141F000831
:10026000141F0008141F0008181F0008F0B50746E7
:1002700093B04FF4804001F003FB4FF40170012173
:1002800001F05CFB012001460124002501F04AFB3E
:1002900011A92C48ADF844408DF8475001F076FA8A
:1002A000294801F07BF9294B274801931023049337
:1002B000802306934FF4807307934FF48063089371
:1002C00001A9202309930297039505950A950B959B
:1002D00001F0E2F91C48214601F0FCF94FF46023DB
:1002E0001B480CA90E930C958DF834408DF83540C1
:1002F0000F958DF8404001F0B9F8224606231448C6
:10030000294601F004F91248214601F0DCF81048B2
:10031000214601F0CFF80E48264601F0DDF80C48E2
:1003200001F0DFF80028FAD1094801F0DEF80848AA
:1003300001F0E0F80028FAD10548012101F0DEF8CB
:1003400013B0F0BD00080140080002404C240140F9
:10035000002401400023038400231A46C15A0233BB
:100360005218202B92B2F9D1120902847047000072
:1003700010B500F12401044640F2E732194800F0BC
:100380009DFB00282CD02046FFF7E4FF94F828308E
:10039000022B05D1238CB3F5C86F21D201230DE0C8
:1003A000012B11D1238C40F2A952934201D8002392
:1003B00004E040F27C62934212D9022384F8283090
:1003C000E36A6BB1984710BD53B9228C40F2E653F3
:1003D0009A4205D9012384F82830E36A03B198478B
:1003E00010BD00BFDC00002070B5092088B0174D9B
:1003F000012101F0A3FA0220012101F0ABFA00244F
:10040000FF23284605A9ADF818300126ADF81440A1
:10041000ADF81A40ADF8164001F01EFB60232846E7
:1004200001A9ADF80430ADF80660ADF80A40ADF8AA
:100430000C4001F0CFFB2846082101F03DFC284686
:10044000314601F025FC08B070BD00BF000400403B
:1004500037B50B4D0124284601F038FC03238DF8F5
:10046000063001A918230748ADF804408DF807307D
:1004700001F08CF92846214601F0F2FB3EBD00BF99
:1004800000040040000C014070B5002488B00461F5
:100490000121092001F052FA154D0420012101F03B
:1004A00059FAC823ADF818302846322305A9ADF80B
:1004B00014300126ADF81A40ADF8164001F0CCFA20
:1004C0006023284601A9ADF80430ADF80660ADF808
:1004D0000A40ADF80C4001F029FB2846082101F044
:1004E000E3FB2846314601F0D3FB08B070BD00BFE6
:1004F00000080040C3688B4218BF016170470000CC
:100500004268C36873B5062606FB0233134C0546E2
:100510001979204601F0D8FBEB686A6849F640413A
:1005200006FB02367388204691FBF3F10139002265
:1005300089B201F0AAFB03238DF806304023ADF801
:10054000043001A9182306488DF8073001F01EF980
:100550002046012101F084FB7CBD00BF0008004063
:10056000000C014007B50021074801F079FB40234A
:10057000ADF80430042305480DEB03018DF8073076
:1005800001F004F90EBD00BF00080040000C01405E
:10059000C36810B5044633B90369002B3DD0C3606E
:1005A0001E4B1B680360E26823699A4212D01278DE
:1005B0006168013A91420DD100226260E3601B79CB
:1005C000204613B1FFF79CFF01E0FFF7CBFF134B71
:1005D0001B682360E2686368062101FB03230F4860
:1005E000DA88214600F06AFAB8B16268E36801323D
:1005F000626019788A4201D1002262606268062135
:1006000001FB02331B79204613B1FFF779FF01E0AC
:10061000FFF7A8FF014B1B68236010BDDC00002022
:100620000148102101F00DB90008014001481021D6
:1006300001F009B90008014008B50348402101F064
:10064000FAF80028F9D108BD0008014007B50923D0
:100650008DF804300F238DF805308DF8063001A891
:1006600001238DF8073000F0D1FE0EBD07B5092338
:100670008DF8043001A800238DF8073000F0C6FE85
:100680000EBD0000044B99811A89D207FCD5024B9C
:100690009889C0B2704700BF0030014038B50446A9
:1006A0000D46FFF7C3FFFFF7C7FF29462046FFF7B8
:1006B000E9FF2071FFF7B4FF237903F07003237182
:1006C00038BD3421FFF7EABF70B504460E46154623
:1006D000FFF7ACFFFFF7B0FF31462046FFF7D2FF30
:1006E00020462946FFF7CEFFBDE87040FFF798BFD0
:1006F00010B50B2104460A22FFF7E6FF20460C2125
:100700000022FFF7E1FF20460D215A22FFF7DCFF10
:1007100020460E210022FFF7D7FF20460F2100229E
:10072000FFF7D2FF204610212D22FFF7CDFF2046F4
:1007300011212F22FFF7C8FF204612217322FFF755
:10074000C3FF20461321A222FFF7BEFF204614213B
:10075000E522FFF7B9FF204600221521FFF7B4FF7D
:1007600021212046B622FFF7AFFF2046222110228A
:10077000FFF7AAFF182120460A46FFF7A5FF2046EB
:1007800019211D22FFF7A0FF20461A211C22FFF786
:100790009BFF20461B21C722FFF796FF20461C2106
:1007A0000022FFF791FF20461D21B022FFF78CFFAA
:1007B00020462321EA22FFF787FF204624210A2230
:1007C000FFF782FF204625210022FFF77DFF20460C
:1007D00026211122FFF778FF204629215922FFF711
:1007E00073FF20462C218822FFF76EFF20462D2123
:1007F0003122FFF769FF20462E210B22FFF764FF0D
:10080000204603210722FFF75FFF204600210E222A
:10081000FFF75AFF204602210622FFF755FF204628
:1008200007210C22FFF750FF204608214422FFF742
:100830004BFF204606210222FFF746FF20463E21BD
:10084000FE22FFF741FF204616210722FFF73CFF5B
:10085000204617210022BDE81040FFF735BF0000F9
:10086000F0B5012189B004463A4D41F2050001F08E
:1008700065F82046FFF7FAFE03271023284607A94C
:100880008DF81E70ADF81C308DF81F3000F07EFF23
:10089000A023ADF81C302846182307A98DF81F3077
:1008A00000F074FF4023ADF81C302846042307A94C
:1008B00008268DF81F3000F069FF2823284607A975
:1008C0008DF81F30ADF81C6000F060FFFFF7A8FE48
:1008D0003946002000F0BAFF00270C2305F520550B
:1008E000059605A801268DF819308DF818708DF839
:1008F0001A6000F0FBFE284601F050F84FF48273B6
:10090000ADF8023028464FF400736946ADF80A305E
:10091000ADF80070ADF80470ADF80670ADF8087071
:10092000ADF80E70ADF80C7001F06AF8284631464B
:1009300001F085F820463021FFF7B0FE20463A212D
:10094000FFF7ACFE2046FFF7D3FE0348FFF77EFE1D
:1009500009B0F0BD00080140C800002038B50446C9
:100960000D4602E03621FFF799FE23792046002B41
:10097000F8D10A212A46BDE83840FFF7A5BE38B5B0
:1009800004460D46FFF752FEFFF756FE45F0800184
:100990002046FFF777FE00212046FFF773FE04464E
:1009A000FFF73EFE204638BDF8B57B210546FFF730
:1009B000E6FF10F07F0019D0042834BF0646042655
:1009C000FFF734FEFFF738FE2846FF21FFF75AFEF7
:1009D000AF1D002400212846FFF754FE385501348E
:1009E000E3B2B342F6D3FFF71BFE0120F8BD10B50A
:1009F0000446FFF71BFEFFF71FFE7F212046FFF78F
:100A000041FEA17A2046FFF73DFEE17A2046FFF73E
:100A100039FEBDE81040FFF703BE000008B508200E
:100A200000F0A0FE38B1082000F0AAFE0248BDE8A0
:100A3000084000F029BC08BDC800002030B585B0D2
:100A400001241C23002503A88DF80C308DF80D40DF
:100A50008DF80E508DF80F4000F0D8FC204621464E
:100A600000F078FF6422ADF80420124A4FF0804075
:100A70001168114AADF80250B1FBF2F2013A694631
:100A8000ADF80020ADF806508DF8085000F0E4FFF6
:100A900021464FF0804001F0E3F821464FF08040BE
:100AA00001F016F94FF080402146224601F0E4F8AB
:100AB00005B030BD60000020A08601000368086812
:100AC000181A904202D30B60012070470020704733
:100AD000054B1A6840F63C73B2FBF3F3594300E050
:100AE00001390029FCD170476000002008B54FF0A3
:100AF0008040012101F0F0F8024B1A6801321A60BF
:100B000008BD00BFDC00002010B5012186B04FF405
:100B1000804000F013FF0520012100F00FFF182393
:100B20008DF817304FF40073ADF8143005A9032386
:100B30000F488DF816300F4C00F028FE4FF4FA33B2
:100B400001930023ADF80830ADF80A30ADF80C3051
:100B5000ADF810302046082301A9ADF80E3001F0A1
:100B6000BFF82046012101F013F906B010BD00BF07
:100B70000008014000380140014608B5044801F072
:100B800013F90348402101F013F90028F9D008BDFA
:100B900000380140092802D83030C0B270473730E1
:100BA000C0B2704710F07F4310B504460BD0000F61
:100BB000FFF7F0FFFFF7E0FFC4F30360FFF7EAFF82
:100BC000FFF7DAFF012314F47F0F00D163B1C4F300
:100BD0000350FFF7DFFFFFF7CFFFC4F30340FFF73A
:100BE000D9FFFFF7C9FF012314F47F4F00D15BB198
:100BF000C4F30330FFF7CEFFFFF7BEFFC4F30320BB
:100C0000FFF7C8FFFFF7B8FFC4F30310FFF7C2FFF9
:100C1000FFF7B2FF04F00F00FFF7BCFFBDE8104084
:100C2000FFF7AABF70B5134D8AB001AC06460FCDD1
:100C30000FC40FCD0FC42B682360002423460DE0A2
:100C40000130C0B2B61A9642FAD2302800D113B1A0
:100C5000FFF792FF01230434242C03D001AAA258E9
:100C60003020F0E73036F0B20AB0BDE87040FFF750
:100C700083BF00BF581E0008002810B5044604DAE0
:100C80002D20FFF779FF644202E02020FFF774FF78
:100C90002046BDE81040FFF7C5BF10B5044601E08F
:100CA000FFF76AFF14F8010B0028F9D110BD70B5E9
:100CB00004460E46002506E0605DFFF773FF202026
:100CC000FFF75AFF0135B542F6D170BD0FB437B505
:100CD00006AB53F8045B019305E0252805D1002CF1
:100CE00048D0FFF749FF002445E0002C3FD063289F
:100CF00004D1019B1A1D01921878F2E7752806D1DC
:100D0000019B1A1D18680192FFF78CFFEBE7692819
:100D100006D1019B1A1D18680192FFF7ADFFE2E7AB
:100D2000582806D1019B1A1D18680192FFF73AFF57
:100D3000D9E7A0F173035C4244EB0304532808BFD6
:100D400044F0010434B1019B1A1D01921868FFF7A9
:100D5000A4FFC8E748280ED1019B1A1D01921A462C
:100D600052F8080B59680192FFF7A1FF03E0FFF763
:100D700003FF00E0012415F8010B0028ADD1BDE808
:100D80003E4004B0704700000E4B10B54FF4805247
:100D900004204FF480645A6158615C6108201A6134
:100DA0005A6111F0800F14BF1C615C610138490069
:100DB000C0B21A61C9B25A610028F2D1014B0422B3
:100DC0001A6110BD000C01400E4B10B54FF480525B
:100DD00004204FF480645A6158611C6108201A6134
:100DE0005A6111F0800F14BF1C615C610138490029
:100DF000C0B21A61C9B25A610028F2D1014B042273
:100E00001A6110BD000C014038B5074C2588415DC2
:100E10000135ADB22580FFF7D7FFB5F5587F01D179
:100E20000023238038BD00BFE000002000231A46C5
:100E3000C2540133B3F5587FFAD17047F7B5044671
:100E40002C4D0820012100F079FD032310262846AF
:100E50008DF8063001A941F60443ADF804308DF851
:100E6000076000F093FC4FF480536B614FF4006710
:100E700004232B6136216F611F48FFF729FE2F6184
:100E80002046FFF7D3FF2046A421FFF77DFF204631
:100E90002F21FFF779FF20464021FFF775FF2046FD
:100EA000B021FFF771FF20463146FFF76DFF204666
:100EB0000021FFF769FF2046AF21FFF765FF2046BD
:100EC0004021FFF761FF2046B021FFF75DFF20467C
:100ED0003146FFF759FF20460021FFF755FF4FF439
:100EE0005875013D20460021ADB2FFF76DFF002D82
:100EF000F7D1FEBD000C0140DC000020530103EBE4
:100F000082128918A0F8601370472DE9F04793F812
:100F100000A093F8019004460D4698461646022715
:100F200091448A4416E0204629463246FFF7E6FF00
:100F30002B460BE0B4F8602318F807100133A154D6
:100F400001370132A4F86023BFB2DBB25345F1DBB5
:100F50000136F6B24E45E6DBBDE8F0872DE9F047F5
:100F6000CD0001245B4F05EB81054FF055090026AC
:100F7000A446630103EB8413EB189BB203F1010851
:100F80001FFA88F800F8039000F8086003F10208DF
:100F90001FFA88F800F8086003F103081FFA88F8C0
:100FA00000F808C003F104081FFA88F800F8086088
:100FB00003F105081FFA88F800F8086003F1060835
:100FC0001FFA88F800F808C0072908BF97F81580AD
:100FD00003F1070A18BF4FF000081FFA8AFA00F859
:100FE0000A80072908BF97F8168003F1080A18BF7E
:100FF0004FF000081FFA8AFA00F80A80072908BF94
:1010000097F8178003F1090A0CBF48F001084FF068
:1010100001081FFA8AFA00F80A80013403F10A086D
:101020001FFA88F80B33A4B200F808609BB20729B6
:101030000CBF4FF055084FF00008033F092C00F893
:10104000038096D105F5407305F543740121C15421
:1010500001339BB2A342FAD1002A38D005F5287398
:10106000C3188021F02459709C705C729972531DD2
:10107000DB08C2EBC3020232C3F10707D2B2FF237F
:101080004FF0FC0C0CFA02FC13FA02F2FFB25FFA0A
:101090008CFCD6B207211C4617E04FEA411202EB46
:1010A000811208BF64462A44024408BF334644F014
:1010B000010882F80380013943F00108137153716C
:1010C00082F80680D3711472C9B2B942E5D2BDE884
:1010D000F08700BF7C1E00080C4B93F82830012BD2
:1010E00007D00BD3022B0FD1094850210022094B06
:1010F00008E0074850210022074B03E00448074B53
:1011000050210022FFF701BF704700BF8000002080
:10111000E4000020EA1E0008DA1E00089A1E0008FB
:1011200070B53D210446FFF7B9FA2579102D29D075
:1011300001D88DB170BD602D02D0702D31D105E088
:101140001848FFF7C3FD20463A2126E01648FFF76E
:10115000BDFD20463B2120E0144E33782BB92046BC
:10116000FFF745FC2046352117E0114821460222B1
:10117000FFF7A4FC08B1357070BD2046BDE8704093
:10118000FFF79FBA0A4821460222FFF797FC40B1B9
:10119000064B00221A7020463621BDE87040FFF74A
:1011A0007DBA70BDAA1E0008B21E00084C040020C3
:1011B000DC0000202DE9F84F012680460446074652
:1011C0000025B34694F820905FFA85FAB9F1000F34
:1011D0000FD0002384F8203097F83020164851466D
:1011E000FFF7BCFE15481649FFF784F984F828B0CC
:1011F0000EE008EB8501134840F2E732FFF75EFC92
:1012000030B10D4851464A46FFF7A8FE84F82890B1
:1012100094F828300135002B18BF0026013404371C
:10122000072DCFD12EB105480749BDE8F84FFFF78C
:1012300061B9BDE8F88F00BFE4000020B4000020D1
:1012400026000020DC0000200000002010B543181C
:10125000012483F820400B4B7F2A1B68C8BFA2F5EE
:10126000807240F82130022392FBF3F2153203D44E
:10127000322AA8BF322200E001220C3140F821209E
:1012800010BD00BFDC000020184B10B51B780446D1
:10129000ABB9174A11780131C9B20129117024D1B3
:1012A0001370827A0132D2B2072A827208BF837227
:1012B0000E4B01221A700F4B1B68036010BDFFF725
:1012C00073FB90B1A379CF2B09D1E179227A0A4837
:1012D000FFF7FCFCE179227A0848FFF7B7FF2046C8
:1012E0003A21BDE81040FFF7D9B910BD4C040020E9
:1012F000A0040020DC000020BB1E000850040020D9
:1013000070B50024054626462146013400220548D2
:10131000E4B2FFF723FE85F820600135082CF3D1F5
:1013200070BD00BFE400002010B51F4C2046FFF741
:1013300085FB20461D4C3F21FFF7CAFBFFF7E4FB6E
:101340002046FFF751F864212046194CFFF780F83A
:101350001848FFF773FD2046FEF788FF022384F844
:101360002830FFF7B9FE144BE362144C2046FFF718
:1013700077FA20460021FFF7F1FACF220921204613
:10138000FFF7A2F9CF23E3720D4C2046FFF77CF85C
:1013900020460C49FFF7AEF80B48FFF7B1FF0B48AA
:1013A000BDE81040FFF792BCDC000020B000002038
:1013B00080000020E4000020D9100008C8000020B0
:1013C000B40000200000002050040020CF1E0008C0
:1013D00008B5FFF7A9FF0848FFF716FD0748FFF714
:1013E0009FFE0748FFF7D4F80648FFF7E3FE0648DC
:1013F000FEF7BEFFEFE700BFE4000020C8000020BA
:10140000B40000205004002080000020C37810B5F4
:10141000E3B1144B4178DB688478DB43C3F30223E8
:10142000C3F1040291400F22DA4022400A430E4BDE
:1014300001781201CB18D2B283F80023037801227D
:10144000590903F01F0312FA03F307E0037801229E
:10145000590903F01F0312FA03F32031024A42F83C
:10146000213010BD00ED00E000E100E043680A68B3
:1014700023F4702323F4807313430A7910B543EAED
:10148000022343608A68CB6884681A43084B234070
:1014900013434A7943EA420383600B7CC26A013BEF
:1014A00022F47002DBB242EA0353C36210BD00BFF4
:1014B000FDF7F1FF836811B143F0010301E023F070
:1014C000010383607047836811B143F4807301E0C6
:1014D00023F4807383607047836843F0080383605C
:1014E00070478068C0F3C0007047836843F004030E
:1014F000836070478068C0F380007047836811B1D3
:1015000043F4A00301E023F4A0038360704709299A
:1015100070B54FF003040BD94C4307251E3CA54082
:10152000A340C66826EA050545EA0304C4600AE04C
:101530004C430725A54013FA04F4066926EA05057D
:1015400045EA04030361062A4FF005030BD8013A6C
:1015500053431F229A4011FA03F3446B24EA020218
:101560001343436370BD0C2A0BD853431F22233B04
:101570009A409940046B24EA020242EA01030363A1
:1015800070BD53431F22413B9A409940C46A24EAEC
:10159000020242EA0103C36270BD000002684FF616
:1015A000FE73134003600023036043608360C360E5
:1015B0002D4B984229D02D4B984230D02C4B98423D
:1015C00037D02C4B98423ED02B4B984206D153F843
:1015D000542C42F4702243F8542C7047274B984205
:1015E00006D153F8682C42F4700243F8682C704717
:1015F000234B984206D153F87C2C42F0706243F89A
:101600007C2C70471F4B984206D153F8042C42F0B3
:101610000F0243F8042C70471B4B984206D153F835
:10162000182C42F0F00243F8182C7047174B9842E0
:1016300006D153F82C2C42F4706243F82C2C7047DE
:10164000134B984206D153F8402C42F4704243F8B1
:10165000402C70470F4B984202BF53F8542C42F471
:10166000702243F8542C7047080002401C000240CE
:101670003000024044000240580002406C0002402A
:1016800080000240080402401C0402403004024072
:1016900044040240580402408B6810B50C6A02688A
:1016A00023430C6922F4FE4223434C6922F0F002EA
:1016B00023438C692343CC6923434C6A23438C6ABC
:1016C000234313430360CB6843600B6883604B681C
:1016D000C36010BD19B1036843F0010303E0026861
:1016E0004FF6FE731340036070470000837910B516
:1016F000002B29D01A4B01681C68CA4314401C6097
:101700005C6822405A60027902F1804202F582321E
:1017100014682143116002689C68D1430C409C60AE
:10172000DC682140D9604179102906D199681143BC
:101730009960D9680A43DA6010BD01F1804303F56E
:10174000823319680A4308E00379016803F1804392
:1017500003F582331A6822EA01021A6010BD00BF45
:1017600000040140054B1A685B69034004D0104235
:101770000CBF00200120704718467047000401404C
:10178000014B5861704700BF00040140CB782DE940
:10179000F04303F00F02DB0648BF8B780E8848BF8A
:1017A0001A4316F0FF0F1FD0046800234FF0010802
:1017B0004FF00F0C08FA03F707EA0605BD420FD1F8
:1017C0009F000CFA07F912FA07F724EA09043C43D0
:1017D000CF78282F08BF456102D0482F08BF056188
:1017E0000133082BE6D104600E88FF2E21D944680E
:1017F00000234FF001084FF00F0C03F1080708FA1F
:1018000007F707EA0605BD420FD19F000CFA07F95A
:1018100012FA07F724EA09043C43CF78282F08BFBF
:10182000456102D0482F08BF05610133082BE4D180
:101830004460BDE8F083836819420CBF002001209A
:1018400070470161704741617047000001F0030279
:1018500030B592000F24944010FA02F2074B890829
:10186000023153F8215025EA040443F8214053F88B
:101870002140224343F8212030BD00BF0000014039
:10188000034B5A6822F4404210435860704700BF2F
:101890000010024010B51E4B5A6802F00C02042AD8
:1018A00001D0082A02D01B4B036011E05A68596826
:1018B000C2F383420232C90358BF174B06D5DB6A15
:1018C000144903F00F030133B1FBF3F35A430260F1
:1018D0000F4B12495A680468C2F303128A5C34FA47
:1018E00002F242605C68C4F302240C5D32FA04F434
:1018F00084605C68C4F3C224095DCA40C2605B684E
:101900000749C3F38133CB5CB2FBF3F2026110BD34
:101910000010024000127A0000093D005000002033
:101920004C000020044B5A6909B1104301E022EA3F
:1019300000005861704700BF00100240044B9A69D4
:1019400009B1104301E022EA00009861704700BF2E
:1019500000100240044BDA6909B1104301E022EAA9
:101960000000D861704700BF00100240044BDA68E5
:1019700009B1104301E022EA0000D860704700BFBF
:1019800000100240044B1A6909B1104301E022EA39
:1019900000001861704700BF0010024008B5154BE9
:1019A00098420BD101214FF48050FFF7DFFF4FF435
:1019B00080500021BDE80840FFF7D8BF0E4B984289
:1019C00007D14FF480400121FFF7DCFF4FF4804046
:1019D00009E00A4B98420BD14FF400400121FFF778
:1019E000D1FF4FF400400021BDE80840FFF7CABF17
:1019F00008BD00BF0030014000380040003C0040FE
:101A00000B8810B54C88028823438C8802F441521D
:101A10002343CC8823430C8923434C8923438C895B
:101A20002343CC89234313439BB20380838B23F44A
:101A300000631B041B0C83830B8A038210BD038885
:101A400019B19BB243F0400303E023F040031B04B1
:101A50001B0C0380704700002B4A30B5C2EB000C12
:101A6000DCF10002294C038842EB0C02A04208BFC3
:101A700042F001029BB2C2B9A0F180456C4244EB36
:101A80000504234DA84208BF44F001046CB9214C61
:101A900005F50065C4EB000CDCF1000444EB0C041C
:101AA000A84208BF44F001041CB14C8823F0700325
:101AB0002343194C194D041B18BF0124A8420CBF25
:101AC000002404F0010424B123F44073CC889BB2B9
:101AD000234303808B8883850B8803857AB9104B59
:101AE000104AC3EB000CDCF1000343EB0C03904203
:101AF00008BF43F0010313B90B4B984201D10B7A95
:101B000003860123838230BD002C01400034014054
:101B10000004004000080040001000400014004095
:101B2000004001400044014000480140038C70B572
:101B300023F001031B041B0C0384038C8488028B99
:101B40000D8822F073021204120C4E882A430D896C
:101B500023F002031B0435431B0CADB22B43194D7C
:101B6000A4B2461B754245EB0605174EB04208BFAE
:101B700045F0010585B9154D06F58056C5EB000CFD
:101B8000DCF1000545EB0C05B04208BF45F001054E
:101B900015B90F4DA8420ED14D8923F008032B43F0
:101BA0008D8823F004032B43CE898D8924F440745F
:101BB0003543ADB22C4384800283CA888286038475
:101BC00070BD00BF002C01400034014000400140C6
:101BD00000480140038C70B523F480731B041B0C78
:101BE0000384038C8288848B0D8824F0730424047E
:101BF000240C23F400731B042C430D891B0C43EAB3
:101C000005234D8892B243EA0523134D9BB2461B30
:101C1000754245EB0605114EB04208BF45F001057F
:101C2000A5B14D8923F4006343EA05234FF6FF3540
:101C30001D408B8822F4405245EA03238D899BB2D4
:101C400042EA0512CD8942EA051292B28280CA8820
:101C500084838287038470BD002C014000340140DE
:101C6000038819B19BB243F0010303E023F00103A1
:101C70001B041B0C0380704783899BB20AB1194374
:101C800001E023EA0101818170470185828270476A
:101C9000038819B19BB243F0800303E023F0800373
:101CA0001B041B0C03807047038B23F008031B04E9
:101CB0001B0C0B4303837047838B23F008031B0427
:101CC0001B0C0B4383837047818670478187704765
:101CD000C94389B201827047C94389B20182704702
:101CE00030B5038ACA8823F440531B041B0C1343EA
:101CF00003820D4683890989AA8823F4B0530A43D5
:101D0000698923F00C030A431B041B0C92B2134392
:101D10008381838AAA8923F440731B041B0C87B038
:101D200013430446838201A8FFF7B4FD174BA28931
:101D30009C420CBF049B039B12B2002A4FF0190176
:101D40002A6801FB03F101DA520000E092006423EB
:101D5000B1FBF2F1B1FBF3F21201100903FB101118
:101D6000A08900B2002806DAC9003231B1FBF3F3D2
:101D700003F0070305E009013231B1FBF3F303F08F
:101D80000F031A4392B2228107B030BD00380140E0
:101D9000838919B19BB243F4005303E023F4005349
:101DA0001B041B0C83817047C905C90D81807047D6
:101DB000038819420CBF002001207047002103E076
:101DC0000B4B5B58435004310A480B4B42189A4264
:101DD000F6D30A4A02E0002342F8043B084B9A4239
:101DE000F9D300F011F8FEF71DFAFFF7F1FA70478A
:101DF0001C1F000800000020640000206400002078
:101E0000A4040020FEE70000104B1A6842F0010213
:101E10001A6059680E4A0A405A601A6822F08472A1
:101E200022F480321A601A6822F480221A605A68FA
:101E300022F4FE025A604FF41F029A600022DA6216
:101E4000044B4FF000629A60704700BF00100240E0
:101E50000000FFF800ED00E000CA9A3B00E1F50544
:101E60008096980040420F00A086010010270000D5
:101E7000E8030000640000000A0000007C447C4885
:101E80007C4074545C44547C1C107C5C54747C50C6
:101E90007004047C7C547C1C147C0E01387C82828F
:101EA0008282828282828282827C5258206F76660F
:101EB0000D00545820756E64660D0046726F6D3AC1
:101EC0002025753B20525353493A2025750D000DAE
:101ED0004465746563746F720D000E01387C8282F4
:101EE0008282A2B2BABABABA827C0E01387C82BAB5
:101EF000BABABABABABABABA827C0000F8B500BFA8
:101F0000F8BC08BC9E467047F8B500BFF8BC08BCDA
:041F10009E46704732
:041F1400F5010008CB
:041F1800D1010008EB
:101F1C00020070030900640000000000DF050000EF
:101F2C0000000000000000000000000000000000A5
:101F3C0000000000000006000807070096000000E3
:101F4C000000230008071200AA0000000000230074
:101F5C0008070700720000000000F40102040608E4
:101F6C000000000001020304010203040607080933
:041F7C0000127A00D5
:0400000508001DBD15
:00000001FF
