:020000040800F2
:1000000000100020C9170008111800081118000876
:10001000111800081118000811180008000000004D
:10002000000000000000000000000000111800089F
:10003000111800080000000011180008111800082D
:1000400011180008111800081118000811180008EC
:1000500011180008111800081118000811180008DC
:1000600011180008310700081118000811180008BD
:1000700011180008111800081118000811180008BC
:1000800011180008111800081118000800000000DD
:10009000000000000000000000000000111800082F
:1000A000111800081118000811180008111800088C
:1000B00001080008111800080000000011180008CD
:1000C00011180008000000000000000011180008CE
:1000D00000000000111800081118000800000000BE
:1000E000111800081118000811180008000000007D
:1000F0000000000000000000000000000000000000
:1001000000000000000000000000000000000000EF
:10011000000000000000000011180008111800087D
:1001200000000000000000000000000000000000CF
:1001300000000000000000000000000000000000BF
:1001400000000000000000000000000000000000AF
:10015000000000000000000000000000000000009F
:10016000000000000000000000000000000000008F
:10017000000000000000000000000000000000007F
:10018000000000000000000000000000000000006F
:10019000000000000000000000000000000000005F
:1001A000000000000000000000000000000000004F
:1001B000000000000000000000000000000000003F
:1001C0000000000000000000000000005FF808F1DF
:1001D00010B5054C237833B9044B13B10448AFF381
:1001E00000800123237010BD640000200000000087
:1001F000241F000808B5064B1BB106480649AFF39B
:1002000000800648036813B1054B03B1984708BD49
:1002100000000000241F0008680000206400002087
:100220000000000070B50D4D0D4E761BB61006D0C7
:10023000002455F8043B01349847A642F9D1094DF2
:1002400001F070FE084E761BB61006D0002455F85B
:10025000043B01349847A642F9D170BD3C1F000809
:100260003C1F00083C1F0008401F000870B5092013
:1002700088B0174D012101F06BF80220012101F037
:1002800073F80024FF23284605A9ADF8183001268D
:10029000ADF81440ADF81A40ADF8164001F0E6F89C
:1002A0006023284601A9ADF80430ADF80660ADF82A
:1002B0000A40ADF80C4001F097F92846082101F0FA
:1002C00002FA2846314601F0EAF908B070BD00BFD5
:1002D0000004004037B50B4D0124284601F0FBF91E
:1002E00003238DF8063001A918230748ADF8044010
:1002F0008DF8073000F070FF2846214601F0BAF96A
:100300003EBD00BF00040040000C014070B5002459
:1003100088B004610121092001F01AF8154D04206C
:10032000012101F021F8C823ADF818302846322306
:1003300005A9ADF814300126ADF81A40ADF8164005
:1003400001F094F86023284601A9ADF80430ADF817
:100350000660ADF80A40ADF80C4001F0F1F828460F
:10036000082101F0A8F92846314601F098F908B0B3
:1003700070BD00BF00080040C3688B4218BF016118
:10038000704700000148102100F07BBF00080140C9
:100390000148102100F077BF0008014007B509238C
:1003A0008DF8043001A800238DF8073000F094FE8A
:1003B0000EBD0000044B99811A89D207FCD5024B6F
:1003C0009889C0B2704700BF0030014038B504467C
:1003D0000D46FFF7DDFF29462046FFF7EBFF2071B2
:1003E000FFF7D0FF237903F07003237138BD70B598
:1003F00004460E461546FFF7CBFF31462046FFF771
:10040000D9FF20462946FFF7D5FFBDE87040FFF72A
:10041000B9BF10B50B2104460622FFF7E8FF2046BE
:100420000C210022FFF7E3FF20460D215822FFF7A1
:10043000DEFF20460E21E322FFF7D9FF20460F21E1
:100440008E22FFF7D4FF204610218822FFF7CFFF2E
:10045000204611218422FFF7CAFF204612211322D1
:10046000FFF7C5FF20461321A222FFF7C0FF204659
:100470001421E522FFF7BBFF204600220A21FFF7E7
:10048000B6FF152120465322FFF7B1FF2046212158
:100490005622FFF7ACFF204622211022FFF7A7FFCC
:1004A000182120460A46FFF7A2FF204619211622EE
:1004B000FFF79DFF20461A216C22FFF798FF204688
:1004C0001B214322FFF793FF20461C214022FFF708
:1004D0008EFF20461D219122FFF789FF2046232110
:1004E000A922FFF784FF204624210A22FFF77FFF7D
:1004F000204625210022FFF77AFF204626211122DF
:10050000FFF775FF204629215922FFF770FF20468B
:100510002C218822FFF76BFF20462D213122FFF787
:1005200066FF20462E210B22FFF761FF20460321A4
:100530000722FFF75CFF204600210E22FFF757FF3E
:10054000204602210622FFF752FF204607210E22F5
:10055000FFF74DFF204608214422FFF748FF062100
:1005600020460A46FFF743FF20463E21FF22FFF7C1
:100570003EFF204616210722FFF739FF20461721AC
:100580000022BDE81040FFF732BF38B504460D46E3
:1005900002E03621FFF71AFF23792046002BF8D11D
:1005A0000A212A46BDE83840FFF721BF2DE9F04176
:1005B000012188B004463F4D41F2050000F0C8FE1D
:1005C0002046FFF7EBFE4FF003081023284607A94B
:1005D0008DF81E80ADF81C308DF81F3000F0FCFD4A
:1005E000A023ADF81C302846182307A98DF81F302A
:1005F000042600F0F1FD4023284607A90827ADF89E
:100600001C308DF81F6000F0E7FD2823284607A95D
:100610008DF81F30ADF81C7000F0DEFDFFF7B2FE64
:100620004146002000F032FE4FF000080C2305F593
:100630002055059705A801278DF819308DF81880E9
:100640008DF81A7000F078FD284600F0B1FE4FF4E6
:100650008273ADF8023028464FF400736946ADF856
:100660000A30ADF80080ADF80480ADF80680ADF832
:100670000880ADF80E80ADF80C8000F0CBFE284667
:10068000394600F0E6FE20463021FFF79FFE3A2172
:100690002046FFF79BFE2046FFF7BBFE2046962133
:1006A000FFF773FF204609213246FFF7A0FE08B08E
:1006B000BDE8F0810008014038B504460D46FFF75B
:1006C00067FE45F080012046FFF774FE00212046BA
:1006D000FFF770FE0446FFF755FE204638BDF8B51B
:1006E00004460D461746FFF753FE2046FF21FFF74D
:1006F00061FE002605E020460021FFF75BFEA855BD
:100700000136F3B2BB42F6D3BDE8F840FFF73ABE7C
:1007100010B57B210446FFF7CFFF10F07F0205D014
:10072000A11D2046FFF7DBFF0123637110BD000010
:1007300008B5082000F03CFD38B1082000F046FD67
:100740000248BDE80840FFF7E3BF08BD980000205D
:1007500030B585B001241C23002503A88DF80C308A
:100760008DF80D408DF80E508DF80F4000F0B4FC60
:100770002046214600F0F8FD6422ADF80420124A1C
:100780004FF080401168114AADF80250B1FBF2F20F
:10079000013A6946ADF80020ADF806508DF80850D2
:1007A00000F064FE21464FF0804000F063FF2146D8
:1007B0004FF0804000F091FF4FF0804021462246EC
:1007C00000F064FF05B030BD60000020A08601008D
:1007D00003680868181A904202D30B600120704722
:1007E00000207047054B1A6840F63C73B2FBF3F3E8
:1007F000594300E001390029FCD170476000002016
:1008000008B54FF08040012100F06BFF024B1A68E1
:1008100001321A6008BD00BFB400002010B50121EC
:1008200086B04FF4804000F093FD0520012100F0D8
:100830008FFD18238DF817304FF40073ADF8143086
:1008400005A903230F488DF816300F4C00F0C4FCA7
:100850004FF4FA3301930023ADF80830ADF80A30B5
:10086000ADF80C30ADF810302046082301A9ADF8E2
:100870000E3000F03BFF2046012100F08FFF06B054
:1008800010BD00BF0008014000380140014608B516
:10089000044800F08FFF0348402100F08FFF00283C
:1008A000F9D008BD00380140092802D83030C0B264
:1008B00070473730C0B2704710F07F4310B5044620
:1008C0000BD0000FFFF7F0FFFFF7E0FFC4F303606A
:1008D000FFF7EAFFFFF7DAFF012314F47F0F00D1DF
:1008E00063B1C4F30350FFF7DFFFFFF7CFFFC4F39B
:1008F0000340FFF7D9FFFFF7C9FF012314F47F4F2F
:1009000000D15BB1C4F30330FFF7CEFFFFF7BEFFAA
:10091000C4F30320FFF7C8FFFFF7B8FFC4F30310C9
:10092000FFF7C2FFFFF7B2FF04F00F00FFF7BCFFB5
:10093000BDE81040FFF7AABF70B5134D8AB001ACF7
:1009400006460FCD0FC40FCD0FC42B6823600024C3
:1009500023460DE00130C0B2B61A9642FAD23028D2
:1009600000D113B1FFF792FF01230434242C03D0EC
:1009700001AAA2583020F0E73036F0B20AB0BDE844
:100980007040FFF783BF00BF64180008002810B54F
:10099000044604DA2D20FFF779FF644202E02020AC
:1009A000FFF774FF2046BDE81040FFF7C5BF10B544
:1009B000044601E0FFF76AFF14F8010B0028F9D1A3
:1009C00010BD70B504460E46002506E0605DFFF7D9
:1009D00073FF2020FFF75AFF0135B542F6D170BDF5
:1009E0000FB437B506AB53F8045B019305E0252837
:1009F00005D1002C48D0FFF749FF002445E0002C2A
:100A00003FD0632804D1019B1A1D01921878F2E7A8
:100A1000752806D1019B1A1D18680192FFF78CFFFB
:100A2000EBE7692806D1019B1A1D18680192FFF7B0
:100A3000ADFFE2E7582806D1019B1A1D1868019204
:100A4000FFF73AFFD9E7A0F173035C4244EB0304DC
:100A5000532808BF44F0010434B1019B1A1D0192D0
:100A60001868FFF7A4FFC8E748280ED1019B1A1D9C
:100A700001921A4652F8080B59680192FFF7A1FF3C
:100A800003E0FFF703FF00E0012415F8010B002845
:100A9000ADD1BDE83E4004B0704700000E4B10B52C
:100AA0004FF4805204204FF480645A6158615C61B5
:100AB00008201A615A6111F0800F14BF1C615C613B
:100AC00001384900C0B21A61C9B25A610028F2D196
:100AD000014B04221A6110BD000C01400E4B10B5F1
:100AE0004FF4805204204FF480645A6158611C61B5
:100AF00008201A615A6111F0800F14BF1C615C61FB
:100B000001384900C0B21A61C9B25A610028F2D155
:100B1000014B04221A6110BD000C014038B5074C8E
:100B20002588415D0135ADB22580FFF7D7FFB5F5CA
:100B3000587F01D10023238038BD00BFB8000020BA
:100B400000231A46C2540133B3F5587FFAD17047D7
:100B5000F7B504462C4D0820012100F0F9FB0323D2
:100B6000102628468DF8063001A941F60443ADF859
:100B700004308DF8076000F02FFB4FF480536B6159
:100B80004FF4006704232B6136216F611F48FFF784
:100B900029FE2F612046FFF7D3FF2046A421FFF74F
:100BA0007DFF20462F21FFF779FF20464021FFF7E8
:100BB00075FF2046B021FFF771FF20463146FFF751
:100BC0006DFF20460021FFF769FF2046AF21FFF7A8
:100BD00065FF20464021FFF761FF2046B021FFF767
:100BE0005DFF20463146FFF759FF20460021FFF701
:100BF00055FF4FF45875013D20460021ADB2FFF777
:100C00006DFF002DF7D1FEBD000C0140B4000020A7
:100C10008B0003EB410101EB821101EB4212A0F8C2
:100C200060237047530103EB82128918A0F8601308
:100C30007047000070B50D4D0626B0F8603306FB16
:100C40000151002440F25F36012A0D5D01D1ED43D0
:100C5000EDB2C55401339BB20134B34288BF0023C7
:100C6000062CF1D1A0F8603370BD00BFCA1800088F
:100C7000F0B5154D8BB001AC07460E460FCD0FC435
:100C80000FCD0FC42B682360002423460FE00131F1
:100C9000C9B2B61A9642FAD2302900D123B13846E9
:100CA0000022FFF7C7FF01230434242C03D001AA3C
:100CB000A2583021EEE73036F1B2384600220BB0B0
:100CC000BDE8F040FFF7B6BF88180008002938B526
:100CD00005460C4604DA2D210022FFF7ABFF6442E3
:100CE00028462146BDE83840FFF7C2BF08B477B5B3
:100CF00007AC54F8046B0546FFF78AFF01942AE01D
:100D0000252901D12CB306E0F4B1632908D1019B58
:100D10001A1D1978019228460022FFF78BFF1AE06E
:100D2000752907D1019B28461A1D19680192FFF702
:100D30009FFF10E069290ED1019B28461A1D1968F2
:100D40000192FFF7C3FF06E028462246FFF772FF35
:100D500002E0012400E0002416F8011B0029CFD195
:100D6000BDE87E4001B070472DE9F04793F800A040
:100D700093F8019004460D46984616460227914482
:100D80008A4416E0204629463246FFF74BFF2B46A1
:100D90000BE0B4F8602318F807100133A1540137B1
:100DA0000132A4F86023BFB2DBB25345F1DB013658
:100DB000F6B24E45E6DBBDE8F08700002DE9F047CE
:100DC000CD0001245B4F05EB81054FF0550900264E
:100DD000A446630103EB8413EB189BB203F10108F3
:100DE0001FFA88F800F8039000F8086003F1020881
:100DF0001FFA88F800F8086003F103081FFA88F862
:100E000000F808C003F104081FFA88F800F8086029
:100E100003F105081FFA88F800F8086003F10608D6
:100E20001FFA88F800F808C0072908BF97F815804E
:100E300003F1070A18BF4FF000081FFA8AFA00F8FA
:100E40000A80072908BF97F8168003F1080A18BF1F
:100E50004FF000081FFA8AFA00F80A80072908BF35
:100E600097F8178003F1090A0CBF48F001084FF00A
:100E700001081FFA8AFA00F80A80013403F10A080F
:100E80001FFA88F80B33A4B200F808609BB2072958
:100E90000CBF4FF055084FF00008033F092C00F835
:100EA000038096D105F5407305F543740121C154C3
:100EB00001339BB2A342FAD1002A38D005F528733A
:100EC000C3188021F02459709C705C729972531D74
:100ED000DB08C2EBC3020232C3F10707D2B2FF2321
:100EE0004FF0FC0C0CFA02FC13FA02F2FFB25FFAAC
:100EF0008CFCD6B207211C4617E04FEA411202EBE8
:100F0000811208BF64462A44024408BF334644F0B5
:100F1000010882F80380013943F00108137153710D
:100F200082F80680D3711472C9B2B942E5D2BDE825
:100F3000F08700BFAC18000810B5144C2046FFF72E
:100F400007FC2046124C3F21FFF74CFCFFF766FCE4
:100F50002046FFF78BF90A2120460E4CFFF7BAF91D
:100F60000D48FFF7F5FD2046FFF720FB0B4BA36173
:100F70000B4C2046FFF7CAF920460A49FFF7FCF957
:100F80000948BDE81040FFF72BBD00BFB4000020AA
:100F90008000002098000020BC000020A510000860
:100FA0008400002000000020CA1E000873B5FFF76F
:100FB000C3FF224850210022214BFFF7D5FE002419
:100FC0002146013400221D48E4B2FFF7F7FE082C49
:100FD000F6D101210A461948FFF7F0FE02210A4620
:100FE0001648FFF7EBFE03210A461448FFF7E6FE1A
:100FF000124804210C22FFF7E1FE05210F480A46A2
:10100000FFF7DCFE0F4B02AD1B68002445F8043DE2
:101010000C4829464FF49672FFF7DAFB50B122468E
:1010200006480621FFF7CAFE661CF6B2322E94BFB0
:10103000344600240148FFF771FDE9E7BC000020B9
:10104000131F0008B400002073B50F4B06460D4671
:101050005A7B31460D4C0E48FFF7C2FC002120465A
:101060000A460C4B0096FFF741FE20460021012264
:10107000094B0095FFF73AFE0848094902B0BDE860
:101080007040FFF779B900BF98000020BC00002035
:10109000D51E0008E71E0008F21E0008840000208C
:1010A0002600002008B5094A137B517B7F2BC8BF5F
:1010B000A3F58073022093FBF0F3A3F14500FFF743
:1010C000C3FF034B1A68034B1A6008BD9800002049
:1010D000B400002024040020C37810B5E3B1144B01
:1010E0004178DB688478DB43C3F30223C3F1040255
:1010F00091400F22DA4022400A430E4B0178120140
:10110000CB18D2B283F8002303780122590903F0E7
:101110001F0312FA03F307E003780122590903F0D1
:101120001F0312FA03F32031024A42F8213010BDA6
:1011300000ED00E000E100E0837910B5002B29D03C
:101140001A4B01681C68CA4314401C605C6822404A
:101150005A60027902F1804202F58232146821431A
:10116000116002689C68D1430C409C60DC6821409F
:10117000D9604179102906D1996811439960D968DD
:101180000A43DA6010BD01F1804303F58233196828
:101190000A4308E00379016803F1804303F58233D1
:1011A0001A6822EA01021A6010BD00BF0004014063
:1011B000054B1A685B69034004D010420CBF002045
:1011C000012070471846704700040140014B5861E8
:1011D000704700BF00040140CB782DE9F04303F0D5
:1011E0000F02DB0648BF8B780E8848BF1A4316F003
:1011F000FF0F1FD0046800234FF001084FF00F0CC1
:1012000008FA03F707EA0605BD420FD19F000CFA62
:1012100007F912FA07F724EA09043C43CF78282F8C
:1012200008BF456102D0482F08BF05610133082B74
:10123000E6D104600E88FF2E21D9446800234FF0C8
:1012400001084FF00F0C03F1080708FA07F707EA47
:101250000605BD420FD19F000CFA07F912FA07F7F5
:1012600024EA09043C43CF78282F08BF456102D007
:10127000482F08BF05610133082BE4D14460BDE865
:10128000F0830161704741617047000001F0030283
:1012900030B592000F24944010FA02F2074B8908EF
:1012A000023153F8215025EA040443F8214053F851
:1012B0002140224343F8212030BD00BF00000140FF
:1012C00010B51E4B5A6802F00C02042A01D0082AFD
:1012D00002D01B4B036011E05A685968C2F3834285
:1012E0000232C90358BF174B06D5DB6A144903F015
:1012F0000F030133B1FBF3F35A4302600F4B124962
:101300005A680468C2F303128A5C34FA02F242603B
:101310005C68C4F302240C5D32FA04F484605C68F7
:10132000C4F3C224095DCA40C2605B680749C3F3C5
:101330008133CB5CB2FBF3F2026110BD00100240BE
:1013400000127A0000093D00500000204C000020EF
:10135000044B9A6909B1104301E022EA0000986148
:10136000704700BF00100240044BDA6909B1104316
:1013700001E022EA0000D861704700BF001002407F
:10138000044BDA6809B1104301E022EA0000D8609A
:10139000704700BF00100240044B1A6909B11043A6
:1013A00001E022EA00001861704700BF001002400F
:1013B00008B5154B98420BD101214FF48050FFF72F
:1013C000DFFF4FF480500021BDE80840FFF7D8BF91
:1013D0000E4B984207D14FF480400121FFF7DCFF0C
:1013E0004FF4804009E00A4B98420BD14FF4004083
:1013F0000121FFF7D1FF4FF400400021BDE8084074
:10140000FFF7CABF08BD00BF0030014000380040F0
:10141000003C00400B8810B54C88028823438C8820
:1014200002F441522343CC8823430C8923434C8943
:1014300023438C892343CC89234313439BB20380EA
:10144000838B23F400631B041B0C83830B8A0382AE
:1014500010BD038819B19BB243F0400303E023F0B1
:1014600040031B041B0C0380704700002B4A30B55F
:10147000C2EB000CDCF10002294C038842EB0C02A9
:10148000A04208BF42F001029BB2C2B9A0F1804560
:101490006C4244EB0504234DA84208BF44F001040C
:1014A0006CB9214C05F50065C4EB000CDCF10004BF
:1014B00044EB0C04A84208BF44F001041CB14C8862
:1014C00023F070032343194C194D041B18BF01244A
:1014D000A8420CBF002404F0010424B123F440739B
:1014E000CC889BB2234303808B8883850B8803853C
:1014F0007AB9104B104AC3EB000CDCF1000343EB4C
:101500000C03904208BF43F0010313B90B4B984200
:1015100001D10B7A03860123838230BD002C014068
:10152000003401400004004000080040001000406A
:1015300000140040004001400044014000480140C8
:10154000038C70B523F001031B041B0C0384038C74
:101550008488028B0D8822F073021204120C4E88CC
:101560002A430D8923F002031B0435431B0CADB243
:101570002B43194DA4B2461B754245EB0605174E89
:10158000B04208BF45F0010585B9154D06F58056F6
:10159000C5EB000CDCF1000545EB0C05B04208BFC3
:1015A00045F0010515B90F4DA8420ED14D8923F024
:1015B00008032B438D8823F004032B43CE898D89A8
:1015C00024F440743543ADB22C4384800283CA882E
:1015D0008286038470BD00BF002C014000340140AE
:1015E0000040014000480140038C70B523F4807333
:1015F0001B041B0C0384038C8288848B0D8824F0CD
:1016000073042404240C23F400731B042C430D895D
:101610001B0C43EA05234D8892B243EA0523134D80
:101620009BB2461B754245EB0605114EB04208BF02
:1016300045F00105A5B14D8923F4006343EA052374
:101640004FF6FF351D408B8822F4405245EA0323B4
:101650008D899BB242EA0512CD8942EA051292B207
:101660008280CA8884838287038470BD002C0140F5
:1016700000340140038819B19BB243F0010303E039
:1016800023F001031B041B0C0380704783899BB26A
:101690000AB1194301E023EA0101818170470388FF
:1016A00019B19BB243F0800303E023F080031B04D5
:1016B0001B0C03807047038B23F008031B041B0CD7
:1016C0000B4303837047838B23F008031B041B0C1D
:1016D0000B438383704781877047C94389B2018276
:1016E0007047C94389B201827047000030B5038A50
:1016F000CA8823F440531B041B0C134303820D467A
:1017000083890989AA8823F4B0530A43698923F09D
:101710000C030A431B041B0C92B213438381838A7C
:10172000AA8923F440731B041B0C87B0134304469F
:10173000838201A8FFF7C4FD174BA2899C420CBF0E
:10174000049B039B12B2002A4FF019012A6801FB87
:1017500003F101DA520000E092006423B1FBF2F1E0
:10176000B1FBF3F21201100903FB1011A08900B2C2
:10177000002806DAC9003231B1FBF3F303F00703A6
:1017800005E009013231B1FBF3F303F00F031A4313
:1017900092B2228107B030BD00380140838919B16F
:1017A0009BB243F4005303E023F400531B041B0CCF
:1017B00083817047C905C90D81807047038819422C
:1017C0000CBF002001207047002103E00B4B5B5849
:1017D000435004310A480B4B42189A42F6D30A4A46
:1017E00002E0002342F8043B084B9A42F9D300F090
:1017F00011F8FEF717FDFFF7D9FB7047441F0008EB
:101800000000002064000020640000202804002064
:10181000FEE70000104B1A6842F001021A60596896
:101820000E4A0A405A601A6822F0847222F480320A
:101830001A601A6822F480221A605A6822F4FE02A2
:101840005A604FF41F029A600022DA62044B4FF094
:1018500000629A60704700BF001002400000FFF86D
:1018600000ED00E000CA9A3B00E1F5058096980083
:1018700040420F00A086010010270000E80300008E
:10188000640000000A00000000CA9A3B00E1F50570
:101890008096980040420F00A086010010270000AB
:1018A000E8030000640000000A0000007C447C485B
:1018B0007C4074545C44547C1C107C5C54747C509C
:1018C0007004047C7C547C1C147C0000000000002C
:1018D000003E4551453E003E6B6F6B3E001C3E7C1A
:1018E0003E1C00183C7E3C180030367F3630001815
:1018F0005C7E5C18000018180000FFFFE7E7FFFFA0
:10190000003C24243C00FFC3DBDBC3FF0030484A1B
:10191000360E0006297929060060703F0204006037
:101920007E0A353F002A1C361C2A00007F3E1C0818
:1019300000081C3E7F000014367F361400005F0054
:101940005F000006097F017F00224D55592200608B
:10195000606060000014B6FFB6140004067F060441
:101960000010307F30100008083E1C0800081C3EA4
:10197000080800784040404000083E083E0800301B
:101980003C3F3C3000030F3F0F030000000000000D
:101990000000065F060000070300070300247E2402
:1019A0007E2400242B6A120000631308646300364F
:1019B0004956205000000703000000003E4100008F
:1019C0000000413E000000083E1C3E080008083EA2
:1019D00008080000E060000000080808080800008F
:1019E00060600000002010080402003E4141413EBA
:1019F0000000427F400000625149494600224949A7
:101A00004936001814127F10002F49494931003C13
:101A10004A494930000171090503003649494936F0
:101A200000064949291E00006C6C00000000EC6CA7
:101A30000000000814224100002424242424000073
:101A400041221408000201590906003E415D551E5D
:101A5000007E1111117E007F49494936003E414107
:101A60004122007F4141413E007F49494941007F79
:101A700009090901003E4149497A007F0808087FA9
:101A80000000417F410000304040403F007F08148B
:101A90002241007F40404040007F0204027F007FDF
:101AA0000204087F003E4141413E007F09090906CA
:101AB000003E4151215E007F09091966002649490F
:101AC00049320001017F0101003F4040403F001FBB
:101AD0002040201F003F403C403F00631408146337
:101AE00000070870080700714945430000007F4166
:101AF0004100000204081020000041417F00000462
:101B000002010204808080808080000003070000C2
:101B1000002054545478007F4444443800384444EE
:101B2000442800384444447F003854545408000882
:101B30007E0909000018A4A4A47C007F0404780096
:101B40000000007D4000004080847D00007F102860
:101B500044000000007F4000007C04180478007CF2
:101B60000404780000384444443800FC44444438B9
:101B70000038444444FC00447844040800085454A9
:101B8000542000043E442400003C40207C00001C03
:101B90002040201C003C6030603C006C10106C0049
:101BA000009CA0603C00006454544C0000083E417E
:101BB0004100000000770000000041413E080002A3
:101BC00001020100003C2623263C4411441144112B
:101BD000AA55AA55AA55BBEEBBEEBBEE000000FF0E
:101BE0000000080808FF00000A0A0AFF000008FFBA
:101BF00000FF000008F808F800000A0A0AFE0000CA
:101C00000AFB00FF000000FF00FF00000AFA02FECE
:101C100000000A0B080F0000080F080F00000A0A56
:101C20000A0F0000080808F800000000000F08086C
:101C30000808080F0808080808F80808000000FF4E
:101C40000808080808080808080808FF080800002D
:101C500000FF0A0A00FF00FF0808000F080B0A0A2D
:101C600000FE02FA0A0A0A0B080B0A0A0AFA02FA2A
:101C70000A0A00FF00FB0A0A0A0A0A0A0A0A0AFB01
:101C800000FB0A0A0A0A0A0B0A0A080F080F0808CA
:101C90000A0A0AFA0A0A08F808F80808000F080FE2
:101CA00008080000000F0A0A000000FE0A0A00F8F7
:101CB00008F8080808FF08FF0808007E4B4A4B4256
:101CC0000A0A0AFF0A0A0808080F0000000000F8C4
:101CD0000808FFFFFFFFFFFFF0F0F0F0F0F0FFFF5C
:101CE000FF000000000000FFFFFF0F0F0F0F0F0F9E
:101CF000003E494941220038545444280001407EA6
:101D000040010000017C41000027484B483F009DF6
:101D1000A2623D0000060909060000385554550826
:101D20000000181800000000080000000030403ECD
:101D300002027F06187F13132A3E14143E2A003C29
:101D40003C3C3C00000000000000007E1111117EB0
:101D5000007F49494931007F49494936007F0101E7
:101D60000101C07E41417FC0007F49494941007760
:101D7000087F0877224949493600007F2010087FF4
:101D8000007E2111097E007F0814224100407E015F
:101D9000017F007F0204027F007F0808087F003E69
:101DA0004141413E007F0101017F007F0909090691
:101DB000003E414141220001017F010100274848C6
:101DC000483F000E117F110E006314081463007F5A
:101DD00040407FC000070808087F007F407F407FA9
:101DE000007F407F40FF03017F484830007F484824
:101DF000307F007F4848483000224149493E007FFB
:101E0000083E413E00661909097F00205454547869
:101E1000003C4A4A4A31007C54545428007C040453
:101E20000C00C07844447CC0003854545408006C02
:101E3000107C106C002844545428007C2010087C2E
:101E4000007C20120A7C007C1028440040380404E6
:101E50007C00007C0810087C007C1010107C00388E
:101E600044444438007C0404047C00FC444444386A
:101E70000038444444280004047C0404009CA0600E
:101E80003C000018247C2418006C10106C00007CAE
:101E900040407CC0000C1010107C007C407C407CDA
:101EA000007C407C40FC0C047C505020007C505056
:101EB000207C007C50505020002844545438007C32
:101EC0001038443800483414147C0D44657465633C
:101ED000746F720D00525353493A2025693B204CD0
:101EE00051493A25750D00525353493A202569202E
:101EF00020004C51493A2020257520200052535390
:101F0000493A2020202020004C51493A202020200E
:101F10002020000E011E1E3F3F3F3F3F3F3F3F3FFF
:101F20003F3F3F00F8B500BFF8BC08BC9E46704775
:0C1F3000F8B500BFF8BC08BC9E46704726
:041F3C00F5010008A3
:041F4000D1010008C3
:101F4400020020030200640000000000DF0500001E
:101F5400000000000000000000000000000000007D
:101F640000000000000006000807050096000000BD
:101F74000000230008070A00AA0000000000230054
:101F840008070500720000000000F40102040608BE
:101F9400000000000102030401020304060708090B
:041FA40000127A00AD
:04000005080017C90F
:00000001FF
