:020000040800F2
:1000000000100020791A0008C11A0008C11A00085F
:10001000C11A0008C11A0008C11A00080000000037
:10002000000000000000000000000000C11A0008ED
:10003000C11A000800000000C11A0008C11A000817
:10004000C11A0008C11A0008C11A0008C11A000824
:10005000C11A0008C11A0008C11A0008C11A000814
:10006000C11A0008C11A0008150E0008C11A0008BC
:10007000C11A0008C11A0008C11A0008C11A0008F4
:10008000C11A0008C11A0008C11A000800000000C7
:10009000000000000000000000000000C11A00087D
:1000A000C11A0008C11A0008C11A0008C11A0008C4
:1000B0007D1D0008C11A000800000000C11A0008D8
:1000C000C11A00080000000000000000C11A00086A
:1000D00000000000C11A0008C11A0008000000005A
:1000E000C11A0008C11A0008C11A00080000000067
:1000F0000000000000000000000000000000000000
:1001000000000000000000000000000000000000EF
:100110000000000000000000C11A0008C11A000819
:1001200000000000000000000000000000000000CF
:1001300000000000000000000000000000000000BF
:1001400000000000000000000000000000000000AF
:10015000000000000000000000000000000000009F
:10016000000000000000000000000000000000008F
:10017000000000000000000000000000000000007F
:10018000000000000000000000000000000000006F
:10019000000000000000000000000000000000005F
:1001A000000000000000000000000000000000004F
:1001B000000000000000000000000000000000003F
:1001C0000000000000000000000000005FF808F1DF
:1001D00010B5054C237833B9044B13B10448AFF381
:1001E00000800123237010BD5C040020000000008B
:1001F000D421000808B5064B1BB106480649AFF3E9
:1002000000800648036813B1054B03B1984708BD49
:1002100000000000D4210008600400205C040020DD
:100220000000000000210A2200F0DEB900220A23AB
:1002300000F02AB970B50D4D0D4E761BB61006D0E4
:10024000002455F8043B01349847A642F9D1094DE2
:1002500001F0C0FF084E761BB61006D0002455F8FA
:10026000043B01349847A642F9D170BDEC21000847
:10027000EC210008EC210008F02100080F2AF0B45E
:1002800098BF034631D941EA00039B0736D10C469B
:10029000034615462668103D1E6066685E60A668C7
:1002A0009E60E6681034DE6010330F2DF2D8A2F1A4
:1002B000100402F00F0224F00F041034032A00EBA4
:1002C0000403214411D90E461D46144656F8047BFA
:1002D000043C032C45F8047BF8D8141F02F00302F9
:1002E00024F00304043409191B192AB111F8014B35
:1002F000013A03F8014BF9D1F0BC70470346F5E72A
:1003000010F0030F034670B441D0002A3DD0CEB2A6
:1003100001E0002A39D003F8016B541E13F0030FDB
:1003200022461D46F5D1032C29D9CAB20F2C84BF11
:100330002B46264642EA022242EA024211D9103EE8
:100340001A605A609A60DA6010330F2EF7D8A4F161
:10035000100304F00F0423F00F031033032C1D448B
:100360000DD92E462346043B46F8042B032BFAD81E
:10037000231F04F0030423F003030433ED18C9B270
:100380001CB1013C05F8011BFBD170BC7047054650
:100390001446C8E7C9B2F0B4002947D0820711D08B
:1003A0000378002B6ED099421CBF0246104606D13E
:1003B0003AE012F8013F002B64D0994234D001306A
:1003C0008307F6D1036841EA0127A3F1013247EA26
:1003D000074722EA030212F0803F1CD17B40A3F1C1
:1003E000013222EA030313F0803F14D1044602E0F5
:1003F00012F0803F0FD154F8043F0430A3F10136CE
:1004000087EA030226EA0303A2F1013513F0803FD5
:1004100025EA0202ECD0037823B933E043780130B7
:10042000002B2FD09942F9D1F0BC704783070BD035
:100430000378002BF8D0024603E012F8013F002BAE
:10044000F2D001308107F8D103680246A3F10131EF
:1004500021EA030313F0803F0AD1014651F8043F1B
:100460000432A3F1013020EA030313F0803FF5D0FA
:1004700013781046002BD7D012F8013F0130002B23
:10048000FAD1D1E71846CFE72DE9F04F85B01F46E6
:100490008C4602920B46534A039016681A46013363
:1004A0001D461478311991F801B01BF0080BF5D1F5
:1004B0002D2C73D02B2C04BF5478951CD7F101033D
:1004C00038BF0023102F14BF1A4643F001023AB17F
:1004D000302C73D023B10827302CB94601D00A271D
:1004E000B946BBF1000F49460CBF6FF0004A4FF010
:1004F000004ACDF804C0504600F0B0F95046884696
:10050000494600F07DF833190022DDF804C05B781D
:10051000114613F0040F1ED0303CA74225DD814266
:1005200094BF0023012353EAD2722DD10A1A5342F9
:1005300043EB02034445D4BF002303F00103002B27
:1005400022D109FB014115F8014B012233195B78D7
:1005500013F0040FE0D113F0030306D0012B14BFF6
:1005600057233723E41AA742D9DC531C1BD0084673
:10057000BBF1000F10D1029B1BB152B90299C1F817
:1005800000C005B0BDE8F08F4FF0FF3215F8014B09
:10059000DCE705F1FF3CF1E74842ECE75478951CB5
:1005A0004FF0010B8AE70399BBF1000F0CBF6FF00E
:1005B00000404FF0004022230B60DCE72A78A2F1D4
:1005C0007800414241EB0001582A14BF0A4641F02D
:1005D0000102002A3FF47EAF10276C78B94602353D
:1005E0007FE700BF3004002030B440F20004C2F2C4
:1005F00000040D46134601462A46206830BC43E7F6
:100600004A1E08BF7047C0F02481884240F216811C
:10061000114200F01781B0FA80F3B1FA81F2A2EB37
:100620000303C3F11F0304A202EB03134FF0000204
:100630009F4600BFAFF30080B0EBC17F00BF42EB2D
:10064000020228BFA0EBC170B0EB817F00BF42EB7C
:10065000020228BFA0EB8170B0EB417F00BF42EBEC
:10066000020228BFA0EB4170B0EB017F00BF42EB5C
:10067000020228BFA0EB0170B0EBC16F00BF42EBDC
:10068000020228BFA0EBC160B0EB816F00BF42EB5C
:10069000020228BFA0EB8160B0EB416F00BF42EBCC
:1006A000020228BFA0EB4160B0EB016F00BF42EB3C
:1006B000020228BFA0EB0160B0EBC15F00BF42EBBC
:1006C000020228BFA0EBC150B0EB815F00BF42EB3C
:1006D000020228BFA0EB8150B0EB415F00BF42EBAC
:1006E000020228BFA0EB4150B0EB015F00BF42EB1C
:1006F000020228BFA0EB0150B0EBC14F00BF42EB9C
:10070000020228BFA0EBC140B0EB814F00BF42EB1B
:10071000020228BFA0EB8140B0EB414F00BF42EB8B
:10072000020228BFA0EB4140B0EB014F00BF42EBFB
:10073000020228BFA0EB0140B0EBC13F00BF42EB7B
:10074000020228BFA0EBC130B0EB813F00BF42EBFB
:10075000020228BFA0EB8130B0EB413F00BF42EB6B
:10076000020228BFA0EB4130B0EB013F00BF42EBDB
:10077000020228BFA0EB0130B0EBC12F00BF42EB5B
:10078000020228BFA0EBC120B0EB812F00BF42EBDB
:10079000020228BFA0EB8120B0EB412F00BF42EB4B
:1007A000020228BFA0EB4120B0EB012F00BF42EBBB
:1007B000020228BFA0EB0120B0EBC11F00BF42EB3B
:1007C000020228BFA0EBC110B0EB811F00BF42EBBB
:1007D000020228BFA0EB8110B0EB411F00BF42EB2B
:1007E000020228BFA0EB4110B0EB011F00BF42EB9B
:1007F000020228BFA0EB0110B0EBC10F00BF42EB1B
:10080000020228BFA0EBC100B0EB810F00BF42EB9A
:10081000020228BFA0EB8100B0EB410F00BF42EB0A
:10082000020228BFA0EB4100B0EB010F00BF42EB7A
:10083000020228BFA0EB0100104670470CBF012048
:1008400000207047B1FA81F2C2F11F0220FA02F0D3
:10085000704708B14FF0FF3000F00EB80029F8D013
:100860002DE90340FFF7CCFEBDE8064002FB00F394
:10087000A1EB0301704700BF704700BF024B9A68AD
:100880005206FCD4704700BF00080140036882880C
:1008900009B11A6100E05A61012070477F29C4BF85
:1008A000A1F5807189B208B2022390FBF3F04A38B7
:1008B00000B27047044B99811A89D107FCD5024BCD
:1008C0009889C0B2704700BF00300140F8B50B4DA9
:1008D0004FF4807604460F466E61FFF7CFFF204647
:1008E0003946FFF7E7FF84F825002E6194F825309C
:1008F00003F0700384F82530F8BD00BF0008014004
:1009000010B5174904466322164801F01FFA002863
:1009100024D03D212046FFF7D9FF94F82530702BD5
:1009200009D01BD883B1602B18D120463A21FFF79C
:10093000CDFF0D4804E020463B21FFF7C7FF0B48E1
:10094000BDE8104001F00ABB94F82430012B05D11A
:1009500020463421BDE81040FFF7B8BF10BD00BFEE
:1009600078040020AC050020402100084821000840
:100970002DE9F041094D4FF48076044688466E61BA
:100980001746FFF77BFF41462046FFF793FF2046BF
:100990003946FFF78FFF2E61BDE8F0810008014066
:1009A00010B50B2104460C22FFF7E2FF20460C2174
:1009B0000022FFF7DDFF20460D212022FFF7D8FFA0
:1009C00020460E213422FFF7D3FF20460F2162225A
:1009D000FFF7CEFF204610212D22FFF7C9FF20464A
:1009E00011212F22FFF7C4FF204612211322FFF707
:1009F000BFFF20461321A022FFF7BAFF2046142193
:100A0000FF22FFF7B5FF204600220A21FFF7B0FFC3
:100A1000152120466222FFF7ABFF20462121B62296
:100A2000FFF7A6FF204622211022FFF7A1FF182181
:100A300020460A46FFF79CFF204619211D22FFF79A
:100A400097FF20461A211C22FFF792FF20461B2108
:100A50000722FFF78DFF20461C210022FFF788FFA9
:100A600020461D21B022FFF783FF20462321EA22E2
:100A7000FFF77EFF204624212A22FFF779FF204638
:100A800025210022FFF774FF204626211F22FFF7B1
:100A90006FFF20462C218822FFF76AFF20462D2178
:100AA0003122FFF765FF20462E210922FFF760FF64
:100AB000204603210722FFF75BFF204600212E225C
:100AC000FFF756FF204602210722FFF751FF20467D
:100AD00007210E22FFF74CFF204608214422FFF792
:100AE00047FF204606211622FFF742FF20463E21FF
:100AF0005022FFF73DFF204616210722FFF738FF5F
:100B0000204617210022BDE81040FFF731BF00004A
:100B10002DE9F0413D4D3E4E86B0804610222846DC
:100B20004FF4807101F02AF82846A021182201F024
:100B300025F828464021042201F020F808F1180485
:100B40004FF4807304222B6120462823294601F0AC
:100B50004BF80821204601F055F8204601F0AAF88C
:100B600001214FF4805000F043FE4FF482730024C3
:100B7000ADF8063030464FF4007301A9ADF80E30E1
:100B8000ADF80440ADF80840ADF80A40ADF80C40AF
:100B9000ADF81240ADF8104000F042FE30460121A1
:100BA00000F05DFE40463021FFF790FE3A214046BE
:100BB000FFF78CFE4046FFF7F3FE08F108074046BA
:100BC00029460B22102301F00FF808F110063846D1
:100BD00029460C22102301F007F80F22102330467B
:100BE000294601F001F821463046FFF74FFE214625
:100BF0004046FFF74BFE21463846FFF747FE30469A
:100C00000121FFF743FE06B0BDE8F0810008014076
:100C10000030014038B50021044600F10800FFF71C
:100C200035FE04F1180501212046FFF72FFE284666
:100C300001F040F8072220460221FFF799FE082123
:100C4000284600F0DFFF284601F024F820463A212C
:100C5000FFF73CFE01232046342184F82430BDE810
:100C60003840FFF733BEF8B504460D46002700F1C3
:100C700008060CE03621FFF729FE002184F82470D5
:100C80002046FFF703FE30460021FFF7FFFD94F8F2
:100C900025302046002BEDD10A212A46BDE8F84038
:100CA000FFF766BEF8B5094C4FF4807506460F464F
:100CB0006561FFF7E3FD47F080013046FFF7FAFD7D
:100CC00030460021FFF7F6FD2561F8BD0008014020
:100CD000F8B50F467B210546FFF7E4FF10F07F04CF
:100CE00005D128463F21FFF7DDFF2046F8BD0F4B19
:100CF0004FF480725A61FFF7C1FD2846FF21FFF7CC
:100D0000D9FD182C34BF2646182600240021284679
:100D1000FFF7D0FD38550134E3B2B342F6D3034BAD
:100D20004FF480721A610120F8BD00BF0008014035
:100D300090F82430022B4FF0000310B5044680F8E1
:100D4000243004D10B48BDE8104000F0DFBA0A4956
:100D5000FFF7BEFF40B120463A21FFF7B7FD054837
:100D6000BDE8104000F002BB20463A21BDE810402B
:100D7000FFF7ACBD7405002079050020F8B50E4BD7
:100D800017464FF4807204465A610D46FFF776FD10
:100D900020467F21FFF78EFD002604E0A95D204656
:100DA000FFF788FD0136F3B2BB42F7D3024B4FF495
:100DB00080721A61F8BD00BF0008014038B500F12B
:100DC00018050446284600F075FF06222046022139
:100DD000FFF7CEFD0C21284600F014FF284600F056
:100DE00059FF162220460A49FFF7C8FF0021204676
:100DF000FFF74CFD012104F10800FFF747FD022336
:100E00002046352184F82430BDE83840FFF75EBD28
:100E10009105002008B5102000F008FC38B1102022
:100E200000F012FC0248BDE80840FFF781BF08BD92
:100E30007C040020F0B5012191B006464FF400304B
:100E400000F0E2FC0520012100F0D2FC0120014667
:100E500000F0C2FC204C2148214D0422082100F062
:100E60008DFE4FF4165300270CA90C932046042343
:100E7000ADF83A30ADF83470ADF83670ADF8387082
:100E8000ADF83C7000F080FD284600F0D3FA154B19
:100E9000029601935A2304934FF400530A9320239C
:100EA00009932846802301A906930397059707977E
:100EB00008970B9700F03CFB20464021012200F0F0
:100EC000C7FD2846012100F051FB2046012100F01A
:100ED000B3FD11B0F0BD00BF004400400008014068
:100EE0006C000240044400407FB5054604680020C1
:100EF00001E002340130C3B28B4209D226782C2E95
:100F000006D001ABC65463782E2BF2D00134F1E742
:100F10004AB14E1EB34206DA01AAD018CA1A3021CD
:100F2000FFF7EEF9F3B204AAD318002203F80C2C51
:100F30002C6001A8FFF776F904B070BD7FB500F111
:100F40005A042146634801F009F8039401E0013393
:100F50000393039B1A782C2AF9D05F4C02210022BC
:100F600003A82568FFF7C0FF02216870002203A8CC
:100F70002568FFF7B9FF0221A870002203A82568A1
:100F8000FFF7B2FFE8702368544859789A78DB7805
:100F900000F0E4FF039B13F8012B2C2A0393F9D1F3
:100FA0001B7800252C2B0FD00221002203A8FFF76D
:100FB0009BFF4B4D08214543012203A8FFF794FFF7
:100FC0000623B0FBF3F46519039B5A1C03925A786D
:100FD0004E2A02D06D422C2A01D002330393039A89
:100FE000531C03933C4B1B68C5F307215972C5F38F
:100FF00007419972290E1D72D97253782C2B0FD08C
:101000000321002203A8FFF76FFF354C082144435A
:10101000012203A8FFF768FF0623B0FBF3F52D19A3
:10102000039B5A1C03925A78452A02D06D422C2AFF
:1010300001D002330393039B274E5A1C346803925A
:10104000C5F3072225736273C5F307422D0EE573BE
:10105000A2735A7804AD303A18BF0122033345F821
:10106000043D2271284602210022FFF73DFF6071F6
:1010700034682379002B2BD0039B01330393012386
:101080002371072100222846FFF72EFF80B2A071AE
:10109000000AE0713068037A417A427B847943EA3E
:1010A0000121837A41EA0341C37A41EA0361037B68
:1010B00043EA0222837B42EA0342C37B42EA0362A1
:1010C0004379C07944EA00200090064800F046FFCA
:1010D0007FBD00BF50210008A8040020592100084E
:1010E00080969800692100082DE9F041044698B0E7
:1010F0004FF4001000F046FA002850D04FF40010D2
:1011000000F04EFA01A821465A22FFF7B7F80DF178
:101110000408244D08F159072B78224E032B35D8AB
:10112000DFE803F0020B242F40462421FFF732F9B9
:1011300001238046002828D12CE01B4B1B491A783C
:1011400098F80000895C0132D2B288421A7009D145
:10115000042A1BD902222A70154A04F15A0111608F
:10116000002201E000222A701A700FE098F80010A7
:1011700003230A2909D00E4A136803F8011B1360E0
:1011800004E02046FFF7DAFE00233370B84506D0AE
:10119000012300E0034608F10108002BBCD118B080
:1011A000BDE8F0815B050020A40400209821000820
:1011B000AC04002038B5002000F0BCFA00F0AAFC16
:1011C000254B264C99699A6942F001029A61244A9A
:1011D000506820F0E06040F000705060CA0758BFCF
:1011E0009A6920485CBF22F001029A6100F06EFD0E
:1011F0003F211C4800F0B4FD00F0CEFD1A48FFF777
:1012000019FE1A480125606025800221142200F091
:10121000B5FC22886368164C9540ADB248215D61EB
:10122000204600F043F8134B134804F121021A60E2
:10123000124B00251D70FFF76BFC29460E48FFF787
:1012400012FDA27F0C480921FFF792FB0C48BDE874
:10125000384000F083BE00BF001002405C05002053
:1012600000000140AC050020B0040020000C01404B
:1012700074050020A80400207C04002070050020D4
:101280009E21000808B5FFF795FF0548FFF738FBDA
:10129000044800F00FF80448FFF726FFF5E700BF09
:1012A0007C04002074050020B0040020002303719A
:1012B0008177704738B50379044613B1022B1FD1EB
:1012C00008E01048FFF7A6FC0F4B1B6823600223C1
:1012D000237138BD0C48214641F65A3200F036FDE4
:1012E00070B1084D36212846FFF7F0FAA9882A6820
:1012F000002385F824305161AA68A98951612371BE
:1013000038BD00BF7C040020AC05002010B50446A9
:101310000448FFF77FFC044B1B6823600223237102
:1013200010BD00BF7C040020AC05002038B50C4681
:10133000C17E0C48FFF7B2FA6FF059031B1A2278EE
:10134000042593FBF5F555192DB225EAE575062D13
:10135000A8BF06250146EBB2034800F0FFFD25704B
:1013600038BD00BF7C040020B021000813B5144B29
:101370001B6802A90360C379044601F8013DFFF729
:10138000D5FFA3790F4A1049637712689DF807309B
:101390000978E3771170227A0AB9012200E0FF226E
:1013A000082B84F8202005D8084A0948D25C3E2141
:1013B000FFF7DEFA0648FFF701FD032323711CBD8A
:1013C000AC050020A804002070050020A72100081B
:1013D0007C040020C37810B5E3B1144B4178DB687E
:1013E0008478DB43C3F30223C3F1040291400F224C
:1013F000DA4022400A430E4B01781201CB18D2B2D8
:1014000083F8002303780122590903F01F0312FA1D
:1014100003F307E003780122590903F01F0312FACE
:1014200003F32031024A42F8213010BD00ED00E004
:1014300000E100E002684FF6FE73134003600023F2
:10144000036043608360C3602D4B984229D02D4BCD
:10145000984230D02C4B984237D02C4B98423ED0FB
:101460002B4B984206D153F8542C42F4702243F887
:10147000542C7047274B984206D153F8682C42F4FD
:10148000700243F8682C7047234B984206D153F8FA
:101490007C2C42F0706243F87C2C70471F4B9842C2
:1014A00006D153F8042C42F00F0243F8042C704785
:1014B0001B4B984206D153F8182C42F0F00243F827
:1014C000182C7047174B984206D153F82C2C42F435
:1014D000706243F82C2C7047134B984206D153F896
:1014E000402C42F4704243F8402C70470F4B984216
:1014F00002BF53F8542C42F4702243F8542C704726
:10150000080002401C00024030000240440002403B
:10151000580002406C000240800002400804024073
:101520001C040240300402404404024058040240BB
:101530008B68026810B50C6A23430C6923434C691D
:1015400023438C692343CC6923434C6A23438C6A2D
:1015500022F4FE4222F0F002234313430360CB68DF
:1015600043600B6883604B68C36010BD19B10368AA
:1015700043F0010303E002684FF6FE73134003607B
:1015800070470000C3004CBF034B044B1B68034271
:101590000CBF002001207047000402400000024000
:1015A000C2004CBF014B024B586070470004024020
:1015B00000000240837910B5002B29D01A4B016836
:1015C0001C68CA4314401C605C6822405A6002795F
:1015D00002F1804202F582321468214311600268F0
:1015E0009C68D1430C409C60DC682140D960417903
:1015F000102906D1996811439960D9680A43DA60C5
:1016000010BD01F1804303F5823319680A4308E0F5
:101610000379016803F1804303F582331A6822EAF3
:1016200001021A6010BD00BF00040140054B1A689A
:101630005B69034004D010420CBF002001207047BA
:101640001846704700040140014B5861704700BFC5
:1016500000040140CB7803F00F02DB0648BF8B7813
:101660002DE9F0430E8848BF1A4316F0FF0F1FD034
:10167000046800234FF001084FF00F0C08FA03F73D
:1016800007EA0605BD420FD19F000CFA07F924EACC
:10169000090412FA07F73C43CF78282F08BF4561A9
:1016A00002D0482F08BF05610133082BE6D1046042
:1016B0000E88FF2E21D9446800234FF001084FF017
:1016C0000F0C03F1080708FA07F707EA0605BD4201
:1016D0000FD19F000CFA07F924EA090412FA07F760
:1016E0003C43CF78282F08BF456102D0482F08BF60
:1016F00005610133082BE4D14460BDE8F0830000AC
:1017000030B501F003028908094B0231920053F809
:1017100021500F24944025EA040443F8214053F853
:10172000214010FA02F2224343F8212030BD00BFCD
:1017300000000140034B5A6822F0F0021043586049
:10174000704700BF0010024010B51E4B5A6802F0EF
:101750000C02042A01D0082A02D01B4B036011E0BE
:101760005A685968C2F383420232C90358BF174B03
:1017700006D5DB6A144903F00F030133B1FBF3F321
:101780005A4302600F4B12495A680468C2F30312AD
:101790008A5C34FA02F242605C68C4F302240C5D95
:1017A00032FA04F484605C68C4F3C224095DCA4060
:1017B000C2605B680749C3F38133CB5CB2FBF3F2D1
:1017C000026110BD0010024000127A0000093D00C5
:1017D0003804002034040020044B5A6909B1104336
:1017E00001E022EA00005861704700BF001002408B
:1017F000044B9A6909B1104301E022EA00009861A4
:10180000704700BF00100240044BDA6909B1104371
:1018100001E022EA0000D861704700BF00100240DA
:101820000B88028810B54C8823438C882343CC88CE
:1018300023430C8923434C8923438C892343CC893C
:1018400002F44152234313439BB20380838B23F45E
:1018500000631B041B0C83830B8A038210BD038867
:1018600019B19BB243F0400303E023F040031B0493
:101870001B0C0380704700002B4A0388C2EB000C4E
:10188000DCF1000230B5294C42EB0C02A04208BF4B
:1018900042F001029BB2C2B9A0F180456C4244EB18
:1018A0000504234DA84208BF44F001046CB9214C43
:1018B000C4EB000CDCF1000444EB0C0405F50065FE
:1018C000A84208BF44F001041CB14C8823F0700307
:1018D0002343194C194D041B18BF0124A8420CBF07
:1018E000002404F0010424B123F44073CC889BB29B
:1018F000234303808B8883850B8803857AB9104B3B
:10190000104AC3EB000CDCF1000343EB0C039042E4
:1019100008BF43F0010313B90B4B984201D10B7A76
:1019200003860123838230BD002C01400034014036
:101930000004004000080040001000400014004077
:10194000004001400044014000480140038819B1B3
:101950009BB243F0010303E023F001031B041B0CC3
:101960000380704783899BB20AB1194301E023EADF
:10197000010181817047C94389B201827047C9431F
:1019800089B201827047000030B5038ACA8823F407
:1019900040531B041B0C0D461343038283890989A2
:1019A000AA8823F4B0530A43698923F00C030A433D
:1019B0001B041B0C92B213438381838AAA8923F4EC
:1019C00040731B041B0C87B013430446838201A899
:1019D000FFF7BAFE174BA2899C420CBF049B039BE6
:1019E00012B2002A4FF019012A6801FB03F101DA53
:1019F000520000E092006423B1FBF2F1B1FBF3F27C
:101A00001201100903FB1011A08900B2002806DAA8
:101A1000C9003231B1FBF3F303F0070305E009011C
:101A20003231B1FBF3F303F00F031A4392B2228178
:101A300007B030BD00380140838919B19BB243F42F
:101A4000005303E023F400531B041B0C83817047F5
:101A5000838A9BB20AB1194301E023EA0101818222
:101A60007047C905C90D81807047038819420CBFB2
:101A70000020012070470000002103E00B4B5B5861
:101A8000435004310A480B4B42189A42F6D30A4A93
:101A900002E0002342F8043B084B9A42F9D300F0DD
:101AA00011F8FEF7C7FBFFF7EDFB7047F4210008C4
:101AB000000000205C0400205C040020B005002031
:101AC000FEE70000104B1A6842F001021A605968E4
:101AD0000E4A0A405A601A6822F0847222F4803258
:101AE0001A601A6822F480221A605A6822F4FE02F0
:101AF0005A604FF41F029A600022DA62044B4FF0E2
:101B000000629A60704700BF001002400000FFF8BA
:101B100000ED00E0144A154B516801F00C01042956
:101B200001D0082902D0124A1A6011E051685068A9
:101B3000C1F383410231C00358BF0E4A06D5D26AB1
:101B40000B4802F00F020132B0FBF2F25143196070
:101B5000054B094A5B68C3F30313D25C034B196856
:101B600031FA02F21A607047001002405804002057
:101B700000127A0000093D0048040020184B73B59C
:101B8000044604209C420D4616460ED003F58063A1
:101B900008209C4209D003F5806310209C4204D0A9
:101BA000104884420CBF20200020A6F11C025342A2
:101BB00043EB0203182E08BF43F001030BB140F0C2
:101BC00001000121FFF714FE0323204601A98DF82F
:101BD0000630ADF804508DF80760FFF73BFD7CBD83
:101BE000000801400014014010B50C46012191404D
:101BF00089B2C280818004601A462046BDE8104048
:101C0000FFF7BCBF37B5044601200D460146FFF77C
:101C1000EFFDE388042B01D806330AE05A1F92B285
:101C2000042A01D8172304E00A3B9BB2052B01D8F4
:101C30002823A3602368134A934202D1A17900208C
:101C400010E0114A934202D1A17901200AE00F4A23
:101C5000934202D1A179022004E00D4A934203D1BC
:101C6000A1790320FFF74CFDA3888DF80550009360
:101C700000238DF80430684601238DF80630FFF705
:101C800099FC3EBD00080140000C014000100140DD
:101C90000014014007B583688DF804300F238DF8D8
:101CA00005308DF8063001A801238DF80730FFF7C5
:101CB00091FB0EBD07B5836801A88DF804300023A1
:101CC0008DF80730FFF786FB0EBD000030B585B0FC
:101CD00001241C23002503A88DF80C308DF80D403D
:101CE0008DF80E508DF80F40FFF774FB204621460B
:101CF000FFF78AFD6422ADF80420124AADF80250C5
:101D00001168114AADF80650B1FBF2F2013A69468A
:101D10004FF08040ADF800208DF80850FFF7ACFD83
:101D200021464FF08040FFF711FE21464FF08040E2
:101D3000FFF721FE4FF0804021462246FFF712FEBA
:101D400005B030BD58040020A08601000368086873
:101D5000181A904202D30B60012070470020704790
:101D6000054B1A6842F21073B2FBF3F359430B466A
:101D70000139002BFBD170475804002008B54FF003
:101D800080400121FFF7FBFD024B1A6801321A6007
:101D900008BD00BFAC05002010B5012186B04FF48E
:101DA0008040FFF725FD05200121FFF721FD1823C5
:101DB0008DF817304FF40073ADF8143005A90323E4
:101DC0000F488DF816300F4CFFF744FC4FF4FA33F0
:101DD00001930023ADF80830ADF80A30ADF80C30AF
:101DE000ADF810302046082301A9ADF80E30FFF7FA
:101DF000CBFD20460121FFF71FFE06B010BD00BF3E
:101E00000008014000380140014608B50448FFF7CA
:101E100028FE03484021FFF728FE0028F9D008BD1E
:101E200000380140092802D83030C0B2704737303E
:101E3000C0B2704710F07F4310B504460BD0000FBE
:101E4000FFF7F0FFFFF7E0FFC4F30360FFF7EAFFDF
:101E5000FFF7DAFF012314F47F0F00D163B1C4F35D
:101E60000350FFF7DFFFFFF7CFFFC4F30340FFF797
:101E7000D9FFFFF7C9FF012314F47F4F00D15BB1F5
:101E8000C4F30330FFF7CEFFFFF7BEFFC4F3032018
:101E9000FFF7C8FFFFF7B8FFC4F30310FFF7C2FF57
:101EA000FFF7B2FF04F00F00FFF7BCFFBDE81040E2
:101EB000FFF7AABF70B5134D06460FCD8AB001AC2F
:101EC0000FC40FCD0FC42B682360002423460DE000
:101ED0000130C0B2B61A9642FAD2302800D113B1FE
:101EE000FFF792FF01230434242C03D001AA3020F1
:101EF000A258F0E73036F0B20AB0BDE87040FFF704
:101F000083BF00BF18200008002810B5044604DA7B
:101F10002D20FFF779FF644202E02020FFF774FFD5
:101F20002046BDE81040FFF7C5BF10B5044601E0EC
:101F3000FFF76AFF14F8010B0028F9D110BD70B546
:101F400004460E46002506E0605DFFF773FF202083
:101F5000FFF75AFF0135B542F6D170BD0FB437B562
:101F600006AB53F8045B019305E0252805D1002C4E
:101F700048D0FFF749FF002445E0002C3FD06328FC
:101F800004D1019B1A1D01921878F2E7752806D139
:101F9000019B1A1D18680192FFF78CFFEBE7692877
:101FA00006D1019B1A1D18680192FFF7ADFFE2E709
:101FB000582806D1019B1A1D18680192FFF73AFFB5
:101FC000D9E7A0F173035C4244EB0304532808BF34
:101FD00044F0010434B1019B1A1D01921868FFF707
:101FE000A4FFC8E741280ED1019B1A1D01921A4691
:101FF000596852F8080B0192FFF7A1FF03E0FFF7C1
:1020000003FF00E0012415F8010B0028ADD1BDE865
:102010003E4004B07047000000CA9A3B00E1F5055D
:102020008096980040420F00A08601001027000013
:10203000E8030000640000000A00000000202020E7
:102040002020202020202828282828202020202068
:102050002020202020202020202020202088101038
:102060001010101010101010101010101004040494
:102070000404040404040410101010101010414152
:102080004141414101010101010101010101010140
:102090000101010101010101101010101010424254
:1020A0004242424202020202020202020202020210
:1020B00002020202020202021010101020000000B0
:1020C0000000000000000000000000000000000010
:1020D0000000000000000000000000000000000000
:1020E00000000000000000000000000000000000F0
:1020F00000000000000000000000000000000000E0
:1021000000000000000000000000000000000000CF
:1021100000000000000000000000000000000000BF
:1021200000000000000000000000000000000000AF
:10213000000000000000000000000000000000009F
:102140005258206F76660D005458206F76660D0049
:102150004D73673A2025530D0054696D653A20256B
:10216000753A25753A25750D004C61743A2025693C
:102170003B204C6E673A2025693B20536174436FC6
:10218000756E743A2025753B2050726563697369DA
:102190006F6E3A2025750D004750474741000D43AB
:1021A0006F6C6C61720D0003171D26375081CBC216
:1021B0005077723A20525353493D25693B204F6C6A
:1021C000643D25753B204E65773D25750D0000006B
:1021D00043000000F8B500BFF8BC08BC9E4670473D
:0C21E000F8B500BFF8BC08BC9E46704774
:0421EC00F5010008F1
:0421F000D101000811
:1021F400080000200000000000000000F40200209D
:102204005C030020C4030020000000000000000064
:1022140000000000000000000000000000000000BA
:10222400000000000000000000000000D0210008B1
:10223400000000000000000000000000000000009A
:10224400000000000000000000000000000000008A
:10225400000000000000000000000000000000007A
:10226400000000000000000000000000000000006A
:10227400000000000000000000000000000000005A
:10228400000000000000000000000000000000004A
:10229400000000000000000000000000000000003A
:1022A40001000000000000000E33CDAB34126DE6D7
:1022B400ECDE05000B000000000000000000000040
:1022C400000000000000000000000000000000000A
:1022D40000000000000000000000000000000000FA
:1022E40000000000000000000000000000000000EA
:1022F40000000000000000000000000000000000DA
:102624003C20000802040608000000000102030424
:10263400010203040607080900000000000000006E
:0C264400010203040607080900127A00D6
:0400000508001A795C
:00000001FF
