:020000040800F2
:1000000000100020DD1A0008251B0008251B000831
:10001000251B0008251B0008251B00080000000008
:10002000000000000000000000000000251B000888
:10003000251B000800000000251B0008251B0008E8
:10004000251B0008251B0008251B0008251B000890
:10005000251B0008251B0008251B0008251B000880
:10006000251B0008251B00081D0E0008251B000885
:10007000251B0008251B0008251B0008251B000860
:10008000251B0008251B0008251B00080000000098
:10009000000000000000000000000000251B000818
:1000A000251B0008251B0008251B0008251B000830
:1000B000F11D0008251B000800000000251B00089A
:1000C000251B00080000000000000000251B0008A0
:1000D00000000000251B0008251B00080000000090
:1000E000251B0008251B0008251B00080000000038
:1000F0000000000000000000000000000000000000
:1001000000000000000000000000000000000000EF
:100110000000000000000000251B0008251B00084F
:1001200000000000000000000000000000000000CF
:1001300000000000000000000000000000000000BF
:1001400000000000000000000000000000000000AF
:10015000000000000000000000000000000000009F
:10016000000000000000000000000000000000008F
:10017000000000000000000000000000000000007F
:10018000000000000000000000000000000000006F
:10019000000000000000000000000000000000005F
:1001A000000000000000000000000000000000004F
:1001B000000000000000000000000000000000003F
:1001C0000000000000000000000000005FF808F1DF
:1001D00010B5054C237833B9044B13B10448AFF381
:1001E00000800123237010BD5C040020000000008B
:1001F0008023000808B5064B1BB106480649AFF33B
:1002000000800648036813B1054B03B1984708BD49
:100210000000000080230008600400205C0400202F
:100220000000000000210A2200F0DEB900220A23AB
:1002300000F02AB970B50D4D0D4E761BB61006D0E4
:10024000002455F8043B01349847A642F9D1094DE2
:1002500002F096F8084E761BB61006D0002455F82A
:10026000043B01349847A642F9D170BD9823000899
:1002700098230008982300089C2300080F2AF0B454
:1002800098BF034631D941EA00039B0736D10C469B
:10029000034615462668103D1E6066685E60A668C7
:1002A0009E60E6681034DE6010330F2DF2D8A2F1A4
:1002B000100402F00F0224F00F041034032A00EBA4
:1002C0000403214411D90E461D46144656F8047BFA
:1002D000043C032C45F8047BF8D8141F02F00302F9
:1002E00024F00304043409191B192AB111F8014B35
:1002F000013A03F8014BF9D1F0BC70470346F5E72A
:1003000010F0030F034670B441D0002A3DD0CEB2A6
:1003100001E0002A39D003F8016B541E13F0030FDB
:1003200022461D46F5D1032C29D9CAB20F2C84BF11
:100330002B46264642EA022242EA024211D9103EE8
:100340001A605A609A60DA6010330F2EF7D8A4F161
:10035000100304F00F0423F00F031033032C1D448B
:100360000DD92E462346043B46F8042B032BFAD81E
:10037000231F04F0030423F003030433ED18C9B270
:100380001CB1013C05F8011BFBD170BC7047054650
:100390001446C8E7C9B2F0B4002947D0820711D08B
:1003A0000378002B6ED099421CBF0246104606D13E
:1003B0003AE012F8013F002B64D0994234D001306A
:1003C0008307F6D1036841EA0127A3F1013247EA26
:1003D000074722EA030212F0803F1CD17B40A3F1C1
:1003E000013222EA030313F0803F14D1044602E0F5
:1003F00012F0803F0FD154F8043F0430A3F10136CE
:1004000087EA030226EA0303A2F1013513F0803FD5
:1004100025EA0202ECD0037823B933E043780130B7
:10042000002B2FD09942F9D1F0BC704783070BD035
:100430000378002BF8D0024603E012F8013F002BAE
:10044000F2D001308107F8D103680246A3F10131EF
:1004500021EA030313F0803F0AD1014651F8043F1B
:100460000432A3F1013020EA030313F0803FF5D0FA
:1004700013781046002BD7D012F8013F0130002B23
:10048000FAD1D1E71846CFE72DE9F04F85B01F46E6
:100490008C4602920B46534A039016681A46013363
:1004A0001D461478311991F801B01BF0080BF5D1F5
:1004B0002D2C73D02B2C04BF5478951CD7F101033D
:1004C00038BF0023102F14BF1A4643F001023AB17F
:1004D000302C73D023B10827302CB94601D00A271D
:1004E000B946BBF1000F49460CBF6FF0004A4FF010
:1004F000004ACDF804C0504600F0B0F95046884696
:10050000494600F07DF833190022DDF804C05B781D
:10051000114613F0040F1ED0303CA74225DD814266
:1005200094BF0023012353EAD2722DD10A1A5342F9
:1005300043EB02034445D4BF002303F00103002B27
:1005400022D109FB014115F8014B012233195B78D7
:1005500013F0040FE0D113F0030306D0012B14BFF6
:1005600057233723E41AA742D9DC531C1BD0084673
:10057000BBF1000F10D1029B1BB152B90299C1F817
:1005800000C005B0BDE8F08F4FF0FF3215F8014B09
:10059000DCE705F1FF3CF1E74842ECE75478951CB5
:1005A0004FF0010B8AE70399BBF1000F0CBF6FF00E
:1005B00000404FF0004022230B60DCE72A78A2F1D4
:1005C0007800414241EB0001582A14BF0A4641F02D
:1005D0000102002A3FF47EAF10276C78B94602353D
:1005E0007FE700BF3004002030B440F20004C2F2C4
:1005F00000040D46134601462A46206830BC43E7F6
:100600004A1E08BF7047C0F02481884240F216811C
:10061000114200F01781B0FA80F3B1FA81F2A2EB37
:100620000303C3F11F0304A202EB03134FF0000204
:100630009F4600BFAFF30080B0EBC17F00BF42EB2D
:10064000020228BFA0EBC170B0EB817F00BF42EB7C
:10065000020228BFA0EB8170B0EB417F00BF42EBEC
:10066000020228BFA0EB4170B0EB017F00BF42EB5C
:10067000020228BFA0EB0170B0EBC16F00BF42EBDC
:10068000020228BFA0EBC160B0EB816F00BF42EB5C
:10069000020228BFA0EB8160B0EB416F00BF42EBCC
:1006A000020228BFA0EB4160B0EB016F00BF42EB3C
:1006B000020228BFA0EB0160B0EBC15F00BF42EBBC
:1006C000020228BFA0EBC150B0EB815F00BF42EB3C
:1006D000020228BFA0EB8150B0EB415F00BF42EBAC
:1006E000020228BFA0EB4150B0EB015F00BF42EB1C
:1006F000020228BFA0EB0150B0EBC14F00BF42EB9C
:10070000020228BFA0EBC140B0EB814F00BF42EB1B
:10071000020228BFA0EB8140B0EB414F00BF42EB8B
:10072000020228BFA0EB4140B0EB014F00BF42EBFB
:10073000020228BFA0EB0140B0EBC13F00BF42EB7B
:10074000020228BFA0EBC130B0EB813F00BF42EBFB
:10075000020228BFA0EB8130B0EB413F00BF42EB6B
:10076000020228BFA0EB4130B0EB013F00BF42EBDB
:10077000020228BFA0EB0130B0EBC12F00BF42EB5B
:10078000020228BFA0EBC120B0EB812F00BF42EBDB
:10079000020228BFA0EB8120B0EB412F00BF42EB4B
:1007A000020228BFA0EB4120B0EB012F00BF42EBBB
:1007B000020228BFA0EB0120B0EBC11F00BF42EB3B
:1007C000020228BFA0EBC110B0EB811F00BF42EBBB
:1007D000020228BFA0EB8110B0EB411F00BF42EB2B
:1007E000020228BFA0EB4110B0EB011F00BF42EB9B
:1007F000020228BFA0EB0110B0EBC10F00BF42EB1B
:10080000020228BFA0EBC100B0EB810F00BF42EB9A
:10081000020228BFA0EB8100B0EB410F00BF42EB0A
:10082000020228BFA0EB4100B0EB010F00BF42EB7A
:10083000020228BFA0EB0100104670470CBF012048
:1008400000207047B1FA81F2C2F11F0220FA02F0D3
:10085000704708B14FF0FF3000F00EB80029F8D013
:100860002DE90340FFF7CCFEBDE8064002FB00F394
:10087000A1EB0301704700BF704700BF024B9A68AD
:100880005206FCD4704700BF00080140036882880C
:1008900009B11A6100E05A61012070477F29C4BF85
:1008A000A1F5807189B208B2022390FBF3F04A38B7
:1008B00000B27047044B99811A89D107FCD5024BCD
:1008C0009889C0B2704700BF00300140F8B50B4DA9
:1008D0004FF4807604460F466E61FFF7CFFF204647
:1008E0003946FFF7E7FF84F825002E6194F825309C
:1008F00003F0700384F82530F8BD00BF0008014004
:1009000010B5184904466322174801F059FA002827
:1009100026D03D212046FFF7D9FF94F82530702BD3
:100920000AD01DD893B1602B1AD120463A21FFF787
:10093000CDFF0E480E4905E020463B21FFF7C6FFDC
:100940000A480C49BDE8104001F0D1BB94F82430AE
:10095000012B05D120463421BDE81040FFF7B6BF7A
:1009600010BD00BFDC040020E006002010060020BF
:100970000C230008142300082DE9F041094D4FF421
:100980008076044688466E611746FFF777FF41463A
:100990002046FFF78FFF20463946FFF78BFF2E6179
:1009A000BDE8F0810008014010B50B2104460C227F
:1009B000FFF7E2FF20460C210022FFF7DDFF204673
:1009C0000D212022FFF7D8FF20460E213422FFF709
:1009D000D3FF20460F216222FFF7CEFF20461021D1
:1009E0002D22FFF7C9FF204611212F22FFF7C4FF58
:1009F000204612211322FFF7BFFF20461321A02219
:100A0000FFF7BAFF20461421FF22FFF7B5FF20466B
:100A100000220A21FFF7B0FF152120466222FFF7CE
:100A2000ABFF20462121B622FFF7A6FF2046222158
:100A30001022FFF7A1FF182120460A46FFF79CFF6E
:100A4000204619211D22FFF797FF20461A211C225C
:100A5000FFF792FF20461B210722FFF78DFF20465C
:100A60001C210022FFF788FF20461D21B022FFF73E
:100A700083FF20462321EA22FFF77EFF2046242120
:100A80002A22FFF779FF204625210022FFF774FF75
:100A9000204626211F22FFF76FFF20462C218822A7
:100AA000FFF76AFF20462D213122FFF765FF204620
:100AB0002E210922FFF760FF204603210722FFF7BE
:100AC0005BFF204600212E22FFF756FF2046022121
:100AD0000722FFF751FF204607210E22FFF74CFFA8
:100AE000204608214422FFF747FF20460621162210
:100AF000FFF742FF20463E215022FFF73DFF2046F0
:100B000016210722FFF738FF204617210022BDE8F3
:100B10001040FFF731BF00002DE9F0413D4D3E4E42
:100B200086B08046102228464FF4807101F060F8AC
:100B30002846A021182201F05BF828464021042213
:100B400001F056F808F118044FF4807304222B6169
:100B500020462823294601F081F80821204601F08B
:100B60008BF8204601F0E0F801214FF4805000F0AE
:100B70007BFE4FF482730024ADF8063030464FF40C
:100B8000007301A9ADF80E30ADF80440ADF808408F
:100B9000ADF80A40ADF80C40ADF81240ADF8104089
:100BA00000F07AFE3046012100F095FE40463021EB
:100BB000FFF78CFE3A214046FFF788FE4046FFF7DC
:100BC000F3FE08F10807404629460B22102301F0E6
:100BD00045F808F11006384629460C22102301F08A
:100BE0003DF80F2210233046294601F037F8214600
:100BF0003046FFF74BFE21464046FFF747FE2146B1
:100C00003846FFF743FE30460121FFF73FFE06B0AE
:100C1000BDE8F081000801400030014038B50021F6
:100C2000044600F10800FFF731FE04F11805012128
:100C30002046FFF72BFE284601F076F807222046D3
:100C40000221FFF799FE0821284601F015F82846F1
:100C500001F05AF820463A21FFF738FE01232046DA
:100C6000342184F82430BDE83840FFF72FBEF8B5B2
:100C700004460D46002700F108060CE03621FFF778
:100C800025FE002184F824702046FFF7FFFD304642
:100C90000021FFF7FBFD94F825302046002BEDD115
:100CA0000A212A46BDE8F840FFF766BEF8B5094CB0
:100CB0004FF4807506460F466561FFF7DFFD47F08C
:100CC00080013046FFF7F6FD30460021FFF7F2FDC8
:100CD0002561F8BD00080140F8B50F467B210546A7
:100CE000FFF7E4FF10F07F0405D128463F21FFF70E
:100CF000DDFF2046F8BD0F4B4FF480725A61FFF7BD
:100D0000BDFD2846FF21FFF7D5FD182C34BF264630
:100D10001826002400212846FFF7CCFD3855013461
:100D2000E3B2B342F6D3034B4FF480721A61012051
:100D3000F8BD00BF0008014090F82430022B4FF0AE
:100D4000000310B5044680F8243004D10B48BDE8F8
:100D5000104000F00BBB0A49FFF7BEFF40B1204630
:100D60003A21FFF7B3FD0548BDE8104000F026BB6F
:100D700020463A21BDE81040FFF7A8BDD805002065
:100D8000DD050020F8B50E4B17464FF4807204467F
:100D90005A610D46FFF772FD20467F21FFF78AFD5D
:100DA000002604E0A95D2046FFF784FD0136F3B27A
:100DB000BB42F7D3024B4FF480721A61F8BD00BFFB
:100DC0000008014038B500F118050446284600F037
:100DD000ABFF062220460221FFF7CEFD0C2128465C
:100DE00000F04AFF284600F08FFF162220460A49ED
:100DF000FFF7C8FF00212046FFF748FD012104F15D
:100E00000800FFF743FD02232046352184F82430F3
:100E1000BDE83840FFF75ABDF505002008B51020A1
:100E200000F040FC38B1102000F04AFC0248BDE858
:100E30000840FFF781BF08BDE0040020F0B50121A4
:100E400091B006464FF4003000F01AFD0520012154
:100E500000F00AFD0120014600F0FAFC204C214878
:100E6000214D0422082100F0C3FE4FF41653002741
:100E70000CA90C9320460423ADF83A30ADF8347039
:100E8000ADF83670ADF83870ADF83C7000F0B8FDD4
:100E9000284600F00BFB154B029601935A2304934E
:100EA0004FF400530A93202309932846802301A975
:100EB000069303970597079708970B9700F074FB25
:100EC00020464021012200F0FFFD2846012100F0CC
:100ED00089FB2046012100F0EBFD11B0F0BD00BF01
:100EE00000440040000801406C00024004440040FF
:100EF0007FB505460468002001E002340130C3B22A
:100F00008B4209D226782C2E06D001ABC6546378CA
:100F10002E2BF2D00134F1E74AB14E1EB34206DA6D
:100F200001AAD018CA1A3021FFF7EAF9F3B204AACD
:100F3000D318002203F80C2C2C6001A8FFF772F9DB
:100F400004B070BD7FB500F15A0466496648224678
:100F500001F0CDF8039401E001330393039B1A7869
:100F60002C2AF9D0614C0221002203A82568FFF742
:100F7000BFFF0221E870002203A82568FFF7B8FF31
:100F800002212871002203A82568FFF7B1FF21681C
:100F90006871CA780B79497953480091544901F036
:100FA000A6F8039B13F8012B2C2A0393F9D11B7885
:100FB00000252C2B0FD00221002203A8FFF798FF59
:100FC0004C4D08214543012203A8FFF791FF06235A
:100FD000B0FBF3F46519039B5A1C03925A784E2A0E
:100FE00002D06D422C2A01D002330393039A531C82
:100FF00003933E4B1B68C5F30721D972C5F3074124
:101000001973290E9D72597353782C2B0FD003211D
:10101000002203A8FFF76CFF364C0821444301224D
:1010200003A8FFF765FF0623B0FBF3F52D19039B1B
:101030005A1C03925A78452A02D06D422C2A01D0BC
:1010400002330393039B294E5A1C34680392C5F361
:101050000722A573E273C5F307422D0E657422744F
:101060005A7804AD303A18BF0122033345F8043DE5
:10107000A271284602210022FFF73AFFE07134688E
:10108000A379002B2DD0039B013303930123A3717C
:10109000072100222846FFF72BFF80B22072000AAA
:1010A000607231688B7ACA7AC87B43EA02220B7B72
:1010B00042EA03424B7B42EA03628B7B43EA002312
:1010C000087C43EA0043487C43EA0063C879009007
:1010D000087A497A40EA012101910348064901F062
:1010E00006F87FBD1C230008100600200C05002018
:1010F0002523000880969800352300082DE9F0414B
:10110000044698B04FF4001000F078FA002850D050
:101110004FF4001000F080FA01A821465A22FFF790
:10112000ADF80DF10408244D08F159072B78224E33
:10113000032B35D8DFE803F0020B242F404624218F
:10114000FFF728F901238046002828D12CE01B4B0B
:101150001B491A7898F80000895C0132D2B28842A3
:101160001A7009D1042A1BD902222A70154A04F1E7
:101170005A011160002201E000222A701A700FE06B
:1011800098F8001003230A2909D00E4A136803F8BF
:10119000011B136004E02046FFF7D4FE00233370E8
:1011A000B84506D0012300E0034608F10108002BF2
:1011B000BCD118B0BDE8F081BF05002008050020B3
:1011C0006423000810050020F8B5002000F0EEFAB6
:1011D00000F0D2FC294B2A4D99699A69294C42F0BA
:1011E00001029A61284A506820F0E06040F00070E7
:1011F0005060CA075EBF9A6922F001029A612846D0
:1012000000F09EFD3F21284600F0E4FD1F4800F05D
:10121000FDFD1F48FFF712FE1E480126E0606681B3
:101220000221142200F0E4FC6289267240F2E733C6
:1012300063603746E3689640B6B25E612B68236010
:10124000154C4821204600F061F8144B144804F175
:1012500020021A60134B00251D70FFF75DFC294624
:101260000F48FFF704FD0921A27F0D48FFF784FB1B
:1012700006480D49BDE8F84000F039BF00100240B3
:10128000E0060020C40500200000014010060020F8
:1012900014050020000C0140D80500200C0500209A
:1012A000E0040020D40500206A23000808B5FFF7F9
:1012B0008BFF104C002601250F48FFF721FB0F483C
:1012C00000F028F80E48FFF719FF0E4800F032FE34
:1012D000237A002BF0D00C480649626800F070FDBC
:1012E0000028E9D06289E368267215FA02F292B208
:1012F0001A61E1E7C4050020E0040020D8050020C1
:101300001405002010060020E006002000230371D1
:101310008177704738B50379044613B1032B1FD189
:1013200008E01048FFF77AFC0F4B1B68236003238B
:10133000237138BD0C48214641F65A3200F040FD79
:1013400070B1084D36212846FFF7C0FAA9882A68EF
:10135000002385F824305161AA68A989516123715D
:1013600038BD00BFE0040020E006002010B50446B0
:101370000448FFF753FC044B1B68236003232371CD
:1013800010BD00BFE0040020E006002010B50C46B0
:10139000C17E0948FFF782FA6FF0590304221B1A35
:1013A00093FBF2F322789B181BB223EAE373062B1C
:1013B000A8BF0623237010BDE00400201B4B37B5E7
:1013C00004465889012263211A7259608240D96803
:1013D000174892B24A61174A1568227A1D60164B67
:1013E00004F109011A701222FEF748FFE379256023
:1013F00002A9204601F8013DFFF7C8FFA3790F4A73
:101400000F4963779DF8073012680978E377082B56
:10141000117005D80B4A0C48D25C3E21FFF7ACFA9C
:101420000948FFF7CFFC042323713EBDC40500200B
:10143000C8040020E0060020C00500200C050020A4
:10144000D405002073230008E0040020C37810B501
:10145000E3B1144B4178DB688478DB43C3F30223A8
:10146000C3F1040291400F22DA4022400A430E4B9E
:1014700001781201CB18D2B283F80023037801223D
:10148000590903F01F0312FA03F307E0037801225E
:10149000590903F01F0312FA03F32031024A42F8FC
:1014A000213010BD00ED00E000E100E002684FF6E1
:1014B000FE73134003600023036043608360C360D6
:1014C0002D4B984229D02D4B984230D02C4B98422E
:1014D00037D02C4B98423ED02B4B984206D153F834
:1014E000542C42F4702243F8542C7047274B9842F6
:1014F00006D153F8682C42F4700243F8682C704708
:10150000234B984206D153F87C2C42F0706243F88A
:101510007C2C70471F4B984206D153F8042C42F0A4
:101520000F0243F8042C70471B4B984206D153F826
:10153000182C42F0F00243F8182C7047174B9842D1
:1015400006D153F82C2C42F4706243F82C2C7047CF
:10155000134B984206D153F8402C42F4704243F8A2
:10156000402C70470F4B984202BF53F8542C42F462
:10157000702243F8542C7047080002401C000240BF
:101580003000024044000240580002406C0002401B
:1015900080000240080402401C0402403004024063
:1015A00044040240580402408B68026810B50C6A7B
:1015B00023430C6923434C6923438C692343CC693F
:1015C00023434C6A23438C6A22F4FE4222F0F00249
:1015D000234313430360CB6843600B6883604B680D
:1015E000C36010BD19B1036843F0010303E0026852
:1015F0004FF6FE731340036070470000C3004CBFFA
:10160000034B044B1B6803420CBF002001207047B2
:101610000004024000000240C2004CBF014B024BDC
:10162000586070470004024000000240837910B502
:10163000002B29D01A4B01681C68CA4314401C6057
:101640005C6822405A60027902F1804202F58232DF
:1016500014682143116002689C68D1430C409C606F
:10166000DC682140D9604179102906D1996811437D
:101670009960D9680A43DA6010BD01F1804303F52F
:10168000823319680A4308E00379016803F1804353
:1016900003F582331A6822EA01021A6010BD00BF06
:1016A00000040140054B1A685B69034004D01042F6
:1016B0000CBF00200120704718467047000401400D
:1016C000014B5861704700BF00040140CB7803F024
:1016D0000F02DB0648BF8B782DE9F0430E8848BF28
:1016E0001A4316F0FF0F1FD0046800234FF00108C3
:1016F0004FF00F0C08FA03F707EA0605BD420FD1B9
:101700009F000CFA07F924EA090412FA07F73C4390
:10171000CF78282F08BF456102D0482F08BF056148
:101720000133082BE6D104600E88FF2E21D94468CE
:1017300000234FF001084FF00F0C03F1080708FADF
:1017400007F707EA0605BD420FD19F000CFA07F91B
:1017500024EA090412FA07F73C43CF78282F08BF80
:10176000456102D0482F08BF05610133082BE4D141
:101770004460BDE8F083000030B501F00302890841
:10178000094B0231920053F821500F24944025EA6E
:10179000040443F8214053F8214010FA02F2224396
:1017A00043F8212030BD00BF00000140034B5A68C0
:1017B00022F0F00210435860704700BF0010024052
:1017C00010B51E4B5A6802F00C02042A01D0082AF8
:1017D00002D01B4B036011E05A685968C2F3834280
:1017E0000232C90358BF174B06D5DB6A144903F010
:1017F0000F030133B1FBF3F35A4302600F4B12495D
:101800005A680468C2F303128A5C34FA02F2426036
:101810005C68C4F302240C5D32FA04F484605C68F2
:10182000C4F3C224095DCA40C2605B680749C3F3C0
:101830008133CB5CB2FBF3F2026110BD00100240B9
:1018400000127A0000093D00380400203404002012
:10185000044B5A6909B1104301E022EA00005861C3
:10186000704700BF00100240044B9A6909B1104351
:1018700001E022EA00009861704700BF00100240BA
:10188000044BDA6909B1104301E022EA0000D86193
:10189000704700BF001002400B88028810B54C88CA
:1018A00023438C882343CC8823430C8923434C89CE
:1018B00023438C892343CC8902F4415223431343AD
:1018C0009BB20380838B23F400631B041B0C838374
:1018D0000B8A038210BD038819B19BB243F0400309
:1018E00003E023F040031B041B0C0380704700003F
:1018F0002B4A0388C2EB000CDCF1000230B5294C06
:1019000042EB0C02A04208BF42F001029BB2C2B9F6
:10191000A0F180456C4244EB0504234DA84208BF6A
:1019200044F001046CB9214CC4EB000CDCF1000460
:1019300044EB0C0405F50065A84208BF44F001041F
:101940001CB14C8823F070032343194C194D041B20
:1019500018BF0124A8420CBF002404F0010424B1E4
:1019600023F44073CC889BB2234303808B88838508
:101970000B8803857AB9104B104AC3EB000CDCF1DD
:10198000000343EB0C03904208BF43F0010313B97B
:101990000B4B984201D10B7A03860123838230BD21
:1019A000002C0140003401400004004000080040C9
:1019B000001000400014004000400140004401407D
:1019C00000480140038819B19BB243F0010303E0D2
:1019D00023F001031B041B0C0380704783899BB217
:1019E0000AB1194301E023EA010181817047C9432B
:1019F00089B201827047C94389B2018270470000F1
:101A000030B5038ACA8823F440531B041B0C0D46CF
:101A10001343038283890989AA8823F4B0530A43B4
:101A2000698923F00C030A431B041B0C92B2134375
:101A30008381838AAA8923F440731B041B0C87B01B
:101A400013430446838201A8FFF7BAFE174BA2890D
:101A50009C420CBF049B039B12B2002A4FF0190159
:101A60002A6801FB03F101DA520000E092006423CE
:101A7000B1FBF2F1B1FBF3F21201100903FB1011FB
:101A8000A08900B2002806DAC9003231B1FBF3F3B5
:101A900003F0070305E009013231B1FBF3F303F072
:101AA0000F031A4392B2228107B030BD00380140C3
:101AB000838919B19BB243F4005303E023F400532C
:101AC0001B041B0C83817047838A9BB20AB11943A4
:101AD00001E023EA0101818270470000002103E058
:101AE0000B4B5B58435004310A480B4B42189A4247
:101AF000F6D30A4A02E0002342F8043B084B9A421C
:101B0000F9D300F011F8FEF795FBFFF7CFFB704714
:101B1000A0230008000000205C0400205C040020DA
:101B2000E4060020FEE70000104B1A6842F00102B4
:101B30001A6059680E4A0A405A601A6822F0847284
:101B400022F480321A601A6822F480221A605A68DD
:101B500022F4FE025A604FF41F029A600022DA62F9
:101B6000044B4FF000629A60704700BF00100240C3
:101B70000000FFF800ED00E0144A154B516801F039
:101B80000C01042901D0082902D0124A1A6011E080
:101B900051685068C1F383410231C00358BF0E4AF7
:101BA00006D5D26A0B4802F00F020132B0FBF2F206
:101BB00051431960054B094A5B68C3F30313D25CB8
:101BC000034B196831FA02F21A60704700100240A4
:101BD0005804002000127A0000093D00480400204B
:101BE000092802D83030C0B270473730C0B27047D1
:101BF000184B73B5044604209C420D4616460ED081
:101C000003F5806308209C4209D003F5806310200F
:101C10009C4204D0104884420CBF20200020A6F132
:101C20001C02534243EB0203182E08BF43F001038A
:101C30000BB140F001000121FFF716FE03232046FF
:101C400001A98DF80630ADF804508DF80760FFF754
:101C50003DFD7CBD000801400014014010B50C465C
:101C60000121914089B2C280818004601A462046D9
:101C7000BDE81040FFF7BCBF37B5044601200D4654
:101C80000146FFF7F1FDE388042B01D806330AE093
:101C90005A1F92B2042A01D8172304E00A3B9BB2D0
:101CA000052B01D82823A3602368134A934202D14D
:101CB000A179002010E0114A934202D1A1790120BC
:101CC0000AE00F4A934202D1A179022004E00D4AB2
:101CD000934203D1A1790320FFF74EFDA3888DF82D
:101CE0000550009300238DF80430684601238DF8D9
:101CF0000630FFF79BFC3EBD00080140000C014090
:101D0000001001400014014007B583688DF80430CD
:101D10000F238DF805308DF8063001A801238DF8CA
:101D20000730FFF793FB0EBD07B5836801A88DF858
:101D3000043000238DF80730FFF788FB0EBD00004C
:101D400030B585B001241C23002503A88DF80C3084
:101D50008DF80D408DF80E508DF80F40FFF776FB93
:101D600020462146FFF78CFD6422ADF80420124A7C
:101D7000ADF802501168114AADF80650B1FBF2F20D
:101D8000013A69464FF08040ADF800208DF80850C8
:101D9000FFF7AEFD21464FF08040FFF713FE2146CE
:101DA0004FF08040FFF723FE4FF08040214622464F
:101DB000FFF714FE05B030BD58040020A0860100D6
:101DC00003680868181A904202D30B60012070471C
:101DD00000207047054B1A6842F21073B2FBF3F310
:101DE00059430B460139002BFBD1704758040020A2
:101DF00008B54FF080400121FFF7FDFD024B1A6846
:101E000001321A6008BD00BFE00600202DE9F04154
:101E100006460024012590B0C6F8C80080F8CC40E2
:101E200080F8CD5029464FF48040FFF71DFD052076
:101E30002946FFF719FD28462946FFF709FD224FDD
:101E40002248DFF8908018224FF40071FFF7D0FE8F
:101E50004FF4E1330CA90C9338460823ADF83A301F
:101E6000ADF83440ADF83640ADF83840ADF83C4000
:101E7000FFF7C6FD4046FFF719FB154B0994019388
:101E8000D6F8C83005940293632304934FF40053AB
:101E90000A9380261023404601A9039306960794CF
:101EA00008940B94FFF780FB384631462246FFF733
:101EB0000BFE40462146FFF795FB38462946FFF7C3
:101EC000F7FD10B0BDE8F081003801400008014086
:101ED000043801404400024070B50025134E80F8DC
:101EE000CD5004462A4680211148FFF7EDFD3046CB
:101EF0002946FFF777FBD4F8C830F36094F8CC306C
:101F0000012173603046FFF76DFB012280210848F4
:101F1000FFF7DAFDD4F8C82084F8CC50A24223465B
:101F200008BF04F16303C4F8C83070BD4400024028
:101F30000038014010B504464FF40050FFF75EFB37
:101F400070B14FF40050FFF767FB94F8CC3023B129
:101F50002046BDE81040FFF7BFBF012384F8CD3015
:101F600010BD90F8CC30622B06D8D0F8C820D154E0
:101F7000013380F8CC30704790F8CD300BB1FFF7CB
:101F8000ABBF704711F07F4F0CBF00230123062A1F
:101F900088BF43F0010370B505460C4616467BB179
:101FA000080FFFF71DFE01462846FFF7DAFFC4F3CE
:101FB0000360FFF715FE01462846FFF7D2FF012315
:101FC00014F47F0F02D10BB9042E10D9C4F30350BF
:101FD000FFF706FE01462846FFF7C3FFC4F30340A0
:101FE000FFF7FEFD01462846FFF7BBFF012314F46F
:101FF0007F4F02D10BB9022E0FD9C4F30330FFF784
:10200000EFFD01462846FFF7ACFFC4F30320FFF7BE
:10201000E7FD01462846FFF7A4FFC4F30310FFF7CE
:10202000DFFD01462846FFF79CFF04F00F00FFF795
:10203000D7FD01462846BDE87040FFF792BFF8B5CE
:1020400005460F461646002409E0395D284602225F
:10205000FFF798FF28462021FFF783FF0134B442A1
:10206000F3D1F8BD2DE9F041174D07460E469046D5
:102070000FCD8AB001AC0FC40FCD0FC42B68236005
:1020800000246D46234612E00131C9B2B61A9642C9
:10209000FAD2302904D11BB9C4F10902424503DA4E
:1020A0003846FFF75EFF01230134092C03D055F8B1
:1020B000042F3021EBE73036F1B238460AB0BDE8E4
:1020C000F041FFF74EBF00BFE4210008002970B5C2
:1020D00005460C46164603DA2D21FFF742FF6442FF
:1020E000284621463246BDE87040FFF7BBBF0EB41C
:1020F000F3B507AB044653F8045B0026019363E095
:10210000252902D1002E5DD00FE0002E56D06A782E
:10211000303AD2B2092A01D8013500E00022632901
:1021200007D1019B1A1D197801922046FFF719FF6C
:1021300012E0752907D1019B191D019120461968EC
:10214000FFF790FF08E0692908D1019B191D019153
:1021500020461968FFF7BAFF002634E0A1F17300AA
:10216000464246EB0006532908BF46F001066EB111
:10217000019B1A1D01921F6802E02046FFF7F1FE45
:1021800017F8011B0029F8D10E461CE0582907D189
:10219000019B191D019120461968FFF7F3FE12E01B
:1021A000412910D1019B1A1D01921A46204652F86E
:1021B000081B01925A68FFF742FF04E02046FFF730
:1021C000D0FE00E0012601352978002998D194F845
:1021D000CD3013B12046FFF77FFEBDE8FC4003B0D1
:1021E0007047000000CA9A3B00E1F5058096980010
:1021F00040420F00A086010010270000E803000005
:10220000640000000A000000002020202020202080
:102210002020282828282820202020202020202096
:1022200020202020202020202088101010101010A6
:1022300010101010101010101004040404040404F2
:10224000040404101010101010104141414141418C
:10225000010101010101010101010101010101016E
:10226000010101011010101010104242424242427E
:10227000020202020202020202020202020202023E
:1022800002020202101010102000000000000000E6
:10229000000000000000000000000000000000003E
:1022A000000000000000000000000000000000002E
:1022B000000000000000000000000000000000001E
:1022C000000000000000000000000000000000000E
:1022D00000000000000000000000000000000000FE
:1022E00000000000000000000000000000000000EE
:1022F00000000000000000000000000000000000DE
:102300000000000000000000000000005258206F94
:1023100076660D005458206F76660D004D73673A4F
:102320002025530D0054696D653A2025753A2575B1
:102330003A25750D004C61743A2025693B204C6E9E
:10234000673A2025693B20536174436F756E743A78
:102350002025753B20507265636973696F6E3A2062
:1023600025750D004750474741000D436F6C6C6168
:10237000720D0003171D26375081CBC243000000A9
:10238000F8B500BFF8BC08BC9E467047F8B500BF62
:08239000F8BC08BC9E46704732
:04239800F501000843
:04239C00D101000863
:1023A000080000200000000000000000F4020020EF
:1023B0005C030020C40300200000000000000000B7
:1023C000000000000000000000000000000000000D
:1023D0000000000000000000000000007C23000856
:1023E00000000000000000000000000000000000ED
:1023F00000000000000000000000000000000000DD
:1024000000000000000000000000000000000000CC
:1024100000000000000000000000000000000000BC
:1024200000000000000000000000000000000000AC
:10243000000000000000000000000000000000009C
:10244000000000000000000000000000000000008C
:1024500001000000000000000E33CDAB34126DE629
:10246000ECDE05000B000000000000000000000092
:10247000000000000000000000000000000000005C
:10248000000000000000000000000000000000004C
:10249000000000000000000000000000000000003C
:1024A000000000000000000000000000000000002C
:1027D00008220008020406080000000001020304A9
:1027E00001020304060708090000000000000000C1
:0C27F000010203040607080900127A0029
:0400000508001ADDF8
:00000001FF
