:020000040800F2
:1000000000100020B90C0008010D0008010D0008C7
:10001000010D0008010D0008010D0008000000009E
:10002000000000000000000000000000010D0008BA
:10003000010D000800000000010D0008010D00087E
:10004000010D0008010D0008010D0008010D000858
:10005000010D0008010D0008010D0008010D000848
:10006000010D0008D9050008010D0008010D000868
:10007000010D0008010D0008010D0008010D000828
:10008000010D0008010D0008010D0008000000002E
:10009000000000000000000000000000010D00084A
:1000A000010D0008010D0008010D0008010D0008F8
:1000B000D90E0008010D000800000000010D000825
:1000C000010D00080000000000000000010D000804
:1000D00000000000010D0008010D000800000000F4
:1000E000010D0008010D0008010D000800000000CE
:1000F0000000000000000000000000000000000000
:1001000000000000000000000000000000000000EF
:100110000000000000000000010D0008010D0008B3
:1001200000000000000000000000000000000000CF
:1001300000000000000000000000000000000000BF
:1001400000000000000000000000000000000000AF
:10015000000000000000000000000000000000009F
:10016000000000000000000000000000000000008F
:10017000000000000000000000000000000000007F
:10018000000000000000000000000000000000006F
:10019000000000000000000000000000000000005F
:1001A000000000000000000000000000000000004F
:1001B000000000000000000000000000000000003F
:1001C0000000000000000000000000005FF808F1DF
:1001D00010B5054C237833B9044B13B10448AFF381
:1001E00000800123237010BD2800002000000000C3
:1001F0000C12000808B5064B1BB106480649AFF3C0
:1002000000800648036813B1054B03B1984708BD49
:10021000000000000C1200082C0000202800002024
:100220000000000070B50D4D0D4E761BB61006D0C7
:10023000002455F8043B01349847A642F9D1094DF2
:1002400000F0E4FF084E761BB61006D0002455F8E7
:10025000043B01349847A642F9D170BD241200082E
:10026000241200082412000828120008024B9A6881
:100270005206FCD4704700BF0008014007B50923AF
:100280008DF804300F238DF805308DF8063001A865
:1002900001238DF8073000F049FA0EBD07B5092398
:1002A0008DF8043001A800238DF8073000F03EFAE5
:1002B0000EBD0000044B99811A89D107FCD5024B71
:1002C0009889C0B2704700BF00300140F8B5094DB1
:1002D000102604460F466E61FFF7C8FF20463946D8
:1002E000FFF7E8FF60702E61637803F070036370BE
:1002F000F8BD00BF0008014010B50023037036218F
:100300000446FFF7E3FF2046BDE81040FFF7B6BF05
:100310002DE9F041094D1026044688466E611746C6
:10032000FFF7A4FF41462046FFF7C4FF20463946A9
:10033000FFF7C0FF2E61BDE8F08100BF000801405B
:1003400010B50B2104460A22FFF7E2FF20460C21DC
:100350000022FFF7DDFF20460D215A22FFF7D8FFCC
:1003600020460E210022FFF7D3FF20460F21002256
:10037000FFF7CEFF204610212D22FFF7C9FF2046B0
:1003800011212F22FFF7C4FF204612217322FFF70D
:10039000BFFF20461321A222FFF7BAFF20461421F7
:1003A000E522FFF7B5FF204600221521FFF7B0FF39
:1003B00021212046B622FFF7ABFF20462221102242
:1003C000FFF7A6FF182120460A46FFF7A1FF2046A7
:1003D00019211D22FFF79CFF20461A211C22FFF73E
:1003E00097FF20461B21C722FFF792FF20461C21C2
:1003F0000022FFF78DFF20461D21B022FFF788FF66
:1004000020462321EA22FFF783FF204624210A22E7
:10041000FFF77EFF204625210022FFF779FF2046C7
:1004200026211122FFF774FF204629215922FFF7C8
:100430006FFF20462C218822FFF76AFF20462D21DE
:100440003122FFF765FF20462E210B22FFF760FFC8
:10045000204603210722FFF75BFF204600210E22E2
:10046000FFF756FF204602210622FFF751FF2046E4
:1004700007210C22FFF74CFF204608214422FFF7FA
:1004800047FF204606211422FFF742FF20463E2167
:10049000FF22FFF73DFF204616210722FFF738FF16
:1004A000204617210022BDE81040FFF731BF0000B1
:1004B000F0B5314D314F89B00446FFF7EFFE102102
:1004C00028460A4600F07AFC2846A021182200F0AF
:1004D00075FC28464021042200F070FC28222846A2
:1004E000082100F06BFC102303212B61002000F099
:1004F000F3F9082300250126069306A80C238DF89E
:100500001D308DF81C508DF81E6000F03FF931460B
:100510004FF4805000F04CFA384600F079FA4FF46E
:100520008273ADF8063038464FF4007301A9ADF878
:100530000E30ADF80450ADF80850ADF80A50ADF8E3
:100540000C50ADF81250ADF8105000F093FA384648
:10055000314600F0AEFA20463021FFF7B7FE2046C4
:100560003A21FFF7B3FE2046FFF7EAFE2046FFF7E9
:1005700085FE09B0F0BD00BF000801400030014019
:1005800038B504460D4602E03621FFF79FFE63783A
:100590002046002BF8D10A212A46BDE83840FFF753
:1005A000B7BE0000F8B50B4E10230546736100F18D
:1005B0001907FFF75BFE28467F21FFF77BFE00242B
:1005C000395D28460134FFF775FE142CF8D110234D
:1005D0003361F8BD0008014008B5082000F012F9A9
:1005E00038B1082000F01CF90248BDE8084000F0CE
:1005F00097B808BD44000020F8B5194CA02000F0C1
:1006000085F900F0A7FB204600F00EFC20463F21B4
:1006100000F054FC00F06EFC124B1348134C586071
:1006200000251D801022012100F0C8FB072720466D
:10063000FFF73EFF20462946A776FFF7A1FF204699
:1006400009213A46FFF764FE2046FFF755FE084BA6
:1006500008481D702E46BDE8F84000F02DBD00BFD3
:10066000940000207C00002000080140440000208D
:1006700090000020E4110008037810B50446002B18
:1006800033D11A4B1B78002B2FD13D21FFF71EFED3
:100690006378702B09D028D883B1602B25D11448FA
:1006A00000F00AFD20463A2104E0124800F004FD63
:1006B00020463B21BDE81040FFF708BE0E480F4919
:1006C00040F2E73200F0F0FB18B10D482D2100F0A8
:1006D00051FDCF2363762046FFF764FF2046352186
:1006E000FFF7F4FD014B01221A7010BD90000020AD
:1006F000F811000800120008940000207800002083
:100700007C00002008B5FFF777FF034800F040FDAC
:100710000248FFF7B1FFF8E77C000020440000200A
:10072000014B00221A70704790000020C37810B56A
:10073000E3B1144B4178DB688478DB43C3F30223D5
:10074000C3F1040291400F22DA4022400A430E4BCB
:1007500001781201CB18D2B283F80023037801226A
:10076000590903F01F0312FA03F307E0037801228B
:10077000590903F01F0312FA03F32031024A42F829
:10078000213010BD00ED00E000E100E0837910B5FC
:10079000002B29D01A4B01681C68CA4314401C6006
:1007A0005C6822405A60027902F1804202F582328E
:1007B00014682143116002689C68D1430C409C601E
:1007C000DC682140D9604179102906D1996811432C
:1007D0009960D9680A43DA6010BD01F1804303F5DE
:1007E000823319680A4308E00379016803F1804302
:1007F00003F582331A6822EA01021A6010BD00BFB5
:1008000000040140054B1A685B69034004D01042A4
:100810000CBF0020012070471846704700040140BB
:10082000014B5861704700BF00040140CB7803F0D2
:100830000F02DB0648BF8B782DE9F0430E8848BFD6
:100840001A4316F0FF0F1FD0046800234FF0010871
:100850004FF00F0C08FA03F707EA0605BD420FD167
:100860009F000CFA07F924EA090412FA07F73C433F
:10087000CF78282F08BF456102D0482F08BF0561F7
:100880000133082BE6D104600E88FF2E21D944687D
:1008900000234FF001084FF00F0C03F1080708FA8E
:1008A00007F707EA0605BD420FD19F000CFA07F9CA
:1008B00024EA090412FA07F73C43CF78282F08BF2F
:1008C000456102D0482F08BF05610133082BE4D1F0
:1008D0004460BDE8F083000030B501F003028908F0
:1008E000094B0231920053F821500F24944025EA1D
:1008F000040443F8214053F8214010FA02F2224345
:1009000043F8212030BD00BF00000140034B5A686E
:1009100022F0F00210435860704700BF0010024000
:1009200010B51E4B5A6802F00C02042A01D0082AA6
:1009300002D01B4B036011E05A685968C2F383422E
:100940000232C90358BF174B06D5DB6A144903F0BE
:100950000F030133B1FBF3F35A4302600F4B12490B
:100960005A680468C2F303128A5C34FA02F24260E5
:100970005C68C4F302240C5D32FA04F484605C68A1
:10098000C4F3C224095DCA40C2605B680749C3F36F
:100990008133CB5CB2FBF3F2026110BD0010024068
:1009A00000127A0000093D00040000200000002031
:1009B000044B9A6909B1104301E022EA00009861F2
:1009C000704700BF00100240044BDA6909B11043C0
:1009D00001E022EA0000D861704700BF0010024029
:1009E000044BDA6809B1104301E022EA0000D86044
:1009F000704700BF00100240044B1A6909B1104350
:100A000001E022EA00001861704700BF00100240B8
:100A100008B5154B98420BD101214FF48050FFF7D8
:100A2000DFFF4FF480500021BDE80840FFF7D8BF3A
:100A30000E4B984207D14FF480400121FFF7DCFFB5
:100A40004FF4804009E00A4B98420BD14FF400402C
:100A50000121FFF7D1FF4FF400400021BDE808401D
:100A6000FFF7CABF08BD00BF00300140003800409A
:100A7000003C00400B88028810B54C8823438C88CA
:100A80002343CC8823430C8923434C8923438C89FB
:100A90002343CC8902F44152234313439BB2038086
:100AA000838B23F400631B041B0C83830B8A038258
:100AB00010BD038819B19BB243F0400303E023F05B
:100AC00040031B041B0C0380704700002B4A038863
:100AD000C2EB000CDCF1000230B5294C42EB0C02F9
:100AE000A04208BF42F001029BB2C2B9A0F180450A
:100AF0006C4244EB0504234DA84208BF44F00104B6
:100B00006CB9214CC4EB000CDCF1000444EB0C0488
:100B100005F50065A84208BF44F001041CB14C88EB
:100B200023F070032343194C194D041B18BF0124F3
:100B3000A8420CBF002404F0010424B123F4407344
:100B4000CC889BB2234303808B8883850B880385E5
:100B50007AB9104B104AC3EB000CDCF1000343EBF5
:100B60000C03904208BF43F0010313B90B4B9842AA
:100B700001D10B7A03860123838230BD002C014012
:100B80000034014000040040000800400010004014
:100B90000014004000400140004401400048014072
:100BA000038819B19BB243F0010303E023F0010372
:100BB0001B041B0C0380704783899BB20AB1194345
:100BC00001E023EA010181817047C94389B20182B2
:100BD0007047C94389B201827047000030B5038A6B
:100BE000CA8823F440531B041B0C0D461343038295
:100BF00083890989AA8823F4B0530A43698923F0B9
:100C00000C030A431B041B0C92B213438381838A97
:100C1000AA8923F440731B041B0C87B013430446BA
:100C2000838201A8FFF77CFE174BA2899C420CBF70
:100C3000049B039B12B2002A4FF019012A6801FBA2
:100C400003F101DA520000E092006423B1FBF2F1FB
:100C5000B1FBF3F21201100903FB1011A08900B2DD
:100C6000002806DAC9003231B1FBF3F303F00703C1
:100C700005E009013231B1FBF3F303F00F031A432E
:100C800092B2228107B030BD00380140838919B18A
:100C90009BB243F4005303E023F400531B041B0CEA
:100CA00083817047C905C90D818070470388194247
:100CB0000CBF002001207047002103E00B4B5B5864
:100CC000435004310A480B4B42189A42F6D30A4A61
:100CD00002E0002342F8043B084B9A42F9D300F0AB
:100CE00011F8FFF79FFAFFF70DFD70472C1200086F
:100CF000000000202800002028000020980000208C
:100D0000FEE70000104B1A6842F001021A605968B1
:100D10000E4A0A405A601A6822F0847222F4803225
:100D20001A601A6822F480221A605A6822F4FE02BD
:100D30005A604FF41F029A600022DA62044B4FF0AF
:100D400000629A60704700BF001002400000FFF888
:100D500000ED00E0144A154B516801F00C01042924
:100D600001D0082902D0124A1A6011E05168506877
:100D7000C1F383410231C00358BF0E4A06D5D26A7F
:100D80000B4802F00F020132B0FBF2F2514319603E
:100D9000054B094A5B68C3F30313D25C034B196824
:100DA00031FA02F21A60704700100240240000205D
:100DB00000127A0000093D0014000020184B73B5A2
:100DC000044604209C420D4616460ED003F580636F
:100DD00008209C4209D003F5806310209C4204D077
:100DE000104884420CBF20200020A6F11C02534270
:100DF00043EB0203182E08BF43F001030BB140F090
:100E000001000121FFF7D4FD0323204601A98DF83D
:100E10000630ADF804508DF80760FFF707FD7CBD84
:100E2000000801400014014030B585B001241C23A6
:100E3000002503A88DF80C308DF80D408DF80E506C
:100E40008DF80F40FFF772FC20462146FFF7BCFDEE
:100E50006422ADF80420124AADF802501168114A1C
:100E6000ADF80650B1FBF2F2013A69464FF080400E
:100E7000ADF800208DF80850FFF728FE21464FF00E
:100E80008040FFF78DFE21464FF08040FFF79DFE2A
:100E90004FF0804021462246FFF78EFE05B030BD60
:100EA00024000020A086010003680868181A9042F8
:100EB00002D30B600120704700207047054B1A6871
:100EC00042F21073B2FBF3F359430B460139002B86
:100ED000FBD170472400002008B54FF0804001216D
:100EE000FFF777FE024B1A6801321A6008BD00BF97
:100EF0009400002010B5012186B04FF48040FFF728
:100F000057FD05200121FFF753FD18238DF81730F9
:100F10004FF40073ADF8143005A903230F488DF882
:100F200016300F4CFFF782FC4FF416530193002349
:100F3000ADF80830ADF80A30ADF80C30ADF810302F
:100F40002046082301A9ADF80E30FFF747FE2046E2
:100F50000121FFF79BFE06B010BD00BF0008014055
:100F600000380140014608B50448FFF79BFE0348DE
:100F70004021FFF79BFE0028F9D008BD0038014052
:100F8000092802D83030C0B270473730C0B270473D
:100F900010F07F4310B504460BD0000FFFF7F0FFB1
:100FA000FFF7E0FFC4F30360FFF7EAFFFFF7DAFFA4
:100FB000012314F47F0F00D163B1C4F30350FFF792
:100FC000DFFFFFF7CFFFC4F30340FFF7D9FFFFF7C1
:100FD000C9FF012314F47F4F00D15BB1C4F3033088
:100FE000FFF7CEFFFFF7BEFFC4F30320FFF7C8FFF4
:100FF000FFF7B8FFC4F30310FFF7C2FFFFF7B2FF1C
:1010000004F00F00FFF7BCFFBDE81040FFF7AABFD8
:1010100070B5134D06460FCD8AB001AC0FC40FCD8D
:101020000FC42B682360002423460DE00130C0B2BA
:10103000B61A9642FAD2302800D113B1FFF792FFC8
:1010400001230434242C03D001AA3020A258F0E755
:101050003036F0B20AB0BDE87040FFF783BF00BF82
:10106000C0110008002810B5044604DA2D20FFF74F
:1010700079FF644202E02020FFF774FF2046BDE8BC
:101080001040FFF7C5BF10B5044601E0FFF76AFF47
:1010900014F8010B0028F9D110BD70B504460E46B6
:1010A000002506E0605DFFF773FF2020FFF75AFF81
:1010B0000135B542F6D170BD0FB437B506AB53F864
:1010C000045B019305E0252805D1002C48D0FFF7EB
:1010D00049FF002445E0002C3FD0632804D1019B48
:1010E0001A1D01921878F2E7752806D1019B1A1D86
:1010F00018680192FFF78CFFEBE7692806D1019B86
:101100001A1D18680192FFF7ADFFE2E7582806D1D3
:10111000019B1A1D18680192FFF73AFFD9E7A0F169
:1011200073035C4244EB0304532808BF44F00104FA
:1011300034B1019B1A1D01921868FFF7A4FFC8E79C
:1011400048280ED1019B1A1D01921A46596852F87F
:10115000080B0192FFF7A1FF03E0FFF703FF00E098
:10116000012415F8010B0028ADD1BDE83E4004B0C4
:1011700070470000C16001884268012303748B40FE
:101180009BB21361014B1B68836070479400002081
:10119000037C10B504467BB100F10801E268074802
:1011A000FFF782FE40B1228800230121237411FA47
:1011B00002F2636892B25A6110BD00BF9400002031
:1011C00000CA9A3B00E1F5058096980040420F0066
:1011D000A086010010270000E80300006400000062
:1011E0000A0000000D4F6C77656E207472616E739B
:1011F0006D69747465720D005258206F76660D002B
:10120000545820756E64660D00000000F8B500BFEC
:10121000F8BC08BC9E467047F8B500BFF8BC08BCD7
:041220009E4670472F
:04122400F5010008C8
:04122800D1010008E8
:10122C00020406080000000001020304010203048A
:10123C00060708090000000000000000010203047A
:08124C000607080900127A00F0
:0400000508000CB92A
:00000001FF
