:020000040800F2
:1000000000100020A90D0008F10D0008F10D0008F6
:10001000F10D0008F10D0008F10D000800000000CE
:10002000000000000000000000000000F10D0008CA
:10003000F10D000800000000F10D0008F10D0008AE
:10004000F10D0008F10D0008F10D0008F10D000898
:10005000F10D0008F10D0008F10D0008F10D000888
:10006000F10D000855060008F10D0008F10D00081B
:10007000F10D0008F10D0008F10D0008F10D000868
:10008000F10D0008F10D0008F10D0008000000005E
:10009000000000000000000000000000F10D00085A
:1000A000F10D0008F10D0008F10D0008F10D000838
:1000B000C90F0008F10D000800000000F10D000854
:1000C000F10D00080000000000000000F10D000824
:1000D00000000000F10D0008F10D00080000000014
:1000E000F10D0008F10D0008F10D000800000000FE
:1000F0000000000000000000000000000000000000
:1001000000000000000000000000000000000000EF
:100110000000000000000000F10D0008F10D0008D3
:1001200000000000000000000000000000000000CF
:1001300000000000000000000000000000000000BF
:1001400000000000000000000000000000000000AF
:10015000000000000000000000000000000000009F
:10016000000000000000000000000000000000008F
:10017000000000000000000000000000000000007F
:10018000000000000000000000000000000000006F
:10019000000000000000000000000000000000005F
:1001A000000000000000000000000000000000004F
:1001B000000000000000000000000000000000003F
:1001C0000000000000000000000000005FF808F1DF
:1001D00010B5054C237833B9044B13B10448AFF381
:1001E00000800123237010BD2800002000000000C3
:1001F0007014000808B5064B1BB106480649AFF35A
:1002000000800648036813B1054B03B1984708BD49
:1002100000000000701400082C00002028000020BE
:100220000000000070B50D4D0D4E761BB61006D0C7
:10023000002455F8043B01349847A642F9D1094DF2
:1002400001F016F9084E761BB61006D0002455F8BA
:10025000043B01349847A642F9D170BD88140008C8
:1002600088140008881400088C140008024B9A684F
:100270005206FCD4704700BF0008014007B50923AF
:100280008DF804300F238DF805308DF8063001A865
:1002900001238DF8073000F0C1FA0EBD07B5092320
:1002A0008DF8043001A800238DF8073000F0B6FA6D
:1002B0000EBD0000044B99811A89D107FCD5024B71
:1002C0009889C0B2704700BF00300140F8B5094DB1
:1002D000102604460F466E61FFF7C8FF20463946D8
:1002E000FFF7E8FF60702E61637803F070036370BE
:1002F000F8BD00BF0008014010B534210446FFF7E7
:10030000E5FF2046BDE81040FFF7B8BF10B5002359
:10031000037036210446FFF7D9FF2046BDE81040A0
:10032000FFF7ACBF10B50446FFF7B8FF20463621F3
:10033000FFF7CCFF20463921FFF7C8FF01232370C8
:1003400010BD00002DE9F041094D102604468846F5
:100350006E611746FFF78AFF41462046FFF7AAFF66
:1003600020463946FFF7A6FF2E61BDE8F08100BFA9
:100370000008014010B50B2104460A22FFF7E2FFF6
:1003800020460C210022FFF7DDFF20460D215A22D6
:10039000FFF7D8FF20460E210022FFF7D3FF2046AB
:1003A0000F210022FFF7CEFF204610212D22FFF75C
:1003B000C9FF204611212F22FFF7C4FF204612213A
:1003C0007322FFF7BFFF20461321A222FFF7BAFFD7
:1003D00020461421E522FFF7B5FF20460022152113
:1003E000FFF7B0FF21212046B622FFF7ABFF2046E2
:1003F00022211022FFF7A6FF182120460A46FFF708
:10040000A1FF204619211D22FFF79CFF20461A213B
:100410001C22FFF797FF20461B21C722FFF792FF00
:1004200020461C210022FFF78DFF20461D21B0220F
:10043000FFF788FF20462321EA22FFF783FF2046AB
:1004400024210A22FFF77EFF204625210022FFF704
:1004500079FF204626211122FFF774FF204629212B
:100460005922FFF76FFF20462C218822FFF76AFFF1
:1004700020462D213122FFF765FF20462E210B2239
:10048000FFF760FF204603210722FFF75BFF2046AE
:1004900000210E22FFF756FF204602210622FFF719
:1004A00051FF204607210C22FFF74CFF2046082170
:1004B0004422FFF747FF204606211422FFF742FFA0
:1004C00020463E21FF22FFF73DFF2046162107224E
:1004D000FFF738FF204617210022BDE81040FFF744
:1004E00031BF0000F0B5314D314F89B00446FFF700
:1004F000D5FE102128460A4600F0D8FC2846A02147
:10050000182200F0D3FC28464021042200F0CEFC43
:1005100028222846082100F0C9FC102303212B6162
:10052000002000F051FA082300250126069306A8B2
:100530000C238DF81D308DF81C508DF81E6000F0D6
:100540009DF931464FF4805000F0AAFA384600F089
:10055000D7FA4FF48273ADF8063038464FF4007383
:1005600001A9ADF80E30ADF80450ADF80850ADF863
:100570000A50ADF80C50ADF81250ADF8105000F024
:10058000F1FA3846314600F00CFB20463021FFF7E7
:100590009DFE20463A21FFF799FE2046FFF7EAFE2E
:1005A0002046FFF76BFE09B0F0BD00BF0008014018
:1005B0000030014038B504460D4602E03621FFF711
:1005C00085FE63782046002BF8D10A212A46BDE833
:1005D0003840FFF7B7BE0000F8B5094C10250646B5
:1005E0000F466561FFF742FE47F080013046FFF796
:1005F00061FE30460021FFF75DFE2561F8BD00BFBA
:1006000000080140F8B57B210546FFF7E5FF10F033
:100610007F001BD00E4B10225A61162834BF0646AD
:100620001626FFF723FE2846FF21FFF743FEEF1CA7
:10063000002400212846FFF73DFE38550134E3B27F
:10064000B342F6D3024B10221A610120F8BD00BF5D
:100650000008014008B5082000F04CF938B1082026
:1006600000F056F90248BDE8084000F0B5B808BDF2
:100670004400002030B51E4C1E4D85B0A02000F077
:10068000BDF900F0DFFB204600F046FC20463F218C
:10069000002400F08BFC00F0A5FCFA238DE8180084
:1006A000042302932846144B14490394092200F0B2
:1006B000E5FDEA681480124A2C82AC74114D147066
:1006C0002846FFF70FFF28462146FFF773FF092151
:1006D000CF222846FFF736FE2846FFF723FE28469E
:1006E000FFF714FE084805B0BDE8304000F05CBDDF
:1006F000980000208000002000080040000C01400D
:100700007C000020440000204C140008037810B541
:100710000446002B31D13D21FFF7D8FD6378102B23
:100720001FD001D88BB110BD602B02D0702B24D10B
:1007300005E0124800F038FD20463A2119E0104843
:1007400000F032FD20463B2113E00E480E4940F2F6
:10075000E73200F021FC80B12046BDE81040FFF7F1
:10076000CBBD084808492D2200F016FC28B12046D0
:100770003621BDE81040FFF7A9BD10BD5D1400088B
:1007800065140008980000207800002038B5FFF7B5
:1007900071FF0C4C00250C4800F012FE0B48FFF7CF
:1007A000B5FF2378002BF6D009480A4940F6A57218
:1007B00000F0F2FB0028EED0034800F0F7FD2570B2
:1007C000E9E700BF7C0000208000002044000020FA
:1007D000980000209400002010B50446FFF712FF97
:1007E00070B1E378CF2B0BD1084B1A68084B1A6015
:1007F000084B1A7822B901221A70074800F0CCFD84
:1008000020463A21BDE81040FFF760BD9800002067
:10081000940000207C00002080000020C37810B5E8
:10082000E3B1144B4178DB688478DB43C3F30223E4
:10083000C3F1040291400F22DA4022400A430E4BDA
:1008400001781201CB18D2B283F800230378012279
:10085000590903F01F0312FA03F307E0037801229A
:10086000590903F01F0312FA03F32031024A42F838
:10087000213010BD00ED00E000E100E0837910B50B
:10088000002B29D01A4B01681C68CA4314401C6015
:100890005C6822405A60027902F1804202F582329D
:1008A00014682143116002689C68D1430C409C602D
:1008B000DC682140D9604179102906D1996811433B
:1008C0009960D9680A43DA6010BD01F1804303F5ED
:1008D000823319680A4308E00379016803F1804311
:1008E00003F582331A6822EA01021A6010BD00BFC4
:1008F00000040140054B1A685B69034004D01042B4
:100900000CBF0020012070471846704700040140CA
:10091000014B5861704700BF00040140CB7803F0E1
:100920000F02DB0648BF8B782DE9F0430E8848BFE5
:100930001A4316F0FF0F1FD0046800234FF0010880
:100940004FF00F0C08FA03F707EA0605BD420FD176
:100950009F000CFA07F924EA090412FA07F73C434E
:10096000CF78282F08BF456102D0482F08BF056106
:100970000133082BE6D104600E88FF2E21D944688C
:1009800000234FF001084FF00F0C03F1080708FA9D
:1009900007F707EA0605BD420FD19F000CFA07F9D9
:1009A00024EA090412FA07F73C43CF78282F08BF3E
:1009B000456102D0482F08BF05610133082BE4D1FF
:1009C0004460BDE8F083000030B501F003028908FF
:1009D000094B0231920053F821500F24944025EA2C
:1009E000040443F8214053F8214010FA02F2224354
:1009F00043F8212030BD00BF00000140034B5A687E
:100A000022F0F00210435860704700BF001002400F
:100A100010B51E4B5A6802F00C02042A01D0082AB5
:100A200002D01B4B036011E05A685968C2F383423D
:100A30000232C90358BF174B06D5DB6A144903F0CD
:100A40000F030133B1FBF3F35A4302600F4B12491A
:100A50005A680468C2F303128A5C34FA02F24260F4
:100A60005C68C4F302240C5D32FA04F484605C68B0
:100A7000C4F3C224095DCA40C2605B680749C3F37E
:100A80008133CB5CB2FBF3F2026110BD0010024077
:100A900000127A0000093D00040000200000002040
:100AA000044B9A6909B1104301E022EA0000986101
:100AB000704700BF00100240044BDA6909B11043CF
:100AC00001E022EA0000D861704700BF0010024038
:100AD000044BDA6809B1104301E022EA0000D86053
:100AE000704700BF00100240044B1A6909B110435F
:100AF00001E022EA00001861704700BF00100240C8
:100B000008B5154B98420BD101214FF48050FFF7E7
:100B1000DFFF4FF480500021BDE80840FFF7D8BF49
:100B20000E4B984207D14FF480400121FFF7DCFFC4
:100B30004FF4804009E00A4B98420BD14FF400403B
:100B40000121FFF7D1FF4FF400400021BDE808402C
:100B5000FFF7CABF08BD00BF0030014000380040A9
:100B6000003C00400B88028810B54C8823438C88D9
:100B70002343CC8823430C8923434C8923438C890A
:100B80002343CC8902F44152234313439BB2038095
:100B9000838B23F400631B041B0C83830B8A038267
:100BA00010BD038819B19BB243F0400303E023F06A
:100BB00040031B041B0C0380704700002B4A038872
:100BC000C2EB000CDCF1000230B5294C42EB0C0208
:100BD000A04208BF42F001029BB2C2B9A0F1804519
:100BE0006C4244EB0504234DA84208BF44F00104C5
:100BF0006CB9214CC4EB000CDCF1000444EB0C0498
:100C000005F50065A84208BF44F001041CB14C88FA
:100C100023F070032343194C194D041B18BF012402
:100C2000A8420CBF002404F0010424B123F4407353
:100C3000CC889BB2234303808B8883850B880385F4
:100C40007AB9104B104AC3EB000CDCF1000343EB04
:100C50000C03904208BF43F0010313B90B4B9842B9
:100C600001D10B7A03860123838230BD002C014021
:100C70000034014000040040000800400010004023
:100C80000014004000400140004401400048014081
:100C9000038819B19BB243F0010303E023F0010381
:100CA0001B041B0C0380704783899BB20AB1194354
:100CB00001E023EA010181817047C94389B20182C1
:100CC0007047C94389B201827047000030B5038A7A
:100CD000CA8823F440531B041B0C0D4613430382A4
:100CE00083890989AA8823F4B0530A43698923F0C8
:100CF0000C030A431B041B0C92B213438381838AA7
:100D0000AA8923F440731B041B0C87B013430446C9
:100D1000838201A8FFF77CFE174BA2899C420CBF7F
:100D2000049B039B12B2002A4FF019012A6801FBB1
:100D300003F101DA520000E092006423B1FBF2F10A
:100D4000B1FBF3F21201100903FB1011A08900B2EC
:100D5000002806DAC9003231B1FBF3F303F00703D0
:100D600005E009013231B1FBF3F303F00F031A433D
:100D700092B2228107B030BD00380140838919B199
:100D80009BB243F4005303E023F400531B041B0CF9
:100D900083817047C905C90D818070470388194256
:100DA0000CBF002001207047002103E00B4B5B5873
:100DB000435004310A480B4B42189A42F6D30A4A70
:100DC00002E0002342F8043B084B9A42F9D300F0BA
:100DD00011F8FFF727FAFFF7D9FC704790140008C5
:100DE0000000002028000020280000209C00002097
:100DF000FEE70000104B1A6842F001021A605968C1
:100E00000E4A0A405A601A6822F0847222F4803234
:100E10001A601A6822F480221A605A6822F4FE02CC
:100E20005A604FF41F029A600022DA62044B4FF0BE
:100E300000629A60704700BF001002400000FFF897
:100E400000ED00E0144A154B516801F00C01042933
:100E500001D0082902D0124A1A6011E05168506886
:100E6000C1F383410231C00358BF0E4A06D5D26A8E
:100E70000B4802F00F020132B0FBF2F2514319604D
:100E8000054B094A5B68C3F30313D25C034B196833
:100E900031FA02F21A60704700100240240000206C
:100EA00000127A0000093D0014000020184B73B5B1
:100EB000044604209C420D4616460ED003F580637E
:100EC00008209C4209D003F5806310209C4204D086
:100ED000104884420CBF20200020A6F11C0253427F
:100EE00043EB0203182E08BF43F001030BB140F09F
:100EF00001000121FFF7D4FD0323204601A98DF84D
:100F00000630ADF804508DF80760FFF707FD7CBD93
:100F1000000801400014014030B585B001241C23B5
:100F2000002503A88DF80C308DF80D408DF80E507B
:100F30008DF80F40FFF772FC20462146FFF7BCFDFD
:100F40006422ADF80420124AADF802501168114A2B
:100F5000ADF80650B1FBF2F2013A69464FF080401D
:100F6000ADF800208DF80850FFF728FE21464FF01D
:100F70008040FFF78DFE21464FF08040FFF79DFE39
:100F80004FF0804021462246FFF78EFE05B030BD6F
:100F900024000020A086010003680868181A904207
:100FA00002D30B600120704700207047054B1A6880
:100FB00042F21073B2FBF3F359430B460139002B95
:100FC000FBD170472400002008B54FF0804001217C
:100FD000FFF777FE024B1A6801321A6008BD00BFA6
:100FE0009800002010B5012186B04FF48040FFF733
:100FF00057FD05200121FFF753FD18238DF8173009
:101000004FF40073ADF8143005A903230F488DF891
:1010100016300F4CFFF782FC4FF416530193002358
:10102000ADF80830ADF80A30ADF80C30ADF810303E
:101030002046082301A9ADF80E30FFF747FE2046F1
:101040000121FFF79BFE06B010BD00BF0008014064
:1010500000380140014608B50448FFF79BFE0348ED
:101060004021FFF79BFE0028F9D008BD0038014061
:10107000092802D83030C0B270473730C0B270474C
:1010800010F07F4310B504460BD0000FFFF7F0FFC0
:10109000FFF7E0FFC4F30360FFF7EAFFFFF7DAFFB3
:1010A000012314F47F0F00D163B1C4F30350FFF7A1
:1010B000DFFFFFF7CFFFC4F30340FFF7D9FFFFF7D0
:1010C000C9FF012314F47F4F00D15BB1C4F3033097
:1010D000FFF7CEFFFFF7BEFFC4F30320FFF7C8FF03
:1010E000FFF7B8FFC4F30310FFF7C2FFFFF7B2FF2B
:1010F00004F00F00FFF7BCFFBDE81040FFF7AABFE8
:1011000070B5134D06460FCD8AB001AC0FC40FCD9C
:101110000FC42B682360002423460DE00130C0B2C9
:10112000B61A9642FAD2302800D113B1FFF792FFD7
:1011300001230434242C03D001AA3020A258F0E764
:101140003036F0B20AB0BDE87040FFF783BF00BF91
:1011500028140008002810B5044604DA2D20FFF7F3
:1011600079FF644202E02020FFF774FF2046BDE8CB
:101170001040FFF7C5BF10B5044601E0FFF76AFF56
:1011800014F8010B0028F9D110BD70B504460E46C5
:10119000002506E0605DFFF773FF2020FFF75AFF90
:1011A0000135B542F6D170BD0FB437B506AB53F873
:1011B000045B019305E0252805D1002C48D0FFF7FA
:1011C00049FF002445E0002C3FD0632804D1019B57
:1011D0001A1D01921878F2E7752806D1019B1A1D95
:1011E00018680192FFF78CFFEBE7692806D1019B95
:1011F0001A1D18680192FFF7ADFFE2E7582806D1E3
:10120000019B1A1D18680192FFF73AFFD9E7A0F178
:1012100073035C4244EB0304532808BF44F0010409
:1012200034B1019B1A1D01921868FFF7A4FFC8E7AB
:1012300048280ED1019B1A1D01921A46596852F88E
:10124000080B0192FFF7A1FF03E0FFF703FF00E0A7
:10125000012415F8010B0028ADD1BDE83E4004B0D3
:101260007047038A0A2B01D8512304E01A2B01D8B6
:10127000242300E00923436070470000F8B50125EE
:101280000446084615FA02F189B218221E469DF856
:101290002470FFF70BFE3D4BA6609E4205D14FF434
:1012A00000602946FFF7FCFB10E0B6F1804F04BF59
:1012B0002846014608D0364B02209E4203D0354BCB
:1012C0009E4203D104202946FFF7F6FBA3680121C3
:1012D000002219809A80BDF81C10BDF818201985CD
:1012E0009A852A4A934204BF4CF20001A3F84410A5
:1012F0009DF82020013A032A46D8DFE802F00211C7
:10130000203303F13402E2601A8B92B242F06002A1
:101310001A831A8C002F0CBF0127032792B21EE0FC
:1013200003F13802E2601A8B92B242F4C0421A838F
:101330001A8C002F0CBF1027302792B20FE003F158
:101340003C02E2609A8B92B242F060029A831A8C5D
:10135000002F0CBF4FF480774FF4407792B21743C1
:101360001F84F8BD03F14002E2609A8B92B242F40E
:10137000C0429A831A8C002F0CBF4FF480574FF451
:10138000405792B217431F84F8BD00BF002C0140A4
:10139000000400400008004002238374024B1B68D5
:1013A0000360FFF75EBF00BF980000200323837433
:1013B000024B1B680360FFF754BF00BF980000207A
:1013C000837C022B10B5044614D18368028A9B8D5E
:1013D0009BB29A4201D1012310E012486268214673
:1013E000FFF7DAFD00281CD0238AE268138001335E
:1013F000238211E0032B14D1038A0BB9A37410BD0F
:10140000084862682146FFF7C7FD50B1238AE268A9
:10141000013B9BB2238213802046BDE81040FFF7BA
:1014200020BF10BD9800002000CA9A3B00E1F505DE
:101430008096980040420F00A0860100102700000F
:10144000E8030000640000000A0000000D4F6C7704
:10145000656E2072656365697665720D005258206D
:101460006F76660D00545820756E64660D0000009E
:10147000F8B500BFF8BC08BC9E467047F8B500BF81
:08148000F8BC08BC9E46704751
:04148800F501000862
:04148C00D101000882
:101490000204060800000000010203040102030424
:1014A0000607080900000000000000000102030414
:0814B0000607080900127A008A
:0400000508000DA939
:00000001FF
