:100000000C942A000C943C000C943C000C943C0092
:100010000C943C000C943C000C943C000C943C0070
:100020000C943C000C943C000C943C000C943C0060
:100030000C943C000C943C000C943C000C943C0050
:100040000C943C000C943C000C9415020C94A403FA
:100050000C943C0011241FBECFE5D4E0DEBFCDBF21
:1000600010E0A0E6B0E001C01D92A238B107E1F7B0
:100070000E9413030C94BB030C940000D69AD798EB
:10008000DE9A80E690E00E94990310926500089540
:10009000809165008130B1F0813020F0823009F02C
:1000A0005BC027C080E690E067EE73E00E948303A8
:1000B000882309F451C0DE9887EC87B983EC86B9B0
:1000C00081E014C0369948C080E690E062E370E0B9
:1000D0000E948303882309F43FC083EC86B9109201
:1000E0006400109263001092620082E080936500C9
:1000F0000895369931C0809162008F5F80936200CD
:100100004FB7F89484B195B12091630030916400A9
:10011000820F931F90936400809363004FBF809180
:1001200062008830B8F016B817B8DE9A8091630084
:100130009091640023E0969587952A95E1F7909336
:100140006400809363001092650080E690E00E9456
:100150009903089583EC86B908955FB7F894C4981D
:10016000B699FECF80648FB9779BFECF8FB1FB012C
:1001700006C080818FB9779BFECF31968FB18E2FCD
:10018000861B8417B0F3C49A5FBF08952FB7F89405
:10019000C498B699FECF80648FB9779BFECF8FB19C
:1001A000FB0106C084918FB9779BFECF31968FB14A
:1001B0008E2F861B8417B0F3C49A2FBF08959C011D
:1001C000462F8FE3B9010E94AD000895482F292FD3
:1001D000C498B699FECF8FEF8FB9779BFECF8FB1C2
:1001E000842F922F9C01F90105C01FB8779BFECF89
:1001F0008FB181938E2F841B8617B8F3C49A08950C
:100200009FB7F894C498B699FECF80688FB9779B52
:10021000FECF8FB11FB8779BFECF8FB1C49A9FBF1F
:1002200008959FB7F894C498B699FECF8FB9779B7D
:10023000FECF8FB16FB9779BFECF8FB1C49A9FBFAE
:100240000895682F89E00E94110108959FB7F894DE
:10025000C498B699FECF8FB9779BFECF8FB1C49A61
:100260008077809366009FBF08951F93182F03C067
:1002700086E30E942601809166008823C9F78EE3F9
:10028000612F0E9411011F9108951F93182F03C021
:1002900086E30E942601809166008823C9F78AE0E0
:1002A000612F0E9411011F9108958BE066E00E946A
:1002B00011018CE060E00E9411018DE06CE00E9471
:1002C00011018EE06DE10E9411018FE069E80E944A
:1002D000110180E168EC0E94110181E163E90E9453
:1002E000110182E163E00E94110183E162EA0E9450
:1002F000110184E168EF0E9411018AE060E00E9430
:10030000110185E164E30E94110181E266E50E942A
:10031000110182E260E10E94110188E168E10E941E
:10032000110189E166E10E9411018AE16CE60E94F7
:1003300011018BE163E40E9411018CE160E40E94F1
:1003400011018DE161E90E94110183E269EE0E94D1
:10035000110184E26AE20E94110185E260E00E94DC
:10036000110186E26FE10E94110189E269E50E94B4
:1003700011018CE261E80E9411018DE265E30E94A7
:1003800011018EE26BE00E94110183E067E00E94A0
:10039000110180E06EE00E94110182E067E00E949E
:1003A000110187E06CE00E94110188E064E40E9482
:1003B000110186E064E00E9411018EE361E50E9474
:1003C000110186E167E00E94110187E160E00E946F
:1003D000110108958BB78F7D8BBF84B7806484BF74
:1003E0008AB780628ABF87B3837B87BB87B3806B02
:1003F00087BB88B38E6088BBC798C49A80E58DB9E7
:1004000081E08EB91092730080E30E9426018AE396
:100410000E9426010E9455018BB780628BBF089510
:100420008FB9779BFECF8FB108951F920F920FB6B1
:100430000F9211242F933F934F935F936F937F936A
:100440008F939F93AF93BF93EF93FF93D89A8BE7CC
:100450000E940001982F8823D9F0C498B699FECF46
:100460008FEF8FB9779BFECF8FB1E7E6F0E0292FB2
:1004700030E02E0F3F1F05C01FB8779BFECF8FB116
:100480008193E217F307C1F7C49A81E08093730068
:10049000FF91EF91BF91AF919F918F917F916F915C
:1004A0005F914F913F912F910F900FBE0F901F9032
:1004B0001895F89420916700309168004091690088
:1004C00050916A008091770090917800A091790016
:1004D000B0917A00281739074A075B0799F02093F3
:1004E0007700309378004093790050937A0082E04F
:1004F0000E944103AE9A81E08093760084E790E009
:100500000E9499037894089580917300882361F183
:1005100010927300F8942091670030916800409128
:10052000690050916A008091770090917800A091C5
:100530007900B0917A00281739074A075B0799F0CC
:1005400020937700309378004093790050937A009D
:1005500082E00E944103AE9A81E08093760084E7B6
:1005600090E00E94990378948DE30E942601809187
:100570006600803741F0813770F4882341F080367F
:1005800051F48AE301C08BE30E9426010895D898B4
:1005900084E30E942601089580916500882349F430
:1005A0008091630090916400815D924010F4AE9A56
:1005B000089580917600882361F084E790E063E6F7
:1005C00070E00E948303882381F010927600AE9839
:1005D000089584E790E06FED75E00E94830388231F
:1005E00021F081E080937600AE9A08958FE028E1B3
:1005F00030E00FB6F894A89521BD0FBE81BD80E80C
:1006000088B90E947B03A69AAE9A0E943B0382E0BF
:100610000E9441030E94EA018DE20E9445010E946E
:100620003E00789408952FE088E190E00FB6F894AA
:10063000A89581BD0FBE21BD80E888B90E947B03CB
:10064000A69AAE9A0E943B0382E00E9441030E9458
:10065000EA018DE20E9445010E943E00789481E00B
:100660008ABBA8950E9484020E94CC020E94480086
:100670000E944703F6CF949810927F0010927B005F
:100680000895853008F084E080937B000895809180
:100690007B00882379F180917F00813051F0813097
:1006A00018F0823039F510C08DE790E00E94990370
:1006B0001AC08DE790E062E170E00E948303882316
:1006C000C9F08C9882E011C08DE790E066E970E097
:1006D0000E948303882371F080917B008150809376
:1006E0007B00882329F08C9A81E080937F00089515
:1006F00010927F0008958AE083BF8DE78CBF89B791
:10070000826089BF0895FC018FB7F8942091800022
:10071000309181008FBF80819181A901481B590BC5
:100720004617570710F480E008953183208381E055
:100730000895FC012FB7F89480918000909181007A
:10074000918380832FBF08951F920F920FB60F924F
:1007500011248F939F938091800090918100019646
:1007600090938100809380009F918F910F900FBE96
:0A0770000F901F901895F894FFCF2A
:00000001FF
