:020000040800F2
:1000000000100020F904000841050008410500081F
:1000100041050008410500084105000800000000F6
:100020000000000000000000000000004105000882
:1000300041050008000000004105000841050008D6
:100040004105000841050008410500084105000878
:100050004105000841050008410500084105000868
:100060004105000841050008410500084105000858
:100070004105000841050008410500084105000848
:100080004105000841050008410500080000000086
:100090000000000000000000000000004105000812
:1000A0004105000841050008410500084105000818
:1000B0009D060008410500080000000041050008F9
:1000C0004105000800000000000000004105000894
:1000D0000000000041050008410500080000000084
:1000E0004105000841050008410500080000000026
:1000F0000000000000000000000000000000000000
:1001000000000000000000000000000000000000EF
:100110000000000000000000410500084105000843
:1001200000000000000000000000000000000000CF
:1001300000000000000000000000000000000000BF
:1001400000000000000000000000000000000000AF
:10015000000000000000000000000000000000009F
:10016000000000000000000000000000000000008F
:10017000000000000000000000000000000000007F
:10018000000000000000000000000000000000006F
:10019000000000000000000000000000000000005F
:1001A000000000000000000000000000000000004F
:1001B000000000000000000000000000000000003F
:1001C0000000000000000000000000005FF808F1DF
:1001D00010B5054C237833B9044B13B10448AFF381
:1001E00000800123237010BD0400002000000000E7
:1001F000B806000808B5064B1BB106480649AFF320
:1002000000800648036813B1054B03B1984708BD49
:1002100000000000B80600080800002004000020CC
:100220000000000070B50D4D0D4E761BB61006D0C7
:10023000002455F8043B01349847A642F9D1094DF2
:1002400000F03AFA084E761BB61006D0002455F896
:10025000043B01349847A642F9D170BDD00600088E
:10026000D0060008D0060008D406000870B50D4876
:100270000D4D00F0C5F90C484FF48061102200F0DC
:1002800089F94FF4806426462E6106484FF4E171E7
:1002900000F0F6F96C6103484FF4E17100F0F0F9F9
:1002A000F2E700BF20000020000C0140C37810B529
:1002B000E3B1144B4178DB688478DB43C3F302235A
:1002C000C3F1040291400F22DA4022400A430E4B50
:1002D00001781201CB18D2B283F8002303780122EF
:1002E000590903F01F0312FA03F307E00378012210
:1002F000590903F01F0312FA03F32031024A42F8AE
:10030000213010BD00ED00E000E100E0CB7803F00B
:100310000F02DB0648BF8B782DE9F0430E8848BFFB
:100320001A4316F0FF0F1FD0046800234FF0010896
:100330004FF00F0C08FA03F707EA0605BD420FD18C
:100340009F000CFA07F924EA090412FA07F73C4364
:10035000CF78282F08BF456102D0482F08BF05611C
:100360000133082BE6D104600E88FF2E21D94468A2
:1003700000234FF001084FF00F0C03F1080708FAB3
:1003800007F707EA0605BD420FD19F000CFA07F9EF
:1003900024EA090412FA07F73C43CF78282F08BF54
:1003A000456102D0482F08BF05610133082BE4D115
:1003B0004460BDE8F0830000044B9A6909B1104322
:1003C00001E022EA00009861704700BF001002407F
:1003D000044BDA6909B1104301E022EA0000D86158
:1003E000704700BF001002402B4A0388C2EB000C8C
:1003F000DCF1000230B5294C42EB0C02A04208BFF0
:1004000042F001029BB2C2B9A0F180456C4244EBBC
:100410000504234DA84208BF44F001046CB9214CE7
:10042000C4EB000CDCF1000444EB0C0405F50065A2
:10043000A84208BF44F001041CB14C8823F07003AB
:100440002343194C194D041B18BF0124A8420CBFAB
:10045000002404F0010424B123F44073CC889BB23F
:10046000234303808B8883850B8803857AB9104BDF
:10047000104AC3EB000CDCF1000343EB0C03904289
:1004800008BF43F0010313B90B4B984201D10B7A1B
:1004900003860123838230BD002C014000340140DB
:1004A000000400400008004000100040001400401C
:1004B000004001400044014000480140038819B158
:1004C0009BB243F0010303E023F001031B041B0C68
:1004D0000380704783899BB20AB1194301E023EA84
:1004E000010181817047C94389B201827047C943C4
:1004F00089B2018270470000002103E00B4B5B587A
:10050000435004310A480B4B42189A42F6D30A4A28
:1005100002E0002342F8043B084B9A42F9D300F072
:1005200011F8FFF77FFEFFF7A1FE7047D80600081D
:10053000000000200400002004000020240000200F
:10054000FEE70000104B1A6842F001021A60596879
:100550000E4A0A405A601A6822F0847222F48032ED
:100560001A601A6822F480221A605A6822F4FE0285
:100570005A604FF41F029A600022DA62044B4FF077
:1005800000629A60704700BF001002400000FFF850
:1005900000ED00E0184B73B5044604209C420D4664
:1005A00016460ED003F5806308209C4209D003F55F
:1005B000806310209C4204D0104884420CBF20204D
:1005C0000020A6F11C02534243EB0203182E08BF81
:1005D00043F001030BB140F001000121FFF7ECFEF5
:1005E0000323204601A98DF80630ADF804508DF89C
:1005F0000760FFF78BFE7CBD00080140001401403E
:1006000030B585B001241C23002503A88DF80C30DB
:100610008DF80D408DF80E508DF80F40FFF746FE17
:1006200020462146FFF7D4FE6422ADF80420124A8A
:10063000ADF802501168114AADF80650B1FBF2F264
:10064000013A69464FF08040ADF800208DF808501F
:10065000FFF7CAFE21464FF08040FFF72FFF2146EB
:100660004FF08040FFF73FFF4FF080402146224689
:10067000FFF730FF05B030BD00000020A08601006C
:10068000054B1A6842F21073B2FBF3F359430B4661
:100690000139002BFBD170470000002008B54FF056
:1006A00080400121FFF723FF024B1A6801321A60D4
:1006B00008BD00BF20000020F8B500BFF8BC08BC92
:1006C0009E467047F8B500BFF8BC08BC9E46704710
:0406D000F501000828
:0406D400D101000848
:0406D80000127A0092
:04000005080004F9F2
:00000001FF
